{
  "_format": "hh-sol-artifact-1",
  "contractName": "Implementation3",
  "sourceName": "contracts/openzeppelin-contracts/mocks/RegressionImplementation.sol",
  "abi": [
    {
      "inputs": [
        {
          "internalType": "uint256",
          "name": "_number",
          "type": "uint256"
        }
      ],
      "name": "getValue",
      "outputs": [
        {
          "internalType": "uint256",
          "name": "",
          "type": "uint256"
        }
      ],
      "stateMutability": "view",
      "type": "function"
    },
    {
      "inputs": [],
      "name": "initialize",
      "outputs": [],
      "stateMutability": "nonpayable",
      "type": "function"
    },
    {
      "inputs": [
        {
          "internalType": "uint256",
          "name": "_number",
          "type": "uint256"
        }
      ],
      "name": "setValue",
      "outputs": [],
      "stateMutability": "nonpayable",
      "type": "function"
    }
  ],
  "bytecode": "0x608060405234801561001057600080fd5b50610371806100206000396000f3fe608060405234801561001057600080fd5b50600436106100415760003560e01c80630ff4c9161461004657806355241077146100765780638129fc1c14610092575b600080fd5b610060600480360381019061005b91906101ab565b61009c565b60405161006d9190610269565b60405180910390f35b610090600480360381019061008b91906101ab565b6100b3565b005b61009a6100bd565b005b6000816001546100ac9190610295565b9050919050565b8060018190555050565b600060019054906101000a900460ff16806100e3575060008054906101000a900460ff16155b610122576040517f08c379a000000000000000000000000000000000000000000000000000000000815260040161011990610249565b60405180910390fd5b60008060019054906101000a900460ff161590508015610172576001600060016101000a81548160ff02191690831515021790555060016000806101000a81548160ff0219169083151502179055505b80156101935760008060016101000a81548160ff0219169083151502179055505b50565b6000813590506101a581610324565b92915050565b6000602082840312156101bd57600080fd5b60006101cb84828501610196565b91505092915050565b60006101e1602e83610284565b91507f496e697469616c697a61626c653a20636f6e747261637420697320616c72656160008301527f647920696e697469616c697a65640000000000000000000000000000000000006020830152604082019050919050565b610243816102eb565b82525050565b60006020820190508181036000830152610262816101d4565b9050919050565b600060208201905061027e600083018461023a565b92915050565b600082825260208201905092915050565b60006102a0826102eb565b91506102ab836102eb565b9250827fffffffffffffffffffffffffffffffffffffffffffffffffffffffffffffffff038211156102e0576102df6102f5565b5b828201905092915050565b6000819050919050565b7f4e487b7100000000000000000000000000000000000000000000000000000000600052601160045260246000fd5b61032d816102eb565b811461033857600080fd5b5056fea2646970667358221220501c36aa8c444b6ddcc7c7c95cab54c6989d4916d5ab54b3449f609fba750c2f64736f6c63430008000033",
  "linkReferences": {},
  "deployedLinkReferences": {}
}