{
  "contracts/MonFT.sol": {
    "MonFT": {
      "abi": [
        {
          "inputs": [
            {
              "internalType": "uint256",
              "name": "_numOptions",
              "type": "uint256"
            }
          ],
          "stateMutability": "nonpayable",
          "type": "constructor"
        },
        {
          "anonymous": false,
          "inputs": [
            {
              "indexed": true,
              "internalType": "address",
              "name": "owner",
              "type": "address"
            },
            {
              "indexed": true,
              "internalType": "address",
              "name": "approved",
              "type": "address"
            },
            {
              "indexed": true,
              "internalType": "uint256",
              "name": "tokenId",
              "type": "uint256"
            }
          ],
          "name": "Approval",
          "type": "event"
        },
        {
          "anonymous": false,
          "inputs": [
            {
              "indexed": true,
              "internalType": "address",
              "name": "owner",
              "type": "address"
            },
            {
              "indexed": true,
              "internalType": "address",
              "name": "operator",
              "type": "address"
            },
            {
              "indexed": false,
              "internalType": "bool",
              "name": "approved",
              "type": "bool"
            }
          ],
          "name": "ApprovalForAll",
          "type": "event"
        },
        {
          "anonymous": false,
          "inputs": [
            {
              "indexed": true,
              "internalType": "address",
              "name": "from",
              "type": "address"
            },
            {
              "indexed": true,
              "internalType": "address",
              "name": "to",
              "type": "address"
            },
            {
              "indexed": true,
              "internalType": "uint256",
              "name": "tokenId",
              "type": "uint256"
            }
          ],
          "name": "Transfer",
          "type": "event"
        },
        {
          "inputs": [
            {
              "internalType": "address",
              "name": "to",
              "type": "address"
            },
            {
              "internalType": "uint256",
              "name": "tokenId",
              "type": "uint256"
            }
          ],
          "name": "approve",
          "outputs": [],
          "stateMutability": "nonpayable",
          "type": "function"
        },
        {
          "inputs": [
            {
              "internalType": "address",
              "name": "owner",
              "type": "address"
            }
          ],
          "name": "balanceOf",
          "outputs": [
            {
              "internalType": "uint256",
              "name": "",
              "type": "uint256"
            }
          ],
          "stateMutability": "view",
          "type": "function"
        },
        {
          "inputs": [],
          "name": "dnaLength",
          "outputs": [
            {
              "internalType": "uint256",
              "name": "",
              "type": "uint256"
            }
          ],
          "stateMutability": "view",
          "type": "function"
        },
        {
          "inputs": [
            {
              "internalType": "uint256",
              "name": "",
              "type": "uint256"
            }
          ],
          "name": "dnaSequences",
          "outputs": [
            {
              "internalType": "uint256",
              "name": "arms",
              "type": "uint256"
            },
            {
              "internalType": "uint256",
              "name": "body",
              "type": "uint256"
            },
            {
              "internalType": "uint256",
              "name": "ears",
              "type": "uint256"
            },
            {
              "internalType": "uint256",
              "name": "eyes",
              "type": "uint256"
            },
            {
              "internalType": "uint256",
              "name": "legs",
              "type": "uint256"
            },
            {
              "internalType": "uint256",
              "name": "nose",
              "type": "uint256"
            },
            {
              "internalType": "uint256",
              "name": "mouth",
              "type": "uint256"
            },
            {
              "internalType": "uint256",
              "name": "wings",
              "type": "uint256"
            },
            {
              "internalType": "uint256",
              "name": "mutations",
              "type": "uint256"
            }
          ],
          "stateMutability": "view",
          "type": "function"
        },
        {
          "inputs": [],
          "name": "generateRandomNumber",
          "outputs": [
            {
              "internalType": "uint256",
              "name": "",
              "type": "uint256"
            }
          ],
          "stateMutability": "view",
          "type": "function"
        },
        {
          "inputs": [
            {
              "internalType": "uint256",
              "name": "tokenId",
              "type": "uint256"
            }
          ],
          "name": "getApproved",
          "outputs": [
            {
              "internalType": "address",
              "name": "",
              "type": "address"
            }
          ],
          "stateMutability": "view",
          "type": "function"
        },
        {
          "inputs": [
            {
              "internalType": "uint256",
              "name": "tokenId",
              "type": "uint256"
            }
          ],
          "name": "getBodyData",
          "outputs": [
            {
              "internalType": "uint256",
              "name": "",
              "type": "uint256"
            },
            {
              "internalType": "uint256",
              "name": "",
              "type": "uint256"
            },
            {
              "internalType": "uint256",
              "name": "",
              "type": "uint256"
            },
            {
              "internalType": "uint256",
              "name": "",
              "type": "uint256"
            }
          ],
          "stateMutability": "view",
          "type": "function"
        },
        {
          "inputs": [
            {
              "internalType": "uint256",
              "name": "tokenId",
              "type": "uint256"
            }
          ],
          "name": "getFaceData",
          "outputs": [
            {
              "internalType": "uint256",
              "name": "",
              "type": "uint256"
            },
            {
              "internalType": "uint256",
              "name": "",
              "type": "uint256"
            },
            {
              "internalType": "uint256",
              "name": "",
              "type": "uint256"
            },
            {
              "internalType": "uint256",
              "name": "",
              "type": "uint256"
            }
          ],
          "stateMutability": "view",
          "type": "function"
        },
        {
          "inputs": [
            {
              "internalType": "uint256",
              "name": "tokenId",
              "type": "uint256"
            }
          ],
          "name": "initializeDna",
          "outputs": [],
          "stateMutability": "nonpayable",
          "type": "function"
        },
        {
          "inputs": [
            {
              "internalType": "address",
              "name": "owner",
              "type": "address"
            },
            {
              "internalType": "address",
              "name": "operator",
              "type": "address"
            }
          ],
          "name": "isApprovedForAll",
          "outputs": [
            {
              "internalType": "bool",
              "name": "",
              "type": "bool"
            }
          ],
          "stateMutability": "view",
          "type": "function"
        },
        {
          "inputs": [],
          "name": "mintMon",
          "outputs": [
            {
              "internalType": "uint256",
              "name": "",
              "type": "uint256"
            }
          ],
          "stateMutability": "nonpayable",
          "type": "function"
        },
        {
          "inputs": [],
          "name": "name",
          "outputs": [
            {
              "internalType": "string",
              "name": "",
              "type": "string"
            }
          ],
          "stateMutability": "view",
          "type": "function"
        },
        {
          "inputs": [],
          "name": "numOptions",
          "outputs": [
            {
              "internalType": "uint256",
              "name": "",
              "type": "uint256"
            }
          ],
          "stateMutability": "view",
          "type": "function"
        },
        {
          "inputs": [
            {
              "internalType": "uint256",
              "name": "tokenId",
              "type": "uint256"
            }
          ],
          "name": "ownerOf",
          "outputs": [
            {
              "internalType": "address",
              "name": "",
              "type": "address"
            }
          ],
          "stateMutability": "view",
          "type": "function"
        },
        {
          "inputs": [
            {
              "internalType": "address",
              "name": "from",
              "type": "address"
            },
            {
              "internalType": "address",
              "name": "to",
              "type": "address"
            },
            {
              "internalType": "uint256",
              "name": "tokenId",
              "type": "uint256"
            }
          ],
          "name": "safeTransferFrom",
          "outputs": [],
          "stateMutability": "nonpayable",
          "type": "function"
        },
        {
          "inputs": [
            {
              "internalType": "address",
              "name": "from",
              "type": "address"
            },
            {
              "internalType": "address",
              "name": "to",
              "type": "address"
            },
            {
              "internalType": "uint256",
              "name": "tokenId",
              "type": "uint256"
            },
            {
              "internalType": "bytes",
              "name": "_data",
              "type": "bytes"
            }
          ],
          "name": "safeTransferFrom",
          "outputs": [],
          "stateMutability": "nonpayable",
          "type": "function"
        },
        {
          "inputs": [
            {
              "internalType": "address",
              "name": "operator",
              "type": "address"
            },
            {
              "internalType": "bool",
              "name": "approved",
              "type": "bool"
            }
          ],
          "name": "setApprovalForAll",
          "outputs": [],
          "stateMutability": "nonpayable",
          "type": "function"
        },
        {
          "inputs": [
            {
              "internalType": "bytes4",
              "name": "interfaceId",
              "type": "bytes4"
            }
          ],
          "name": "supportsInterface",
          "outputs": [
            {
              "internalType": "bool",
              "name": "",
              "type": "bool"
            }
          ],
          "stateMutability": "view",
          "type": "function"
        },
        {
          "inputs": [],
          "name": "symbol",
          "outputs": [
            {
              "internalType": "string",
              "name": "",
              "type": "string"
            }
          ],
          "stateMutability": "view",
          "type": "function"
        },
        {
          "inputs": [
            {
              "internalType": "uint256",
              "name": "tokenId",
              "type": "uint256"
            }
          ],
          "name": "tokenURI",
          "outputs": [
            {
              "internalType": "string",
              "name": "",
              "type": "string"
            }
          ],
          "stateMutability": "view",
          "type": "function"
        },
        {
          "inputs": [
            {
              "internalType": "address",
              "name": "from",
              "type": "address"
            },
            {
              "internalType": "address",
              "name": "to",
              "type": "address"
            },
            {
              "internalType": "uint256",
              "name": "tokenId",
              "type": "uint256"
            }
          ],
          "name": "transferFrom",
          "outputs": [],
          "stateMutability": "nonpayable",
          "type": "function"
        }
      ],
      "evm": {
        "bytecode": {
          "linkReferences": {},
          "object": "60806040523480156200001157600080fd5b5060405162002d8538038062002d858339818101604052810190620000379190620001ac565b6040518060400160405280600581526020017f4d6f6e46540000000000000000000000000000000000000000000000000000008152506040518060400160405280600381526020017f4d465400000000000000000000000000000000000000000000000000000000008152508160009080519060200190620000bb929190620000e5565b508060019080519060200190620000d4929190620000e5565b505050806008819055505062000261565b828054620000f390620001e2565b90600052602060002090601f01602090048101928262000117576000855562000163565b82601f106200013257805160ff191683800117855562000163565b8280016001018555821562000163579182015b828111156200016257825182559160200191906001019062000145565b5b50905062000172919062000176565b5090565b5b808211156200019157600081600090555060010162000177565b5090565b600081519050620001a68162000247565b92915050565b600060208284031215620001bf57600080fd5b6000620001cf8482850162000195565b91505092915050565b6000819050919050565b60006002820490506001821680620001fb57607f821691505b6020821081141562000212576200021162000218565b5b50919050565b7f4e487b7100000000000000000000000000000000000000000000000000000000600052602260045260246000fd5b6200025281620001d8565b81146200025e57600080fd5b50565b612b1480620002716000396000f3fe608060405234801561001057600080fd5b50600436106101375760003560e01c806370a08231116100b8578063b88d4fde1161007c578063b88d4fde1461036d578063c87b56dd14610389578063c9efaea4146103b9578063db5cc181146103d7578063e985e9c51461040a578063fe1df35c1461043a57610137565b806370a08231146102c7578063773a1154146102f7578063956d17781461031557806395d89b4114610333578063a22cb4651461035157610137565b80632236e18b116100ff5780632236e18b1461020e57806323b872dd1461024157806342842e0e1461025d5780634b97aed9146102795780636352211e1461029757610137565b806301ffc9a71461013c578063052016d61461016c57806306fdde03146101a4578063081812fc146101c2578063095ea7b3146101f2575b600080fd5b61015660048036038101906101519190611c7d565b610456565b60405161016391906123cf565b60405180910390f35b61018660048036038101906101819190611ccf565b610538565b60405161019b9998979695949392919061262c565b60405180910390f35b6101ac610586565b6040516101b991906123ea565b60405180910390f35b6101dc60048036038101906101d79190611ccf565b610618565b6040516101e99190612368565b60405180910390f35b61020c60048036038101906102079190611c41565b61069d565b005b61022860048036038101906102239190611ccf565b6107b5565b60405161023894939291906125e7565b60405180910390f35b61025b60048036038101906102569190611b3b565b610826565b005b61027760048036038101906102729190611b3b565b610886565b005b6102816108a6565b60405161028e91906125cc565b60405180910390f35b6102b160048036038101906102ac9190611ccf565b6108ac565b6040516102be9190612368565b60405180910390f35b6102e160048036038101906102dc9190611ad6565b61095e565b6040516102ee91906125cc565b60405180910390f35b6102ff610a16565b60405161030c91906125cc565b60405180910390f35b61031d610a5b565b60405161032a91906125cc565b60405180910390f35b61033b610a61565b60405161034891906123ea565b60405180910390f35b61036b60048036038101906103669190611c05565b610af3565b005b61038760048036038101906103829190611b8a565b610c74565b005b6103a3600480360381019061039e9190611ccf565b610cd6565b6040516103b091906123ea565b60405180910390f35b6103c1610d7d565b6040516103ce91906125cc565b60405180910390f35b6103f160048036038101906103ec9190611ccf565b610db1565b60405161040194939291906125e7565b60405180910390f35b610424600480360381019061041f9190611aff565b610e22565b60405161043191906123cf565b60405180910390f35b610454600480360381019061044f9190611ccf565b610eb6565b005b60007f80ac58cd000000000000000000000000000000000000000000000000000000007bffffffffffffffffffffffffffffffffffffffffffffffffffffffff1916827bffffffffffffffffffffffffffffffffffffffffffffffffffffffff1916148061052157507f5b5e139f000000000000000000000000000000000000000000000000000000007bffffffffffffffffffffffffffffffffffffffffffffffffffffffff1916827bffffffffffffffffffffffffffffffffffffffffffffffffffffffff1916145b80610531575061053082610f73565b5b9050919050565b60096020528060005260406000206000915090508060000154908060010154908060020154908060030154908060040154908060050154908060060154908060070154908060080154905089565b606060008054610595906128ce565b80601f01602080910402602001604051908101604052809291908181526020018280546105c1906128ce565b801561060e5780601f106105e35761010080835404028352916020019161060e565b820191906000526020600020905b8154815290600101906020018083116105f157829003601f168201915b5050505050905090565b600061062382610fdd565b610662576040517f08c379a00000000000000000000000000000000000000000000000000000000081526004016106599061252c565b60405180910390fd5b6004600083815260200190815260200160002060009054906101000a900473ffffffffffffffffffffffffffffffffffffffff169050919050565b60006106a8826108ac565b90508073ffffffffffffffffffffffffffffffffffffffff168373ffffffffffffffffffffffffffffffffffffffff161415610719576040517f08c379a00000000000000000000000000000000000000000000000000000000081526004016107109061258c565b60405180910390fd5b8073ffffffffffffffffffffffffffffffffffffffff16610738611049565b73ffffffffffffffffffffffffffffffffffffffff161480610767575061076681610761611049565b610e22565b5b6107a6576040517f08c379a000000000000000000000000000000000000000000000000000000000815260040161079d906124ac565b60405180910390fd5b6107b08383611051565b505050565b600080600080600960008681526020019081526020016000206002015460096000878152602001908152602001600020600301546009600088815260200190815260200160002060050154600960008981526020019081526020016000206006015493509350935093509193509193565b610837610831611049565b8261110a565b610876576040517f08c379a000000000000000000000000000000000000000000000000000000000815260040161086d906125ac565b60405180910390fd5b6108818383836111e8565b505050565b6108a183838360405180602001604052806000815250610c74565b505050565b60085481565b6000806002600084815260200190815260200160002060009054906101000a900473ffffffffffffffffffffffffffffffffffffffff169050600073ffffffffffffffffffffffffffffffffffffffff168173ffffffffffffffffffffffffffffffffffffffff161415610955576040517f08c379a000000000000000000000000000000000000000000000000000000000815260040161094c906124ec565b60405180910390fd5b80915050919050565b60008073ffffffffffffffffffffffffffffffffffffffff168273ffffffffffffffffffffffffffffffffffffffff1614156109cf576040517f08c379a00000000000000000000000000000000000000000000000000000000081526004016109c6906124cc565b60405180910390fd5b600360008373ffffffffffffffffffffffffffffffffffffffff1673ffffffffffffffffffffffffffffffffffffffff168152602001908152602001600020549050919050565b6000806008544233604051602001610a2f92919061233c565b6040516020818303038152906040528051906020012060001c610a529190612977565b90508091505090565b60075481565b606060018054610a70906128ce565b80601f0160208091040260200160405190810160405280929190818152602001828054610a9c906128ce565b8015610ae95780601f10610abe57610100808354040283529160200191610ae9565b820191906000526020600020905b815481529060010190602001808311610acc57829003601f168201915b5050505050905090565b610afb611049565b73ffffffffffffffffffffffffffffffffffffffff168273ffffffffffffffffffffffffffffffffffffffff161415610b69576040517f08c379a0000000000000000000000000000000000000000000000000000000008152600401610b609061246c565b60405180910390fd5b8060056000610b76611049565b73ffffffffffffffffffffffffffffffffffffffff1673ffffffffffffffffffffffffffffffffffffffff16815260200190815260200160002060008473ffffffffffffffffffffffffffffffffffffffff1673ffffffffffffffffffffffffffffffffffffffff16815260200190815260200160002060006101000a81548160ff0219169083151502179055508173ffffffffffffffffffffffffffffffffffffffff16610c23611049565b73ffffffffffffffffffffffffffffffffffffffff167f17307eab39ab6107e8899845ad3d59bd9653f200f220920489ca2b5937696c3183604051610c6891906123cf565b60405180910390a35050565b610c85610c7f611049565b8361110a565b610cc4576040517f08c379a0000000000000000000000000000000000000000000000000000000008152600401610cbb906125ac565b60405180910390fd5b610cd084848484611444565b50505050565b6060610ce182610fdd565b610d20576040517f08c379a0000000000000000000000000000000000000000000000000000000008152600401610d179061256c565b60405180910390fd5b6000610d2a6114a0565b90506000815111610d4a5760405180602001604052806000815250610d75565b80610d54846114b7565b604051602001610d65929190612318565b6040516020818303038152906040525b915050919050565b6000610d896006611664565b6000610d95600661167a565b9050610da081610eb6565b610daa3382611688565b8091505090565b600080600080600960008681526020019081526020016000206000015460096000878152602001908152602001600020600101546009600088815260200190815260200160002060040154600960008981526020019081526020016000206007015493509350935093509193509193565b6000600560008473ffffffffffffffffffffffffffffffffffffffff1673ffffffffffffffffffffffffffffffffffffffff16815260200190815260200160002060008373ffffffffffffffffffffffffffffffffffffffff1673ffffffffffffffffffffffffffffffffffffffff16815260200190815260200160002060009054906101000a900460ff16905092915050565b6040518061012001604052806000815260200160018152602001600081526020016000815260200160008152602001600081526020016000815260200160008152602001600081525060096000838152602001908152602001600020600082015181600001556020820151816001015560408201518160020155606082015181600301556080820151816004015560a0820151816005015560c0820151816006015560e08201518160070155610100820151816008015590505050565b60007f01ffc9a7000000000000000000000000000000000000000000000000000000007bffffffffffffffffffffffffffffffffffffffffffffffffffffffff1916827bffffffffffffffffffffffffffffffffffffffffffffffffffffffff1916149050919050565b60008073ffffffffffffffffffffffffffffffffffffffff166002600084815260200190815260200160002060009054906101000a900473ffffffffffffffffffffffffffffffffffffffff1673ffffffffffffffffffffffffffffffffffffffff1614159050919050565b600033905090565b816004600083815260200190815260200160002060006101000a81548173ffffffffffffffffffffffffffffffffffffffff021916908373ffffffffffffffffffffffffffffffffffffffff160217905550808273ffffffffffffffffffffffffffffffffffffffff166110c4836108ac565b73ffffffffffffffffffffffffffffffffffffffff167f8c5be1e5ebec7d5bd14f71427d1e84f3dd0314c0f7b2291e5b200ac8c7c3b92560405160405180910390a45050565b600061111582610fdd565b611154576040517f08c379a000000000000000000000000000000000000000000000000000000000815260040161114b9061248c565b60405180910390fd5b600061115f836108ac565b90508073ffffffffffffffffffffffffffffffffffffffff168473ffffffffffffffffffffffffffffffffffffffff1614806111ce57508373ffffffffffffffffffffffffffffffffffffffff166111b684610618565b73ffffffffffffffffffffffffffffffffffffffff16145b806111df57506111de8185610e22565b5b91505092915050565b8273ffffffffffffffffffffffffffffffffffffffff16611208826108ac565b73ffffffffffffffffffffffffffffffffffffffff161461125e576040517f08c379a00000000000000000000000000000000000000000000000000000000081526004016112559061254c565b60405180910390fd5b600073ffffffffffffffffffffffffffffffffffffffff168273ffffffffffffffffffffffffffffffffffffffff1614156112ce576040517f08c379a00000000000000000000000000000000000000000000000000000000081526004016112c59061244c565b60405180910390fd5b6112d9838383611856565b6112e4600082611051565b6001600360008573ffffffffffffffffffffffffffffffffffffffff1673ffffffffffffffffffffffffffffffffffffffff168152602001908152602001600020600082825461133491906127e4565b925050819055506001600360008473ffffffffffffffffffffffffffffffffffffffff1673ffffffffffffffffffffffffffffffffffffffff168152602001908152602001600020600082825461138b919061275d565b92505081905550816002600083815260200190815260200160002060006101000a81548173ffffffffffffffffffffffffffffffffffffffff021916908373ffffffffffffffffffffffffffffffffffffffff160217905550808273ffffffffffffffffffffffffffffffffffffffff168473ffffffffffffffffffffffffffffffffffffffff167fddf252ad1be2c89b69c2b068fc378daa952ba7f163c4a11628f55a4df523b3ef60405160405180910390a4505050565b61144f8484846111e8565b61145b8484848461185b565b61149a576040517f08c379a00000000000000000000000000000000000000000000000000000000081526004016114919061240c565b60405180910390fd5b50505050565b606060405180602001604052806000815250905090565b606060008214156114ff576040518060400160405280600181526020017f3000000000000000000000000000000000000000000000000000000000000000815250905061165f565b600082905060005b6000821461153157808061151a90612900565b915050600a8261152a91906127b3565b9150611507565b60008167ffffffffffffffff811115611573577f4e487b7100000000000000000000000000000000000000000000000000000000600052604160045260246000fd5b6040519080825280601f01601f1916602001820160405280156115a55781602001600182028036833780820191505090505b5090505b60008514611658576001826115be91906127e4565b9150600a856115cd9190612977565b60306115d9919061275d565b60f81b818381518110611615577f4e487b7100000000000000000000000000000000000000000000000000000000600052603260045260246000fd5b60200101907effffffffffffffffffffffffffffffffffffffffffffffffffffffffffffff1916908160001a905350600a8561165191906127b3565b94506115a9565b8093505050505b919050565b6001816000016000828254019250508190555050565b600081600001549050919050565b600073ffffffffffffffffffffffffffffffffffffffff168273ffffffffffffffffffffffffffffffffffffffff1614156116f8576040517f08c379a00000000000000000000000000000000000000000000000000000000081526004016116ef9061250c565b60405180910390fd5b61170181610fdd565b15611741576040517f08c379a00000000000000000000000000000000000000000000000000000000081526004016117389061242c565b60405180910390fd5b61174d60008383611856565b6001600360008473ffffffffffffffffffffffffffffffffffffffff1673ffffffffffffffffffffffffffffffffffffffff168152602001908152602001600020600082825461179d919061275d565b92505081905550816002600083815260200190815260200160002060006101000a81548173ffffffffffffffffffffffffffffffffffffffff021916908373ffffffffffffffffffffffffffffffffffffffff160217905550808273ffffffffffffffffffffffffffffffffffffffff16600073ffffffffffffffffffffffffffffffffffffffff167fddf252ad1be2c89b69c2b068fc378daa952ba7f163c4a11628f55a4df523b3ef60405160405180910390a45050565b505050565b600061187c8473ffffffffffffffffffffffffffffffffffffffff166119f2565b156119e5578373ffffffffffffffffffffffffffffffffffffffff1663150b7a026118a5611049565b8786866040518563ffffffff1660e01b81526004016118c79493929190612383565b602060405180830381600087803b1580156118e157600080fd5b505af192505050801561191257506040513d601f19601f8201168201806040525081019061190f9190611ca6565b60015b611995573d8060008114611942576040519150601f19603f3d011682016040523d82523d6000602084013e611947565b606091505b5060008151141561198d576040517f08c379a00000000000000000000000000000000000000000000000000000000081526004016119849061240c565b60405180910390fd5b805181602001fd5b63150b7a0260e01b7bffffffffffffffffffffffffffffffffffffffffffffffffffffffff1916817bffffffffffffffffffffffffffffffffffffffffffffffffffffffff1916149150506119ea565b600190505b949350505050565b600080823b905060008111915050919050565b6000611a18611a13846126ea565b6126b9565b905082815260208101848484011115611a3057600080fd5b611a3b84828561288c565b509392505050565b600081359050611a5281612a82565b92915050565b600081359050611a6781612a99565b92915050565b600081359050611a7c81612ab0565b92915050565b600081519050611a9181612ab0565b92915050565b600082601f830112611aa857600080fd5b8135611ab8848260208601611a05565b91505092915050565b600081359050611ad081612ac7565b92915050565b600060208284031215611ae857600080fd5b6000611af684828501611a43565b91505092915050565b60008060408385031215611b1257600080fd5b6000611b2085828601611a43565b9250506020611b3185828601611a43565b9150509250929050565b600080600060608486031215611b5057600080fd5b6000611b5e86828701611a43565b9350506020611b6f86828701611a43565b9250506040611b8086828701611ac1565b9150509250925092565b60008060008060808587031215611ba057600080fd5b6000611bae87828801611a43565b9450506020611bbf87828801611a43565b9350506040611bd087828801611ac1565b925050606085013567ffffffffffffffff811115611bed57600080fd5b611bf987828801611a97565b91505092959194509250565b60008060408385031215611c1857600080fd5b6000611c2685828601611a43565b9250506020611c3785828601611a58565b9150509250929050565b60008060408385031215611c5457600080fd5b6000611c6285828601611a43565b9250506020611c7385828601611ac1565b9150509250929050565b600060208284031215611c8f57600080fd5b6000611c9d84828501611a6d565b91505092915050565b600060208284031215611cb857600080fd5b6000611cc684828501611a82565b91505092915050565b600060208284031215611ce157600080fd5b6000611cef84828501611ac1565b91505092915050565b611d0181612818565b82525050565b611d18611d1382612818565b612949565b82525050565b611d278161282a565b82525050565b6000611d388261271a565b611d428185612730565b9350611d5281856020860161289b565b611d5b81612a64565b840191505092915050565b6000611d7182612725565b611d7b8185612741565b9350611d8b81856020860161289b565b611d9481612a64565b840191505092915050565b6000611daa82612725565b611db48185612752565b9350611dc481856020860161289b565b80840191505092915050565b6000611ddd603283612741565b91507f4552433732313a207472616e7366657220746f206e6f6e20455243373231526560008301527f63656976657220696d706c656d656e74657200000000000000000000000000006020830152604082019050919050565b6000611e43601c83612741565b91507f4552433732313a20746f6b656e20616c7265616479206d696e746564000000006000830152602082019050919050565b6000611e83602483612741565b91507f4552433732313a207472616e7366657220746f20746865207a65726f2061646460008301527f72657373000000000000000000000000000000000000000000000000000000006020830152604082019050919050565b6000611ee9601983612741565b91507f4552433732313a20617070726f766520746f2063616c6c6572000000000000006000830152602082019050919050565b6000611f29602c83612741565b91507f4552433732313a206f70657261746f7220717565727920666f72206e6f6e657860008301527f697374656e7420746f6b656e00000000000000000000000000000000000000006020830152604082019050919050565b6000611f8f603883612741565b91507f4552433732313a20617070726f76652063616c6c6572206973206e6f74206f7760008301527f6e6572206e6f7220617070726f76656420666f7220616c6c00000000000000006020830152604082019050919050565b6000611ff5602a83612741565b91507f4552433732313a2062616c616e636520717565727920666f7220746865207a6560008301527f726f2061646472657373000000000000000000000000000000000000000000006020830152604082019050919050565b600061205b602983612741565b91507f4552433732313a206f776e657220717565727920666f72206e6f6e657869737460008301527f656e7420746f6b656e00000000000000000000000000000000000000000000006020830152604082019050919050565b60006120c1602083612741565b91507f4552433732313a206d696e7420746f20746865207a65726f20616464726573736000830152602082019050919050565b6000612101602c83612741565b91507f4552433732313a20617070726f76656420717565727920666f72206e6f6e657860008301527f697374656e7420746f6b656e00000000000000000000000000000000000000006020830152604082019050919050565b6000612167602983612741565b91507f4552433732313a207472616e73666572206f6620746f6b656e2074686174206960008301527f73206e6f74206f776e00000000000000000000000000000000000000000000006020830152604082019050919050565b60006121cd602f83612741565b91507f4552433732314d657461646174613a2055524920717565727920666f72206e6f60008301527f6e6578697374656e7420746f6b656e00000000000000000000000000000000006020830152604082019050919050565b6000612233602183612741565b91507f4552433732313a20617070726f76616c20746f2063757272656e74206f776e6560008301527f72000000000000000000000000000000000000000000000000000000000000006020830152604082019050919050565b6000612299603183612741565b91507f4552433732313a207472616e736665722063616c6c6572206973206e6f74206f60008301527f776e6572206e6f7220617070726f7665640000000000000000000000000000006020830152604082019050919050565b6122fb81612882565b82525050565b61231261230d82612882565b61296d565b82525050565b60006123248285611d9f565b91506123308284611d9f565b91508190509392505050565b60006123488285612301565b6020820191506123588284611d07565b6014820191508190509392505050565b600060208201905061237d6000830184611cf8565b92915050565b60006080820190506123986000830187611cf8565b6123a56020830186611cf8565b6123b260408301856122f2565b81810360608301526123c48184611d2d565b905095945050505050565b60006020820190506123e46000830184611d1e565b92915050565b600060208201905081810360008301526124048184611d66565b905092915050565b6000602082019050818103600083015261242581611dd0565b9050919050565b6000602082019050818103600083015261244581611e36565b9050919050565b6000602082019050818103600083015261246581611e76565b9050919050565b6000602082019050818103600083015261248581611edc565b9050919050565b600060208201905081810360008301526124a581611f1c565b9050919050565b600060208201905081810360008301526124c581611f82565b9050919050565b600060208201905081810360008301526124e581611fe8565b9050919050565b600060208201905081810360008301526125058161204e565b9050919050565b60006020820190508181036000830152612525816120b4565b9050919050565b60006020820190508181036000830152612545816120f4565b9050919050565b600060208201905081810360008301526125658161215a565b9050919050565b60006020820190508181036000830152612585816121c0565b9050919050565b600060208201905081810360008301526125a581612226565b9050919050565b600060208201905081810360008301526125c58161228c565b9050919050565b60006020820190506125e160008301846122f2565b92915050565b60006080820190506125fc60008301876122f2565b61260960208301866122f2565b61261660408301856122f2565b61262360608301846122f2565b95945050505050565b600061012082019050612642600083018c6122f2565b61264f602083018b6122f2565b61265c604083018a6122f2565b61266960608301896122f2565b61267660808301886122f2565b61268360a08301876122f2565b61269060c08301866122f2565b61269d60e08301856122f2565b6126ab6101008301846122f2565b9a9950505050505050505050565b6000604051905081810181811067ffffffffffffffff821117156126e0576126df612a35565b5b8060405250919050565b600067ffffffffffffffff82111561270557612704612a35565b5b601f19601f8301169050602081019050919050565b600081519050919050565b600081519050919050565b600082825260208201905092915050565b600082825260208201905092915050565b600081905092915050565b600061276882612882565b915061277383612882565b9250827fffffffffffffffffffffffffffffffffffffffffffffffffffffffffffffffff038211156127a8576127a76129a8565b5b828201905092915050565b60006127be82612882565b91506127c983612882565b9250826127d9576127d86129d7565b5b828204905092915050565b60006127ef82612882565b91506127fa83612882565b92508282101561280d5761280c6129a8565b5b828203905092915050565b600061282382612862565b9050919050565b60008115159050919050565b60007fffffffff0000000000000000000000000000000000000000000000000000000082169050919050565b600073ffffffffffffffffffffffffffffffffffffffff82169050919050565b6000819050919050565b82818337600083830152505050565b60005b838110156128b957808201518184015260208101905061289e565b838111156128c8576000848401525b50505050565b600060028204905060018216806128e657607f821691505b602082108114156128fa576128f9612a06565b5b50919050565b600061290b82612882565b91507fffffffffffffffffffffffffffffffffffffffffffffffffffffffffffffffff82141561293e5761293d6129a8565b5b600182019050919050565b60006129548261295b565b9050919050565b600061296682612a75565b9050919050565b6000819050919050565b600061298282612882565b915061298d83612882565b92508261299d5761299c6129d7565b5b828206905092915050565b7f4e487b7100000000000000000000000000000000000000000000000000000000600052601160045260246000fd5b7f4e487b7100000000000000000000000000000000000000000000000000000000600052601260045260246000fd5b7f4e487b7100000000000000000000000000000000000000000000000000000000600052602260045260246000fd5b7f4e487b7100000000000000000000000000000000000000000000000000000000600052604160045260246000fd5b6000601f19601f8301169050919050565b60008160601b9050919050565b612a8b81612818565b8114612a9657600080fd5b50565b612aa28161282a565b8114612aad57600080fd5b50565b612ab981612836565b8114612ac457600080fd5b50565b612ad081612882565b8114612adb57600080fd5b5056fea264697066735822122043eff3dbaa1cad768a3a038a34baa814d3cae884b6fa185f5b724e66221b87b464736f6c63430008000033",
          "opcodes": "PUSH1 0x80 PUSH1 0x40 MSTORE CALLVALUE DUP1 ISZERO PUSH3 0x11 JUMPI PUSH1 0x0 DUP1 REVERT JUMPDEST POP PUSH1 0x40 MLOAD PUSH3 0x2D85 CODESIZE SUB DUP1 PUSH3 0x2D85 DUP4 CODECOPY DUP2 DUP2 ADD PUSH1 0x40 MSTORE DUP2 ADD SWAP1 PUSH3 0x37 SWAP2 SWAP1 PUSH3 0x1AC JUMP JUMPDEST PUSH1 0x40 MLOAD DUP1 PUSH1 0x40 ADD PUSH1 0x40 MSTORE DUP1 PUSH1 0x5 DUP2 MSTORE PUSH1 0x20 ADD PUSH32 0x4D6F6E4654000000000000000000000000000000000000000000000000000000 DUP2 MSTORE POP PUSH1 0x40 MLOAD DUP1 PUSH1 0x40 ADD PUSH1 0x40 MSTORE DUP1 PUSH1 0x3 DUP2 MSTORE PUSH1 0x20 ADD PUSH32 0x4D46540000000000000000000000000000000000000000000000000000000000 DUP2 MSTORE POP DUP2 PUSH1 0x0 SWAP1 DUP1 MLOAD SWAP1 PUSH1 0x20 ADD SWAP1 PUSH3 0xBB SWAP3 SWAP2 SWAP1 PUSH3 0xE5 JUMP JUMPDEST POP DUP1 PUSH1 0x1 SWAP1 DUP1 MLOAD SWAP1 PUSH1 0x20 ADD SWAP1 PUSH3 0xD4 SWAP3 SWAP2 SWAP1 PUSH3 0xE5 JUMP JUMPDEST POP POP POP DUP1 PUSH1 0x8 DUP2 SWAP1 SSTORE POP POP PUSH3 0x261 JUMP JUMPDEST DUP3 DUP1 SLOAD PUSH3 0xF3 SWAP1 PUSH3 0x1E2 JUMP JUMPDEST SWAP1 PUSH1 0x0 MSTORE PUSH1 0x20 PUSH1 0x0 KECCAK256 SWAP1 PUSH1 0x1F ADD PUSH1 0x20 SWAP1 DIV DUP2 ADD SWAP3 DUP3 PUSH3 0x117 JUMPI PUSH1 0x0 DUP6 SSTORE PUSH3 0x163 JUMP JUMPDEST DUP3 PUSH1 0x1F LT PUSH3 0x132 JUMPI DUP1 MLOAD PUSH1 0xFF NOT AND DUP4 DUP1 ADD OR DUP6 SSTORE PUSH3 0x163 JUMP JUMPDEST DUP3 DUP1 ADD PUSH1 0x1 ADD DUP6 SSTORE DUP3 ISZERO PUSH3 0x163 JUMPI SWAP2 DUP3 ADD JUMPDEST DUP3 DUP2 GT ISZERO PUSH3 0x162 JUMPI DUP3 MLOAD DUP3 SSTORE SWAP2 PUSH1 0x20 ADD SWAP2 SWAP1 PUSH1 0x1 ADD SWAP1 PUSH3 0x145 JUMP JUMPDEST JUMPDEST POP SWAP1 POP PUSH3 0x172 SWAP2 SWAP1 PUSH3 0x176 JUMP JUMPDEST POP SWAP1 JUMP JUMPDEST JUMPDEST DUP1 DUP3 GT ISZERO PUSH3 0x191 JUMPI PUSH1 0x0 DUP2 PUSH1 0x0 SWAP1 SSTORE POP PUSH1 0x1 ADD PUSH3 0x177 JUMP JUMPDEST POP SWAP1 JUMP JUMPDEST PUSH1 0x0 DUP2 MLOAD SWAP1 POP PUSH3 0x1A6 DUP2 PUSH3 0x247 JUMP JUMPDEST SWAP3 SWAP2 POP POP JUMP JUMPDEST PUSH1 0x0 PUSH1 0x20 DUP3 DUP5 SUB SLT ISZERO PUSH3 0x1BF JUMPI PUSH1 0x0 DUP1 REVERT JUMPDEST PUSH1 0x0 PUSH3 0x1CF DUP5 DUP3 DUP6 ADD PUSH3 0x195 JUMP JUMPDEST SWAP2 POP POP SWAP3 SWAP2 POP POP JUMP JUMPDEST PUSH1 0x0 DUP2 SWAP1 POP SWAP2 SWAP1 POP JUMP JUMPDEST PUSH1 0x0 PUSH1 0x2 DUP3 DIV SWAP1 POP PUSH1 0x1 DUP3 AND DUP1 PUSH3 0x1FB JUMPI PUSH1 0x7F DUP3 AND SWAP2 POP JUMPDEST PUSH1 0x20 DUP3 LT DUP2 EQ ISZERO PUSH3 0x212 JUMPI PUSH3 0x211 PUSH3 0x218 JUMP JUMPDEST JUMPDEST POP SWAP2 SWAP1 POP JUMP JUMPDEST PUSH32 0x4E487B7100000000000000000000000000000000000000000000000000000000 PUSH1 0x0 MSTORE PUSH1 0x22 PUSH1 0x4 MSTORE PUSH1 0x24 PUSH1 0x0 REVERT JUMPDEST PUSH3 0x252 DUP2 PUSH3 0x1D8 JUMP JUMPDEST DUP2 EQ PUSH3 0x25E JUMPI PUSH1 0x0 DUP1 REVERT JUMPDEST POP JUMP JUMPDEST PUSH2 0x2B14 DUP1 PUSH3 0x271 PUSH1 0x0 CODECOPY PUSH1 0x0 RETURN INVALID PUSH1 0x80 PUSH1 0x40 MSTORE CALLVALUE DUP1 ISZERO PUSH2 0x10 JUMPI PUSH1 0x0 DUP1 REVERT JUMPDEST POP PUSH1 0x4 CALLDATASIZE LT PUSH2 0x137 JUMPI PUSH1 0x0 CALLDATALOAD PUSH1 0xE0 SHR DUP1 PUSH4 0x70A08231 GT PUSH2 0xB8 JUMPI DUP1 PUSH4 0xB88D4FDE GT PUSH2 0x7C JUMPI DUP1 PUSH4 0xB88D4FDE EQ PUSH2 0x36D JUMPI DUP1 PUSH4 0xC87B56DD EQ PUSH2 0x389 JUMPI DUP1 PUSH4 0xC9EFAEA4 EQ PUSH2 0x3B9 JUMPI DUP1 PUSH4 0xDB5CC181 EQ PUSH2 0x3D7 JUMPI DUP1 PUSH4 0xE985E9C5 EQ PUSH2 0x40A JUMPI DUP1 PUSH4 0xFE1DF35C EQ PUSH2 0x43A JUMPI PUSH2 0x137 JUMP JUMPDEST DUP1 PUSH4 0x70A08231 EQ PUSH2 0x2C7 JUMPI DUP1 PUSH4 0x773A1154 EQ PUSH2 0x2F7 JUMPI DUP1 PUSH4 0x956D1778 EQ PUSH2 0x315 JUMPI DUP1 PUSH4 0x95D89B41 EQ PUSH2 0x333 JUMPI DUP1 PUSH4 0xA22CB465 EQ PUSH2 0x351 JUMPI PUSH2 0x137 JUMP JUMPDEST DUP1 PUSH4 0x2236E18B GT PUSH2 0xFF JUMPI DUP1 PUSH4 0x2236E18B EQ PUSH2 0x20E JUMPI DUP1 PUSH4 0x23B872DD EQ PUSH2 0x241 JUMPI DUP1 PUSH4 0x42842E0E EQ PUSH2 0x25D JUMPI DUP1 PUSH4 0x4B97AED9 EQ PUSH2 0x279 JUMPI DUP1 PUSH4 0x6352211E EQ PUSH2 0x297 JUMPI PUSH2 0x137 JUMP JUMPDEST DUP1 PUSH4 0x1FFC9A7 EQ PUSH2 0x13C JUMPI DUP1 PUSH4 0x52016D6 EQ PUSH2 0x16C JUMPI DUP1 PUSH4 0x6FDDE03 EQ PUSH2 0x1A4 JUMPI DUP1 PUSH4 0x81812FC EQ PUSH2 0x1C2 JUMPI DUP1 PUSH4 0x95EA7B3 EQ PUSH2 0x1F2 JUMPI JUMPDEST PUSH1 0x0 DUP1 REVERT JUMPDEST PUSH2 0x156 PUSH1 0x4 DUP1 CALLDATASIZE SUB DUP2 ADD SWAP1 PUSH2 0x151 SWAP2 SWAP1 PUSH2 0x1C7D JUMP JUMPDEST PUSH2 0x456 JUMP JUMPDEST PUSH1 0x40 MLOAD PUSH2 0x163 SWAP2 SWAP1 PUSH2 0x23CF JUMP JUMPDEST PUSH1 0x40 MLOAD DUP1 SWAP2 SUB SWAP1 RETURN JUMPDEST PUSH2 0x186 PUSH1 0x4 DUP1 CALLDATASIZE SUB DUP2 ADD SWAP1 PUSH2 0x181 SWAP2 SWAP1 PUSH2 0x1CCF JUMP JUMPDEST PUSH2 0x538 JUMP JUMPDEST PUSH1 0x40 MLOAD PUSH2 0x19B SWAP10 SWAP9 SWAP8 SWAP7 SWAP6 SWAP5 SWAP4 SWAP3 SWAP2 SWAP1 PUSH2 0x262C JUMP JUMPDEST PUSH1 0x40 MLOAD DUP1 SWAP2 SUB SWAP1 RETURN JUMPDEST PUSH2 0x1AC PUSH2 0x586 JUMP JUMPDEST PUSH1 0x40 MLOAD PUSH2 0x1B9 SWAP2 SWAP1 PUSH2 0x23EA JUMP JUMPDEST PUSH1 0x40 MLOAD DUP1 SWAP2 SUB SWAP1 RETURN JUMPDEST PUSH2 0x1DC PUSH1 0x4 DUP1 CALLDATASIZE SUB DUP2 ADD SWAP1 PUSH2 0x1D7 SWAP2 SWAP1 PUSH2 0x1CCF JUMP JUMPDEST PUSH2 0x618 JUMP JUMPDEST PUSH1 0x40 MLOAD PUSH2 0x1E9 SWAP2 SWAP1 PUSH2 0x2368 JUMP JUMPDEST PUSH1 0x40 MLOAD DUP1 SWAP2 SUB SWAP1 RETURN JUMPDEST PUSH2 0x20C PUSH1 0x4 DUP1 CALLDATASIZE SUB DUP2 ADD SWAP1 PUSH2 0x207 SWAP2 SWAP1 PUSH2 0x1C41 JUMP JUMPDEST PUSH2 0x69D JUMP JUMPDEST STOP JUMPDEST PUSH2 0x228 PUSH1 0x4 DUP1 CALLDATASIZE SUB DUP2 ADD SWAP1 PUSH2 0x223 SWAP2 SWAP1 PUSH2 0x1CCF JUMP JUMPDEST PUSH2 0x7B5 JUMP JUMPDEST PUSH1 0x40 MLOAD PUSH2 0x238 SWAP5 SWAP4 SWAP3 SWAP2 SWAP1 PUSH2 0x25E7 JUMP JUMPDEST PUSH1 0x40 MLOAD DUP1 SWAP2 SUB SWAP1 RETURN JUMPDEST PUSH2 0x25B PUSH1 0x4 DUP1 CALLDATASIZE SUB DUP2 ADD SWAP1 PUSH2 0x256 SWAP2 SWAP1 PUSH2 0x1B3B JUMP JUMPDEST PUSH2 0x826 JUMP JUMPDEST STOP JUMPDEST PUSH2 0x277 PUSH1 0x4 DUP1 CALLDATASIZE SUB DUP2 ADD SWAP1 PUSH2 0x272 SWAP2 SWAP1 PUSH2 0x1B3B JUMP JUMPDEST PUSH2 0x886 JUMP JUMPDEST STOP JUMPDEST PUSH2 0x281 PUSH2 0x8A6 JUMP JUMPDEST PUSH1 0x40 MLOAD PUSH2 0x28E SWAP2 SWAP1 PUSH2 0x25CC JUMP JUMPDEST PUSH1 0x40 MLOAD DUP1 SWAP2 SUB SWAP1 RETURN JUMPDEST PUSH2 0x2B1 PUSH1 0x4 DUP1 CALLDATASIZE SUB DUP2 ADD SWAP1 PUSH2 0x2AC SWAP2 SWAP1 PUSH2 0x1CCF JUMP JUMPDEST PUSH2 0x8AC JUMP JUMPDEST PUSH1 0x40 MLOAD PUSH2 0x2BE SWAP2 SWAP1 PUSH2 0x2368 JUMP JUMPDEST PUSH1 0x40 MLOAD DUP1 SWAP2 SUB SWAP1 RETURN JUMPDEST PUSH2 0x2E1 PUSH1 0x4 DUP1 CALLDATASIZE SUB DUP2 ADD SWAP1 PUSH2 0x2DC SWAP2 SWAP1 PUSH2 0x1AD6 JUMP JUMPDEST PUSH2 0x95E JUMP JUMPDEST PUSH1 0x40 MLOAD PUSH2 0x2EE SWAP2 SWAP1 PUSH2 0x25CC JUMP JUMPDEST PUSH1 0x40 MLOAD DUP1 SWAP2 SUB SWAP1 RETURN JUMPDEST PUSH2 0x2FF PUSH2 0xA16 JUMP JUMPDEST PUSH1 0x40 MLOAD PUSH2 0x30C SWAP2 SWAP1 PUSH2 0x25CC JUMP JUMPDEST PUSH1 0x40 MLOAD DUP1 SWAP2 SUB SWAP1 RETURN JUMPDEST PUSH2 0x31D PUSH2 0xA5B JUMP JUMPDEST PUSH1 0x40 MLOAD PUSH2 0x32A SWAP2 SWAP1 PUSH2 0x25CC JUMP JUMPDEST PUSH1 0x40 MLOAD DUP1 SWAP2 SUB SWAP1 RETURN JUMPDEST PUSH2 0x33B PUSH2 0xA61 JUMP JUMPDEST PUSH1 0x40 MLOAD PUSH2 0x348 SWAP2 SWAP1 PUSH2 0x23EA JUMP JUMPDEST PUSH1 0x40 MLOAD DUP1 SWAP2 SUB SWAP1 RETURN JUMPDEST PUSH2 0x36B PUSH1 0x4 DUP1 CALLDATASIZE SUB DUP2 ADD SWAP1 PUSH2 0x366 SWAP2 SWAP1 PUSH2 0x1C05 JUMP JUMPDEST PUSH2 0xAF3 JUMP JUMPDEST STOP JUMPDEST PUSH2 0x387 PUSH1 0x4 DUP1 CALLDATASIZE SUB DUP2 ADD SWAP1 PUSH2 0x382 SWAP2 SWAP1 PUSH2 0x1B8A JUMP JUMPDEST PUSH2 0xC74 JUMP JUMPDEST STOP JUMPDEST PUSH2 0x3A3 PUSH1 0x4 DUP1 CALLDATASIZE SUB DUP2 ADD SWAP1 PUSH2 0x39E SWAP2 SWAP1 PUSH2 0x1CCF JUMP JUMPDEST PUSH2 0xCD6 JUMP JUMPDEST PUSH1 0x40 MLOAD PUSH2 0x3B0 SWAP2 SWAP1 PUSH2 0x23EA JUMP JUMPDEST PUSH1 0x40 MLOAD DUP1 SWAP2 SUB SWAP1 RETURN JUMPDEST PUSH2 0x3C1 PUSH2 0xD7D JUMP JUMPDEST PUSH1 0x40 MLOAD PUSH2 0x3CE SWAP2 SWAP1 PUSH2 0x25CC JUMP JUMPDEST PUSH1 0x40 MLOAD DUP1 SWAP2 SUB SWAP1 RETURN JUMPDEST PUSH2 0x3F1 PUSH1 0x4 DUP1 CALLDATASIZE SUB DUP2 ADD SWAP1 PUSH2 0x3EC SWAP2 SWAP1 PUSH2 0x1CCF JUMP JUMPDEST PUSH2 0xDB1 JUMP JUMPDEST PUSH1 0x40 MLOAD PUSH2 0x401 SWAP5 SWAP4 SWAP3 SWAP2 SWAP1 PUSH2 0x25E7 JUMP JUMPDEST PUSH1 0x40 MLOAD DUP1 SWAP2 SUB SWAP1 RETURN JUMPDEST PUSH2 0x424 PUSH1 0x4 DUP1 CALLDATASIZE SUB DUP2 ADD SWAP1 PUSH2 0x41F SWAP2 SWAP1 PUSH2 0x1AFF JUMP JUMPDEST PUSH2 0xE22 JUMP JUMPDEST PUSH1 0x40 MLOAD PUSH2 0x431 SWAP2 SWAP1 PUSH2 0x23CF JUMP JUMPDEST PUSH1 0x40 MLOAD DUP1 SWAP2 SUB SWAP1 RETURN JUMPDEST PUSH2 0x454 PUSH1 0x4 DUP1 CALLDATASIZE SUB DUP2 ADD SWAP1 PUSH2 0x44F SWAP2 SWAP1 PUSH2 0x1CCF JUMP JUMPDEST PUSH2 0xEB6 JUMP JUMPDEST STOP JUMPDEST PUSH1 0x0 PUSH32 0x80AC58CD00000000000000000000000000000000000000000000000000000000 PUSH28 0xFFFFFFFFFFFFFFFFFFFFFFFFFFFFFFFFFFFFFFFFFFFFFFFFFFFFFFFF NOT AND DUP3 PUSH28 0xFFFFFFFFFFFFFFFFFFFFFFFFFFFFFFFFFFFFFFFFFFFFFFFFFFFFFFFF NOT AND EQ DUP1 PUSH2 0x521 JUMPI POP PUSH32 0x5B5E139F00000000000000000000000000000000000000000000000000000000 PUSH28 0xFFFFFFFFFFFFFFFFFFFFFFFFFFFFFFFFFFFFFFFFFFFFFFFFFFFFFFFF NOT AND DUP3 PUSH28 0xFFFFFFFFFFFFFFFFFFFFFFFFFFFFFFFFFFFFFFFFFFFFFFFFFFFFFFFF NOT AND EQ JUMPDEST DUP1 PUSH2 0x531 JUMPI POP PUSH2 0x530 DUP3 PUSH2 0xF73 JUMP JUMPDEST JUMPDEST SWAP1 POP SWAP2 SWAP1 POP JUMP JUMPDEST PUSH1 0x9 PUSH1 0x20 MSTORE DUP1 PUSH1 0x0 MSTORE PUSH1 0x40 PUSH1 0x0 KECCAK256 PUSH1 0x0 SWAP2 POP SWAP1 POP DUP1 PUSH1 0x0 ADD SLOAD SWAP1 DUP1 PUSH1 0x1 ADD SLOAD SWAP1 DUP1 PUSH1 0x2 ADD SLOAD SWAP1 DUP1 PUSH1 0x3 ADD SLOAD SWAP1 DUP1 PUSH1 0x4 ADD SLOAD SWAP1 DUP1 PUSH1 0x5 ADD SLOAD SWAP1 DUP1 PUSH1 0x6 ADD SLOAD SWAP1 DUP1 PUSH1 0x7 ADD SLOAD SWAP1 DUP1 PUSH1 0x8 ADD SLOAD SWAP1 POP DUP10 JUMP JUMPDEST PUSH1 0x60 PUSH1 0x0 DUP1 SLOAD PUSH2 0x595 SWAP1 PUSH2 0x28CE JUMP JUMPDEST DUP1 PUSH1 0x1F ADD PUSH1 0x20 DUP1 SWAP2 DIV MUL PUSH1 0x20 ADD PUSH1 0x40 MLOAD SWAP1 DUP2 ADD PUSH1 0x40 MSTORE DUP1 SWAP3 SWAP2 SWAP1 DUP2 DUP2 MSTORE PUSH1 0x20 ADD DUP3 DUP1 SLOAD PUSH2 0x5C1 SWAP1 PUSH2 0x28CE JUMP JUMPDEST DUP1 ISZERO PUSH2 0x60E JUMPI DUP1 PUSH1 0x1F LT PUSH2 0x5E3 JUMPI PUSH2 0x100 DUP1 DUP4 SLOAD DIV MUL DUP4 MSTORE SWAP2 PUSH1 0x20 ADD SWAP2 PUSH2 0x60E JUMP JUMPDEST DUP3 ADD SWAP2 SWAP1 PUSH1 0x0 MSTORE PUSH1 0x20 PUSH1 0x0 KECCAK256 SWAP1 JUMPDEST DUP2 SLOAD DUP2 MSTORE SWAP1 PUSH1 0x1 ADD SWAP1 PUSH1 0x20 ADD DUP1 DUP4 GT PUSH2 0x5F1 JUMPI DUP3 SWAP1 SUB PUSH1 0x1F AND DUP3 ADD SWAP2 JUMPDEST POP POP POP POP POP SWAP1 POP SWAP1 JUMP JUMPDEST PUSH1 0x0 PUSH2 0x623 DUP3 PUSH2 0xFDD JUMP JUMPDEST PUSH2 0x662 JUMPI PUSH1 0x40 MLOAD PUSH32 0x8C379A000000000000000000000000000000000000000000000000000000000 DUP2 MSTORE PUSH1 0x4 ADD PUSH2 0x659 SWAP1 PUSH2 0x252C JUMP JUMPDEST PUSH1 0x40 MLOAD DUP1 SWAP2 SUB SWAP1 REVERT JUMPDEST PUSH1 0x4 PUSH1 0x0 DUP4 DUP2 MSTORE PUSH1 0x20 ADD SWAP1 DUP2 MSTORE PUSH1 0x20 ADD PUSH1 0x0 KECCAK256 PUSH1 0x0 SWAP1 SLOAD SWAP1 PUSH2 0x100 EXP SWAP1 DIV PUSH20 0xFFFFFFFFFFFFFFFFFFFFFFFFFFFFFFFFFFFFFFFF AND SWAP1 POP SWAP2 SWAP1 POP JUMP JUMPDEST PUSH1 0x0 PUSH2 0x6A8 DUP3 PUSH2 0x8AC JUMP JUMPDEST SWAP1 POP DUP1 PUSH20 0xFFFFFFFFFFFFFFFFFFFFFFFFFFFFFFFFFFFFFFFF AND DUP4 PUSH20 0xFFFFFFFFFFFFFFFFFFFFFFFFFFFFFFFFFFFFFFFF AND EQ ISZERO PUSH2 0x719 JUMPI PUSH1 0x40 MLOAD PUSH32 0x8C379A000000000000000000000000000000000000000000000000000000000 DUP2 MSTORE PUSH1 0x4 ADD PUSH2 0x710 SWAP1 PUSH2 0x258C JUMP JUMPDEST PUSH1 0x40 MLOAD DUP1 SWAP2 SUB SWAP1 REVERT JUMPDEST DUP1 PUSH20 0xFFFFFFFFFFFFFFFFFFFFFFFFFFFFFFFFFFFFFFFF AND PUSH2 0x738 PUSH2 0x1049 JUMP JUMPDEST PUSH20 0xFFFFFFFFFFFFFFFFFFFFFFFFFFFFFFFFFFFFFFFF AND EQ DUP1 PUSH2 0x767 JUMPI POP PUSH2 0x766 DUP2 PUSH2 0x761 PUSH2 0x1049 JUMP JUMPDEST PUSH2 0xE22 JUMP JUMPDEST JUMPDEST PUSH2 0x7A6 JUMPI PUSH1 0x40 MLOAD PUSH32 0x8C379A000000000000000000000000000000000000000000000000000000000 DUP2 MSTORE PUSH1 0x4 ADD PUSH2 0x79D SWAP1 PUSH2 0x24AC JUMP JUMPDEST PUSH1 0x40 MLOAD DUP1 SWAP2 SUB SWAP1 REVERT JUMPDEST PUSH2 0x7B0 DUP4 DUP4 PUSH2 0x1051 JUMP JUMPDEST POP POP POP JUMP JUMPDEST PUSH1 0x0 DUP1 PUSH1 0x0 DUP1 PUSH1 0x9 PUSH1 0x0 DUP7 DUP2 MSTORE PUSH1 0x20 ADD SWAP1 DUP2 MSTORE PUSH1 0x20 ADD PUSH1 0x0 KECCAK256 PUSH1 0x2 ADD SLOAD PUSH1 0x9 PUSH1 0x0 DUP8 DUP2 MSTORE PUSH1 0x20 ADD SWAP1 DUP2 MSTORE PUSH1 0x20 ADD PUSH1 0x0 KECCAK256 PUSH1 0x3 ADD SLOAD PUSH1 0x9 PUSH1 0x0 DUP9 DUP2 MSTORE PUSH1 0x20 ADD SWAP1 DUP2 MSTORE PUSH1 0x20 ADD PUSH1 0x0 KECCAK256 PUSH1 0x5 ADD SLOAD PUSH1 0x9 PUSH1 0x0 DUP10 DUP2 MSTORE PUSH1 0x20 ADD SWAP1 DUP2 MSTORE PUSH1 0x20 ADD PUSH1 0x0 KECCAK256 PUSH1 0x6 ADD SLOAD SWAP4 POP SWAP4 POP SWAP4 POP SWAP4 POP SWAP2 SWAP4 POP SWAP2 SWAP4 JUMP JUMPDEST PUSH2 0x837 PUSH2 0x831 PUSH2 0x1049 JUMP JUMPDEST DUP3 PUSH2 0x110A JUMP JUMPDEST PUSH2 0x876 JUMPI PUSH1 0x40 MLOAD PUSH32 0x8C379A000000000000000000000000000000000000000000000000000000000 DUP2 MSTORE PUSH1 0x4 ADD PUSH2 0x86D SWAP1 PUSH2 0x25AC JUMP JUMPDEST PUSH1 0x40 MLOAD DUP1 SWAP2 SUB SWAP1 REVERT JUMPDEST PUSH2 0x881 DUP4 DUP4 DUP4 PUSH2 0x11E8 JUMP JUMPDEST POP POP POP JUMP JUMPDEST PUSH2 0x8A1 DUP4 DUP4 DUP4 PUSH1 0x40 MLOAD DUP1 PUSH1 0x20 ADD PUSH1 0x40 MSTORE DUP1 PUSH1 0x0 DUP2 MSTORE POP PUSH2 0xC74 JUMP JUMPDEST POP POP POP JUMP JUMPDEST PUSH1 0x8 SLOAD DUP2 JUMP JUMPDEST PUSH1 0x0 DUP1 PUSH1 0x2 PUSH1 0x0 DUP5 DUP2 MSTORE PUSH1 0x20 ADD SWAP1 DUP2 MSTORE PUSH1 0x20 ADD PUSH1 0x0 KECCAK256 PUSH1 0x0 SWAP1 SLOAD SWAP1 PUSH2 0x100 EXP SWAP1 DIV PUSH20 0xFFFFFFFFFFFFFFFFFFFFFFFFFFFFFFFFFFFFFFFF AND SWAP1 POP PUSH1 0x0 PUSH20 0xFFFFFFFFFFFFFFFFFFFFFFFFFFFFFFFFFFFFFFFF AND DUP2 PUSH20 0xFFFFFFFFFFFFFFFFFFFFFFFFFFFFFFFFFFFFFFFF AND EQ ISZERO PUSH2 0x955 JUMPI PUSH1 0x40 MLOAD PUSH32 0x8C379A000000000000000000000000000000000000000000000000000000000 DUP2 MSTORE PUSH1 0x4 ADD PUSH2 0x94C SWAP1 PUSH2 0x24EC JUMP JUMPDEST PUSH1 0x40 MLOAD DUP1 SWAP2 SUB SWAP1 REVERT JUMPDEST DUP1 SWAP2 POP POP SWAP2 SWAP1 POP JUMP JUMPDEST PUSH1 0x0 DUP1 PUSH20 0xFFFFFFFFFFFFFFFFFFFFFFFFFFFFFFFFFFFFFFFF AND DUP3 PUSH20 0xFFFFFFFFFFFFFFFFFFFFFFFFFFFFFFFFFFFFFFFF AND EQ ISZERO PUSH2 0x9CF JUMPI PUSH1 0x40 MLOAD PUSH32 0x8C379A000000000000000000000000000000000000000000000000000000000 DUP2 MSTORE PUSH1 0x4 ADD PUSH2 0x9C6 SWAP1 PUSH2 0x24CC JUMP JUMPDEST PUSH1 0x40 MLOAD DUP1 SWAP2 SUB SWAP1 REVERT JUMPDEST PUSH1 0x3 PUSH1 0x0 DUP4 PUSH20 0xFFFFFFFFFFFFFFFFFFFFFFFFFFFFFFFFFFFFFFFF AND PUSH20 0xFFFFFFFFFFFFFFFFFFFFFFFFFFFFFFFFFFFFFFFF AND DUP2 MSTORE PUSH1 0x20 ADD SWAP1 DUP2 MSTORE PUSH1 0x20 ADD PUSH1 0x0 KECCAK256 SLOAD SWAP1 POP SWAP2 SWAP1 POP JUMP JUMPDEST PUSH1 0x0 DUP1 PUSH1 0x8 SLOAD TIMESTAMP CALLER PUSH1 0x40 MLOAD PUSH1 0x20 ADD PUSH2 0xA2F SWAP3 SWAP2 SWAP1 PUSH2 0x233C JUMP JUMPDEST PUSH1 0x40 MLOAD PUSH1 0x20 DUP2 DUP4 SUB SUB DUP2 MSTORE SWAP1 PUSH1 0x40 MSTORE DUP1 MLOAD SWAP1 PUSH1 0x20 ADD KECCAK256 PUSH1 0x0 SHR PUSH2 0xA52 SWAP2 SWAP1 PUSH2 0x2977 JUMP JUMPDEST SWAP1 POP DUP1 SWAP2 POP POP SWAP1 JUMP JUMPDEST PUSH1 0x7 SLOAD DUP2 JUMP JUMPDEST PUSH1 0x60 PUSH1 0x1 DUP1 SLOAD PUSH2 0xA70 SWAP1 PUSH2 0x28CE JUMP JUMPDEST DUP1 PUSH1 0x1F ADD PUSH1 0x20 DUP1 SWAP2 DIV MUL PUSH1 0x20 ADD PUSH1 0x40 MLOAD SWAP1 DUP2 ADD PUSH1 0x40 MSTORE DUP1 SWAP3 SWAP2 SWAP1 DUP2 DUP2 MSTORE PUSH1 0x20 ADD DUP3 DUP1 SLOAD PUSH2 0xA9C SWAP1 PUSH2 0x28CE JUMP JUMPDEST DUP1 ISZERO PUSH2 0xAE9 JUMPI DUP1 PUSH1 0x1F LT PUSH2 0xABE JUMPI PUSH2 0x100 DUP1 DUP4 SLOAD DIV MUL DUP4 MSTORE SWAP2 PUSH1 0x20 ADD SWAP2 PUSH2 0xAE9 JUMP JUMPDEST DUP3 ADD SWAP2 SWAP1 PUSH1 0x0 MSTORE PUSH1 0x20 PUSH1 0x0 KECCAK256 SWAP1 JUMPDEST DUP2 SLOAD DUP2 MSTORE SWAP1 PUSH1 0x1 ADD SWAP1 PUSH1 0x20 ADD DUP1 DUP4 GT PUSH2 0xACC JUMPI DUP3 SWAP1 SUB PUSH1 0x1F AND DUP3 ADD SWAP2 JUMPDEST POP POP POP POP POP SWAP1 POP SWAP1 JUMP JUMPDEST PUSH2 0xAFB PUSH2 0x1049 JUMP JUMPDEST PUSH20 0xFFFFFFFFFFFFFFFFFFFFFFFFFFFFFFFFFFFFFFFF AND DUP3 PUSH20 0xFFFFFFFFFFFFFFFFFFFFFFFFFFFFFFFFFFFFFFFF AND EQ ISZERO PUSH2 0xB69 JUMPI PUSH1 0x40 MLOAD PUSH32 0x8C379A000000000000000000000000000000000000000000000000000000000 DUP2 MSTORE PUSH1 0x4 ADD PUSH2 0xB60 SWAP1 PUSH2 0x246C JUMP JUMPDEST PUSH1 0x40 MLOAD DUP1 SWAP2 SUB SWAP1 REVERT JUMPDEST DUP1 PUSH1 0x5 PUSH1 0x0 PUSH2 0xB76 PUSH2 0x1049 JUMP JUMPDEST PUSH20 0xFFFFFFFFFFFFFFFFFFFFFFFFFFFFFFFFFFFFFFFF AND PUSH20 0xFFFFFFFFFFFFFFFFFFFFFFFFFFFFFFFFFFFFFFFF AND DUP2 MSTORE PUSH1 0x20 ADD SWAP1 DUP2 MSTORE PUSH1 0x20 ADD PUSH1 0x0 KECCAK256 PUSH1 0x0 DUP5 PUSH20 0xFFFFFFFFFFFFFFFFFFFFFFFFFFFFFFFFFFFFFFFF AND PUSH20 0xFFFFFFFFFFFFFFFFFFFFFFFFFFFFFFFFFFFFFFFF AND DUP2 MSTORE PUSH1 0x20 ADD SWAP1 DUP2 MSTORE PUSH1 0x20 ADD PUSH1 0x0 KECCAK256 PUSH1 0x0 PUSH2 0x100 EXP DUP2 SLOAD DUP2 PUSH1 0xFF MUL NOT AND SWAP1 DUP4 ISZERO ISZERO MUL OR SWAP1 SSTORE POP DUP2 PUSH20 0xFFFFFFFFFFFFFFFFFFFFFFFFFFFFFFFFFFFFFFFF AND PUSH2 0xC23 PUSH2 0x1049 JUMP JUMPDEST PUSH20 0xFFFFFFFFFFFFFFFFFFFFFFFFFFFFFFFFFFFFFFFF AND PUSH32 0x17307EAB39AB6107E8899845AD3D59BD9653F200F220920489CA2B5937696C31 DUP4 PUSH1 0x40 MLOAD PUSH2 0xC68 SWAP2 SWAP1 PUSH2 0x23CF JUMP JUMPDEST PUSH1 0x40 MLOAD DUP1 SWAP2 SUB SWAP1 LOG3 POP POP JUMP JUMPDEST PUSH2 0xC85 PUSH2 0xC7F PUSH2 0x1049 JUMP JUMPDEST DUP4 PUSH2 0x110A JUMP JUMPDEST PUSH2 0xCC4 JUMPI PUSH1 0x40 MLOAD PUSH32 0x8C379A000000000000000000000000000000000000000000000000000000000 DUP2 MSTORE PUSH1 0x4 ADD PUSH2 0xCBB SWAP1 PUSH2 0x25AC JUMP JUMPDEST PUSH1 0x40 MLOAD DUP1 SWAP2 SUB SWAP1 REVERT JUMPDEST PUSH2 0xCD0 DUP5 DUP5 DUP5 DUP5 PUSH2 0x1444 JUMP JUMPDEST POP POP POP POP JUMP JUMPDEST PUSH1 0x60 PUSH2 0xCE1 DUP3 PUSH2 0xFDD JUMP JUMPDEST PUSH2 0xD20 JUMPI PUSH1 0x40 MLOAD PUSH32 0x8C379A000000000000000000000000000000000000000000000000000000000 DUP2 MSTORE PUSH1 0x4 ADD PUSH2 0xD17 SWAP1 PUSH2 0x256C JUMP JUMPDEST PUSH1 0x40 MLOAD DUP1 SWAP2 SUB SWAP1 REVERT JUMPDEST PUSH1 0x0 PUSH2 0xD2A PUSH2 0x14A0 JUMP JUMPDEST SWAP1 POP PUSH1 0x0 DUP2 MLOAD GT PUSH2 0xD4A JUMPI PUSH1 0x40 MLOAD DUP1 PUSH1 0x20 ADD PUSH1 0x40 MSTORE DUP1 PUSH1 0x0 DUP2 MSTORE POP PUSH2 0xD75 JUMP JUMPDEST DUP1 PUSH2 0xD54 DUP5 PUSH2 0x14B7 JUMP JUMPDEST PUSH1 0x40 MLOAD PUSH1 0x20 ADD PUSH2 0xD65 SWAP3 SWAP2 SWAP1 PUSH2 0x2318 JUMP JUMPDEST PUSH1 0x40 MLOAD PUSH1 0x20 DUP2 DUP4 SUB SUB DUP2 MSTORE SWAP1 PUSH1 0x40 MSTORE JUMPDEST SWAP2 POP POP SWAP2 SWAP1 POP JUMP JUMPDEST PUSH1 0x0 PUSH2 0xD89 PUSH1 0x6 PUSH2 0x1664 JUMP JUMPDEST PUSH1 0x0 PUSH2 0xD95 PUSH1 0x6 PUSH2 0x167A JUMP JUMPDEST SWAP1 POP PUSH2 0xDA0 DUP2 PUSH2 0xEB6 JUMP JUMPDEST PUSH2 0xDAA CALLER DUP3 PUSH2 0x1688 JUMP JUMPDEST DUP1 SWAP2 POP POP SWAP1 JUMP JUMPDEST PUSH1 0x0 DUP1 PUSH1 0x0 DUP1 PUSH1 0x9 PUSH1 0x0 DUP7 DUP2 MSTORE PUSH1 0x20 ADD SWAP1 DUP2 MSTORE PUSH1 0x20 ADD PUSH1 0x0 KECCAK256 PUSH1 0x0 ADD SLOAD PUSH1 0x9 PUSH1 0x0 DUP8 DUP2 MSTORE PUSH1 0x20 ADD SWAP1 DUP2 MSTORE PUSH1 0x20 ADD PUSH1 0x0 KECCAK256 PUSH1 0x1 ADD SLOAD PUSH1 0x9 PUSH1 0x0 DUP9 DUP2 MSTORE PUSH1 0x20 ADD SWAP1 DUP2 MSTORE PUSH1 0x20 ADD PUSH1 0x0 KECCAK256 PUSH1 0x4 ADD SLOAD PUSH1 0x9 PUSH1 0x0 DUP10 DUP2 MSTORE PUSH1 0x20 ADD SWAP1 DUP2 MSTORE PUSH1 0x20 ADD PUSH1 0x0 KECCAK256 PUSH1 0x7 ADD SLOAD SWAP4 POP SWAP4 POP SWAP4 POP SWAP4 POP SWAP2 SWAP4 POP SWAP2 SWAP4 JUMP JUMPDEST PUSH1 0x0 PUSH1 0x5 PUSH1 0x0 DUP5 PUSH20 0xFFFFFFFFFFFFFFFFFFFFFFFFFFFFFFFFFFFFFFFF AND PUSH20 0xFFFFFFFFFFFFFFFFFFFFFFFFFFFFFFFFFFFFFFFF AND DUP2 MSTORE PUSH1 0x20 ADD SWAP1 DUP2 MSTORE PUSH1 0x20 ADD PUSH1 0x0 KECCAK256 PUSH1 0x0 DUP4 PUSH20 0xFFFFFFFFFFFFFFFFFFFFFFFFFFFFFFFFFFFFFFFF AND PUSH20 0xFFFFFFFFFFFFFFFFFFFFFFFFFFFFFFFFFFFFFFFF AND DUP2 MSTORE PUSH1 0x20 ADD SWAP1 DUP2 MSTORE PUSH1 0x20 ADD PUSH1 0x0 KECCAK256 PUSH1 0x0 SWAP1 SLOAD SWAP1 PUSH2 0x100 EXP SWAP1 DIV PUSH1 0xFF AND SWAP1 POP SWAP3 SWAP2 POP POP JUMP JUMPDEST PUSH1 0x40 MLOAD DUP1 PUSH2 0x120 ADD PUSH1 0x40 MSTORE DUP1 PUSH1 0x0 DUP2 MSTORE PUSH1 0x20 ADD PUSH1 0x1 DUP2 MSTORE PUSH1 0x20 ADD PUSH1 0x0 DUP2 MSTORE PUSH1 0x20 ADD PUSH1 0x0 DUP2 MSTORE PUSH1 0x20 ADD PUSH1 0x0 DUP2 MSTORE PUSH1 0x20 ADD PUSH1 0x0 DUP2 MSTORE PUSH1 0x20 ADD PUSH1 0x0 DUP2 MSTORE PUSH1 0x20 ADD PUSH1 0x0 DUP2 MSTORE PUSH1 0x20 ADD PUSH1 0x0 DUP2 MSTORE POP PUSH1 0x9 PUSH1 0x0 DUP4 DUP2 MSTORE PUSH1 0x20 ADD SWAP1 DUP2 MSTORE PUSH1 0x20 ADD PUSH1 0x0 KECCAK256 PUSH1 0x0 DUP3 ADD MLOAD DUP2 PUSH1 0x0 ADD SSTORE PUSH1 0x20 DUP3 ADD MLOAD DUP2 PUSH1 0x1 ADD SSTORE PUSH1 0x40 DUP3 ADD MLOAD DUP2 PUSH1 0x2 ADD SSTORE PUSH1 0x60 DUP3 ADD MLOAD DUP2 PUSH1 0x3 ADD SSTORE PUSH1 0x80 DUP3 ADD MLOAD DUP2 PUSH1 0x4 ADD SSTORE PUSH1 0xA0 DUP3 ADD MLOAD DUP2 PUSH1 0x5 ADD SSTORE PUSH1 0xC0 DUP3 ADD MLOAD DUP2 PUSH1 0x6 ADD SSTORE PUSH1 0xE0 DUP3 ADD MLOAD DUP2 PUSH1 0x7 ADD SSTORE PUSH2 0x100 DUP3 ADD MLOAD DUP2 PUSH1 0x8 ADD SSTORE SWAP1 POP POP POP JUMP JUMPDEST PUSH1 0x0 PUSH32 0x1FFC9A700000000000000000000000000000000000000000000000000000000 PUSH28 0xFFFFFFFFFFFFFFFFFFFFFFFFFFFFFFFFFFFFFFFFFFFFFFFFFFFFFFFF NOT AND DUP3 PUSH28 0xFFFFFFFFFFFFFFFFFFFFFFFFFFFFFFFFFFFFFFFFFFFFFFFFFFFFFFFF NOT AND EQ SWAP1 POP SWAP2 SWAP1 POP JUMP JUMPDEST PUSH1 0x0 DUP1 PUSH20 0xFFFFFFFFFFFFFFFFFFFFFFFFFFFFFFFFFFFFFFFF AND PUSH1 0x2 PUSH1 0x0 DUP5 DUP2 MSTORE PUSH1 0x20 ADD SWAP1 DUP2 MSTORE PUSH1 0x20 ADD PUSH1 0x0 KECCAK256 PUSH1 0x0 SWAP1 SLOAD SWAP1 PUSH2 0x100 EXP SWAP1 DIV PUSH20 0xFFFFFFFFFFFFFFFFFFFFFFFFFFFFFFFFFFFFFFFF AND PUSH20 0xFFFFFFFFFFFFFFFFFFFFFFFFFFFFFFFFFFFFFFFF AND EQ ISZERO SWAP1 POP SWAP2 SWAP1 POP JUMP JUMPDEST PUSH1 0x0 CALLER SWAP1 POP SWAP1 JUMP JUMPDEST DUP2 PUSH1 0x4 PUSH1 0x0 DUP4 DUP2 MSTORE PUSH1 0x20 ADD SWAP1 DUP2 MSTORE PUSH1 0x20 ADD PUSH1 0x0 KECCAK256 PUSH1 0x0 PUSH2 0x100 EXP DUP2 SLOAD DUP2 PUSH20 0xFFFFFFFFFFFFFFFFFFFFFFFFFFFFFFFFFFFFFFFF MUL NOT AND SWAP1 DUP4 PUSH20 0xFFFFFFFFFFFFFFFFFFFFFFFFFFFFFFFFFFFFFFFF AND MUL OR SWAP1 SSTORE POP DUP1 DUP3 PUSH20 0xFFFFFFFFFFFFFFFFFFFFFFFFFFFFFFFFFFFFFFFF AND PUSH2 0x10C4 DUP4 PUSH2 0x8AC JUMP JUMPDEST PUSH20 0xFFFFFFFFFFFFFFFFFFFFFFFFFFFFFFFFFFFFFFFF AND PUSH32 0x8C5BE1E5EBEC7D5BD14F71427D1E84F3DD0314C0F7B2291E5B200AC8C7C3B925 PUSH1 0x40 MLOAD PUSH1 0x40 MLOAD DUP1 SWAP2 SUB SWAP1 LOG4 POP POP JUMP JUMPDEST PUSH1 0x0 PUSH2 0x1115 DUP3 PUSH2 0xFDD JUMP JUMPDEST PUSH2 0x1154 JUMPI PUSH1 0x40 MLOAD PUSH32 0x8C379A000000000000000000000000000000000000000000000000000000000 DUP2 MSTORE PUSH1 0x4 ADD PUSH2 0x114B SWAP1 PUSH2 0x248C JUMP JUMPDEST PUSH1 0x40 MLOAD DUP1 SWAP2 SUB SWAP1 REVERT JUMPDEST PUSH1 0x0 PUSH2 0x115F DUP4 PUSH2 0x8AC JUMP JUMPDEST SWAP1 POP DUP1 PUSH20 0xFFFFFFFFFFFFFFFFFFFFFFFFFFFFFFFFFFFFFFFF AND DUP5 PUSH20 0xFFFFFFFFFFFFFFFFFFFFFFFFFFFFFFFFFFFFFFFF AND EQ DUP1 PUSH2 0x11CE JUMPI POP DUP4 PUSH20 0xFFFFFFFFFFFFFFFFFFFFFFFFFFFFFFFFFFFFFFFF AND PUSH2 0x11B6 DUP5 PUSH2 0x618 JUMP JUMPDEST PUSH20 0xFFFFFFFFFFFFFFFFFFFFFFFFFFFFFFFFFFFFFFFF AND EQ JUMPDEST DUP1 PUSH2 0x11DF JUMPI POP PUSH2 0x11DE DUP2 DUP6 PUSH2 0xE22 JUMP JUMPDEST JUMPDEST SWAP2 POP POP SWAP3 SWAP2 POP POP JUMP JUMPDEST DUP3 PUSH20 0xFFFFFFFFFFFFFFFFFFFFFFFFFFFFFFFFFFFFFFFF AND PUSH2 0x1208 DUP3 PUSH2 0x8AC JUMP JUMPDEST PUSH20 0xFFFFFFFFFFFFFFFFFFFFFFFFFFFFFFFFFFFFFFFF AND EQ PUSH2 0x125E JUMPI PUSH1 0x40 MLOAD PUSH32 0x8C379A000000000000000000000000000000000000000000000000000000000 DUP2 MSTORE PUSH1 0x4 ADD PUSH2 0x1255 SWAP1 PUSH2 0x254C JUMP JUMPDEST PUSH1 0x40 MLOAD DUP1 SWAP2 SUB SWAP1 REVERT JUMPDEST PUSH1 0x0 PUSH20 0xFFFFFFFFFFFFFFFFFFFFFFFFFFFFFFFFFFFFFFFF AND DUP3 PUSH20 0xFFFFFFFFFFFFFFFFFFFFFFFFFFFFFFFFFFFFFFFF AND EQ ISZERO PUSH2 0x12CE JUMPI PUSH1 0x40 MLOAD PUSH32 0x8C379A000000000000000000000000000000000000000000000000000000000 DUP2 MSTORE PUSH1 0x4 ADD PUSH2 0x12C5 SWAP1 PUSH2 0x244C JUMP JUMPDEST PUSH1 0x40 MLOAD DUP1 SWAP2 SUB SWAP1 REVERT JUMPDEST PUSH2 0x12D9 DUP4 DUP4 DUP4 PUSH2 0x1856 JUMP JUMPDEST PUSH2 0x12E4 PUSH1 0x0 DUP3 PUSH2 0x1051 JUMP JUMPDEST PUSH1 0x1 PUSH1 0x3 PUSH1 0x0 DUP6 PUSH20 0xFFFFFFFFFFFFFFFFFFFFFFFFFFFFFFFFFFFFFFFF AND PUSH20 0xFFFFFFFFFFFFFFFFFFFFFFFFFFFFFFFFFFFFFFFF AND DUP2 MSTORE PUSH1 0x20 ADD SWAP1 DUP2 MSTORE PUSH1 0x20 ADD PUSH1 0x0 KECCAK256 PUSH1 0x0 DUP3 DUP3 SLOAD PUSH2 0x1334 SWAP2 SWAP1 PUSH2 0x27E4 JUMP JUMPDEST SWAP3 POP POP DUP2 SWAP1 SSTORE POP PUSH1 0x1 PUSH1 0x3 PUSH1 0x0 DUP5 PUSH20 0xFFFFFFFFFFFFFFFFFFFFFFFFFFFFFFFFFFFFFFFF AND PUSH20 0xFFFFFFFFFFFFFFFFFFFFFFFFFFFFFFFFFFFFFFFF AND DUP2 MSTORE PUSH1 0x20 ADD SWAP1 DUP2 MSTORE PUSH1 0x20 ADD PUSH1 0x0 KECCAK256 PUSH1 0x0 DUP3 DUP3 SLOAD PUSH2 0x138B SWAP2 SWAP1 PUSH2 0x275D JUMP JUMPDEST SWAP3 POP POP DUP2 SWAP1 SSTORE POP DUP2 PUSH1 0x2 PUSH1 0x0 DUP4 DUP2 MSTORE PUSH1 0x20 ADD SWAP1 DUP2 MSTORE PUSH1 0x20 ADD PUSH1 0x0 KECCAK256 PUSH1 0x0 PUSH2 0x100 EXP DUP2 SLOAD DUP2 PUSH20 0xFFFFFFFFFFFFFFFFFFFFFFFFFFFFFFFFFFFFFFFF MUL NOT AND SWAP1 DUP4 PUSH20 0xFFFFFFFFFFFFFFFFFFFFFFFFFFFFFFFFFFFFFFFF AND MUL OR SWAP1 SSTORE POP DUP1 DUP3 PUSH20 0xFFFFFFFFFFFFFFFFFFFFFFFFFFFFFFFFFFFFFFFF AND DUP5 PUSH20 0xFFFFFFFFFFFFFFFFFFFFFFFFFFFFFFFFFFFFFFFF AND PUSH32 0xDDF252AD1BE2C89B69C2B068FC378DAA952BA7F163C4A11628F55A4DF523B3EF PUSH1 0x40 MLOAD PUSH1 0x40 MLOAD DUP1 SWAP2 SUB SWAP1 LOG4 POP POP POP JUMP JUMPDEST PUSH2 0x144F DUP5 DUP5 DUP5 PUSH2 0x11E8 JUMP JUMPDEST PUSH2 0x145B DUP5 DUP5 DUP5 DUP5 PUSH2 0x185B JUMP JUMPDEST PUSH2 0x149A JUMPI PUSH1 0x40 MLOAD PUSH32 0x8C379A000000000000000000000000000000000000000000000000000000000 DUP2 MSTORE PUSH1 0x4 ADD PUSH2 0x1491 SWAP1 PUSH2 0x240C JUMP JUMPDEST PUSH1 0x40 MLOAD DUP1 SWAP2 SUB SWAP1 REVERT JUMPDEST POP POP POP POP JUMP JUMPDEST PUSH1 0x60 PUSH1 0x40 MLOAD DUP1 PUSH1 0x20 ADD PUSH1 0x40 MSTORE DUP1 PUSH1 0x0 DUP2 MSTORE POP SWAP1 POP SWAP1 JUMP JUMPDEST PUSH1 0x60 PUSH1 0x0 DUP3 EQ ISZERO PUSH2 0x14FF JUMPI PUSH1 0x40 MLOAD DUP1 PUSH1 0x40 ADD PUSH1 0x40 MSTORE DUP1 PUSH1 0x1 DUP2 MSTORE PUSH1 0x20 ADD PUSH32 0x3000000000000000000000000000000000000000000000000000000000000000 DUP2 MSTORE POP SWAP1 POP PUSH2 0x165F JUMP JUMPDEST PUSH1 0x0 DUP3 SWAP1 POP PUSH1 0x0 JUMPDEST PUSH1 0x0 DUP3 EQ PUSH2 0x1531 JUMPI DUP1 DUP1 PUSH2 0x151A SWAP1 PUSH2 0x2900 JUMP JUMPDEST SWAP2 POP POP PUSH1 0xA DUP3 PUSH2 0x152A SWAP2 SWAP1 PUSH2 0x27B3 JUMP JUMPDEST SWAP2 POP PUSH2 0x1507 JUMP JUMPDEST PUSH1 0x0 DUP2 PUSH8 0xFFFFFFFFFFFFFFFF DUP2 GT ISZERO PUSH2 0x1573 JUMPI PUSH32 0x4E487B7100000000000000000000000000000000000000000000000000000000 PUSH1 0x0 MSTORE PUSH1 0x41 PUSH1 0x4 MSTORE PUSH1 0x24 PUSH1 0x0 REVERT JUMPDEST PUSH1 0x40 MLOAD SWAP1 DUP1 DUP3 MSTORE DUP1 PUSH1 0x1F ADD PUSH1 0x1F NOT AND PUSH1 0x20 ADD DUP3 ADD PUSH1 0x40 MSTORE DUP1 ISZERO PUSH2 0x15A5 JUMPI DUP2 PUSH1 0x20 ADD PUSH1 0x1 DUP3 MUL DUP1 CALLDATASIZE DUP4 CALLDATACOPY DUP1 DUP3 ADD SWAP2 POP POP SWAP1 POP JUMPDEST POP SWAP1 POP JUMPDEST PUSH1 0x0 DUP6 EQ PUSH2 0x1658 JUMPI PUSH1 0x1 DUP3 PUSH2 0x15BE SWAP2 SWAP1 PUSH2 0x27E4 JUMP JUMPDEST SWAP2 POP PUSH1 0xA DUP6 PUSH2 0x15CD SWAP2 SWAP1 PUSH2 0x2977 JUMP JUMPDEST PUSH1 0x30 PUSH2 0x15D9 SWAP2 SWAP1 PUSH2 0x275D JUMP JUMPDEST PUSH1 0xF8 SHL DUP2 DUP4 DUP2 MLOAD DUP2 LT PUSH2 0x1615 JUMPI PUSH32 0x4E487B7100000000000000000000000000000000000000000000000000000000 PUSH1 0x0 MSTORE PUSH1 0x32 PUSH1 0x4 MSTORE PUSH1 0x24 PUSH1 0x0 REVERT JUMPDEST PUSH1 0x20 ADD ADD SWAP1 PUSH31 0xFFFFFFFFFFFFFFFFFFFFFFFFFFFFFFFFFFFFFFFFFFFFFFFFFFFFFFFFFFFFFF NOT AND SWAP1 DUP2 PUSH1 0x0 BYTE SWAP1 MSTORE8 POP PUSH1 0xA DUP6 PUSH2 0x1651 SWAP2 SWAP1 PUSH2 0x27B3 JUMP JUMPDEST SWAP5 POP PUSH2 0x15A9 JUMP JUMPDEST DUP1 SWAP4 POP POP POP POP JUMPDEST SWAP2 SWAP1 POP JUMP JUMPDEST PUSH1 0x1 DUP2 PUSH1 0x0 ADD PUSH1 0x0 DUP3 DUP3 SLOAD ADD SWAP3 POP POP DUP2 SWAP1 SSTORE POP POP JUMP JUMPDEST PUSH1 0x0 DUP2 PUSH1 0x0 ADD SLOAD SWAP1 POP SWAP2 SWAP1 POP JUMP JUMPDEST PUSH1 0x0 PUSH20 0xFFFFFFFFFFFFFFFFFFFFFFFFFFFFFFFFFFFFFFFF AND DUP3 PUSH20 0xFFFFFFFFFFFFFFFFFFFFFFFFFFFFFFFFFFFFFFFF AND EQ ISZERO PUSH2 0x16F8 JUMPI PUSH1 0x40 MLOAD PUSH32 0x8C379A000000000000000000000000000000000000000000000000000000000 DUP2 MSTORE PUSH1 0x4 ADD PUSH2 0x16EF SWAP1 PUSH2 0x250C JUMP JUMPDEST PUSH1 0x40 MLOAD DUP1 SWAP2 SUB SWAP1 REVERT JUMPDEST PUSH2 0x1701 DUP2 PUSH2 0xFDD JUMP JUMPDEST ISZERO PUSH2 0x1741 JUMPI PUSH1 0x40 MLOAD PUSH32 0x8C379A000000000000000000000000000000000000000000000000000000000 DUP2 MSTORE PUSH1 0x4 ADD PUSH2 0x1738 SWAP1 PUSH2 0x242C JUMP JUMPDEST PUSH1 0x40 MLOAD DUP1 SWAP2 SUB SWAP1 REVERT JUMPDEST PUSH2 0x174D PUSH1 0x0 DUP4 DUP4 PUSH2 0x1856 JUMP JUMPDEST PUSH1 0x1 PUSH1 0x3 PUSH1 0x0 DUP5 PUSH20 0xFFFFFFFFFFFFFFFFFFFFFFFFFFFFFFFFFFFFFFFF AND PUSH20 0xFFFFFFFFFFFFFFFFFFFFFFFFFFFFFFFFFFFFFFFF AND DUP2 MSTORE PUSH1 0x20 ADD SWAP1 DUP2 MSTORE PUSH1 0x20 ADD PUSH1 0x0 KECCAK256 PUSH1 0x0 DUP3 DUP3 SLOAD PUSH2 0x179D SWAP2 SWAP1 PUSH2 0x275D JUMP JUMPDEST SWAP3 POP POP DUP2 SWAP1 SSTORE POP DUP2 PUSH1 0x2 PUSH1 0x0 DUP4 DUP2 MSTORE PUSH1 0x20 ADD SWAP1 DUP2 MSTORE PUSH1 0x20 ADD PUSH1 0x0 KECCAK256 PUSH1 0x0 PUSH2 0x100 EXP DUP2 SLOAD DUP2 PUSH20 0xFFFFFFFFFFFFFFFFFFFFFFFFFFFFFFFFFFFFFFFF MUL NOT AND SWAP1 DUP4 PUSH20 0xFFFFFFFFFFFFFFFFFFFFFFFFFFFFFFFFFFFFFFFF AND MUL OR SWAP1 SSTORE POP DUP1 DUP3 PUSH20 0xFFFFFFFFFFFFFFFFFFFFFFFFFFFFFFFFFFFFFFFF AND PUSH1 0x0 PUSH20 0xFFFFFFFFFFFFFFFFFFFFFFFFFFFFFFFFFFFFFFFF AND PUSH32 0xDDF252AD1BE2C89B69C2B068FC378DAA952BA7F163C4A11628F55A4DF523B3EF PUSH1 0x40 MLOAD PUSH1 0x40 MLOAD DUP1 SWAP2 SUB SWAP1 LOG4 POP POP JUMP JUMPDEST POP POP POP JUMP JUMPDEST PUSH1 0x0 PUSH2 0x187C DUP5 PUSH20 0xFFFFFFFFFFFFFFFFFFFFFFFFFFFFFFFFFFFFFFFF AND PUSH2 0x19F2 JUMP JUMPDEST ISZERO PUSH2 0x19E5 JUMPI DUP4 PUSH20 0xFFFFFFFFFFFFFFFFFFFFFFFFFFFFFFFFFFFFFFFF AND PUSH4 0x150B7A02 PUSH2 0x18A5 PUSH2 0x1049 JUMP JUMPDEST DUP8 DUP7 DUP7 PUSH1 0x40 MLOAD DUP6 PUSH4 0xFFFFFFFF AND PUSH1 0xE0 SHL DUP2 MSTORE PUSH1 0x4 ADD PUSH2 0x18C7 SWAP5 SWAP4 SWAP3 SWAP2 SWAP1 PUSH2 0x2383 JUMP JUMPDEST PUSH1 0x20 PUSH1 0x40 MLOAD DUP1 DUP4 SUB DUP2 PUSH1 0x0 DUP8 DUP1 EXTCODESIZE ISZERO DUP1 ISZERO PUSH2 0x18E1 JUMPI PUSH1 0x0 DUP1 REVERT JUMPDEST POP GAS CALL SWAP3 POP POP POP DUP1 ISZERO PUSH2 0x1912 JUMPI POP PUSH1 0x40 MLOAD RETURNDATASIZE PUSH1 0x1F NOT PUSH1 0x1F DUP3 ADD AND DUP3 ADD DUP1 PUSH1 0x40 MSTORE POP DUP2 ADD SWAP1 PUSH2 0x190F SWAP2 SWAP1 PUSH2 0x1CA6 JUMP JUMPDEST PUSH1 0x1 JUMPDEST PUSH2 0x1995 JUMPI RETURNDATASIZE DUP1 PUSH1 0x0 DUP2 EQ PUSH2 0x1942 JUMPI PUSH1 0x40 MLOAD SWAP2 POP PUSH1 0x1F NOT PUSH1 0x3F RETURNDATASIZE ADD AND DUP3 ADD PUSH1 0x40 MSTORE RETURNDATASIZE DUP3 MSTORE RETURNDATASIZE PUSH1 0x0 PUSH1 0x20 DUP5 ADD RETURNDATACOPY PUSH2 0x1947 JUMP JUMPDEST PUSH1 0x60 SWAP2 POP JUMPDEST POP PUSH1 0x0 DUP2 MLOAD EQ ISZERO PUSH2 0x198D JUMPI PUSH1 0x40 MLOAD PUSH32 0x8C379A000000000000000000000000000000000000000000000000000000000 DUP2 MSTORE PUSH1 0x4 ADD PUSH2 0x1984 SWAP1 PUSH2 0x240C JUMP JUMPDEST PUSH1 0x40 MLOAD DUP1 SWAP2 SUB SWAP1 REVERT JUMPDEST DUP1 MLOAD DUP2 PUSH1 0x20 ADD REVERT JUMPDEST PUSH4 0x150B7A02 PUSH1 0xE0 SHL PUSH28 0xFFFFFFFFFFFFFFFFFFFFFFFFFFFFFFFFFFFFFFFFFFFFFFFFFFFFFFFF NOT AND DUP2 PUSH28 0xFFFFFFFFFFFFFFFFFFFFFFFFFFFFFFFFFFFFFFFFFFFFFFFFFFFFFFFF NOT AND EQ SWAP2 POP POP PUSH2 0x19EA JUMP JUMPDEST PUSH1 0x1 SWAP1 POP JUMPDEST SWAP5 SWAP4 POP POP POP POP JUMP JUMPDEST PUSH1 0x0 DUP1 DUP3 EXTCODESIZE SWAP1 POP PUSH1 0x0 DUP2 GT SWAP2 POP POP SWAP2 SWAP1 POP JUMP JUMPDEST PUSH1 0x0 PUSH2 0x1A18 PUSH2 0x1A13 DUP5 PUSH2 0x26EA JUMP JUMPDEST PUSH2 0x26B9 JUMP JUMPDEST SWAP1 POP DUP3 DUP2 MSTORE PUSH1 0x20 DUP2 ADD DUP5 DUP5 DUP5 ADD GT ISZERO PUSH2 0x1A30 JUMPI PUSH1 0x0 DUP1 REVERT JUMPDEST PUSH2 0x1A3B DUP5 DUP3 DUP6 PUSH2 0x288C JUMP JUMPDEST POP SWAP4 SWAP3 POP POP POP JUMP JUMPDEST PUSH1 0x0 DUP2 CALLDATALOAD SWAP1 POP PUSH2 0x1A52 DUP2 PUSH2 0x2A82 JUMP JUMPDEST SWAP3 SWAP2 POP POP JUMP JUMPDEST PUSH1 0x0 DUP2 CALLDATALOAD SWAP1 POP PUSH2 0x1A67 DUP2 PUSH2 0x2A99 JUMP JUMPDEST SWAP3 SWAP2 POP POP JUMP JUMPDEST PUSH1 0x0 DUP2 CALLDATALOAD SWAP1 POP PUSH2 0x1A7C DUP2 PUSH2 0x2AB0 JUMP JUMPDEST SWAP3 SWAP2 POP POP JUMP JUMPDEST PUSH1 0x0 DUP2 MLOAD SWAP1 POP PUSH2 0x1A91 DUP2 PUSH2 0x2AB0 JUMP JUMPDEST SWAP3 SWAP2 POP POP JUMP JUMPDEST PUSH1 0x0 DUP3 PUSH1 0x1F DUP4 ADD SLT PUSH2 0x1AA8 JUMPI PUSH1 0x0 DUP1 REVERT JUMPDEST DUP2 CALLDATALOAD PUSH2 0x1AB8 DUP5 DUP3 PUSH1 0x20 DUP7 ADD PUSH2 0x1A05 JUMP JUMPDEST SWAP2 POP POP SWAP3 SWAP2 POP POP JUMP JUMPDEST PUSH1 0x0 DUP2 CALLDATALOAD SWAP1 POP PUSH2 0x1AD0 DUP2 PUSH2 0x2AC7 JUMP JUMPDEST SWAP3 SWAP2 POP POP JUMP JUMPDEST PUSH1 0x0 PUSH1 0x20 DUP3 DUP5 SUB SLT ISZERO PUSH2 0x1AE8 JUMPI PUSH1 0x0 DUP1 REVERT JUMPDEST PUSH1 0x0 PUSH2 0x1AF6 DUP5 DUP3 DUP6 ADD PUSH2 0x1A43 JUMP JUMPDEST SWAP2 POP POP SWAP3 SWAP2 POP POP JUMP JUMPDEST PUSH1 0x0 DUP1 PUSH1 0x40 DUP4 DUP6 SUB SLT ISZERO PUSH2 0x1B12 JUMPI PUSH1 0x0 DUP1 REVERT JUMPDEST PUSH1 0x0 PUSH2 0x1B20 DUP6 DUP3 DUP7 ADD PUSH2 0x1A43 JUMP JUMPDEST SWAP3 POP POP PUSH1 0x20 PUSH2 0x1B31 DUP6 DUP3 DUP7 ADD PUSH2 0x1A43 JUMP JUMPDEST SWAP2 POP POP SWAP3 POP SWAP3 SWAP1 POP JUMP JUMPDEST PUSH1 0x0 DUP1 PUSH1 0x0 PUSH1 0x60 DUP5 DUP7 SUB SLT ISZERO PUSH2 0x1B50 JUMPI PUSH1 0x0 DUP1 REVERT JUMPDEST PUSH1 0x0 PUSH2 0x1B5E DUP7 DUP3 DUP8 ADD PUSH2 0x1A43 JUMP JUMPDEST SWAP4 POP POP PUSH1 0x20 PUSH2 0x1B6F DUP7 DUP3 DUP8 ADD PUSH2 0x1A43 JUMP JUMPDEST SWAP3 POP POP PUSH1 0x40 PUSH2 0x1B80 DUP7 DUP3 DUP8 ADD PUSH2 0x1AC1 JUMP JUMPDEST SWAP2 POP POP SWAP3 POP SWAP3 POP SWAP3 JUMP JUMPDEST PUSH1 0x0 DUP1 PUSH1 0x0 DUP1 PUSH1 0x80 DUP6 DUP8 SUB SLT ISZERO PUSH2 0x1BA0 JUMPI PUSH1 0x0 DUP1 REVERT JUMPDEST PUSH1 0x0 PUSH2 0x1BAE DUP8 DUP3 DUP9 ADD PUSH2 0x1A43 JUMP JUMPDEST SWAP5 POP POP PUSH1 0x20 PUSH2 0x1BBF DUP8 DUP3 DUP9 ADD PUSH2 0x1A43 JUMP JUMPDEST SWAP4 POP POP PUSH1 0x40 PUSH2 0x1BD0 DUP8 DUP3 DUP9 ADD PUSH2 0x1AC1 JUMP JUMPDEST SWAP3 POP POP PUSH1 0x60 DUP6 ADD CALLDATALOAD PUSH8 0xFFFFFFFFFFFFFFFF DUP2 GT ISZERO PUSH2 0x1BED JUMPI PUSH1 0x0 DUP1 REVERT JUMPDEST PUSH2 0x1BF9 DUP8 DUP3 DUP9 ADD PUSH2 0x1A97 JUMP JUMPDEST SWAP2 POP POP SWAP3 SWAP6 SWAP2 SWAP5 POP SWAP3 POP JUMP JUMPDEST PUSH1 0x0 DUP1 PUSH1 0x40 DUP4 DUP6 SUB SLT ISZERO PUSH2 0x1C18 JUMPI PUSH1 0x0 DUP1 REVERT JUMPDEST PUSH1 0x0 PUSH2 0x1C26 DUP6 DUP3 DUP7 ADD PUSH2 0x1A43 JUMP JUMPDEST SWAP3 POP POP PUSH1 0x20 PUSH2 0x1C37 DUP6 DUP3 DUP7 ADD PUSH2 0x1A58 JUMP JUMPDEST SWAP2 POP POP SWAP3 POP SWAP3 SWAP1 POP JUMP JUMPDEST PUSH1 0x0 DUP1 PUSH1 0x40 DUP4 DUP6 SUB SLT ISZERO PUSH2 0x1C54 JUMPI PUSH1 0x0 DUP1 REVERT JUMPDEST PUSH1 0x0 PUSH2 0x1C62 DUP6 DUP3 DUP7 ADD PUSH2 0x1A43 JUMP JUMPDEST SWAP3 POP POP PUSH1 0x20 PUSH2 0x1C73 DUP6 DUP3 DUP7 ADD PUSH2 0x1AC1 JUMP JUMPDEST SWAP2 POP POP SWAP3 POP SWAP3 SWAP1 POP JUMP JUMPDEST PUSH1 0x0 PUSH1 0x20 DUP3 DUP5 SUB SLT ISZERO PUSH2 0x1C8F JUMPI PUSH1 0x0 DUP1 REVERT JUMPDEST PUSH1 0x0 PUSH2 0x1C9D DUP5 DUP3 DUP6 ADD PUSH2 0x1A6D JUMP JUMPDEST SWAP2 POP POP SWAP3 SWAP2 POP POP JUMP JUMPDEST PUSH1 0x0 PUSH1 0x20 DUP3 DUP5 SUB SLT ISZERO PUSH2 0x1CB8 JUMPI PUSH1 0x0 DUP1 REVERT JUMPDEST PUSH1 0x0 PUSH2 0x1CC6 DUP5 DUP3 DUP6 ADD PUSH2 0x1A82 JUMP JUMPDEST SWAP2 POP POP SWAP3 SWAP2 POP POP JUMP JUMPDEST PUSH1 0x0 PUSH1 0x20 DUP3 DUP5 SUB SLT ISZERO PUSH2 0x1CE1 JUMPI PUSH1 0x0 DUP1 REVERT JUMPDEST PUSH1 0x0 PUSH2 0x1CEF DUP5 DUP3 DUP6 ADD PUSH2 0x1AC1 JUMP JUMPDEST SWAP2 POP POP SWAP3 SWAP2 POP POP JUMP JUMPDEST PUSH2 0x1D01 DUP2 PUSH2 0x2818 JUMP JUMPDEST DUP3 MSTORE POP POP JUMP JUMPDEST PUSH2 0x1D18 PUSH2 0x1D13 DUP3 PUSH2 0x2818 JUMP JUMPDEST PUSH2 0x2949 JUMP JUMPDEST DUP3 MSTORE POP POP JUMP JUMPDEST PUSH2 0x1D27 DUP2 PUSH2 0x282A JUMP JUMPDEST DUP3 MSTORE POP POP JUMP JUMPDEST PUSH1 0x0 PUSH2 0x1D38 DUP3 PUSH2 0x271A JUMP JUMPDEST PUSH2 0x1D42 DUP2 DUP6 PUSH2 0x2730 JUMP JUMPDEST SWAP4 POP PUSH2 0x1D52 DUP2 DUP6 PUSH1 0x20 DUP7 ADD PUSH2 0x289B JUMP JUMPDEST PUSH2 0x1D5B DUP2 PUSH2 0x2A64 JUMP JUMPDEST DUP5 ADD SWAP2 POP POP SWAP3 SWAP2 POP POP JUMP JUMPDEST PUSH1 0x0 PUSH2 0x1D71 DUP3 PUSH2 0x2725 JUMP JUMPDEST PUSH2 0x1D7B DUP2 DUP6 PUSH2 0x2741 JUMP JUMPDEST SWAP4 POP PUSH2 0x1D8B DUP2 DUP6 PUSH1 0x20 DUP7 ADD PUSH2 0x289B JUMP JUMPDEST PUSH2 0x1D94 DUP2 PUSH2 0x2A64 JUMP JUMPDEST DUP5 ADD SWAP2 POP POP SWAP3 SWAP2 POP POP JUMP JUMPDEST PUSH1 0x0 PUSH2 0x1DAA DUP3 PUSH2 0x2725 JUMP JUMPDEST PUSH2 0x1DB4 DUP2 DUP6 PUSH2 0x2752 JUMP JUMPDEST SWAP4 POP PUSH2 0x1DC4 DUP2 DUP6 PUSH1 0x20 DUP7 ADD PUSH2 0x289B JUMP JUMPDEST DUP1 DUP5 ADD SWAP2 POP POP SWAP3 SWAP2 POP POP JUMP JUMPDEST PUSH1 0x0 PUSH2 0x1DDD PUSH1 0x32 DUP4 PUSH2 0x2741 JUMP JUMPDEST SWAP2 POP PUSH32 0x4552433732313A207472616E7366657220746F206E6F6E204552433732315265 PUSH1 0x0 DUP4 ADD MSTORE PUSH32 0x63656976657220696D706C656D656E7465720000000000000000000000000000 PUSH1 0x20 DUP4 ADD MSTORE PUSH1 0x40 DUP3 ADD SWAP1 POP SWAP2 SWAP1 POP JUMP JUMPDEST PUSH1 0x0 PUSH2 0x1E43 PUSH1 0x1C DUP4 PUSH2 0x2741 JUMP JUMPDEST SWAP2 POP PUSH32 0x4552433732313A20746F6B656E20616C7265616479206D696E74656400000000 PUSH1 0x0 DUP4 ADD MSTORE PUSH1 0x20 DUP3 ADD SWAP1 POP SWAP2 SWAP1 POP JUMP JUMPDEST PUSH1 0x0 PUSH2 0x1E83 PUSH1 0x24 DUP4 PUSH2 0x2741 JUMP JUMPDEST SWAP2 POP PUSH32 0x4552433732313A207472616E7366657220746F20746865207A65726F20616464 PUSH1 0x0 DUP4 ADD MSTORE PUSH32 0x7265737300000000000000000000000000000000000000000000000000000000 PUSH1 0x20 DUP4 ADD MSTORE PUSH1 0x40 DUP3 ADD SWAP1 POP SWAP2 SWAP1 POP JUMP JUMPDEST PUSH1 0x0 PUSH2 0x1EE9 PUSH1 0x19 DUP4 PUSH2 0x2741 JUMP JUMPDEST SWAP2 POP PUSH32 0x4552433732313A20617070726F766520746F2063616C6C657200000000000000 PUSH1 0x0 DUP4 ADD MSTORE PUSH1 0x20 DUP3 ADD SWAP1 POP SWAP2 SWAP1 POP JUMP JUMPDEST PUSH1 0x0 PUSH2 0x1F29 PUSH1 0x2C DUP4 PUSH2 0x2741 JUMP JUMPDEST SWAP2 POP PUSH32 0x4552433732313A206F70657261746F7220717565727920666F72206E6F6E6578 PUSH1 0x0 DUP4 ADD MSTORE PUSH32 0x697374656E7420746F6B656E0000000000000000000000000000000000000000 PUSH1 0x20 DUP4 ADD MSTORE PUSH1 0x40 DUP3 ADD SWAP1 POP SWAP2 SWAP1 POP JUMP JUMPDEST PUSH1 0x0 PUSH2 0x1F8F PUSH1 0x38 DUP4 PUSH2 0x2741 JUMP JUMPDEST SWAP2 POP PUSH32 0x4552433732313A20617070726F76652063616C6C6572206973206E6F74206F77 PUSH1 0x0 DUP4 ADD MSTORE PUSH32 0x6E6572206E6F7220617070726F76656420666F7220616C6C0000000000000000 PUSH1 0x20 DUP4 ADD MSTORE PUSH1 0x40 DUP3 ADD SWAP1 POP SWAP2 SWAP1 POP JUMP JUMPDEST PUSH1 0x0 PUSH2 0x1FF5 PUSH1 0x2A DUP4 PUSH2 0x2741 JUMP JUMPDEST SWAP2 POP PUSH32 0x4552433732313A2062616C616E636520717565727920666F7220746865207A65 PUSH1 0x0 DUP4 ADD MSTORE PUSH32 0x726F206164647265737300000000000000000000000000000000000000000000 PUSH1 0x20 DUP4 ADD MSTORE PUSH1 0x40 DUP3 ADD SWAP1 POP SWAP2 SWAP1 POP JUMP JUMPDEST PUSH1 0x0 PUSH2 0x205B PUSH1 0x29 DUP4 PUSH2 0x2741 JUMP JUMPDEST SWAP2 POP PUSH32 0x4552433732313A206F776E657220717565727920666F72206E6F6E6578697374 PUSH1 0x0 DUP4 ADD MSTORE PUSH32 0x656E7420746F6B656E0000000000000000000000000000000000000000000000 PUSH1 0x20 DUP4 ADD MSTORE PUSH1 0x40 DUP3 ADD SWAP1 POP SWAP2 SWAP1 POP JUMP JUMPDEST PUSH1 0x0 PUSH2 0x20C1 PUSH1 0x20 DUP4 PUSH2 0x2741 JUMP JUMPDEST SWAP2 POP PUSH32 0x4552433732313A206D696E7420746F20746865207A65726F2061646472657373 PUSH1 0x0 DUP4 ADD MSTORE PUSH1 0x20 DUP3 ADD SWAP1 POP SWAP2 SWAP1 POP JUMP JUMPDEST PUSH1 0x0 PUSH2 0x2101 PUSH1 0x2C DUP4 PUSH2 0x2741 JUMP JUMPDEST SWAP2 POP PUSH32 0x4552433732313A20617070726F76656420717565727920666F72206E6F6E6578 PUSH1 0x0 DUP4 ADD MSTORE PUSH32 0x697374656E7420746F6B656E0000000000000000000000000000000000000000 PUSH1 0x20 DUP4 ADD MSTORE PUSH1 0x40 DUP3 ADD SWAP1 POP SWAP2 SWAP1 POP JUMP JUMPDEST PUSH1 0x0 PUSH2 0x2167 PUSH1 0x29 DUP4 PUSH2 0x2741 JUMP JUMPDEST SWAP2 POP PUSH32 0x4552433732313A207472616E73666572206F6620746F6B656E20746861742069 PUSH1 0x0 DUP4 ADD MSTORE PUSH32 0x73206E6F74206F776E0000000000000000000000000000000000000000000000 PUSH1 0x20 DUP4 ADD MSTORE PUSH1 0x40 DUP3 ADD SWAP1 POP SWAP2 SWAP1 POP JUMP JUMPDEST PUSH1 0x0 PUSH2 0x21CD PUSH1 0x2F DUP4 PUSH2 0x2741 JUMP JUMPDEST SWAP2 POP PUSH32 0x4552433732314D657461646174613A2055524920717565727920666F72206E6F PUSH1 0x0 DUP4 ADD MSTORE PUSH32 0x6E6578697374656E7420746F6B656E0000000000000000000000000000000000 PUSH1 0x20 DUP4 ADD MSTORE PUSH1 0x40 DUP3 ADD SWAP1 POP SWAP2 SWAP1 POP JUMP JUMPDEST PUSH1 0x0 PUSH2 0x2233 PUSH1 0x21 DUP4 PUSH2 0x2741 JUMP JUMPDEST SWAP2 POP PUSH32 0x4552433732313A20617070726F76616C20746F2063757272656E74206F776E65 PUSH1 0x0 DUP4 ADD MSTORE PUSH32 0x7200000000000000000000000000000000000000000000000000000000000000 PUSH1 0x20 DUP4 ADD MSTORE PUSH1 0x40 DUP3 ADD SWAP1 POP SWAP2 SWAP1 POP JUMP JUMPDEST PUSH1 0x0 PUSH2 0x2299 PUSH1 0x31 DUP4 PUSH2 0x2741 JUMP JUMPDEST SWAP2 POP PUSH32 0x4552433732313A207472616E736665722063616C6C6572206973206E6F74206F PUSH1 0x0 DUP4 ADD MSTORE PUSH32 0x776E6572206E6F7220617070726F766564000000000000000000000000000000 PUSH1 0x20 DUP4 ADD MSTORE PUSH1 0x40 DUP3 ADD SWAP1 POP SWAP2 SWAP1 POP JUMP JUMPDEST PUSH2 0x22FB DUP2 PUSH2 0x2882 JUMP JUMPDEST DUP3 MSTORE POP POP JUMP JUMPDEST PUSH2 0x2312 PUSH2 0x230D DUP3 PUSH2 0x2882 JUMP JUMPDEST PUSH2 0x296D JUMP JUMPDEST DUP3 MSTORE POP POP JUMP JUMPDEST PUSH1 0x0 PUSH2 0x2324 DUP3 DUP6 PUSH2 0x1D9F JUMP JUMPDEST SWAP2 POP PUSH2 0x2330 DUP3 DUP5 PUSH2 0x1D9F JUMP JUMPDEST SWAP2 POP DUP2 SWAP1 POP SWAP4 SWAP3 POP POP POP JUMP JUMPDEST PUSH1 0x0 PUSH2 0x2348 DUP3 DUP6 PUSH2 0x2301 JUMP JUMPDEST PUSH1 0x20 DUP3 ADD SWAP2 POP PUSH2 0x2358 DUP3 DUP5 PUSH2 0x1D07 JUMP JUMPDEST PUSH1 0x14 DUP3 ADD SWAP2 POP DUP2 SWAP1 POP SWAP4 SWAP3 POP POP POP JUMP JUMPDEST PUSH1 0x0 PUSH1 0x20 DUP3 ADD SWAP1 POP PUSH2 0x237D PUSH1 0x0 DUP4 ADD DUP5 PUSH2 0x1CF8 JUMP JUMPDEST SWAP3 SWAP2 POP POP JUMP JUMPDEST PUSH1 0x0 PUSH1 0x80 DUP3 ADD SWAP1 POP PUSH2 0x2398 PUSH1 0x0 DUP4 ADD DUP8 PUSH2 0x1CF8 JUMP JUMPDEST PUSH2 0x23A5 PUSH1 0x20 DUP4 ADD DUP7 PUSH2 0x1CF8 JUMP JUMPDEST PUSH2 0x23B2 PUSH1 0x40 DUP4 ADD DUP6 PUSH2 0x22F2 JUMP JUMPDEST DUP2 DUP2 SUB PUSH1 0x60 DUP4 ADD MSTORE PUSH2 0x23C4 DUP2 DUP5 PUSH2 0x1D2D JUMP JUMPDEST SWAP1 POP SWAP6 SWAP5 POP POP POP POP POP JUMP JUMPDEST PUSH1 0x0 PUSH1 0x20 DUP3 ADD SWAP1 POP PUSH2 0x23E4 PUSH1 0x0 DUP4 ADD DUP5 PUSH2 0x1D1E JUMP JUMPDEST SWAP3 SWAP2 POP POP JUMP JUMPDEST PUSH1 0x0 PUSH1 0x20 DUP3 ADD SWAP1 POP DUP2 DUP2 SUB PUSH1 0x0 DUP4 ADD MSTORE PUSH2 0x2404 DUP2 DUP5 PUSH2 0x1D66 JUMP JUMPDEST SWAP1 POP SWAP3 SWAP2 POP POP JUMP JUMPDEST PUSH1 0x0 PUSH1 0x20 DUP3 ADD SWAP1 POP DUP2 DUP2 SUB PUSH1 0x0 DUP4 ADD MSTORE PUSH2 0x2425 DUP2 PUSH2 0x1DD0 JUMP JUMPDEST SWAP1 POP SWAP2 SWAP1 POP JUMP JUMPDEST PUSH1 0x0 PUSH1 0x20 DUP3 ADD SWAP1 POP DUP2 DUP2 SUB PUSH1 0x0 DUP4 ADD MSTORE PUSH2 0x2445 DUP2 PUSH2 0x1E36 JUMP JUMPDEST SWAP1 POP SWAP2 SWAP1 POP JUMP JUMPDEST PUSH1 0x0 PUSH1 0x20 DUP3 ADD SWAP1 POP DUP2 DUP2 SUB PUSH1 0x0 DUP4 ADD MSTORE PUSH2 0x2465 DUP2 PUSH2 0x1E76 JUMP JUMPDEST SWAP1 POP SWAP2 SWAP1 POP JUMP JUMPDEST PUSH1 0x0 PUSH1 0x20 DUP3 ADD SWAP1 POP DUP2 DUP2 SUB PUSH1 0x0 DUP4 ADD MSTORE PUSH2 0x2485 DUP2 PUSH2 0x1EDC JUMP JUMPDEST SWAP1 POP SWAP2 SWAP1 POP JUMP JUMPDEST PUSH1 0x0 PUSH1 0x20 DUP3 ADD SWAP1 POP DUP2 DUP2 SUB PUSH1 0x0 DUP4 ADD MSTORE PUSH2 0x24A5 DUP2 PUSH2 0x1F1C JUMP JUMPDEST SWAP1 POP SWAP2 SWAP1 POP JUMP JUMPDEST PUSH1 0x0 PUSH1 0x20 DUP3 ADD SWAP1 POP DUP2 DUP2 SUB PUSH1 0x0 DUP4 ADD MSTORE PUSH2 0x24C5 DUP2 PUSH2 0x1F82 JUMP JUMPDEST SWAP1 POP SWAP2 SWAP1 POP JUMP JUMPDEST PUSH1 0x0 PUSH1 0x20 DUP3 ADD SWAP1 POP DUP2 DUP2 SUB PUSH1 0x0 DUP4 ADD MSTORE PUSH2 0x24E5 DUP2 PUSH2 0x1FE8 JUMP JUMPDEST SWAP1 POP SWAP2 SWAP1 POP JUMP JUMPDEST PUSH1 0x0 PUSH1 0x20 DUP3 ADD SWAP1 POP DUP2 DUP2 SUB PUSH1 0x0 DUP4 ADD MSTORE PUSH2 0x2505 DUP2 PUSH2 0x204E JUMP JUMPDEST SWAP1 POP SWAP2 SWAP1 POP JUMP JUMPDEST PUSH1 0x0 PUSH1 0x20 DUP3 ADD SWAP1 POP DUP2 DUP2 SUB PUSH1 0x0 DUP4 ADD MSTORE PUSH2 0x2525 DUP2 PUSH2 0x20B4 JUMP JUMPDEST SWAP1 POP SWAP2 SWAP1 POP JUMP JUMPDEST PUSH1 0x0 PUSH1 0x20 DUP3 ADD SWAP1 POP DUP2 DUP2 SUB PUSH1 0x0 DUP4 ADD MSTORE PUSH2 0x2545 DUP2 PUSH2 0x20F4 JUMP JUMPDEST SWAP1 POP SWAP2 SWAP1 POP JUMP JUMPDEST PUSH1 0x0 PUSH1 0x20 DUP3 ADD SWAP1 POP DUP2 DUP2 SUB PUSH1 0x0 DUP4 ADD MSTORE PUSH2 0x2565 DUP2 PUSH2 0x215A JUMP JUMPDEST SWAP1 POP SWAP2 SWAP1 POP JUMP JUMPDEST PUSH1 0x0 PUSH1 0x20 DUP3 ADD SWAP1 POP DUP2 DUP2 SUB PUSH1 0x0 DUP4 ADD MSTORE PUSH2 0x2585 DUP2 PUSH2 0x21C0 JUMP JUMPDEST SWAP1 POP SWAP2 SWAP1 POP JUMP JUMPDEST PUSH1 0x0 PUSH1 0x20 DUP3 ADD SWAP1 POP DUP2 DUP2 SUB PUSH1 0x0 DUP4 ADD MSTORE PUSH2 0x25A5 DUP2 PUSH2 0x2226 JUMP JUMPDEST SWAP1 POP SWAP2 SWAP1 POP JUMP JUMPDEST PUSH1 0x0 PUSH1 0x20 DUP3 ADD SWAP1 POP DUP2 DUP2 SUB PUSH1 0x0 DUP4 ADD MSTORE PUSH2 0x25C5 DUP2 PUSH2 0x228C JUMP JUMPDEST SWAP1 POP SWAP2 SWAP1 POP JUMP JUMPDEST PUSH1 0x0 PUSH1 0x20 DUP3 ADD SWAP1 POP PUSH2 0x25E1 PUSH1 0x0 DUP4 ADD DUP5 PUSH2 0x22F2 JUMP JUMPDEST SWAP3 SWAP2 POP POP JUMP JUMPDEST PUSH1 0x0 PUSH1 0x80 DUP3 ADD SWAP1 POP PUSH2 0x25FC PUSH1 0x0 DUP4 ADD DUP8 PUSH2 0x22F2 JUMP JUMPDEST PUSH2 0x2609 PUSH1 0x20 DUP4 ADD DUP7 PUSH2 0x22F2 JUMP JUMPDEST PUSH2 0x2616 PUSH1 0x40 DUP4 ADD DUP6 PUSH2 0x22F2 JUMP JUMPDEST PUSH2 0x2623 PUSH1 0x60 DUP4 ADD DUP5 PUSH2 0x22F2 JUMP JUMPDEST SWAP6 SWAP5 POP POP POP POP POP JUMP JUMPDEST PUSH1 0x0 PUSH2 0x120 DUP3 ADD SWAP1 POP PUSH2 0x2642 PUSH1 0x0 DUP4 ADD DUP13 PUSH2 0x22F2 JUMP JUMPDEST PUSH2 0x264F PUSH1 0x20 DUP4 ADD DUP12 PUSH2 0x22F2 JUMP JUMPDEST PUSH2 0x265C PUSH1 0x40 DUP4 ADD DUP11 PUSH2 0x22F2 JUMP JUMPDEST PUSH2 0x2669 PUSH1 0x60 DUP4 ADD DUP10 PUSH2 0x22F2 JUMP JUMPDEST PUSH2 0x2676 PUSH1 0x80 DUP4 ADD DUP9 PUSH2 0x22F2 JUMP JUMPDEST PUSH2 0x2683 PUSH1 0xA0 DUP4 ADD DUP8 PUSH2 0x22F2 JUMP JUMPDEST PUSH2 0x2690 PUSH1 0xC0 DUP4 ADD DUP7 PUSH2 0x22F2 JUMP JUMPDEST PUSH2 0x269D PUSH1 0xE0 DUP4 ADD DUP6 PUSH2 0x22F2 JUMP JUMPDEST PUSH2 0x26AB PUSH2 0x100 DUP4 ADD DUP5 PUSH2 0x22F2 JUMP JUMPDEST SWAP11 SWAP10 POP POP POP POP POP POP POP POP POP POP JUMP JUMPDEST PUSH1 0x0 PUSH1 0x40 MLOAD SWAP1 POP DUP2 DUP2 ADD DUP2 DUP2 LT PUSH8 0xFFFFFFFFFFFFFFFF DUP3 GT OR ISZERO PUSH2 0x26E0 JUMPI PUSH2 0x26DF PUSH2 0x2A35 JUMP JUMPDEST JUMPDEST DUP1 PUSH1 0x40 MSTORE POP SWAP2 SWAP1 POP JUMP JUMPDEST PUSH1 0x0 PUSH8 0xFFFFFFFFFFFFFFFF DUP3 GT ISZERO PUSH2 0x2705 JUMPI PUSH2 0x2704 PUSH2 0x2A35 JUMP JUMPDEST JUMPDEST PUSH1 0x1F NOT PUSH1 0x1F DUP4 ADD AND SWAP1 POP PUSH1 0x20 DUP2 ADD SWAP1 POP SWAP2 SWAP1 POP JUMP JUMPDEST PUSH1 0x0 DUP2 MLOAD SWAP1 POP SWAP2 SWAP1 POP JUMP JUMPDEST PUSH1 0x0 DUP2 MLOAD SWAP1 POP SWAP2 SWAP1 POP JUMP JUMPDEST PUSH1 0x0 DUP3 DUP3 MSTORE PUSH1 0x20 DUP3 ADD SWAP1 POP SWAP3 SWAP2 POP POP JUMP JUMPDEST PUSH1 0x0 DUP3 DUP3 MSTORE PUSH1 0x20 DUP3 ADD SWAP1 POP SWAP3 SWAP2 POP POP JUMP JUMPDEST PUSH1 0x0 DUP2 SWAP1 POP SWAP3 SWAP2 POP POP JUMP JUMPDEST PUSH1 0x0 PUSH2 0x2768 DUP3 PUSH2 0x2882 JUMP JUMPDEST SWAP2 POP PUSH2 0x2773 DUP4 PUSH2 0x2882 JUMP JUMPDEST SWAP3 POP DUP3 PUSH32 0xFFFFFFFFFFFFFFFFFFFFFFFFFFFFFFFFFFFFFFFFFFFFFFFFFFFFFFFFFFFFFFFF SUB DUP3 GT ISZERO PUSH2 0x27A8 JUMPI PUSH2 0x27A7 PUSH2 0x29A8 JUMP JUMPDEST JUMPDEST DUP3 DUP3 ADD SWAP1 POP SWAP3 SWAP2 POP POP JUMP JUMPDEST PUSH1 0x0 PUSH2 0x27BE DUP3 PUSH2 0x2882 JUMP JUMPDEST SWAP2 POP PUSH2 0x27C9 DUP4 PUSH2 0x2882 JUMP JUMPDEST SWAP3 POP DUP3 PUSH2 0x27D9 JUMPI PUSH2 0x27D8 PUSH2 0x29D7 JUMP JUMPDEST JUMPDEST DUP3 DUP3 DIV SWAP1 POP SWAP3 SWAP2 POP POP JUMP JUMPDEST PUSH1 0x0 PUSH2 0x27EF DUP3 PUSH2 0x2882 JUMP JUMPDEST SWAP2 POP PUSH2 0x27FA DUP4 PUSH2 0x2882 JUMP JUMPDEST SWAP3 POP DUP3 DUP3 LT ISZERO PUSH2 0x280D JUMPI PUSH2 0x280C PUSH2 0x29A8 JUMP JUMPDEST JUMPDEST DUP3 DUP3 SUB SWAP1 POP SWAP3 SWAP2 POP POP JUMP JUMPDEST PUSH1 0x0 PUSH2 0x2823 DUP3 PUSH2 0x2862 JUMP JUMPDEST SWAP1 POP SWAP2 SWAP1 POP JUMP JUMPDEST PUSH1 0x0 DUP2 ISZERO ISZERO SWAP1 POP SWAP2 SWAP1 POP JUMP JUMPDEST PUSH1 0x0 PUSH32 0xFFFFFFFF00000000000000000000000000000000000000000000000000000000 DUP3 AND SWAP1 POP SWAP2 SWAP1 POP JUMP JUMPDEST PUSH1 0x0 PUSH20 0xFFFFFFFFFFFFFFFFFFFFFFFFFFFFFFFFFFFFFFFF DUP3 AND SWAP1 POP SWAP2 SWAP1 POP JUMP JUMPDEST PUSH1 0x0 DUP2 SWAP1 POP SWAP2 SWAP1 POP JUMP JUMPDEST DUP3 DUP2 DUP4 CALLDATACOPY PUSH1 0x0 DUP4 DUP4 ADD MSTORE POP POP POP JUMP JUMPDEST PUSH1 0x0 JUMPDEST DUP4 DUP2 LT ISZERO PUSH2 0x28B9 JUMPI DUP1 DUP3 ADD MLOAD DUP2 DUP5 ADD MSTORE PUSH1 0x20 DUP2 ADD SWAP1 POP PUSH2 0x289E JUMP JUMPDEST DUP4 DUP2 GT ISZERO PUSH2 0x28C8 JUMPI PUSH1 0x0 DUP5 DUP5 ADD MSTORE JUMPDEST POP POP POP POP JUMP JUMPDEST PUSH1 0x0 PUSH1 0x2 DUP3 DIV SWAP1 POP PUSH1 0x1 DUP3 AND DUP1 PUSH2 0x28E6 JUMPI PUSH1 0x7F DUP3 AND SWAP2 POP JUMPDEST PUSH1 0x20 DUP3 LT DUP2 EQ ISZERO PUSH2 0x28FA JUMPI PUSH2 0x28F9 PUSH2 0x2A06 JUMP JUMPDEST JUMPDEST POP SWAP2 SWAP1 POP JUMP JUMPDEST PUSH1 0x0 PUSH2 0x290B DUP3 PUSH2 0x2882 JUMP JUMPDEST SWAP2 POP PUSH32 0xFFFFFFFFFFFFFFFFFFFFFFFFFFFFFFFFFFFFFFFFFFFFFFFFFFFFFFFFFFFFFFFF DUP3 EQ ISZERO PUSH2 0x293E JUMPI PUSH2 0x293D PUSH2 0x29A8 JUMP JUMPDEST JUMPDEST PUSH1 0x1 DUP3 ADD SWAP1 POP SWAP2 SWAP1 POP JUMP JUMPDEST PUSH1 0x0 PUSH2 0x2954 DUP3 PUSH2 0x295B JUMP JUMPDEST SWAP1 POP SWAP2 SWAP1 POP JUMP JUMPDEST PUSH1 0x0 PUSH2 0x2966 DUP3 PUSH2 0x2A75 JUMP JUMPDEST SWAP1 POP SWAP2 SWAP1 POP JUMP JUMPDEST PUSH1 0x0 DUP2 SWAP1 POP SWAP2 SWAP1 POP JUMP JUMPDEST PUSH1 0x0 PUSH2 0x2982 DUP3 PUSH2 0x2882 JUMP JUMPDEST SWAP2 POP PUSH2 0x298D DUP4 PUSH2 0x2882 JUMP JUMPDEST SWAP3 POP DUP3 PUSH2 0x299D JUMPI PUSH2 0x299C PUSH2 0x29D7 JUMP JUMPDEST JUMPDEST DUP3 DUP3 MOD SWAP1 POP SWAP3 SWAP2 POP POP JUMP JUMPDEST PUSH32 0x4E487B7100000000000000000000000000000000000000000000000000000000 PUSH1 0x0 MSTORE PUSH1 0x11 PUSH1 0x4 MSTORE PUSH1 0x24 PUSH1 0x0 REVERT JUMPDEST PUSH32 0x4E487B7100000000000000000000000000000000000000000000000000000000 PUSH1 0x0 MSTORE PUSH1 0x12 PUSH1 0x4 MSTORE PUSH1 0x24 PUSH1 0x0 REVERT JUMPDEST PUSH32 0x4E487B7100000000000000000000000000000000000000000000000000000000 PUSH1 0x0 MSTORE PUSH1 0x22 PUSH1 0x4 MSTORE PUSH1 0x24 PUSH1 0x0 REVERT JUMPDEST PUSH32 0x4E487B7100000000000000000000000000000000000000000000000000000000 PUSH1 0x0 MSTORE PUSH1 0x41 PUSH1 0x4 MSTORE PUSH1 0x24 PUSH1 0x0 REVERT JUMPDEST PUSH1 0x0 PUSH1 0x1F NOT PUSH1 0x1F DUP4 ADD AND SWAP1 POP SWAP2 SWAP1 POP JUMP JUMPDEST PUSH1 0x0 DUP2 PUSH1 0x60 SHL SWAP1 POP SWAP2 SWAP1 POP JUMP JUMPDEST PUSH2 0x2A8B DUP2 PUSH2 0x2818 JUMP JUMPDEST DUP2 EQ PUSH2 0x2A96 JUMPI PUSH1 0x0 DUP1 REVERT JUMPDEST POP JUMP JUMPDEST PUSH2 0x2AA2 DUP2 PUSH2 0x282A JUMP JUMPDEST DUP2 EQ PUSH2 0x2AAD JUMPI PUSH1 0x0 DUP1 REVERT JUMPDEST POP JUMP JUMPDEST PUSH2 0x2AB9 DUP2 PUSH2 0x2836 JUMP JUMPDEST DUP2 EQ PUSH2 0x2AC4 JUMPI PUSH1 0x0 DUP1 REVERT JUMPDEST POP JUMP JUMPDEST PUSH2 0x2AD0 DUP2 PUSH2 0x2882 JUMP JUMPDEST DUP2 EQ PUSH2 0x2ADB JUMPI PUSH1 0x0 DUP1 REVERT JUMPDEST POP JUMP INVALID LOG2 PUSH5 0x6970667358 0x22 SLT KECCAK256 NUMBER 0xEF RETURN 0xDB 0xAA SHR 0xAD PUSH23 0x8A3A038A34BAA814D3CAE884B6FA185F5B724E66221B87 0xB4 PUSH5 0x736F6C6343 STOP ADDMOD STOP STOP CALLER "
        },
        "methodIdentifiers": {
          "approve(address,uint256)": "095ea7b3",
          "balanceOf(address)": "70a08231",
          "dnaLength()": "956d1778",
          "dnaSequences(uint256)": "052016d6",
          "generateRandomNumber()": "773a1154",
          "getApproved(uint256)": "081812fc",
          "getBodyData(uint256)": "db5cc181",
          "getFaceData(uint256)": "2236e18b",
          "initializeDna(uint256)": "fe1df35c",
          "isApprovedForAll(address,address)": "e985e9c5",
          "mintMon()": "c9efaea4",
          "name()": "06fdde03",
          "numOptions()": "4b97aed9",
          "ownerOf(uint256)": "6352211e",
          "safeTransferFrom(address,address,uint256)": "42842e0e",
          "safeTransferFrom(address,address,uint256,bytes)": "b88d4fde",
          "setApprovalForAll(address,bool)": "a22cb465",
          "supportsInterface(bytes4)": "01ffc9a7",
          "symbol()": "95d89b41",
          "tokenURI(uint256)": "c87b56dd",
          "transferFrom(address,address,uint256)": "23b872dd"
        }
      }
    }
  }
}