{
  "_format": "hh-sol-artifact-1",
  "contractName": "EnumerableAddressSetMock",
  "sourceName": "contracts/openzeppelin-contracts/mocks/EnumerableSetMock.sol",
  "abi": [
    {
      "anonymous": false,
      "inputs": [
        {
          "indexed": false,
          "internalType": "bool",
          "name": "result",
          "type": "bool"
        }
      ],
      "name": "OperationResult",
      "type": "event"
    },
    {
      "inputs": [
        {
          "internalType": "address",
          "name": "value",
          "type": "address"
        }
      ],
      "name": "add",
      "outputs": [],
      "stateMutability": "nonpayable",
      "type": "function"
    },
    {
      "inputs": [
        {
          "internalType": "uint256",
          "name": "index",
          "type": "uint256"
        }
      ],
      "name": "at",
      "outputs": [
        {
          "internalType": "address",
          "name": "",
          "type": "address"
        }
      ],
      "stateMutability": "view",
      "type": "function"
    },
    {
      "inputs": [
        {
          "internalType": "address",
          "name": "value",
          "type": "address"
        }
      ],
      "name": "contains",
      "outputs": [
        {
          "internalType": "bool",
          "name": "",
          "type": "bool"
        }
      ],
      "stateMutability": "view",
      "type": "function"
    },
    {
      "inputs": [],
      "name": "length",
      "outputs": [
        {
          "internalType": "uint256",
          "name": "",
          "type": "uint256"
        }
      ],
      "stateMutability": "view",
      "type": "function"
    },
    {
      "inputs": [
        {
          "internalType": "address",
          "name": "value",
          "type": "address"
        }
      ],
      "name": "remove",
      "outputs": [],
      "stateMutability": "nonpayable",
      "type": "function"
    }
  ],
  "bytecode": "0x608060405234801561001057600080fd5b5061081e806100206000396000f3fe608060405234801561001057600080fd5b50600436106100575760003560e01c80630a3b0a4f1461005c5780631f7b6d321461007857806329092d0e146100965780635dbe47e8146100b2578063e0886f90146100e2575b600080fd5b610076600480360381019061007191906105a8565b610112565b005b610080610165565b60405161008d91906106e3565b60405180910390f35b6100b060048036038101906100ab91906105a8565b610176565b005b6100cc60048036038101906100c791906105a8565b6101c9565b6040516100d991906106a8565b60405180910390f35b6100fc60048036038101906100f791906105d1565b6101e6565b604051610109919061068d565b60405180910390f35b600061012882600061020390919063ffffffff16565b90507fed9840e0775590557ad736875d96c95cf1458b766335f74339951a32c82a9e338160405161015991906106a8565b60405180910390a15050565b60006101716000610233565b905090565b600061018c82600061024890919063ffffffff16565b90507fed9840e0775590557ad736875d96c95cf1458b766335f74339951a32c82a9e33816040516101bd91906106a8565b60405180910390a15050565b60006101df82600061027890919063ffffffff16565b9050919050565b60006101fc8260006102a890919063ffffffff16565b9050919050565b600061022b836000018373ffffffffffffffffffffffffffffffffffffffff1660001b6102c2565b905092915050565b600061024182600001610332565b9050919050565b6000610270836000018373ffffffffffffffffffffffffffffffffffffffff1660001b610343565b905092915050565b60006102a0836000018373ffffffffffffffffffffffffffffffffffffffff1660001b6104c1565b905092915050565b60006102b783600001836104e4565b60001c905092915050565b60006102ce83836104c1565b61032757826000018290806001815401808255809150506001900390600052602060002001600090919091909150558260000180549050836001016000848152602001908152602001600020819055506001905061032c565b600090505b92915050565b600081600001805490509050919050565b600080836001016000848152602001908152602001600020549050600081146104b5576000600182610375919061070f565b905060006001866000018054905061038d919061070f565b905060008660000182815481106103cd577f4e487b7100000000000000000000000000000000000000000000000000000000600052603260045260246000fd5b9060005260206000200154905080876000018481548110610417577f4e487b7100000000000000000000000000000000000000000000000000000000600052603260045260246000fd5b9060005260206000200181905550838760010160008381526020019081526020016000208190555086600001805480610479577f4e487b7100000000000000000000000000000000000000000000000000000000600052603160045260246000fd5b600190038181906000526020600020016000905590558660010160008781526020019081526020016000206000905560019450505050506104bb565b60009150505b92915050565b600080836001016000848152602001908152602001600020541415905092915050565b60008183600001805490501161052f576040517f08c379a0000000000000000000000000000000000000000000000000000000008152600401610526906106c3565b60405180910390fd5b82600001828154811061056b577f4e487b7100000000000000000000000000000000000000000000000000000000600052603260045260246000fd5b9060005260206000200154905092915050565b60008135905061058d816107ba565b92915050565b6000813590506105a2816107d1565b92915050565b6000602082840312156105ba57600080fd5b60006105c88482850161057e565b91505092915050565b6000602082840312156105e357600080fd5b60006105f184828501610593565b91505092915050565b61060381610743565b82525050565b61061281610755565b82525050565b60006106256022836106fe565b91507f456e756d657261626c655365743a20696e646578206f7574206f6620626f756e60008301527f64730000000000000000000000000000000000000000000000000000000000006020830152604082019050919050565b61068781610781565b82525050565b60006020820190506106a260008301846105fa565b92915050565b60006020820190506106bd6000830184610609565b92915050565b600060208201905081810360008301526106dc81610618565b9050919050565b60006020820190506106f8600083018461067e565b92915050565b600082825260208201905092915050565b600061071a82610781565b915061072583610781565b9250828210156107385761073761078b565b5b828203905092915050565b600061074e82610761565b9050919050565b60008115159050919050565b600073ffffffffffffffffffffffffffffffffffffffff82169050919050565b6000819050919050565b7f4e487b7100000000000000000000000000000000000000000000000000000000600052601160045260246000fd5b6107c381610743565b81146107ce57600080fd5b50565b6107da81610781565b81146107e557600080fd5b5056fea2646970667358221220dca5471cd9aa7d9cf091ee172d28687ae525d48e9b6349d87cb058706003038664736f6c63430008000033",
  "linkReferences": {},
  "deployedLinkReferences": {}
}