{
  "_format": "hh-sol-artifact-1",
  "contractName": "PullPaymentMock",
  "sourceName": "contracts/openzeppelin-contracts/mocks/PullPaymentMock.sol",
  "abi": [
    {
      "inputs": [],
      "stateMutability": "payable",
      "type": "constructor"
    },
    {
      "inputs": [
        {
          "internalType": "address",
          "name": "dest",
          "type": "address"
        },
        {
          "internalType": "uint256",
          "name": "amount",
          "type": "uint256"
        }
      ],
      "name": "callTransfer",
      "outputs": [],
      "stateMutability": "nonpayable",
      "type": "function"
    },
    {
      "inputs": [
        {
          "internalType": "address",
          "name": "dest",
          "type": "address"
        }
      ],
      "name": "payments",
      "outputs": [
        {
          "internalType": "uint256",
          "name": "",
          "type": "uint256"
        }
      ],
      "stateMutability": "view",
      "type": "function"
    },
    {
      "inputs": [
        {
          "internalType": "address payable",
          "name": "payee",
          "type": "address"
        }
      ],
      "name": "withdrawPayments",
      "outputs": [],
      "stateMutability": "nonpayable",
      "type": "function"
    }
  ],
  "bytecode": "0x60a060405260405161001090610068565b604051809103906000f08015801561002c573d6000803e3d6000fd5b5073ffffffffffffffffffffffffffffffffffffffff1660808173ffffffffffffffffffffffffffffffffffffffff1660601b81525050610075565b610d728061057e83390190565b60805160601c6104de6100a06000396000818160b00152818161014e01526101fe01526104de6000f3fe608060405234801561001057600080fd5b50600436106100415760003560e01c806331b3eb9414610046578063d444099114610062578063e2982c211461007e575b600080fd5b610060600480360381019061005b9190610309565b6100ae565b005b61007c60048036038101906100779190610332565b61013c565b005b610098600480360381019061009391906102e0565b61014a565b6040516100a591906103fa565b60405180910390f35b7f000000000000000000000000000000000000000000000000000000000000000073ffffffffffffffffffffffffffffffffffffffff166351cff8d9826040518263ffffffff1660e01b815260040161010791906103df565b600060405180830381600087803b15801561012157600080fd5b505af1158015610135573d6000803e3d6000fd5b5050505050565b61014682826101fc565b5050565b60007f000000000000000000000000000000000000000000000000000000000000000073ffffffffffffffffffffffffffffffffffffffff1663e3a9db1a836040518263ffffffff1660e01b81526004016101a591906103c4565b60206040518083038186803b1580156101bd57600080fd5b505afa1580156101d1573d6000803e3d6000fd5b505050506040513d601f19601f820116820180604052508101906101f5919061036e565b9050919050565b7f000000000000000000000000000000000000000000000000000000000000000073ffffffffffffffffffffffffffffffffffffffff1663f340fa0182846040518363ffffffff1660e01b815260040161025691906103c4565b6000604051808303818588803b15801561026f57600080fd5b505af1158015610283573d6000803e3d6000fd5b50505050505050565b60008135905061029b81610463565b92915050565b6000813590506102b08161047a565b92915050565b6000813590506102c581610491565b92915050565b6000815190506102da81610491565b92915050565b6000602082840312156102f257600080fd5b60006103008482850161028c565b91505092915050565b60006020828403121561031b57600080fd5b6000610329848285016102a1565b91505092915050565b6000806040838503121561034557600080fd5b60006103538582860161028c565b9250506020610364858286016102b6565b9150509250929050565b60006020828403121561038057600080fd5b600061038e848285016102cb565b91505092915050565b6103a081610427565b82525050565b6103af81610415565b82525050565b6103be81610459565b82525050565b60006020820190506103d960008301846103a6565b92915050565b60006020820190506103f46000830184610397565b92915050565b600060208201905061040f60008301846103b5565b92915050565b600061042082610439565b9050919050565b600061043282610439565b9050919050565b600073ffffffffffffffffffffffffffffffffffffffff82169050919050565b6000819050919050565b61046c81610415565b811461047757600080fd5b50565b61048381610427565b811461048e57600080fd5b50565b61049a81610459565b81146104a557600080fd5b5056fea2646970667358221220477eaac7e121c57a480c9a0b417710450a24dcbca017b0c8e5bc74611c26b90164736f6c63430008000033608060405234801561001057600080fd5b5060006100216100c460201b60201c565b9050806000806101000a81548173ffffffffffffffffffffffffffffffffffffffff021916908373ffffffffffffffffffffffffffffffffffffffff1602179055508073ffffffffffffffffffffffffffffffffffffffff16600073ffffffffffffffffffffffffffffffffffffffff167f8be0079c531659141344cd1fd0a4f28419497f9722a3daafe3b4186f6b6457e060405160405180910390a3506100cc565b600033905090565b610c97806100db6000396000f3fe6080604052600436106100555760003560e01c806351cff8d91461005a578063715018a6146100835780638da5cb5b1461009a578063e3a9db1a146100c5578063f2fde38b14610102578063f340fa011461012b575b600080fd5b34801561006657600080fd5b50610081600480360381019061007c91906108cc565b610147565b005b34801561008f57600080fd5b506100986102c7565b005b3480156100a657600080fd5b506100af610401565b6040516100bc9190610a8e565b60405180910390f35b3480156100d157600080fd5b506100ec60048036038101906100e791906108a3565b61042a565b6040516100f99190610b29565b60405180910390f35b34801561010e57600080fd5b50610129600480360381019061012491906108a3565b610473565b005b610145600480360381019061014091906108a3565b61061c565b005b61014f61077d565b73ffffffffffffffffffffffffffffffffffffffff1661016d610401565b73ffffffffffffffffffffffffffffffffffffffff16146101c3576040517f08c379a00000000000000000000000000000000000000000000000000000000081526004016101ba90610b09565b60405180910390fd5b6000600160008373ffffffffffffffffffffffffffffffffffffffff1673ffffffffffffffffffffffffffffffffffffffff1681526020019081526020016000205490506000600160008473ffffffffffffffffffffffffffffffffffffffff1673ffffffffffffffffffffffffffffffffffffffff16815260200190815260200160002081905550610275818373ffffffffffffffffffffffffffffffffffffffff1661078590919063ffffffff16565b8173ffffffffffffffffffffffffffffffffffffffff167f7084f5476618d8e60b11ef0d7d3f06914655adb8793e28ff7f018d4c76d505d5826040516102bb9190610b29565b60405180910390a25050565b6102cf61077d565b73ffffffffffffffffffffffffffffffffffffffff166102ed610401565b73ffffffffffffffffffffffffffffffffffffffff1614610343576040517f08c379a000000000000000000000000000000000000000000000000000000000815260040161033a90610b09565b60405180910390fd5b600073ffffffffffffffffffffffffffffffffffffffff1660008054906101000a900473ffffffffffffffffffffffffffffffffffffffff1673ffffffffffffffffffffffffffffffffffffffff167f8be0079c531659141344cd1fd0a4f28419497f9722a3daafe3b4186f6b6457e060405160405180910390a360008060006101000a81548173ffffffffffffffffffffffffffffffffffffffff021916908373ffffffffffffffffffffffffffffffffffffffff160217905550565b60008060009054906101000a900473ffffffffffffffffffffffffffffffffffffffff16905090565b6000600160008373ffffffffffffffffffffffffffffffffffffffff1673ffffffffffffffffffffffffffffffffffffffff168152602001908152602001600020549050919050565b61047b61077d565b73ffffffffffffffffffffffffffffffffffffffff16610499610401565b73ffffffffffffffffffffffffffffffffffffffff16146104ef576040517f08c379a00000000000000000000000000000000000000000000000000000000081526004016104e690610b09565b60405180910390fd5b600073ffffffffffffffffffffffffffffffffffffffff168173ffffffffffffffffffffffffffffffffffffffff16141561055f576040517f08c379a000000000000000000000000000000000000000000000000000000000815260040161055690610aa9565b60405180910390fd5b8073ffffffffffffffffffffffffffffffffffffffff1660008054906101000a900473ffffffffffffffffffffffffffffffffffffffff1673ffffffffffffffffffffffffffffffffffffffff167f8be0079c531659141344cd1fd0a4f28419497f9722a3daafe3b4186f6b6457e060405160405180910390a3806000806101000a81548173ffffffffffffffffffffffffffffffffffffffff021916908373ffffffffffffffffffffffffffffffffffffffff16021790555050565b61062461077d565b73ffffffffffffffffffffffffffffffffffffffff16610642610401565b73ffffffffffffffffffffffffffffffffffffffff1614610698576040517f08c379a000000000000000000000000000000000000000000000000000000000815260040161068f90610b09565b60405180910390fd5b600034905080600160008473ffffffffffffffffffffffffffffffffffffffff1673ffffffffffffffffffffffffffffffffffffffff168152602001908152602001600020546106e89190610b60565b600160008473ffffffffffffffffffffffffffffffffffffffff1673ffffffffffffffffffffffffffffffffffffffff168152602001908152602001600020819055508173ffffffffffffffffffffffffffffffffffffffff167f2da466a7b24304f47e87fa2e1e5a81b9831ce54fec19055ce277ca2f39ba42c4826040516107719190610b29565b60405180910390a25050565b600033905090565b804710156107c8576040517f08c379a00000000000000000000000000000000000000000000000000000000081526004016107bf90610ae9565b60405180910390fd5b60008273ffffffffffffffffffffffffffffffffffffffff16826040516107ee90610a79565b60006040518083038185875af1925050503d806000811461082b576040519150601f19603f3d011682016040523d82523d6000602084013e610830565b606091505b5050905080610874576040517f08c379a000000000000000000000000000000000000000000000000000000000815260040161086b90610ac9565b60405180910390fd5b505050565b60008135905061088881610c33565b92915050565b60008135905061089d81610c4a565b92915050565b6000602082840312156108b557600080fd5b60006108c384828501610879565b91505092915050565b6000602082840312156108de57600080fd5b60006108ec8482850161088e565b91505092915050565b6108fe81610bb6565b82525050565b6000610911602683610b4f565b91507f4f776e61626c653a206e6577206f776e657220697320746865207a65726f206160008301527f64647265737300000000000000000000000000000000000000000000000000006020830152604082019050919050565b6000610977603a83610b4f565b91507f416464726573733a20756e61626c6520746f2073656e642076616c75652c207260008301527f6563697069656e74206d617920686176652072657665727465640000000000006020830152604082019050919050565b60006109dd601d83610b4f565b91507f416464726573733a20696e73756666696369656e742062616c616e63650000006000830152602082019050919050565b6000610a1d602083610b4f565b91507f4f776e61626c653a2063616c6c6572206973206e6f7420746865206f776e65726000830152602082019050919050565b6000610a5d600083610b44565b9150600082019050919050565b610a7381610bfa565b82525050565b6000610a8482610a50565b9150819050919050565b6000602082019050610aa360008301846108f5565b92915050565b60006020820190508181036000830152610ac281610904565b9050919050565b60006020820190508181036000830152610ae28161096a565b9050919050565b60006020820190508181036000830152610b02816109d0565b9050919050565b60006020820190508181036000830152610b2281610a10565b9050919050565b6000602082019050610b3e6000830184610a6a565b92915050565b600081905092915050565b600082825260208201905092915050565b6000610b6b82610bfa565b9150610b7683610bfa565b9250827fffffffffffffffffffffffffffffffffffffffffffffffffffffffffffffffff03821115610bab57610baa610c04565b5b828201905092915050565b6000610bc182610bda565b9050919050565b6000610bd382610bda565b9050919050565b600073ffffffffffffffffffffffffffffffffffffffff82169050919050565b6000819050919050565b7f4e487b7100000000000000000000000000000000000000000000000000000000600052601160045260246000fd5b610c3c81610bb6565b8114610c4757600080fd5b50565b610c5381610bc8565b8114610c5e57600080fd5b5056fea2646970667358221220ff7a6d6acc2d40e12ccc22cb3f7df9bb3309bcb3317e29ef4051cf0df382c5c064736f6c63430008000033",
  "linkReferences": {},
  "deployedLinkReferences": {}
}