{
  "_format": "hh-sol-artifact-1",
  "contractName": "ERC1155Mock",
  "sourceName": "contracts/openzeppelin-contracts/mocks/ERC1155Mock.sol",
  "abi": [
    {
      "inputs": [
        {
          "internalType": "string",
          "name": "uri",
          "type": "string"
        }
      ],
      "stateMutability": "nonpayable",
      "type": "constructor"
    },
    {
      "anonymous": false,
      "inputs": [
        {
          "indexed": true,
          "internalType": "address",
          "name": "account",
          "type": "address"
        },
        {
          "indexed": true,
          "internalType": "address",
          "name": "operator",
          "type": "address"
        },
        {
          "indexed": false,
          "internalType": "bool",
          "name": "approved",
          "type": "bool"
        }
      ],
      "name": "ApprovalForAll",
      "type": "event"
    },
    {
      "anonymous": false,
      "inputs": [
        {
          "indexed": true,
          "internalType": "address",
          "name": "operator",
          "type": "address"
        },
        {
          "indexed": true,
          "internalType": "address",
          "name": "from",
          "type": "address"
        },
        {
          "indexed": true,
          "internalType": "address",
          "name": "to",
          "type": "address"
        },
        {
          "indexed": false,
          "internalType": "uint256[]",
          "name": "ids",
          "type": "uint256[]"
        },
        {
          "indexed": false,
          "internalType": "uint256[]",
          "name": "values",
          "type": "uint256[]"
        }
      ],
      "name": "TransferBatch",
      "type": "event"
    },
    {
      "anonymous": false,
      "inputs": [
        {
          "indexed": true,
          "internalType": "address",
          "name": "operator",
          "type": "address"
        },
        {
          "indexed": true,
          "internalType": "address",
          "name": "from",
          "type": "address"
        },
        {
          "indexed": true,
          "internalType": "address",
          "name": "to",
          "type": "address"
        },
        {
          "indexed": false,
          "internalType": "uint256",
          "name": "id",
          "type": "uint256"
        },
        {
          "indexed": false,
          "internalType": "uint256",
          "name": "value",
          "type": "uint256"
        }
      ],
      "name": "TransferSingle",
      "type": "event"
    },
    {
      "anonymous": false,
      "inputs": [
        {
          "indexed": false,
          "internalType": "string",
          "name": "value",
          "type": "string"
        },
        {
          "indexed": true,
          "internalType": "uint256",
          "name": "id",
          "type": "uint256"
        }
      ],
      "name": "URI",
      "type": "event"
    },
    {
      "inputs": [
        {
          "internalType": "address",
          "name": "account",
          "type": "address"
        },
        {
          "internalType": "uint256",
          "name": "id",
          "type": "uint256"
        }
      ],
      "name": "balanceOf",
      "outputs": [
        {
          "internalType": "uint256",
          "name": "",
          "type": "uint256"
        }
      ],
      "stateMutability": "view",
      "type": "function"
    },
    {
      "inputs": [
        {
          "internalType": "address[]",
          "name": "accounts",
          "type": "address[]"
        },
        {
          "internalType": "uint256[]",
          "name": "ids",
          "type": "uint256[]"
        }
      ],
      "name": "balanceOfBatch",
      "outputs": [
        {
          "internalType": "uint256[]",
          "name": "",
          "type": "uint256[]"
        }
      ],
      "stateMutability": "view",
      "type": "function"
    },
    {
      "inputs": [
        {
          "internalType": "address",
          "name": "owner",
          "type": "address"
        },
        {
          "internalType": "uint256",
          "name": "id",
          "type": "uint256"
        },
        {
          "internalType": "uint256",
          "name": "value",
          "type": "uint256"
        }
      ],
      "name": "burn",
      "outputs": [],
      "stateMutability": "nonpayable",
      "type": "function"
    },
    {
      "inputs": [
        {
          "internalType": "address",
          "name": "owner",
          "type": "address"
        },
        {
          "internalType": "uint256[]",
          "name": "ids",
          "type": "uint256[]"
        },
        {
          "internalType": "uint256[]",
          "name": "values",
          "type": "uint256[]"
        }
      ],
      "name": "burnBatch",
      "outputs": [],
      "stateMutability": "nonpayable",
      "type": "function"
    },
    {
      "inputs": [
        {
          "internalType": "address",
          "name": "account",
          "type": "address"
        },
        {
          "internalType": "address",
          "name": "operator",
          "type": "address"
        }
      ],
      "name": "isApprovedForAll",
      "outputs": [
        {
          "internalType": "bool",
          "name": "",
          "type": "bool"
        }
      ],
      "stateMutability": "view",
      "type": "function"
    },
    {
      "inputs": [
        {
          "internalType": "address",
          "name": "to",
          "type": "address"
        },
        {
          "internalType": "uint256",
          "name": "id",
          "type": "uint256"
        },
        {
          "internalType": "uint256",
          "name": "value",
          "type": "uint256"
        },
        {
          "internalType": "bytes",
          "name": "data",
          "type": "bytes"
        }
      ],
      "name": "mint",
      "outputs": [],
      "stateMutability": "nonpayable",
      "type": "function"
    },
    {
      "inputs": [
        {
          "internalType": "address",
          "name": "to",
          "type": "address"
        },
        {
          "internalType": "uint256[]",
          "name": "ids",
          "type": "uint256[]"
        },
        {
          "internalType": "uint256[]",
          "name": "values",
          "type": "uint256[]"
        },
        {
          "internalType": "bytes",
          "name": "data",
          "type": "bytes"
        }
      ],
      "name": "mintBatch",
      "outputs": [],
      "stateMutability": "nonpayable",
      "type": "function"
    },
    {
      "inputs": [
        {
          "internalType": "address",
          "name": "from",
          "type": "address"
        },
        {
          "internalType": "address",
          "name": "to",
          "type": "address"
        },
        {
          "internalType": "uint256[]",
          "name": "ids",
          "type": "uint256[]"
        },
        {
          "internalType": "uint256[]",
          "name": "amounts",
          "type": "uint256[]"
        },
        {
          "internalType": "bytes",
          "name": "data",
          "type": "bytes"
        }
      ],
      "name": "safeBatchTransferFrom",
      "outputs": [],
      "stateMutability": "nonpayable",
      "type": "function"
    },
    {
      "inputs": [
        {
          "internalType": "address",
          "name": "from",
          "type": "address"
        },
        {
          "internalType": "address",
          "name": "to",
          "type": "address"
        },
        {
          "internalType": "uint256",
          "name": "id",
          "type": "uint256"
        },
        {
          "internalType": "uint256",
          "name": "amount",
          "type": "uint256"
        },
        {
          "internalType": "bytes",
          "name": "data",
          "type": "bytes"
        }
      ],
      "name": "safeTransferFrom",
      "outputs": [],
      "stateMutability": "nonpayable",
      "type": "function"
    },
    {
      "inputs": [
        {
          "internalType": "address",
          "name": "operator",
          "type": "address"
        },
        {
          "internalType": "bool",
          "name": "approved",
          "type": "bool"
        }
      ],
      "name": "setApprovalForAll",
      "outputs": [],
      "stateMutability": "nonpayable",
      "type": "function"
    },
    {
      "inputs": [
        {
          "internalType": "string",
          "name": "newuri",
          "type": "string"
        }
      ],
      "name": "setURI",
      "outputs": [],
      "stateMutability": "nonpayable",
      "type": "function"
    },
    {
      "inputs": [
        {
          "internalType": "bytes4",
          "name": "interfaceId",
          "type": "bytes4"
        }
      ],
      "name": "supportsInterface",
      "outputs": [
        {
          "internalType": "bool",
          "name": "",
          "type": "bool"
        }
      ],
      "stateMutability": "view",
      "type": "function"
    },
    {
      "inputs": [
        {
          "internalType": "uint256",
          "name": "",
          "type": "uint256"
        }
      ],
      "name": "uri",
      "outputs": [
        {
          "internalType": "string",
          "name": "",
          "type": "string"
        }
      ],
      "stateMutability": "view",
      "type": "function"
    }
  ],
  "bytecode": "0x60806040523480156200001157600080fd5b50604051620038103803806200381083398181016040528101906200003791906200018f565b8062000049816200005160201b60201c565b505062000305565b8060029080519060200190620000699291906200006d565b5050565b8280546200007b9062000271565b90600052602060002090601f0160209004810192826200009f5760008555620000eb565b82601f10620000ba57805160ff1916838001178555620000eb565b82800160010185558215620000eb579182015b82811115620000ea578251825591602001919060010190620000cd565b5b509050620000fa9190620000fe565b5090565b5b8082111562000119576000816000905550600101620000ff565b5090565b6000620001346200012e8462000208565b620001d4565b9050828152602081018484840111156200014d57600080fd5b6200015a8482856200023b565b509392505050565b600082601f8301126200017457600080fd5b8151620001868482602086016200011d565b91505092915050565b600060208284031215620001a257600080fd5b600082015167ffffffffffffffff811115620001bd57600080fd5b620001cb8482850162000162565b91505092915050565b6000604051905081810181811067ffffffffffffffff82111715620001fe57620001fd620002d6565b5b8060405250919050565b600067ffffffffffffffff821115620002265762000225620002d6565b5b601f19601f8301169050602081019050919050565b60005b838110156200025b5780820151818401526020810190506200023e565b838111156200026b576000848401525b50505050565b600060028204905060018216806200028a57607f821691505b60208210811415620002a157620002a0620002a7565b5b50919050565b7f4e487b7100000000000000000000000000000000000000000000000000000000600052602260045260246000fd5b7f4e487b7100000000000000000000000000000000000000000000000000000000600052604160045260246000fd5b6134fb80620003156000396000f3fe608060405234801561001057600080fd5b50600436106100ce5760003560e01c80634e1273f41161008c578063a22cb46511610066578063a22cb4651461021f578063e985e9c51461023b578063f242432a1461026b578063f5298aca14610287576100ce565b80634e1273f4146101b75780636b20c454146101e7578063731133e914610203576100ce565b8062fdd58e146100d357806301ffc9a71461010357806302fe5305146101335780630e89341c1461014f5780631f7fdffa1461017f5780632eb2c2d61461019b575b600080fd5b6100ed60048036038101906100e89190612437565b6102a3565b6040516100fa9190612faf565b60405180910390f35b61011d600480360381019061011891906125a9565b61036c565b60405161012a9190612dd2565b60405180910390f35b61014d600480360381019061014891906125fb565b61044e565b005b6101696004803603810190610164919061263c565b61045a565b6040516101769190612ded565b60405180910390f35b61019960048036038101906101949190612350565b6104ee565b005b6101b560048036038101906101b09190612183565b610500565b005b6101d160048036038101906101cc919061253d565b6108f6565b6040516101de9190612d79565b60405180910390f35b61020160048036038101906101fc91906122d1565b610aa7565b005b61021d600480360381019061021891906124c2565b610ab7565b005b610239600480360381019061023491906123fb565b610ac9565b005b61025560048036038101906102509190612147565b610c4a565b6040516102629190612dd2565b60405180910390f35b61028560048036038101906102809190612242565b610cde565b005b6102a1600480360381019061029c9190612473565b610ff6565b005b60008073ffffffffffffffffffffffffffffffffffffffff168373ffffffffffffffffffffffffffffffffffffffff161415610314576040517f08c379a000000000000000000000000000000000000000000000000000000000815260040161030b90612e4f565b60405180910390fd5b60008083815260200190815260200160002060008473ffffffffffffffffffffffffffffffffffffffff1673ffffffffffffffffffffffffffffffffffffffff16815260200190815260200160002054905092915050565b60007fd9b67a26000000000000000000000000000000000000000000000000000000007bffffffffffffffffffffffffffffffffffffffffffffffffffffffff1916827bffffffffffffffffffffffffffffffffffffffffffffffffffffffff1916148061043757507f0e89341c000000000000000000000000000000000000000000000000000000007bffffffffffffffffffffffffffffffffffffffffffffffffffffffff1916827bffffffffffffffffffffffffffffffffffffffffffffffffffffffff1916145b80610447575061044682611006565b5b9050919050565b61045781611070565b50565b6060600280546104699061328d565b80601f01602080910402602001604051908101604052809291908181526020018280546104959061328d565b80156104e25780601f106104b7576101008083540402835291602001916104e2565b820191906000526020600020905b8154815290600101906020018083116104c557829003601f168201915b50505050509050919050565b6104fa8484848461108a565b50505050565b8151835114610544576040517f08c379a000000000000000000000000000000000000000000000000000000000815260040161053b90612f6f565b60405180910390fd5b600073ffffffffffffffffffffffffffffffffffffffff168473ffffffffffffffffffffffffffffffffffffffff1614156105b4576040517f08c379a00000000000000000000000000000000000000000000000000000000081526004016105ab90612eaf565b60405180910390fd5b6105bc6112f4565b73ffffffffffffffffffffffffffffffffffffffff168573ffffffffffffffffffffffffffffffffffffffff1614806106025750610601856105fc6112f4565b610c4a565b5b610641576040517f08c379a000000000000000000000000000000000000000000000000000000000815260040161063890612ecf565b60405180910390fd5b600061064b6112f4565b905061065b8187878787876112fc565b60005b84518110156108615760008582815181106106a2577f4e487b7100000000000000000000000000000000000000000000000000000000600052603260045260246000fd5b6020026020010151905060008583815181106106e7577f4e487b7100000000000000000000000000000000000000000000000000000000600052603260045260246000fd5b60200260200101519050600080600084815260200190815260200160002060008b73ffffffffffffffffffffffffffffffffffffffff1673ffffffffffffffffffffffffffffffffffffffff16815260200190815260200160002054905081811015610788576040517f08c379a000000000000000000000000000000000000000000000000000000000815260040161077f90612f0f565b60405180910390fd5b818161079491906131a3565b60008085815260200190815260200160002060008c73ffffffffffffffffffffffffffffffffffffffff1673ffffffffffffffffffffffffffffffffffffffff168152602001908152602001600020819055508160008085815260200190815260200160002060008b73ffffffffffffffffffffffffffffffffffffffff1673ffffffffffffffffffffffffffffffffffffffff1681526020019081526020016000206000828254610846919061314d565b925050819055505050508061085a906132bf565b905061065e565b508473ffffffffffffffffffffffffffffffffffffffff168673ffffffffffffffffffffffffffffffffffffffff168273ffffffffffffffffffffffffffffffffffffffff167f4a39dc06d4c0dbc64b70af90fd698a233a518aa5d07e595d983b8c0526c8f7fb87876040516108d8929190612d9b565b60405180910390a46108ee818787878787611304565b505050505050565b6060815183511461093c576040517f08c379a000000000000000000000000000000000000000000000000000000000815260040161093390612f4f565b60405180910390fd5b6000835167ffffffffffffffff81111561097f577f4e487b7100000000000000000000000000000000000000000000000000000000600052604160045260246000fd5b6040519080825280602002602001820160405280156109ad5781602001602082028036833780820191505090505b50905060005b8451811015610a9c57610a468582815181106109f8577f4e487b7100000000000000000000000000000000000000000000000000000000600052603260045260246000fd5b6020026020010151858381518110610a39577f4e487b7100000000000000000000000000000000000000000000000000000000600052603260045260246000fd5b60200260200101516102a3565b828281518110610a7f577f4e487b7100000000000000000000000000000000000000000000000000000000600052603260045260246000fd5b60200260200101818152505080610a95906132bf565b90506109b3565b508091505092915050565b610ab28383836114d4565b505050565b610ac3848484846117da565b50505050565b8173ffffffffffffffffffffffffffffffffffffffff16610ae86112f4565b73ffffffffffffffffffffffffffffffffffffffff161415610b3f576040517f08c379a0000000000000000000000000000000000000000000000000000000008152600401610b3690612f2f565b60405180910390fd5b8060016000610b4c6112f4565b73ffffffffffffffffffffffffffffffffffffffff1673ffffffffffffffffffffffffffffffffffffffff16815260200190815260200160002060008473ffffffffffffffffffffffffffffffffffffffff1673ffffffffffffffffffffffffffffffffffffffff16815260200190815260200160002060006101000a81548160ff0219169083151502179055508173ffffffffffffffffffffffffffffffffffffffff16610bf96112f4565b73ffffffffffffffffffffffffffffffffffffffff167f17307eab39ab6107e8899845ad3d59bd9653f200f220920489ca2b5937696c3183604051610c3e9190612dd2565b60405180910390a35050565b6000600160008473ffffffffffffffffffffffffffffffffffffffff1673ffffffffffffffffffffffffffffffffffffffff16815260200190815260200160002060008373ffffffffffffffffffffffffffffffffffffffff1673ffffffffffffffffffffffffffffffffffffffff16815260200190815260200160002060009054906101000a900460ff16905092915050565b600073ffffffffffffffffffffffffffffffffffffffff168473ffffffffffffffffffffffffffffffffffffffff161415610d4e576040517f08c379a0000000000000000000000000000000000000000000000000000000008152600401610d4590612eaf565b60405180910390fd5b610d566112f4565b73ffffffffffffffffffffffffffffffffffffffff168573ffffffffffffffffffffffffffffffffffffffff161480610d9c5750610d9b85610d966112f4565b610c4a565b5b610ddb576040517f08c379a0000000000000000000000000000000000000000000000000000000008152600401610dd290612e8f565b60405180910390fd5b6000610de56112f4565b9050610e05818787610df688611970565b610dff88611970565b876112fc565b600080600086815260200190815260200160002060008873ffffffffffffffffffffffffffffffffffffffff1673ffffffffffffffffffffffffffffffffffffffff16815260200190815260200160002054905083811015610e9c576040517f08c379a0000000000000000000000000000000000000000000000000000000008152600401610e9390612f0f565b60405180910390fd5b8381610ea891906131a3565b60008087815260200190815260200160002060008973ffffffffffffffffffffffffffffffffffffffff1673ffffffffffffffffffffffffffffffffffffffff168152602001908152602001600020819055508360008087815260200190815260200160002060008873ffffffffffffffffffffffffffffffffffffffff1673ffffffffffffffffffffffffffffffffffffffff1681526020019081526020016000206000828254610f5a919061314d565b925050819055508573ffffffffffffffffffffffffffffffffffffffff168773ffffffffffffffffffffffffffffffffffffffff168373ffffffffffffffffffffffffffffffffffffffff167fc3d58168c5ae7397731d063d5bbf3d657854427343f4c083240f7aacaa2d0f628888604051610fd7929190612fca565b60405180910390a4610fed828888888888611a36565b50505050505050565b611001838383611c06565b505050565b60007f01ffc9a7000000000000000000000000000000000000000000000000000000007bffffffffffffffffffffffffffffffffffffffffffffffffffffffff1916827bffffffffffffffffffffffffffffffffffffffffffffffffffffffff1916149050919050565b8060029080519060200190611086929190611e3f565b5050565b600073ffffffffffffffffffffffffffffffffffffffff168473ffffffffffffffffffffffffffffffffffffffff1614156110fa576040517f08c379a00000000000000000000000000000000000000000000000000000000081526004016110f190612f8f565b60405180910390fd5b815183511461113e576040517f08c379a000000000000000000000000000000000000000000000000000000000815260040161113590612f6f565b60405180910390fd5b60006111486112f4565b9050611159816000878787876112fc565b60005b845181101561125e5783818151811061119e577f4e487b7100000000000000000000000000000000000000000000000000000000600052603260045260246000fd5b60200260200101516000808784815181106111e2577f4e487b7100000000000000000000000000000000000000000000000000000000600052603260045260246000fd5b6020026020010151815260200190815260200160002060008873ffffffffffffffffffffffffffffffffffffffff1673ffffffffffffffffffffffffffffffffffffffff1681526020019081526020016000206000828254611244919061314d565b925050819055508080611256906132bf565b91505061115c565b508473ffffffffffffffffffffffffffffffffffffffff16600073ffffffffffffffffffffffffffffffffffffffff168273ffffffffffffffffffffffffffffffffffffffff167f4a39dc06d4c0dbc64b70af90fd698a233a518aa5d07e595d983b8c0526c8f7fb87876040516112d6929190612d9b565b60405180910390a46112ed81600087878787611304565b5050505050565b600033905090565b505050505050565b6113238473ffffffffffffffffffffffffffffffffffffffff16611e2c565b156114cc578373ffffffffffffffffffffffffffffffffffffffff1663bc197c8187878686866040518663ffffffff1660e01b8152600401611369959493929190612cb7565b602060405180830381600087803b15801561138357600080fd5b505af19250505080156113b457506040513d601f19601f820116820180604052508101906113b191906125d2565b60015b611443576113c06133b3565b806113cb5750611408565b806040517f08c379a00000000000000000000000000000000000000000000000000000000081526004016113ff9190612ded565b60405180910390fd5b6040517f08c379a000000000000000000000000000000000000000000000000000000000815260040161143a90612e0f565b60405180910390fd5b63bc197c8160e01b7bffffffffffffffffffffffffffffffffffffffffffffffffffffffff1916817bffffffffffffffffffffffffffffffffffffffffffffffffffffffff1916146114ca576040517f08c379a00000000000000000000000000000000000000000000000000000000081526004016114c190612e2f565b60405180910390fd5b505b505050505050565b600073ffffffffffffffffffffffffffffffffffffffff168373ffffffffffffffffffffffffffffffffffffffff161415611544576040517f08c379a000000000000000000000000000000000000000000000000000000000815260040161153b90612eef565b60405180910390fd5b8051825114611588576040517f08c379a000000000000000000000000000000000000000000000000000000000815260040161157f90612f6f565b60405180910390fd5b60006115926112f4565b90506115b2818560008686604051806020016040528060008152506112fc565b60005b83518110156117545760008482815181106115f9577f4e487b7100000000000000000000000000000000000000000000000000000000600052603260045260246000fd5b60200260200101519050600084838151811061163e577f4e487b7100000000000000000000000000000000000000000000000000000000600052603260045260246000fd5b60200260200101519050600080600084815260200190815260200160002060008973ffffffffffffffffffffffffffffffffffffffff1673ffffffffffffffffffffffffffffffffffffffff168152602001908152602001600020549050818110156116df576040517f08c379a00000000000000000000000000000000000000000000000000000000081526004016116d690612e6f565b60405180910390fd5b81816116eb91906131a3565b60008085815260200190815260200160002060008a73ffffffffffffffffffffffffffffffffffffffff1673ffffffffffffffffffffffffffffffffffffffff16815260200190815260200160002081905550505050808061174c906132bf565b9150506115b5565b50600073ffffffffffffffffffffffffffffffffffffffff168473ffffffffffffffffffffffffffffffffffffffff168273ffffffffffffffffffffffffffffffffffffffff167f4a39dc06d4c0dbc64b70af90fd698a233a518aa5d07e595d983b8c0526c8f7fb86866040516117cc929190612d9b565b60405180910390a450505050565b600073ffffffffffffffffffffffffffffffffffffffff168473ffffffffffffffffffffffffffffffffffffffff16141561184a576040517f08c379a000000000000000000000000000000000000000000000000000000000815260040161184190612f8f565b60405180910390fd5b60006118546112f4565b90506118758160008761186688611970565b61186f88611970565b876112fc565b8260008086815260200190815260200160002060008773ffffffffffffffffffffffffffffffffffffffff1673ffffffffffffffffffffffffffffffffffffffff16815260200190815260200160002060008282546118d4919061314d565b925050819055508473ffffffffffffffffffffffffffffffffffffffff16600073ffffffffffffffffffffffffffffffffffffffff168273ffffffffffffffffffffffffffffffffffffffff167fc3d58168c5ae7397731d063d5bbf3d657854427343f4c083240f7aacaa2d0f628787604051611952929190612fca565b60405180910390a461196981600087878787611a36565b5050505050565b60606000600167ffffffffffffffff8111156119b5577f4e487b7100000000000000000000000000000000000000000000000000000000600052604160045260246000fd5b6040519080825280602002602001820160405280156119e35781602001602082028036833780820191505090505b5090508281600081518110611a21577f4e487b7100000000000000000000000000000000000000000000000000000000600052603260045260246000fd5b60200260200101818152505080915050919050565b611a558473ffffffffffffffffffffffffffffffffffffffff16611e2c565b15611bfe578373ffffffffffffffffffffffffffffffffffffffff1663f23a6e6187878686866040518663ffffffff1660e01b8152600401611a9b959493929190612d1f565b602060405180830381600087803b158015611ab557600080fd5b505af1925050508015611ae657506040513d601f19601f82011682018060405250810190611ae391906125d2565b60015b611b7557611af26133b3565b80611afd5750611b3a565b806040517f08c379a0000000000000000000000000000000000000000000000000000000008152600401611b319190612ded565b60405180910390fd5b6040517f08c379a0000000000000000000000000000000000000000000000000000000008152600401611b6c90612e0f565b60405180910390fd5b63f23a6e6160e01b7bffffffffffffffffffffffffffffffffffffffffffffffffffffffff1916817bffffffffffffffffffffffffffffffffffffffffffffffffffffffff191614611bfc576040517f08c379a0000000000000000000000000000000000000000000000000000000008152600401611bf390612e2f565b60405180910390fd5b505b505050505050565b600073ffffffffffffffffffffffffffffffffffffffff168373ffffffffffffffffffffffffffffffffffffffff161415611c76576040517f08c379a0000000000000000000000000000000000000000000000000000000008152600401611c6d90612eef565b60405180910390fd5b6000611c806112f4565b9050611cb081856000611c9287611970565b611c9b87611970565b604051806020016040528060008152506112fc565b600080600085815260200190815260200160002060008673ffffffffffffffffffffffffffffffffffffffff1673ffffffffffffffffffffffffffffffffffffffff16815260200190815260200160002054905082811015611d47576040517f08c379a0000000000000000000000000000000000000000000000000000000008152600401611d3e90612e6f565b60405180910390fd5b8281611d5391906131a3565b60008086815260200190815260200160002060008773ffffffffffffffffffffffffffffffffffffffff1673ffffffffffffffffffffffffffffffffffffffff16815260200190815260200160002081905550600073ffffffffffffffffffffffffffffffffffffffff168573ffffffffffffffffffffffffffffffffffffffff168373ffffffffffffffffffffffffffffffffffffffff167fc3d58168c5ae7397731d063d5bbf3d657854427343f4c083240f7aacaa2d0f628787604051611e1d929190612fca565b60405180910390a45050505050565b600080823b905060008111915050919050565b828054611e4b9061328d565b90600052602060002090601f016020900481019282611e6d5760008555611eb4565b82601f10611e8657805160ff1916838001178555611eb4565b82800160010185558215611eb4579182015b82811115611eb3578251825591602001919060010190611e98565b5b509050611ec19190611ec5565b5090565b5b80821115611ede576000816000905550600101611ec6565b5090565b6000611ef5611ef084613024565b612ff3565b90508083825260208201905082856020860282011115611f1457600080fd5b60005b85811015611f445781611f2a8882612036565b845260208401935060208301925050600181019050611f17565b5050509392505050565b6000611f61611f5c84613050565b612ff3565b90508083825260208201905082856020860282011115611f8057600080fd5b60005b85811015611fb05781611f968882612132565b845260208401935060208301925050600181019050611f83565b5050509392505050565b6000611fcd611fc88461307c565b612ff3565b905082815260208101848484011115611fe557600080fd5b611ff084828561324b565b509392505050565b600061200b612006846130ac565b612ff3565b90508281526020810184848401111561202357600080fd5b61202e84828561324b565b509392505050565b60008135905061204581613469565b92915050565b600082601f83011261205c57600080fd5b813561206c848260208601611ee2565b91505092915050565b600082601f83011261208657600080fd5b8135612096848260208601611f4e565b91505092915050565b6000813590506120ae81613480565b92915050565b6000813590506120c381613497565b92915050565b6000815190506120d881613497565b92915050565b600082601f8301126120ef57600080fd5b81356120ff848260208601611fba565b91505092915050565b600082601f83011261211957600080fd5b8135612129848260208601611ff8565b91505092915050565b600081359050612141816134ae565b92915050565b6000806040838503121561215a57600080fd5b600061216885828601612036565b925050602061217985828601612036565b9150509250929050565b600080600080600060a0868803121561219b57600080fd5b60006121a988828901612036565b95505060206121ba88828901612036565b945050604086013567ffffffffffffffff8111156121d757600080fd5b6121e388828901612075565b935050606086013567ffffffffffffffff81111561220057600080fd5b61220c88828901612075565b925050608086013567ffffffffffffffff81111561222957600080fd5b612235888289016120de565b9150509295509295909350565b600080600080600060a0868803121561225a57600080fd5b600061226888828901612036565b955050602061227988828901612036565b945050604061228a88828901612132565b935050606061229b88828901612132565b925050608086013567ffffffffffffffff8111156122b857600080fd5b6122c4888289016120de565b9150509295509295909350565b6000806000606084860312156122e657600080fd5b60006122f486828701612036565b935050602084013567ffffffffffffffff81111561231157600080fd5b61231d86828701612075565b925050604084013567ffffffffffffffff81111561233a57600080fd5b61234686828701612075565b9150509250925092565b6000806000806080858703121561236657600080fd5b600061237487828801612036565b945050602085013567ffffffffffffffff81111561239157600080fd5b61239d87828801612075565b935050604085013567ffffffffffffffff8111156123ba57600080fd5b6123c687828801612075565b925050606085013567ffffffffffffffff8111156123e357600080fd5b6123ef878288016120de565b91505092959194509250565b6000806040838503121561240e57600080fd5b600061241c85828601612036565b925050602061242d8582860161209f565b9150509250929050565b6000806040838503121561244a57600080fd5b600061245885828601612036565b925050602061246985828601612132565b9150509250929050565b60008060006060848603121561248857600080fd5b600061249686828701612036565b93505060206124a786828701612132565b92505060406124b886828701612132565b9150509250925092565b600080600080608085870312156124d857600080fd5b60006124e687828801612036565b94505060206124f787828801612132565b935050604061250887828801612132565b925050606085013567ffffffffffffffff81111561252557600080fd5b612531878288016120de565b91505092959194509250565b6000806040838503121561255057600080fd5b600083013567ffffffffffffffff81111561256a57600080fd5b6125768582860161204b565b925050602083013567ffffffffffffffff81111561259357600080fd5b61259f85828601612075565b9150509250929050565b6000602082840312156125bb57600080fd5b60006125c9848285016120b4565b91505092915050565b6000602082840312156125e457600080fd5b60006125f2848285016120c9565b91505092915050565b60006020828403121561260d57600080fd5b600082013567ffffffffffffffff81111561262757600080fd5b61263384828501612108565b91505092915050565b60006020828403121561264e57600080fd5b600061265c84828501612132565b91505092915050565b60006126718383612c99565b60208301905092915050565b612686816131d7565b82525050565b6000612697826130ec565b6126a1818561311a565b93506126ac836130dc565b8060005b838110156126dd5781516126c48882612665565b97506126cf8361310d565b9250506001810190506126b0565b5085935050505092915050565b6126f3816131e9565b82525050565b6000612704826130f7565b61270e818561312b565b935061271e81856020860161325a565b61272781613395565b840191505092915050565b600061273d82613102565b612747818561313c565b935061275781856020860161325a565b61276081613395565b840191505092915050565b600061277860348361313c565b91507f455243313135353a207472616e7366657220746f206e6f6e204552433131353560008301527f526563656976657220696d706c656d656e7465720000000000000000000000006020830152604082019050919050565b60006127de60288361313c565b91507f455243313135353a204552433131353552656365697665722072656a6563746560008301527f6420746f6b656e730000000000000000000000000000000000000000000000006020830152604082019050919050565b6000612844602b8361313c565b91507f455243313135353a2062616c616e636520717565727920666f7220746865207a60008301527f65726f20616464726573730000000000000000000000000000000000000000006020830152604082019050919050565b60006128aa60248361313c565b91507f455243313135353a206275726e20616d6f756e7420657863656564732062616c60008301527f616e6365000000000000000000000000000000000000000000000000000000006020830152604082019050919050565b600061291060298361313c565b91507f455243313135353a2063616c6c6572206973206e6f74206f776e6572206e6f7260008301527f20617070726f76656400000000000000000000000000000000000000000000006020830152604082019050919050565b600061297660258361313c565b91507f455243313135353a207472616e7366657220746f20746865207a65726f20616460008301527f64726573730000000000000000000000000000000000000000000000000000006020830152604082019050919050565b60006129dc60328361313c565b91507f455243313135353a207472616e736665722063616c6c6572206973206e6f742060008301527f6f776e6572206e6f7220617070726f76656400000000000000000000000000006020830152604082019050919050565b6000612a4260238361313c565b91507f455243313135353a206275726e2066726f6d20746865207a65726f206164647260008301527f65737300000000000000000000000000000000000000000000000000000000006020830152604082019050919050565b6000612aa8602a8361313c565b91507f455243313135353a20696e73756666696369656e742062616c616e636520666f60008301527f72207472616e73666572000000000000000000000000000000000000000000006020830152604082019050919050565b6000612b0e60298361313c565b91507f455243313135353a2073657474696e6720617070726f76616c2073746174757360008301527f20666f722073656c6600000000000000000000000000000000000000000000006020830152604082019050919050565b6000612b7460298361313c565b91507f455243313135353a206163636f756e747320616e6420696473206c656e67746860008301527f206d69736d6174636800000000000000000000000000000000000000000000006020830152604082019050919050565b6000612bda60288361313c565b91507f455243313135353a2069647320616e6420616d6f756e7473206c656e6774682060008301527f6d69736d617463680000000000000000000000000000000000000000000000006020830152604082019050919050565b6000612c4060218361313c565b91507f455243313135353a206d696e7420746f20746865207a65726f2061646472657360008301527f73000000000000000000000000000000000000000000000000000000000000006020830152604082019050919050565b612ca281613241565b82525050565b612cb181613241565b82525050565b600060a082019050612ccc600083018861267d565b612cd9602083018761267d565b8181036040830152612ceb818661268c565b90508181036060830152612cff818561268c565b90508181036080830152612d1381846126f9565b90509695505050505050565b600060a082019050612d34600083018861267d565b612d41602083018761267d565b612d4e6040830186612ca8565b612d5b6060830185612ca8565b8181036080830152612d6d81846126f9565b90509695505050505050565b60006020820190508181036000830152612d93818461268c565b905092915050565b60006040820190508181036000830152612db5818561268c565b90508181036020830152612dc9818461268c565b90509392505050565b6000602082019050612de760008301846126ea565b92915050565b60006020820190508181036000830152612e078184612732565b905092915050565b60006020820190508181036000830152612e288161276b565b9050919050565b60006020820190508181036000830152612e48816127d1565b9050919050565b60006020820190508181036000830152612e6881612837565b9050919050565b60006020820190508181036000830152612e888161289d565b9050919050565b60006020820190508181036000830152612ea881612903565b9050919050565b60006020820190508181036000830152612ec881612969565b9050919050565b60006020820190508181036000830152612ee8816129cf565b9050919050565b60006020820190508181036000830152612f0881612a35565b9050919050565b60006020820190508181036000830152612f2881612a9b565b9050919050565b60006020820190508181036000830152612f4881612b01565b9050919050565b60006020820190508181036000830152612f6881612b67565b9050919050565b60006020820190508181036000830152612f8881612bcd565b9050919050565b60006020820190508181036000830152612fa881612c33565b9050919050565b6000602082019050612fc46000830184612ca8565b92915050565b6000604082019050612fdf6000830185612ca8565b612fec6020830184612ca8565b9392505050565b6000604051905081810181811067ffffffffffffffff8211171561301a57613019613366565b5b8060405250919050565b600067ffffffffffffffff82111561303f5761303e613366565b5b602082029050602081019050919050565b600067ffffffffffffffff82111561306b5761306a613366565b5b602082029050602081019050919050565b600067ffffffffffffffff82111561309757613096613366565b5b601f19601f8301169050602081019050919050565b600067ffffffffffffffff8211156130c7576130c6613366565b5b601f19601f8301169050602081019050919050565b6000819050602082019050919050565b600081519050919050565b600081519050919050565b600081519050919050565b6000602082019050919050565b600082825260208201905092915050565b600082825260208201905092915050565b600082825260208201905092915050565b600061315882613241565b915061316383613241565b9250827fffffffffffffffffffffffffffffffffffffffffffffffffffffffffffffffff0382111561319857613197613308565b5b828201905092915050565b60006131ae82613241565b91506131b983613241565b9250828210156131cc576131cb613308565b5b828203905092915050565b60006131e282613221565b9050919050565b60008115159050919050565b60007fffffffff0000000000000000000000000000000000000000000000000000000082169050919050565b600073ffffffffffffffffffffffffffffffffffffffff82169050919050565b6000819050919050565b82818337600083830152505050565b60005b8381101561327857808201518184015260208101905061325d565b83811115613287576000848401525b50505050565b600060028204905060018216806132a557607f821691505b602082108114156132b9576132b8613337565b5b50919050565b60006132ca82613241565b91507fffffffffffffffffffffffffffffffffffffffffffffffffffffffffffffffff8214156132fd576132fc613308565b5b600182019050919050565b7f4e487b7100000000000000000000000000000000000000000000000000000000600052601160045260246000fd5b7f4e487b7100000000000000000000000000000000000000000000000000000000600052602260045260246000fd5b7f4e487b7100000000000000000000000000000000000000000000000000000000600052604160045260246000fd5b6000601f19601f8301169050919050565b60008160e01c9050919050565b600060443d10156133c357613466565b60046000803e6133d46000516133a6565b6308c379a081146133e55750613466565b60405160043d036004823e80513d602482011167ffffffffffffffff8211171561341157505050613466565b808201805167ffffffffffffffff811115613430575050505050613466565b8060208301013d850181111561344b57505050505050613466565b61345482613395565b60208401016040528296505050505050505b90565b613472816131d7565b811461347d57600080fd5b50565b613489816131e9565b811461349457600080fd5b50565b6134a0816131f5565b81146134ab57600080fd5b50565b6134b781613241565b81146134c257600080fd5b5056fea26469706673582212207f1a1376e6eb803ebd5feec87c46b89dca4a3f96548a16ca2c55322946d30d8b64736f6c63430008000033",
  "linkReferences": {},
  "deployedLinkReferences": {}
}