{
  "_format": "hh-sol-artifact-1",
  "contractName": "EnumerableMapMock",
  "sourceName": "contracts/openzeppelin-contracts/mocks/EnumerableMapMock.sol",
  "abi": [
    {
      "anonymous": false,
      "inputs": [
        {
          "indexed": false,
          "internalType": "bool",
          "name": "result",
          "type": "bool"
        }
      ],
      "name": "OperationResult",
      "type": "event"
    },
    {
      "inputs": [
        {
          "internalType": "uint256",
          "name": "index",
          "type": "uint256"
        }
      ],
      "name": "at",
      "outputs": [
        {
          "internalType": "uint256",
          "name": "key",
          "type": "uint256"
        },
        {
          "internalType": "address",
          "name": "value",
          "type": "address"
        }
      ],
      "stateMutability": "view",
      "type": "function"
    },
    {
      "inputs": [
        {
          "internalType": "uint256",
          "name": "key",
          "type": "uint256"
        }
      ],
      "name": "contains",
      "outputs": [
        {
          "internalType": "bool",
          "name": "",
          "type": "bool"
        }
      ],
      "stateMutability": "view",
      "type": "function"
    },
    {
      "inputs": [
        {
          "internalType": "uint256",
          "name": "key",
          "type": "uint256"
        }
      ],
      "name": "get",
      "outputs": [
        {
          "internalType": "address",
          "name": "",
          "type": "address"
        }
      ],
      "stateMutability": "view",
      "type": "function"
    },
    {
      "inputs": [
        {
          "internalType": "uint256",
          "name": "key",
          "type": "uint256"
        },
        {
          "internalType": "string",
          "name": "errorMessage",
          "type": "string"
        }
      ],
      "name": "getWithMessage",
      "outputs": [
        {
          "internalType": "address",
          "name": "",
          "type": "address"
        }
      ],
      "stateMutability": "view",
      "type": "function"
    },
    {
      "inputs": [],
      "name": "length",
      "outputs": [
        {
          "internalType": "uint256",
          "name": "",
          "type": "uint256"
        }
      ],
      "stateMutability": "view",
      "type": "function"
    },
    {
      "inputs": [
        {
          "internalType": "uint256",
          "name": "key",
          "type": "uint256"
        }
      ],
      "name": "remove",
      "outputs": [],
      "stateMutability": "nonpayable",
      "type": "function"
    },
    {
      "inputs": [
        {
          "internalType": "uint256",
          "name": "key",
          "type": "uint256"
        },
        {
          "internalType": "address",
          "name": "value",
          "type": "address"
        }
      ],
      "name": "set",
      "outputs": [],
      "stateMutability": "nonpayable",
      "type": "function"
    },
    {
      "inputs": [
        {
          "internalType": "uint256",
          "name": "key",
          "type": "uint256"
        }
      ],
      "name": "tryGet",
      "outputs": [
        {
          "internalType": "bool",
          "name": "",
          "type": "bool"
        },
        {
          "internalType": "address",
          "name": "",
          "type": "address"
        }
      ],
      "stateMutability": "view",
      "type": "function"
    }
  ],
  "bytecode": "0x608060405234801561001057600080fd5b50610e94806100206000396000f3fe608060405234801561001057600080fd5b50600436106100885760003560e01c80639507d39a1161005b5780639507d39a14610114578063c051a3a614610144578063c34052e014610174578063e0886f90146101a457610088565b80631f7b6d321461008d5780632f30c6f6146100ab5780634cc82215146100c7578063871394d9146100e3575b600080fd5b6100956101d5565b6040516100a29190610ce1565b60405180910390f35b6100c560048036038101906100c09190610a80565b6101e6565b005b6100e160048036038101906100dc9190610a57565b61023c565b005b6100fd60048036038101906100f89190610a57565b61028f565b60405161010b929190610c56565b60405180910390f35b61012e60048036038101906101299190610a57565b6102af565b60405161013b9190610c20565b60405180910390f35b61015e60048036038101906101599190610abc565b6102cc565b60405161016b9190610c20565b60405180910390f35b61018e60048036038101906101899190610a57565b610331565b60405161019b9190610c3b565b60405180910390f35b6101be60048036038101906101b99190610a57565b61034e565b6040516101cc929190610cfc565b60405180910390f35b60006101e1600061036e565b905090565b60006101fe838360006103839092919063ffffffff16565b90507fed9840e0775590557ad736875d96c95cf1458b766335f74339951a32c82a9e338160405161022f9190610c3b565b60405180910390a1505050565b60006102528260006103b890919063ffffffff16565b90507fed9840e0775590557ad736875d96c95cf1458b766335f74339951a32c82a9e33816040516102839190610c3b565b60405180910390a15050565b6000806102a68360006103d290919063ffffffff16565b91509150915091565b60006102c58260006103fe90919063ffffffff16565b9050919050565b60006103288484848080601f016020809104026020016040519081016040528093929190818152602001838380828437600081840152601f19601f82011690508083019250505050505050600061041b9092919063ffffffff16565b90509392505050565b600061034782600061043a90919063ffffffff16565b9050919050565b60008061036583600061045490919063ffffffff16565b91509150915091565b600061037c82600001610480565b9050919050565b60006103af846000018460001b8473ffffffffffffffffffffffffffffffffffffffff1660001b610495565b90509392505050565b60006103ca836000018360001b6104d0565b905092915050565b6000806000806103e8866000018660001b610509565b91509150818160001c9350935050509250929050565b6000610410836000018360001b610559565b60001c905092915050565b600061042e846000018460001b846105d5565b60001c90509392505050565b600061044c836000018360001b610656565b905092915050565b6000806000806104678660000186610676565b915091508160001c8160001c9350935050509250929050565b600061048e826000016106b6565b9050919050565b600081846002016000858152602001908152602001600020819055506104c783856000016106cb90919063ffffffff16565b90509392505050565b60008260020160008381526020019081526020016000206000905561050182846000016106e290919063ffffffff16565b905092915050565b60008060008460020160008581526020019081526020016000205490506000801b8114156105495761053b8585610656565b6000801b9250925050610552565b60018192509250505b9250929050565b6000808360020160008481526020019081526020016000205490506000801b8114158061058c575061058b8484610656565b5b6105cb576040517f08c379a00000000000000000000000000000000000000000000000000000000081526004016105c290610cc1565b60405180910390fd5b8091505092915050565b6000808460020160008581526020019081526020016000205490506000801b8114158061060857506106078585610656565b5b839061064a576040517f08c379a00000000000000000000000000000000000000000000000000000000081526004016106419190610c7f565b60405180910390fd5b50809150509392505050565b600061066e82846000016106f990919063ffffffff16565b905092915050565b6000806000610691848660000161071090919063ffffffff16565b9050808560020160008381526020019081526020016000205492509250509250929050565b60006106c482600001610727565b9050919050565b60006106da8360000183610738565b905092915050565b60006106f183600001836107a8565b905092915050565b60006107088360000183610926565b905092915050565b600061071f8360000183610949565b905092915050565b600081600001805490509050919050565b60006107448383610926565b61079d5782600001829080600181540180825580915050600190039060005260206000200160009091909190915055826000018054905083600101600084815260200190815260200160002081905550600190506107a2565b600090505b92915050565b6000808360010160008481526020019081526020016000205490506000811461091a5760006001826107da9190610d41565b90506000600186600001805490506107f29190610d41565b90506000866000018281548110610832577f4e487b7100000000000000000000000000000000000000000000000000000000600052603260045260246000fd5b906000526020600020015490508087600001848154811061087c577f4e487b7100000000000000000000000000000000000000000000000000000000600052603260045260246000fd5b90600052602060002001819055508387600101600083815260200190815260200160002081905550866000018054806108de577f4e487b7100000000000000000000000000000000000000000000000000000000600052603160045260246000fd5b60019003818190600052602060002001600090559055866001016000878152602001908152602001600020600090556001945050505050610920565b60009150505b92915050565b600080836001016000848152602001908152602001600020541415905092915050565b600081836000018054905011610994576040517f08c379a000000000000000000000000000000000000000000000000000000000815260040161098b90610ca1565b60405180910390fd5b8260000182815481106109d0577f4e487b7100000000000000000000000000000000000000000000000000000000600052603260045260246000fd5b9060005260206000200154905092915050565b6000813590506109f281610e30565b92915050565b60008083601f840112610a0a57600080fd5b8235905067ffffffffffffffff811115610a2357600080fd5b602083019150836001820283011115610a3b57600080fd5b9250929050565b600081359050610a5181610e47565b92915050565b600060208284031215610a6957600080fd5b6000610a7784828501610a42565b91505092915050565b60008060408385031215610a9357600080fd5b6000610aa185828601610a42565b9250506020610ab2858286016109e3565b9150509250929050565b600080600060408486031215610ad157600080fd5b6000610adf86828701610a42565b935050602084013567ffffffffffffffff811115610afc57600080fd5b610b08868287016109f8565b92509250509250925092565b610b1d81610d75565b82525050565b610b2c81610d87565b82525050565b6000610b3d82610d25565b610b478185610d30565b9350610b57818560208601610dbd565b610b6081610e1f565b840191505092915050565b6000610b78602283610d30565b91507f456e756d657261626c655365743a20696e646578206f7574206f6620626f756e60008301527f64730000000000000000000000000000000000000000000000000000000000006020830152604082019050919050565b6000610bde601e83610d30565b91507f456e756d657261626c654d61703a206e6f6e6578697374656e74206b657900006000830152602082019050919050565b610c1a81610db3565b82525050565b6000602082019050610c356000830184610b14565b92915050565b6000602082019050610c506000830184610b23565b92915050565b6000604082019050610c6b6000830185610b23565b610c786020830184610b14565b9392505050565b60006020820190508181036000830152610c998184610b32565b905092915050565b60006020820190508181036000830152610cba81610b6b565b9050919050565b60006020820190508181036000830152610cda81610bd1565b9050919050565b6000602082019050610cf66000830184610c11565b92915050565b6000604082019050610d116000830185610c11565b610d1e6020830184610b14565b9392505050565b600081519050919050565b600082825260208201905092915050565b6000610d4c82610db3565b9150610d5783610db3565b925082821015610d6a57610d69610df0565b5b828203905092915050565b6000610d8082610d93565b9050919050565b60008115159050919050565b600073ffffffffffffffffffffffffffffffffffffffff82169050919050565b6000819050919050565b60005b83811015610ddb578082015181840152602081019050610dc0565b83811115610dea576000848401525b50505050565b7f4e487b7100000000000000000000000000000000000000000000000000000000600052601160045260246000fd5b6000601f19601f8301169050919050565b610e3981610d75565b8114610e4457600080fd5b50565b610e5081610db3565b8114610e5b57600080fd5b5056fea264697066735822122031cd1a25a997d558ba45119cb2504f16cd75b533955af61d8bbb1cfbedc6051864736f6c63430008000033",
  "linkReferences": {},
  "deployedLinkReferences": {}
}