{
  "_format": "hh-sol-artifact-1",
  "contractName": "ERC777Mock",
  "sourceName": "contracts/openzeppelin-contracts/mocks/ERC777Mock.sol",
  "abi": [
    {
      "inputs": [
        {
          "internalType": "address",
          "name": "initialHolder",
          "type": "address"
        },
        {
          "internalType": "uint256",
          "name": "initialBalance",
          "type": "uint256"
        },
        {
          "internalType": "string",
          "name": "name",
          "type": "string"
        },
        {
          "internalType": "string",
          "name": "symbol",
          "type": "string"
        },
        {
          "internalType": "address[]",
          "name": "defaultOperators",
          "type": "address[]"
        }
      ],
      "stateMutability": "nonpayable",
      "type": "constructor"
    },
    {
      "anonymous": false,
      "inputs": [
        {
          "indexed": true,
          "internalType": "address",
          "name": "owner",
          "type": "address"
        },
        {
          "indexed": true,
          "internalType": "address",
          "name": "spender",
          "type": "address"
        },
        {
          "indexed": false,
          "internalType": "uint256",
          "name": "value",
          "type": "uint256"
        }
      ],
      "name": "Approval",
      "type": "event"
    },
    {
      "anonymous": false,
      "inputs": [
        {
          "indexed": true,
          "internalType": "address",
          "name": "operator",
          "type": "address"
        },
        {
          "indexed": true,
          "internalType": "address",
          "name": "tokenHolder",
          "type": "address"
        }
      ],
      "name": "AuthorizedOperator",
      "type": "event"
    },
    {
      "anonymous": false,
      "inputs": [],
      "name": "BeforeTokenTransfer",
      "type": "event"
    },
    {
      "anonymous": false,
      "inputs": [
        {
          "indexed": true,
          "internalType": "address",
          "name": "operator",
          "type": "address"
        },
        {
          "indexed": true,
          "internalType": "address",
          "name": "from",
          "type": "address"
        },
        {
          "indexed": false,
          "internalType": "uint256",
          "name": "amount",
          "type": "uint256"
        },
        {
          "indexed": false,
          "internalType": "bytes",
          "name": "data",
          "type": "bytes"
        },
        {
          "indexed": false,
          "internalType": "bytes",
          "name": "operatorData",
          "type": "bytes"
        }
      ],
      "name": "Burned",
      "type": "event"
    },
    {
      "anonymous": false,
      "inputs": [
        {
          "indexed": true,
          "internalType": "address",
          "name": "operator",
          "type": "address"
        },
        {
          "indexed": true,
          "internalType": "address",
          "name": "to",
          "type": "address"
        },
        {
          "indexed": false,
          "internalType": "uint256",
          "name": "amount",
          "type": "uint256"
        },
        {
          "indexed": false,
          "internalType": "bytes",
          "name": "data",
          "type": "bytes"
        },
        {
          "indexed": false,
          "internalType": "bytes",
          "name": "operatorData",
          "type": "bytes"
        }
      ],
      "name": "Minted",
      "type": "event"
    },
    {
      "anonymous": false,
      "inputs": [
        {
          "indexed": true,
          "internalType": "address",
          "name": "operator",
          "type": "address"
        },
        {
          "indexed": true,
          "internalType": "address",
          "name": "tokenHolder",
          "type": "address"
        }
      ],
      "name": "RevokedOperator",
      "type": "event"
    },
    {
      "anonymous": false,
      "inputs": [
        {
          "indexed": true,
          "internalType": "address",
          "name": "operator",
          "type": "address"
        },
        {
          "indexed": true,
          "internalType": "address",
          "name": "from",
          "type": "address"
        },
        {
          "indexed": true,
          "internalType": "address",
          "name": "to",
          "type": "address"
        },
        {
          "indexed": false,
          "internalType": "uint256",
          "name": "amount",
          "type": "uint256"
        },
        {
          "indexed": false,
          "internalType": "bytes",
          "name": "data",
          "type": "bytes"
        },
        {
          "indexed": false,
          "internalType": "bytes",
          "name": "operatorData",
          "type": "bytes"
        }
      ],
      "name": "Sent",
      "type": "event"
    },
    {
      "anonymous": false,
      "inputs": [
        {
          "indexed": true,
          "internalType": "address",
          "name": "from",
          "type": "address"
        },
        {
          "indexed": true,
          "internalType": "address",
          "name": "to",
          "type": "address"
        },
        {
          "indexed": false,
          "internalType": "uint256",
          "name": "value",
          "type": "uint256"
        }
      ],
      "name": "Transfer",
      "type": "event"
    },
    {
      "inputs": [
        {
          "internalType": "address",
          "name": "holder",
          "type": "address"
        },
        {
          "internalType": "address",
          "name": "spender",
          "type": "address"
        }
      ],
      "name": "allowance",
      "outputs": [
        {
          "internalType": "uint256",
          "name": "",
          "type": "uint256"
        }
      ],
      "stateMutability": "view",
      "type": "function"
    },
    {
      "inputs": [
        {
          "internalType": "address",
          "name": "spender",
          "type": "address"
        },
        {
          "internalType": "uint256",
          "name": "value",
          "type": "uint256"
        }
      ],
      "name": "approve",
      "outputs": [
        {
          "internalType": "bool",
          "name": "",
          "type": "bool"
        }
      ],
      "stateMutability": "nonpayable",
      "type": "function"
    },
    {
      "inputs": [
        {
          "internalType": "address",
          "name": "holder",
          "type": "address"
        },
        {
          "internalType": "address",
          "name": "spender",
          "type": "address"
        },
        {
          "internalType": "uint256",
          "name": "value",
          "type": "uint256"
        }
      ],
      "name": "approveInternal",
      "outputs": [],
      "stateMutability": "nonpayable",
      "type": "function"
    },
    {
      "inputs": [
        {
          "internalType": "address",
          "name": "operator",
          "type": "address"
        }
      ],
      "name": "authorizeOperator",
      "outputs": [],
      "stateMutability": "nonpayable",
      "type": "function"
    },
    {
      "inputs": [
        {
          "internalType": "address",
          "name": "tokenHolder",
          "type": "address"
        }
      ],
      "name": "balanceOf",
      "outputs": [
        {
          "internalType": "uint256",
          "name": "",
          "type": "uint256"
        }
      ],
      "stateMutability": "view",
      "type": "function"
    },
    {
      "inputs": [
        {
          "internalType": "uint256",
          "name": "amount",
          "type": "uint256"
        },
        {
          "internalType": "bytes",
          "name": "data",
          "type": "bytes"
        }
      ],
      "name": "burn",
      "outputs": [],
      "stateMutability": "nonpayable",
      "type": "function"
    },
    {
      "inputs": [],
      "name": "decimals",
      "outputs": [
        {
          "internalType": "uint8",
          "name": "",
          "type": "uint8"
        }
      ],
      "stateMutability": "pure",
      "type": "function"
    },
    {
      "inputs": [],
      "name": "defaultOperators",
      "outputs": [
        {
          "internalType": "address[]",
          "name": "",
          "type": "address[]"
        }
      ],
      "stateMutability": "view",
      "type": "function"
    },
    {
      "inputs": [],
      "name": "granularity",
      "outputs": [
        {
          "internalType": "uint256",
          "name": "",
          "type": "uint256"
        }
      ],
      "stateMutability": "view",
      "type": "function"
    },
    {
      "inputs": [
        {
          "internalType": "address",
          "name": "operator",
          "type": "address"
        },
        {
          "internalType": "address",
          "name": "tokenHolder",
          "type": "address"
        }
      ],
      "name": "isOperatorFor",
      "outputs": [
        {
          "internalType": "bool",
          "name": "",
          "type": "bool"
        }
      ],
      "stateMutability": "view",
      "type": "function"
    },
    {
      "inputs": [
        {
          "internalType": "address",
          "name": "to",
          "type": "address"
        },
        {
          "internalType": "uint256",
          "name": "amount",
          "type": "uint256"
        },
        {
          "internalType": "bytes",
          "name": "userData",
          "type": "bytes"
        },
        {
          "internalType": "bytes",
          "name": "operatorData",
          "type": "bytes"
        }
      ],
      "name": "mintInternal",
      "outputs": [],
      "stateMutability": "nonpayable",
      "type": "function"
    },
    {
      "inputs": [
        {
          "internalType": "address",
          "name": "to",
          "type": "address"
        },
        {
          "internalType": "uint256",
          "name": "amount",
          "type": "uint256"
        },
        {
          "internalType": "bytes",
          "name": "userData",
          "type": "bytes"
        },
        {
          "internalType": "bytes",
          "name": "operatorData",
          "type": "bytes"
        },
        {
          "internalType": "bool",
          "name": "requireReceptionAck",
          "type": "bool"
        }
      ],
      "name": "mintInternalExtended",
      "outputs": [],
      "stateMutability": "nonpayable",
      "type": "function"
    },
    {
      "inputs": [],
      "name": "name",
      "outputs": [
        {
          "internalType": "string",
          "name": "",
          "type": "string"
        }
      ],
      "stateMutability": "view",
      "type": "function"
    },
    {
      "inputs": [
        {
          "internalType": "address",
          "name": "account",
          "type": "address"
        },
        {
          "internalType": "uint256",
          "name": "amount",
          "type": "uint256"
        },
        {
          "internalType": "bytes",
          "name": "data",
          "type": "bytes"
        },
        {
          "internalType": "bytes",
          "name": "operatorData",
          "type": "bytes"
        }
      ],
      "name": "operatorBurn",
      "outputs": [],
      "stateMutability": "nonpayable",
      "type": "function"
    },
    {
      "inputs": [
        {
          "internalType": "address",
          "name": "sender",
          "type": "address"
        },
        {
          "internalType": "address",
          "name": "recipient",
          "type": "address"
        },
        {
          "internalType": "uint256",
          "name": "amount",
          "type": "uint256"
        },
        {
          "internalType": "bytes",
          "name": "data",
          "type": "bytes"
        },
        {
          "internalType": "bytes",
          "name": "operatorData",
          "type": "bytes"
        }
      ],
      "name": "operatorSend",
      "outputs": [],
      "stateMutability": "nonpayable",
      "type": "function"
    },
    {
      "inputs": [
        {
          "internalType": "address",
          "name": "operator",
          "type": "address"
        }
      ],
      "name": "revokeOperator",
      "outputs": [],
      "stateMutability": "nonpayable",
      "type": "function"
    },
    {
      "inputs": [
        {
          "internalType": "address",
          "name": "recipient",
          "type": "address"
        },
        {
          "internalType": "uint256",
          "name": "amount",
          "type": "uint256"
        },
        {
          "internalType": "bytes",
          "name": "data",
          "type": "bytes"
        }
      ],
      "name": "send",
      "outputs": [],
      "stateMutability": "nonpayable",
      "type": "function"
    },
    {
      "inputs": [],
      "name": "symbol",
      "outputs": [
        {
          "internalType": "string",
          "name": "",
          "type": "string"
        }
      ],
      "stateMutability": "view",
      "type": "function"
    },
    {
      "inputs": [],
      "name": "totalSupply",
      "outputs": [
        {
          "internalType": "uint256",
          "name": "",
          "type": "uint256"
        }
      ],
      "stateMutability": "view",
      "type": "function"
    },
    {
      "inputs": [
        {
          "internalType": "address",
          "name": "recipient",
          "type": "address"
        },
        {
          "internalType": "uint256",
          "name": "amount",
          "type": "uint256"
        }
      ],
      "name": "transfer",
      "outputs": [
        {
          "internalType": "bool",
          "name": "",
          "type": "bool"
        }
      ],
      "stateMutability": "nonpayable",
      "type": "function"
    },
    {
      "inputs": [
        {
          "internalType": "address",
          "name": "holder",
          "type": "address"
        },
        {
          "internalType": "address",
          "name": "recipient",
          "type": "address"
        },
        {
          "internalType": "uint256",
          "name": "amount",
          "type": "uint256"
        }
      ],
      "name": "transferFrom",
      "outputs": [
        {
          "internalType": "bool",
          "name": "",
          "type": "bool"
        }
      ],
      "stateMutability": "nonpayable",
      "type": "function"
    }
  ],
  "bytecode": "0x60806040523480156200001157600080fd5b50604051620041a1380380620041a18339818101604052810190620000379190620009e5565b82828282600290805190602001906200005292919062000738565b5081600390805190602001906200006b92919062000738565b50806004908051906020019062000084929190620007c9565b5060005b81518110156200014157600160056000848481518110620000d2577f4e487b7100000000000000000000000000000000000000000000000000000000600052603260045260246000fd5b602002602001015173ffffffffffffffffffffffffffffffffffffffff1673ffffffffffffffffffffffffffffffffffffffff16815260200190815260200160002060006101000a81548160ff0219169083151502179055508080620001389062000f5b565b91505062000088565b50731820a4b7618bde71dce8cdc73aab6c95905fad2473ffffffffffffffffffffffffffffffffffffffff166329965a1d307fac7fbab5f54a3ca8194167523c6753bfeb96a445279294b6125b68cce2177054306040518463ffffffff1660e01b8152600401620001b59392919062000c9e565b600060405180830381600087803b158015620001d057600080fd5b505af1158015620001e5573d6000803e3d6000fd5b50505050731820a4b7618bde71dce8cdc73aab6c95905fad2473ffffffffffffffffffffffffffffffffffffffff166329965a1d307faea199e31a596269b42cdafd93407f14436db6e4cad65417994c2eb37381e05a306040518463ffffffff1660e01b81526004016200025c9392919062000c9e565b600060405180830381600087803b1580156200027757600080fd5b505af11580156200028c573d6000803e3d6000fd5b50505050505050620002c585856040518060200160405280600081525060405180602001604052806000815250620002d060201b60201c565b50505050506200107b565b620002e6848484846001620002ec60201b60201c565b50505050565b600073ffffffffffffffffffffffffffffffffffffffff168573ffffffffffffffffffffffffffffffffffffffff1614156200035f576040517f08c379a0000000000000000000000000000000000000000000000000000000008152600401620003569062000cdb565b60405180910390fd5b600062000371620004ed60201b60201c565b9050620003888160008888620004f560201b60201c565b84600160008282546200039c919062000e4a565b92505081905550846000808873ffffffffffffffffffffffffffffffffffffffff1673ffffffffffffffffffffffffffffffffffffffff1681526020019081526020016000206000828254620003f3919062000e4a565b925050819055506200041281600088888888886200052760201b60201c565b8573ffffffffffffffffffffffffffffffffffffffff168173ffffffffffffffffffffffffffffffffffffffff167f2fe5be0146f74c5bce36c0b80911af6c7d86ff27e89d5cfa61fc681327954e5d878787604051620004759392919062000d3c565b60405180910390a38573ffffffffffffffffffffffffffffffffffffffff16600073ffffffffffffffffffffffffffffffffffffffff167fddf252ad1be2c89b69c2b068fc378daa952ba7f163c4a11628f55a4df523b3ef87604051620004dd919062000d1f565b60405180910390a3505050505050565b600033905090565b7f52316ab8e8b0687ce803e403dfe429541bccd4f6c4683ec65d254d382f15a26560405160405180910390a150505050565b6000731820a4b7618bde71dce8cdc73aab6c95905fad2473ffffffffffffffffffffffffffffffffffffffff1663aabbb8ca877fb281fc8c12954d22544db45de3159a39272895b169a852b314f9cc762e44c53b6040518363ffffffff1660e01b81526004016200059a92919062000c71565b60206040518083038186803b158015620005b357600080fd5b505afa158015620005c8573d6000803e3d6000fd5b505050506040513d601f19601f82011682018060405250810190620005ee9190620009b9565b9050600073ffffffffffffffffffffffffffffffffffffffff168173ffffffffffffffffffffffffffffffffffffffff1614620006a3578073ffffffffffffffffffffffffffffffffffffffff166223de298989898989896040518763ffffffff1660e01b8152600401620006699695949392919062000bf6565b600060405180830381600087803b1580156200068457600080fd5b505af115801562000699573d6000803e3d6000fd5b505050506200071b565b81156200071a57620006d68673ffffffffffffffffffffffffffffffffffffffff166200072560201b620011f51760201c565b1562000719576040517f08c379a0000000000000000000000000000000000000000000000000000000008152600401620007109062000cfd565b60405180910390fd5b5b5b5050505050505050565b600080823b905060008111915050919050565b828054620007469062000f25565b90600052602060002090601f0160209004810192826200076a5760008555620007b6565b82601f106200078557805160ff1916838001178555620007b6565b82800160010185558215620007b6579182015b82811115620007b557825182559160200191906001019062000798565b5b509050620007c5919062000858565b5090565b82805482825590600052602060002090810192821562000845579160200282015b82811115620008445782518260006101000a81548173ffffffffffffffffffffffffffffffffffffffff021916908373ffffffffffffffffffffffffffffffffffffffff16021790555091602001919060010190620007ea565b5b50905062000854919062000858565b5090565b5b808211156200087357600081600090555060010162000859565b5090565b60006200088e620008888462000dbb565b62000d87565b90508083825260208201905082856020860282011115620008ae57600080fd5b60005b85811015620008e25781620008c7888262000931565b845260208401935060208301925050600181019050620008b1565b5050509392505050565b600062000903620008fd8462000dea565b62000d87565b9050828152602081018484840111156200091c57600080fd5b6200092984828562000eef565b509392505050565b600081519050620009428162001047565b92915050565b600082601f8301126200095a57600080fd5b81516200096c84826020860162000877565b91505092915050565b600082601f8301126200098757600080fd5b815162000999848260208601620008ec565b91505092915050565b600081519050620009b38162001061565b92915050565b600060208284031215620009cc57600080fd5b6000620009dc8482850162000931565b91505092915050565b600080600080600060a08688031215620009fe57600080fd5b600062000a0e8882890162000931565b955050602062000a2188828901620009a2565b945050604086015167ffffffffffffffff81111562000a3f57600080fd5b62000a4d8882890162000975565b935050606086015167ffffffffffffffff81111562000a6b57600080fd5b62000a798882890162000975565b925050608086015167ffffffffffffffff81111562000a9757600080fd5b62000aa58882890162000948565b9150509295509295909350565b62000abd8162000ea7565b82525050565b62000ace8162000ebb565b82525050565b600062000ae18262000e1d565b62000aed818562000e28565b935062000aff81856020860162000eef565b62000b0a8162001036565b840191505092915050565b600062000b2460208362000e39565b91507f4552433737373a206d696e7420746f20746865207a65726f20616464726573736000830152602082019050919050565b600062000b66604d8362000e39565b91507f4552433737373a20746f6b656e20726563697069656e7420636f6e747261637460008301527f20686173206e6f20696d706c656d656e74657220666f7220455243373737546f60208301527f6b656e73526563697069656e74000000000000000000000000000000000000006040830152606082019050919050565b62000bf08162000ee5565b82525050565b600060c08201905062000c0d600083018962000ab2565b62000c1c602083018862000ab2565b62000c2b604083018762000ab2565b62000c3a606083018662000be5565b818103608083015262000c4e818562000ad4565b905081810360a083015262000c64818462000ad4565b9050979650505050505050565b600060408201905062000c88600083018562000ab2565b62000c97602083018462000ac3565b9392505050565b600060608201905062000cb5600083018662000ab2565b62000cc4602083018562000ac3565b62000cd3604083018462000ab2565b949350505050565b6000602082019050818103600083015262000cf68162000b15565b9050919050565b6000602082019050818103600083015262000d188162000b57565b9050919050565b600060208201905062000d36600083018462000be5565b92915050565b600060608201905062000d53600083018662000be5565b818103602083015262000d67818562000ad4565b9050818103604083015262000d7d818462000ad4565b9050949350505050565b6000604051905081810181811067ffffffffffffffff8211171562000db15762000db062001007565b5b8060405250919050565b600067ffffffffffffffff82111562000dd95762000dd862001007565b5b602082029050602081019050919050565b600067ffffffffffffffff82111562000e085762000e0762001007565b5b601f19601f8301169050602081019050919050565b600081519050919050565b600082825260208201905092915050565b600082825260208201905092915050565b600062000e578262000ee5565b915062000e648362000ee5565b9250827fffffffffffffffffffffffffffffffffffffffffffffffffffffffffffffffff0382111562000e9c5762000e9b62000fa9565b5b828201905092915050565b600062000eb48262000ec5565b9050919050565b6000819050919050565b600073ffffffffffffffffffffffffffffffffffffffff82169050919050565b6000819050919050565b60005b8381101562000f0f57808201518184015260208101905062000ef2565b8381111562000f1f576000848401525b50505050565b6000600282049050600182168062000f3e57607f821691505b6020821081141562000f555762000f5462000fd8565b5b50919050565b600062000f688262000ee5565b91507fffffffffffffffffffffffffffffffffffffffffffffffffffffffffffffffff82141562000f9e5762000f9d62000fa9565b5b600182019050919050565b7f4e487b7100000000000000000000000000000000000000000000000000000000600052601160045260246000fd5b7f4e487b7100000000000000000000000000000000000000000000000000000000600052602260045260246000fd5b7f4e487b7100000000000000000000000000000000000000000000000000000000600052604160045260246000fd5b6000601f19601f8301169050919050565b620010528162000ea7565b81146200105e57600080fd5b50565b6200106c8162000ee5565b81146200107857600080fd5b50565b613116806200108b6000396000f3fe608060405234801561001057600080fd5b50600436106101375760003560e01c8063959b8c3f116100b8578063cfbfab0b1161007c578063cfbfab0b1461033c578063d95b637114610358578063dd62ed3e14610388578063fad8b32a146103b8578063fc673c4f146103d4578063fe9d9303146103f057610137565b8063959b8c3f1461029a57806395d89b41146102b65780639bd9bbc6146102d4578063a9059cbb146102f0578063b1f0b5be1461032057610137565b8063313ce567116100ff578063313ce567146101f6578063556f0dc71461021457806356189cb41461023257806362ad1b831461024e57806370a082311461026a57610137565b806306e485381461013c57806306fdde031461015a578063095ea7b31461017857806318160ddd146101a857806323b872dd146101c6575b600080fd5b61014461040c565b6040516101519190612b14565b60405180910390f35b61016261049a565b60405161016f9190612b51565b60405180910390f35b610192600480360381019061018d9190612135565b61052c565b60405161019f9190612b36565b60405180910390f35b6101b061054f565b6040516101bd9190612d53565b60405180910390f35b6101e060048036038101906101db919061203f565b610559565b6040516101ed9190612b36565b60405180910390f35b6101fe6107b3565b60405161020b9190612db3565b60405180910390f35b61021c6107bc565b6040516102299190612d53565b60405180910390f35b61024c6004803603810190610247919061203f565b6107c5565b005b6102686004803603810190610263919061208e565b6107d5565b005b610284600480360381019061027f9190611fb1565b61083b565b6040516102919190612d53565b60405180910390f35b6102b460048036038101906102af9190611fb1565b610883565b005b6102be610ae4565b6040516102cb9190612b51565b60405180910390f35b6102ee60048036038101906102e99190612171565b610b76565b005b61030a60048036038101906103059190612135565b610ba0565b6040516103179190612b36565b60405180910390f35b61033a600480360381019061033591906121d8565b610cae565b005b6103566004803603810190610351919061226b565b610cc0565b005b610372600480360381019061036d9190612003565b610cd4565b60405161037f9190612b36565b60405180910390f35b6103a2600480360381019061039d9190612003565b610e85565b6040516103af9190612d53565b60405180910390f35b6103d260048036038101906103cd9190611fb1565b610f0c565b005b6103ee60048036038101906103e991906121d8565b61116d565b005b61040a60048036038101906104059190612312565b6111cf565b005b6060600480548060200260200160405190810160405280929190818152602001828054801561049057602002820191906000526020600020905b8160009054906101000a900473ffffffffffffffffffffffffffffffffffffffff1673ffffffffffffffffffffffffffffffffffffffff1681526020019060010190808311610446575b5050505050905090565b6060600280546104a990612fcb565b80601f01602080910402602001604051908101604052809291908181526020018280546104d590612fcb565b80156105225780601f106104f757610100808354040283529160200191610522565b820191906000526020600020905b81548152906001019060200180831161050557829003601f168201915b5050505050905090565b600080610537611208565b9050610544818585611210565b600191505092915050565b6000600154905090565b60008073ffffffffffffffffffffffffffffffffffffffff168373ffffffffffffffffffffffffffffffffffffffff1614156105ca576040517f08c379a00000000000000000000000000000000000000000000000000000000081526004016105c190612c73565b60405180910390fd5b600073ffffffffffffffffffffffffffffffffffffffff168473ffffffffffffffffffffffffffffffffffffffff16141561063a576040517f08c379a000000000000000000000000000000000000000000000000000000000815260040161063190612cd3565b60405180910390fd5b6000610644611208565b90506106728186868660405180602001604052806000815250604051806020016040528060008152506113db565b61069e818686866040518060200160405280600081525060405180602001604052806000815250611551565b6000600860008773ffffffffffffffffffffffffffffffffffffffff1673ffffffffffffffffffffffffffffffffffffffff16815260200190815260200160002060008373ffffffffffffffffffffffffffffffffffffffff1673ffffffffffffffffffffffffffffffffffffffff16815260200190815260200160002054905083811015610762576040517f08c379a000000000000000000000000000000000000000000000000000000000815260040161075990612cb3565b60405180910390fd5b610778868386846107739190612ef6565b611210565b6107a68287878760405180602001604052806000815250604051806020016040528060008152506000611774565b6001925050509392505050565b60006012905090565b60006001905090565b6107d0838383611210565b505050565b6107e66107e0611208565b86610cd4565b610825576040517f08c379a000000000000000000000000000000000000000000000000000000000815260040161081c90612c93565b60405180910390fd5b61083485858585856001611955565b5050505050565b60008060008373ffffffffffffffffffffffffffffffffffffffff1673ffffffffffffffffffffffffffffffffffffffff168152602001908152602001600020549050919050565b8073ffffffffffffffffffffffffffffffffffffffff166108a2611208565b73ffffffffffffffffffffffffffffffffffffffff1614156108f9576040517f08c379a00000000000000000000000000000000000000000000000000000000081526004016108f090612bf3565b60405180910390fd5b600560008273ffffffffffffffffffffffffffffffffffffffff1673ffffffffffffffffffffffffffffffffffffffff16815260200190815260200160002060009054906101000a900460ff16156109e35760076000610957611208565b73ffffffffffffffffffffffffffffffffffffffff1673ffffffffffffffffffffffffffffffffffffffff16815260200190815260200160002060008273ffffffffffffffffffffffffffffffffffffffff1673ffffffffffffffffffffffffffffffffffffffff16815260200190815260200160002060006101000a81549060ff0219169055610a80565b6001600660006109f1611208565b73ffffffffffffffffffffffffffffffffffffffff1673ffffffffffffffffffffffffffffffffffffffff16815260200190815260200160002060008373ffffffffffffffffffffffffffffffffffffffff1673ffffffffffffffffffffffffffffffffffffffff16815260200190815260200160002060006101000a81548160ff0219169083151502179055505b610a88611208565b73ffffffffffffffffffffffffffffffffffffffff168173ffffffffffffffffffffffffffffffffffffffff167ff4caeb2d6ca8932a215a353d0703c326ec2d81fc68170f320eb2ab49e9df61f960405160405180910390a350565b606060038054610af390612fcb565b80601f0160208091040260200160405190810160405280929190818152602001828054610b1f90612fcb565b8015610b6c5780601f10610b4157610100808354040283529160200191610b6c565b820191906000526020600020905b815481529060010190602001808311610b4f57829003601f168201915b5050505050905090565b610b9b610b81611208565b848484604051806020016040528060008152506001611955565b505050565b60008073ffffffffffffffffffffffffffffffffffffffff168373ffffffffffffffffffffffffffffffffffffffff161415610c11576040517f08c379a0000000000000000000000000000000000000000000000000000000008152600401610c0890612c73565b60405180910390fd5b6000610c1b611208565b9050610c498182868660405180602001604052806000815250604051806020016040528060008152506113db565b610c75818286866040518060200160405280600081525060405180602001604052806000815250611551565b610ca38182868660405180602001604052806000815250604051806020016040528060008152506000611774565b600191505092915050565b610cba84848484611a75565b50505050565b610ccd8585858585611a89565b5050505050565b60008173ffffffffffffffffffffffffffffffffffffffff168373ffffffffffffffffffffffffffffffffffffffff161480610dec5750600560008473ffffffffffffffffffffffffffffffffffffffff1673ffffffffffffffffffffffffffffffffffffffff16815260200190815260200160002060009054906101000a900460ff168015610deb5750600760008373ffffffffffffffffffffffffffffffffffffffff1673ffffffffffffffffffffffffffffffffffffffff16815260200190815260200160002060008473ffffffffffffffffffffffffffffffffffffffff1673ffffffffffffffffffffffffffffffffffffffff16815260200190815260200160002060009054906101000a900460ff16155b5b80610e7d5750600660008373ffffffffffffffffffffffffffffffffffffffff1673ffffffffffffffffffffffffffffffffffffffff16815260200190815260200160002060008473ffffffffffffffffffffffffffffffffffffffff1673ffffffffffffffffffffffffffffffffffffffff16815260200190815260200160002060009054906101000a900460ff165b905092915050565b6000600860008473ffffffffffffffffffffffffffffffffffffffff1673ffffffffffffffffffffffffffffffffffffffff16815260200190815260200160002060008373ffffffffffffffffffffffffffffffffffffffff1673ffffffffffffffffffffffffffffffffffffffff16815260200190815260200160002054905092915050565b610f14611208565b73ffffffffffffffffffffffffffffffffffffffff168173ffffffffffffffffffffffffffffffffffffffff161415610f82576040517f08c379a0000000000000000000000000000000000000000000000000000000008152600401610f7990612c13565b60405180910390fd5b600560008273ffffffffffffffffffffffffffffffffffffffff1673ffffffffffffffffffffffffffffffffffffffff16815260200190815260200160002060009054906101000a900460ff161561107557600160076000610fe2611208565b73ffffffffffffffffffffffffffffffffffffffff1673ffffffffffffffffffffffffffffffffffffffff16815260200190815260200160002060008373ffffffffffffffffffffffffffffffffffffffff1673ffffffffffffffffffffffffffffffffffffffff16815260200190815260200160002060006101000a81548160ff021916908315150217905550611109565b60066000611081611208565b73ffffffffffffffffffffffffffffffffffffffff1673ffffffffffffffffffffffffffffffffffffffff16815260200190815260200160002060008273ffffffffffffffffffffffffffffffffffffffff1673ffffffffffffffffffffffffffffffffffffffff16815260200190815260200160002060006101000a81549060ff02191690555b611111611208565b73ffffffffffffffffffffffffffffffffffffffff168173ffffffffffffffffffffffffffffffffffffffff167f50546e66e5f44d728365dc3908c63bc5cfeeab470722c1677e3073a6ac294aa160405160405180910390a350565b61117e611178611208565b85610cd4565b6111bd576040517f08c379a00000000000000000000000000000000000000000000000000000000081526004016111b490612c93565b60405180910390fd5b6111c984848484611c67565b50505050565b6111f16111da611208565b838360405180602001604052806000815250611c67565b5050565b600080823b905060008111915050919050565b600033905090565b600073ffffffffffffffffffffffffffffffffffffffff168373ffffffffffffffffffffffffffffffffffffffff161415611280576040517f08c379a000000000000000000000000000000000000000000000000000000000815260040161127790612b73565b60405180910390fd5b600073ffffffffffffffffffffffffffffffffffffffff168273ffffffffffffffffffffffffffffffffffffffff1614156112f0576040517f08c379a00000000000000000000000000000000000000000000000000000000081526004016112e790612d33565b60405180910390fd5b80600860008573ffffffffffffffffffffffffffffffffffffffff1673ffffffffffffffffffffffffffffffffffffffff16815260200190815260200160002060008473ffffffffffffffffffffffffffffffffffffffff1673ffffffffffffffffffffffffffffffffffffffff168152602001908152602001600020819055508173ffffffffffffffffffffffffffffffffffffffff168373ffffffffffffffffffffffffffffffffffffffff167f8c5be1e5ebec7d5bd14f71427d1e84f3dd0314c0f7b2291e5b200ac8c7c3b925836040516113ce9190612d53565b60405180910390a3505050565b6000731820a4b7618bde71dce8cdc73aab6c95905fad2473ffffffffffffffffffffffffffffffffffffffff1663aabbb8ca877f29ddb589b1fb5fc7cf394961c1adf5f8c6454761adf795e67fe149f658abe8956040518363ffffffff1660e01b815260040161144c929190612aeb565b60206040518083038186803b15801561146457600080fd5b505afa158015611478573d6000803e3d6000fd5b505050506040513d601f19601f8201168201806040525081019061149c9190611fda565b9050600073ffffffffffffffffffffffffffffffffffffffff168173ffffffffffffffffffffffffffffffffffffffff1614611548578073ffffffffffffffffffffffffffffffffffffffff166375ab97828888888888886040518763ffffffff1660e01b815260040161151596959493929190612a7c565b600060405180830381600087803b15801561152f57600080fd5b505af1158015611543573d6000803e3d6000fd5b505050505b50505050505050565b61155d86868686611ec3565b60008060008773ffffffffffffffffffffffffffffffffffffffff1673ffffffffffffffffffffffffffffffffffffffff168152602001908152602001600020549050838110156115e3576040517f08c379a00000000000000000000000000000000000000000000000000000000081526004016115da90612bb3565b60405180910390fd5b83816115ef9190612ef6565b6000808873ffffffffffffffffffffffffffffffffffffffff1673ffffffffffffffffffffffffffffffffffffffff16815260200190815260200160002081905550836000808773ffffffffffffffffffffffffffffffffffffffff1673ffffffffffffffffffffffffffffffffffffffff168152602001908152602001600020600082825461167f9190612ea0565b925050819055508473ffffffffffffffffffffffffffffffffffffffff168673ffffffffffffffffffffffffffffffffffffffff168873ffffffffffffffffffffffffffffffffffffffff167f06b541ddaa720db2b10a4d0cdac39b8d360425fc073085fac19bc826146779878787876040516116fe93929190612d6e565b60405180910390a48473ffffffffffffffffffffffffffffffffffffffff168673ffffffffffffffffffffffffffffffffffffffff167fddf252ad1be2c89b69c2b068fc378daa952ba7f163c4a11628f55a4df523b3ef866040516117639190612d53565b60405180910390a350505050505050565b6000731820a4b7618bde71dce8cdc73aab6c95905fad2473ffffffffffffffffffffffffffffffffffffffff1663aabbb8ca877fb281fc8c12954d22544db45de3159a39272895b169a852b314f9cc762e44c53b6040518363ffffffff1660e01b81526004016117e5929190612aeb565b60206040518083038186803b1580156117fd57600080fd5b505afa158015611811573d6000803e3d6000fd5b505050506040513d601f19601f820116820180604052508101906118359190611fda565b9050600073ffffffffffffffffffffffffffffffffffffffff168173ffffffffffffffffffffffffffffffffffffffff16146118e4578073ffffffffffffffffffffffffffffffffffffffff166223de298989898989896040518763ffffffff1660e01b81526004016118ad96959493929190612a7c565b600060405180830381600087803b1580156118c757600080fd5b505af11580156118db573d6000803e3d6000fd5b5050505061194b565b811561194a576119098673ffffffffffffffffffffffffffffffffffffffff166111f5565b15611949576040517f08c379a000000000000000000000000000000000000000000000000000000000815260040161194090612c53565b60405180910390fd5b5b5b5050505050505050565b600073ffffffffffffffffffffffffffffffffffffffff168673ffffffffffffffffffffffffffffffffffffffff1614156119c5576040517f08c379a00000000000000000000000000000000000000000000000000000000081526004016119bc90612b93565b60405180910390fd5b600073ffffffffffffffffffffffffffffffffffffffff168573ffffffffffffffffffffffffffffffffffffffff161415611a35576040517f08c379a0000000000000000000000000000000000000000000000000000000008152600401611a2c90612d13565b60405180910390fd5b6000611a3f611208565b9050611a4f8188888888886113db565b611a5d818888888888611551565b611a6c81888888888888611774565b50505050505050565b611a83848484846001611a89565b50505050565b600073ffffffffffffffffffffffffffffffffffffffff168573ffffffffffffffffffffffffffffffffffffffff161415611af9576040517f08c379a0000000000000000000000000000000000000000000000000000000008152600401611af090612c33565b60405180910390fd5b6000611b03611208565b9050611b128160008888611ec3565b8460016000828254611b249190612ea0565b92505081905550846000808873ffffffffffffffffffffffffffffffffffffffff1673ffffffffffffffffffffffffffffffffffffffff1681526020019081526020016000206000828254611b799190612ea0565b92505081905550611b908160008888888888611774565b8573ffffffffffffffffffffffffffffffffffffffff168173ffffffffffffffffffffffffffffffffffffffff167f2fe5be0146f74c5bce36c0b80911af6c7d86ff27e89d5cfa61fc681327954e5d878787604051611bf193929190612d6e565b60405180910390a38573ffffffffffffffffffffffffffffffffffffffff16600073ffffffffffffffffffffffffffffffffffffffff167fddf252ad1be2c89b69c2b068fc378daa952ba7f163c4a11628f55a4df523b3ef87604051611c579190612d53565b60405180910390a3505050505050565b600073ffffffffffffffffffffffffffffffffffffffff168473ffffffffffffffffffffffffffffffffffffffff161415611cd7576040517f08c379a0000000000000000000000000000000000000000000000000000000008152600401611cce90612bd3565b60405180910390fd5b6000611ce1611208565b9050611cf2818660008787876113db565b611cff8186600087611ec3565b60008060008773ffffffffffffffffffffffffffffffffffffffff1673ffffffffffffffffffffffffffffffffffffffff16815260200190815260200160002054905084811015611d85576040517f08c379a0000000000000000000000000000000000000000000000000000000008152600401611d7c90612cf3565b60405180910390fd5b8481611d919190612ef6565b6000808873ffffffffffffffffffffffffffffffffffffffff1673ffffffffffffffffffffffffffffffffffffffff168152602001908152602001600020819055508460016000828254611de59190612ef6565b925050819055508573ffffffffffffffffffffffffffffffffffffffff168273ffffffffffffffffffffffffffffffffffffffff167fa78a9be3a7b862d26933ad85fb11d80ef66b8f972d7cbba06621d583943a4098878787604051611e4d93929190612d6e565b60405180910390a3600073ffffffffffffffffffffffffffffffffffffffff168673ffffffffffffffffffffffffffffffffffffffff167fddf252ad1be2c89b69c2b068fc378daa952ba7f163c4a11628f55a4df523b3ef87604051611eb39190612d53565b60405180910390a3505050505050565b7f52316ab8e8b0687ce803e403dfe429541bccd4f6c4683ec65d254d382f15a26560405160405180910390a150505050565b6000611f08611f0384612dff565b612dce565b905082815260208101848484011115611f2057600080fd5b611f2b848285612f89565b509392505050565b600081359050611f428161309b565b92915050565b600081519050611f578161309b565b92915050565b600081359050611f6c816130b2565b92915050565b600082601f830112611f8357600080fd5b8135611f93848260208601611ef5565b91505092915050565b600081359050611fab816130c9565b92915050565b600060208284031215611fc357600080fd5b6000611fd184828501611f33565b91505092915050565b600060208284031215611fec57600080fd5b6000611ffa84828501611f48565b91505092915050565b6000806040838503121561201657600080fd5b600061202485828601611f33565b925050602061203585828601611f33565b9150509250929050565b60008060006060848603121561205457600080fd5b600061206286828701611f33565b935050602061207386828701611f33565b925050604061208486828701611f9c565b9150509250925092565b600080600080600060a086880312156120a657600080fd5b60006120b488828901611f33565b95505060206120c588828901611f33565b94505060406120d688828901611f9c565b935050606086013567ffffffffffffffff8111156120f357600080fd5b6120ff88828901611f72565b925050608086013567ffffffffffffffff81111561211c57600080fd5b61212888828901611f72565b9150509295509295909350565b6000806040838503121561214857600080fd5b600061215685828601611f33565b925050602061216785828601611f9c565b9150509250929050565b60008060006060848603121561218657600080fd5b600061219486828701611f33565b93505060206121a586828701611f9c565b925050604084013567ffffffffffffffff8111156121c257600080fd5b6121ce86828701611f72565b9150509250925092565b600080600080608085870312156121ee57600080fd5b60006121fc87828801611f33565b945050602061220d87828801611f9c565b935050604085013567ffffffffffffffff81111561222a57600080fd5b61223687828801611f72565b925050606085013567ffffffffffffffff81111561225357600080fd5b61225f87828801611f72565b91505092959194509250565b600080600080600060a0868803121561228357600080fd5b600061229188828901611f33565b95505060206122a288828901611f9c565b945050604086013567ffffffffffffffff8111156122bf57600080fd5b6122cb88828901611f72565b935050606086013567ffffffffffffffff8111156122e857600080fd5b6122f488828901611f72565b925050608061230588828901611f5d565b9150509295509295909350565b6000806040838503121561232557600080fd5b600061233385828601611f9c565b925050602083013567ffffffffffffffff81111561235057600080fd5b61235c85828601611f72565b9150509250929050565b6000612372838361237e565b60208301905092915050565b61238781612f2a565b82525050565b61239681612f2a565b82525050565b60006123a782612e3f565b6123b18185612e6d565b93506123bc83612e2f565b8060005b838110156123ed5781516123d48882612366565b97506123df83612e60565b9250506001810190506123c0565b5085935050505092915050565b61240381612f3c565b82525050565b61241281612f48565b82525050565b600061242382612e4a565b61242d8185612e7e565b935061243d818560208601612f98565b6124468161308a565b840191505092915050565b600061245c82612e55565b6124668185612e8f565b9350612476818560208601612f98565b61247f8161308a565b840191505092915050565b6000612497602583612e8f565b91507f4552433737373a20617070726f76652066726f6d20746865207a65726f20616460008301527f64726573730000000000000000000000000000000000000000000000000000006020830152604082019050919050565b60006124fd602283612e8f565b91507f4552433737373a2073656e642066726f6d20746865207a65726f20616464726560008301527f73730000000000000000000000000000000000000000000000000000000000006020830152604082019050919050565b6000612563602783612e8f565b91507f4552433737373a207472616e7366657220616d6f756e7420657863656564732060008301527f62616c616e6365000000000000000000000000000000000000000000000000006020830152604082019050919050565b60006125c9602283612e8f565b91507f4552433737373a206275726e2066726f6d20746865207a65726f20616464726560008301527f73730000000000000000000000000000000000000000000000000000000000006020830152604082019050919050565b600061262f602483612e8f565b91507f4552433737373a20617574686f72697a696e672073656c66206173206f70657260008301527f61746f72000000000000000000000000000000000000000000000000000000006020830152604082019050919050565b6000612695602183612e8f565b91507f4552433737373a207265766f6b696e672073656c66206173206f70657261746f60008301527f72000000000000000000000000000000000000000000000000000000000000006020830152604082019050919050565b60006126fb602083612e8f565b91507f4552433737373a206d696e7420746f20746865207a65726f20616464726573736000830152602082019050919050565b600061273b604d83612e8f565b91507f4552433737373a20746f6b656e20726563697069656e7420636f6e747261637460008301527f20686173206e6f20696d706c656d656e74657220666f7220455243373737546f60208301527f6b656e73526563697069656e74000000000000000000000000000000000000006040830152606082019050919050565b60006127c7602483612e8f565b91507f4552433737373a207472616e7366657220746f20746865207a65726f2061646460008301527f72657373000000000000000000000000000000000000000000000000000000006020830152604082019050919050565b600061282d602c83612e8f565b91507f4552433737373a2063616c6c6572206973206e6f7420616e206f70657261746f60008301527f7220666f7220686f6c64657200000000000000000000000000000000000000006020830152604082019050919050565b6000612893602983612e8f565b91507f4552433737373a207472616e7366657220616d6f756e7420657863656564732060008301527f616c6c6f77616e636500000000000000000000000000000000000000000000006020830152604082019050919050565b60006128f9602683612e8f565b91507f4552433737373a207472616e736665722066726f6d20746865207a65726f206160008301527f64647265737300000000000000000000000000000000000000000000000000006020830152604082019050919050565b600061295f602383612e8f565b91507f4552433737373a206275726e20616d6f756e7420657863656564732062616c6160008301527f6e636500000000000000000000000000000000000000000000000000000000006020830152604082019050919050565b60006129c5602083612e8f565b91507f4552433737373a2073656e6420746f20746865207a65726f20616464726573736000830152602082019050919050565b6000612a05602383612e8f565b91507f4552433737373a20617070726f766520746f20746865207a65726f206164647260008301527f65737300000000000000000000000000000000000000000000000000000000006020830152604082019050919050565b612a6781612f72565b82525050565b612a7681612f7c565b82525050565b600060c082019050612a91600083018961238d565b612a9e602083018861238d565b612aab604083018761238d565b612ab86060830186612a5e565b8181036080830152612aca8185612418565b905081810360a0830152612ade8184612418565b9050979650505050505050565b6000604082019050612b00600083018561238d565b612b0d6020830184612409565b9392505050565b60006020820190508181036000830152612b2e818461239c565b905092915050565b6000602082019050612b4b60008301846123fa565b92915050565b60006020820190508181036000830152612b6b8184612451565b905092915050565b60006020820190508181036000830152612b8c8161248a565b9050919050565b60006020820190508181036000830152612bac816124f0565b9050919050565b60006020820190508181036000830152612bcc81612556565b9050919050565b60006020820190508181036000830152612bec816125bc565b9050919050565b60006020820190508181036000830152612c0c81612622565b9050919050565b60006020820190508181036000830152612c2c81612688565b9050919050565b60006020820190508181036000830152612c4c816126ee565b9050919050565b60006020820190508181036000830152612c6c8161272e565b9050919050565b60006020820190508181036000830152612c8c816127ba565b9050919050565b60006020820190508181036000830152612cac81612820565b9050919050565b60006020820190508181036000830152612ccc81612886565b9050919050565b60006020820190508181036000830152612cec816128ec565b9050919050565b60006020820190508181036000830152612d0c81612952565b9050919050565b60006020820190508181036000830152612d2c816129b8565b9050919050565b60006020820190508181036000830152612d4c816129f8565b9050919050565b6000602082019050612d686000830184612a5e565b92915050565b6000606082019050612d836000830186612a5e565b8181036020830152612d958185612418565b90508181036040830152612da98184612418565b9050949350505050565b6000602082019050612dc86000830184612a6d565b92915050565b6000604051905081810181811067ffffffffffffffff82111715612df557612df461305b565b5b8060405250919050565b600067ffffffffffffffff821115612e1a57612e1961305b565b5b601f19601f8301169050602081019050919050565b6000819050602082019050919050565b600081519050919050565b600081519050919050565b600081519050919050565b6000602082019050919050565b600082825260208201905092915050565b600082825260208201905092915050565b600082825260208201905092915050565b6000612eab82612f72565b9150612eb683612f72565b9250827fffffffffffffffffffffffffffffffffffffffffffffffffffffffffffffffff03821115612eeb57612eea612ffd565b5b828201905092915050565b6000612f0182612f72565b9150612f0c83612f72565b925082821015612f1f57612f1e612ffd565b5b828203905092915050565b6000612f3582612f52565b9050919050565b60008115159050919050565b6000819050919050565b600073ffffffffffffffffffffffffffffffffffffffff82169050919050565b6000819050919050565b600060ff82169050919050565b82818337600083830152505050565b60005b83811015612fb6578082015181840152602081019050612f9b565b83811115612fc5576000848401525b50505050565b60006002820490506001821680612fe357607f821691505b60208210811415612ff757612ff661302c565b5b50919050565b7f4e487b7100000000000000000000000000000000000000000000000000000000600052601160045260246000fd5b7f4e487b7100000000000000000000000000000000000000000000000000000000600052602260045260246000fd5b7f4e487b7100000000000000000000000000000000000000000000000000000000600052604160045260246000fd5b6000601f19601f8301169050919050565b6130a481612f2a565b81146130af57600080fd5b50565b6130bb81612f3c565b81146130c657600080fd5b50565b6130d281612f72565b81146130dd57600080fd5b5056fea26469706673582212203f2631112e832659f6b146e6f97072014fe4be97488a9d7eff5dd7c58d04ea2c64736f6c63430008000033",
  "linkReferences": {},
  "deployedLinkReferences": {}
}