{
  "_format": "hh-sol-artifact-1",
  "contractName": "MonFT",
  "sourceName": "contracts/MonFT.sol",
  "abi": [
    {
      "inputs": [
        {
          "internalType": "uint256",
          "name": "_dnaLength",
          "type": "uint256"
        }
      ],
      "stateMutability": "nonpayable",
      "type": "constructor"
    },
    {
      "anonymous": false,
      "inputs": [
        {
          "indexed": true,
          "internalType": "address",
          "name": "owner",
          "type": "address"
        },
        {
          "indexed": true,
          "internalType": "address",
          "name": "approved",
          "type": "address"
        },
        {
          "indexed": true,
          "internalType": "uint256",
          "name": "tokenId",
          "type": "uint256"
        }
      ],
      "name": "Approval",
      "type": "event"
    },
    {
      "anonymous": false,
      "inputs": [
        {
          "indexed": true,
          "internalType": "address",
          "name": "owner",
          "type": "address"
        },
        {
          "indexed": true,
          "internalType": "address",
          "name": "operator",
          "type": "address"
        },
        {
          "indexed": false,
          "internalType": "bool",
          "name": "approved",
          "type": "bool"
        }
      ],
      "name": "ApprovalForAll",
      "type": "event"
    },
    {
      "anonymous": false,
      "inputs": [
        {
          "indexed": true,
          "internalType": "address",
          "name": "from",
          "type": "address"
        },
        {
          "indexed": true,
          "internalType": "address",
          "name": "to",
          "type": "address"
        },
        {
          "indexed": true,
          "internalType": "uint256",
          "name": "tokenId",
          "type": "uint256"
        }
      ],
      "name": "Transfer",
      "type": "event"
    },
    {
      "inputs": [
        {
          "internalType": "address",
          "name": "to",
          "type": "address"
        },
        {
          "internalType": "uint256",
          "name": "tokenId",
          "type": "uint256"
        }
      ],
      "name": "approve",
      "outputs": [],
      "stateMutability": "nonpayable",
      "type": "function"
    },
    {
      "inputs": [
        {
          "internalType": "address",
          "name": "owner",
          "type": "address"
        }
      ],
      "name": "balanceOf",
      "outputs": [
        {
          "internalType": "uint256",
          "name": "",
          "type": "uint256"
        }
      ],
      "stateMutability": "view",
      "type": "function"
    },
    {
      "inputs": [],
      "name": "dnaLength",
      "outputs": [
        {
          "internalType": "uint256",
          "name": "",
          "type": "uint256"
        }
      ],
      "stateMutability": "view",
      "type": "function"
    },
    {
      "inputs": [
        {
          "internalType": "uint256",
          "name": "",
          "type": "uint256"
        }
      ],
      "name": "dnaSequences",
      "outputs": [
        {
          "internalType": "uint256",
          "name": "arms",
          "type": "uint256"
        },
        {
          "internalType": "uint256",
          "name": "body",
          "type": "uint256"
        },
        {
          "internalType": "uint256",
          "name": "ears",
          "type": "uint256"
        },
        {
          "internalType": "uint256",
          "name": "eyes",
          "type": "uint256"
        },
        {
          "internalType": "uint256",
          "name": "legs",
          "type": "uint256"
        },
        {
          "internalType": "uint256",
          "name": "nose",
          "type": "uint256"
        },
        {
          "internalType": "uint256",
          "name": "mouth",
          "type": "uint256"
        },
        {
          "internalType": "uint256",
          "name": "wings",
          "type": "uint256"
        }
      ],
      "stateMutability": "view",
      "type": "function"
    },
    {
      "inputs": [
        {
          "internalType": "uint256",
          "name": "tokenId",
          "type": "uint256"
        }
      ],
      "name": "getApproved",
      "outputs": [
        {
          "internalType": "address",
          "name": "",
          "type": "address"
        }
      ],
      "stateMutability": "view",
      "type": "function"
    },
    {
      "inputs": [
        {
          "internalType": "uint256",
          "name": "tokenId",
          "type": "uint256"
        }
      ],
      "name": "getBodyData",
      "outputs": [
        {
          "internalType": "uint256",
          "name": "",
          "type": "uint256"
        },
        {
          "internalType": "uint256",
          "name": "",
          "type": "uint256"
        },
        {
          "internalType": "uint256",
          "name": "",
          "type": "uint256"
        },
        {
          "internalType": "uint256",
          "name": "",
          "type": "uint256"
        }
      ],
      "stateMutability": "view",
      "type": "function"
    },
    {
      "inputs": [
        {
          "internalType": "uint256",
          "name": "tokenId",
          "type": "uint256"
        }
      ],
      "name": "getFaceData",
      "outputs": [
        {
          "internalType": "uint256",
          "name": "",
          "type": "uint256"
        },
        {
          "internalType": "uint256",
          "name": "",
          "type": "uint256"
        },
        {
          "internalType": "uint256",
          "name": "",
          "type": "uint256"
        },
        {
          "internalType": "uint256",
          "name": "",
          "type": "uint256"
        }
      ],
      "stateMutability": "view",
      "type": "function"
    },
    {
      "inputs": [
        {
          "internalType": "address",
          "name": "owner",
          "type": "address"
        },
        {
          "internalType": "address",
          "name": "operator",
          "type": "address"
        }
      ],
      "name": "isApprovedForAll",
      "outputs": [
        {
          "internalType": "bool",
          "name": "",
          "type": "bool"
        }
      ],
      "stateMutability": "view",
      "type": "function"
    },
    {
      "inputs": [],
      "name": "mintMon",
      "outputs": [
        {
          "internalType": "uint256",
          "name": "",
          "type": "uint256"
        }
      ],
      "stateMutability": "nonpayable",
      "type": "function"
    },
    {
      "inputs": [],
      "name": "name",
      "outputs": [
        {
          "internalType": "string",
          "name": "",
          "type": "string"
        }
      ],
      "stateMutability": "view",
      "type": "function"
    },
    {
      "inputs": [
        {
          "internalType": "uint256",
          "name": "tokenId",
          "type": "uint256"
        }
      ],
      "name": "ownerOf",
      "outputs": [
        {
          "internalType": "address",
          "name": "",
          "type": "address"
        }
      ],
      "stateMutability": "view",
      "type": "function"
    },
    {
      "inputs": [
        {
          "internalType": "address",
          "name": "from",
          "type": "address"
        },
        {
          "internalType": "address",
          "name": "to",
          "type": "address"
        },
        {
          "internalType": "uint256",
          "name": "tokenId",
          "type": "uint256"
        }
      ],
      "name": "safeTransferFrom",
      "outputs": [],
      "stateMutability": "nonpayable",
      "type": "function"
    },
    {
      "inputs": [
        {
          "internalType": "address",
          "name": "from",
          "type": "address"
        },
        {
          "internalType": "address",
          "name": "to",
          "type": "address"
        },
        {
          "internalType": "uint256",
          "name": "tokenId",
          "type": "uint256"
        },
        {
          "internalType": "bytes",
          "name": "_data",
          "type": "bytes"
        }
      ],
      "name": "safeTransferFrom",
      "outputs": [],
      "stateMutability": "nonpayable",
      "type": "function"
    },
    {
      "inputs": [
        {
          "internalType": "address",
          "name": "operator",
          "type": "address"
        },
        {
          "internalType": "bool",
          "name": "approved",
          "type": "bool"
        }
      ],
      "name": "setApprovalForAll",
      "outputs": [],
      "stateMutability": "nonpayable",
      "type": "function"
    },
    {
      "inputs": [
        {
          "internalType": "bytes4",
          "name": "interfaceId",
          "type": "bytes4"
        }
      ],
      "name": "supportsInterface",
      "outputs": [
        {
          "internalType": "bool",
          "name": "",
          "type": "bool"
        }
      ],
      "stateMutability": "view",
      "type": "function"
    },
    {
      "inputs": [],
      "name": "symbol",
      "outputs": [
        {
          "internalType": "string",
          "name": "",
          "type": "string"
        }
      ],
      "stateMutability": "view",
      "type": "function"
    },
    {
      "inputs": [
        {
          "internalType": "uint256",
          "name": "tokenId",
          "type": "uint256"
        }
      ],
      "name": "tokenURI",
      "outputs": [
        {
          "internalType": "string",
          "name": "",
          "type": "string"
        }
      ],
      "stateMutability": "view",
      "type": "function"
    },
    {
      "inputs": [
        {
          "internalType": "address",
          "name": "from",
          "type": "address"
        },
        {
          "internalType": "address",
          "name": "to",
          "type": "address"
        },
        {
          "internalType": "uint256",
          "name": "tokenId",
          "type": "uint256"
        }
      ],
      "name": "transferFrom",
      "outputs": [],
      "stateMutability": "nonpayable",
      "type": "function"
    }
  ],
  "bytecode": "0x60806040523480156200001157600080fd5b5060405162002bf838038062002bf88339818101604052810190620000379190620001ac565b6040518060400160405280600581526020017f4d6f6e46540000000000000000000000000000000000000000000000000000008152506040518060400160405280600381526020017f4d465400000000000000000000000000000000000000000000000000000000008152508160009080519060200190620000bb929190620000e5565b508060019080519060200190620000d4929190620000e5565b505050806007819055505062000261565b828054620000f390620001e2565b90600052602060002090601f01602090048101928262000117576000855562000163565b82601f106200013257805160ff191683800117855562000163565b8280016001018555821562000163579182015b828111156200016257825182559160200191906001019062000145565b5b50905062000172919062000176565b5090565b5b808211156200019157600081600090555060010162000177565b5090565b600081519050620001a68162000247565b92915050565b600060208284031215620001bf57600080fd5b6000620001cf8482850162000195565b91505092915050565b6000819050919050565b60006002820490506001821680620001fb57607f821691505b6020821081141562000212576200021162000218565b5b50919050565b7f4e487b7100000000000000000000000000000000000000000000000000000000600052602260045260246000fd5b6200025281620001d8565b81146200025e57600080fd5b50565b61298780620002716000396000f3fe608060405234801561001057600080fd5b50600436106101165760003560e01c806370a08231116100a2578063b88d4fde11610071578063b88d4fde1461030f578063c87b56dd1461032b578063c9efaea41461035b578063db5cc18114610379578063e985e9c5146103ac57610116565b806370a0823114610287578063956d1778146102b757806395d89b41146102d5578063a22cb465146102f357610116565b8063095ea7b3116100e9578063095ea7b3146101d05780632236e18b146101ec57806323b872dd1461021f57806342842e0e1461023b5780636352211e1461025757610116565b806301ffc9a71461011b578063052016d61461014b57806306fdde0314610182578063081812fc146101a0575b600080fd5b61013560048036038101906101309190611b94565b6103dc565b604051610142919061228c565b60405180910390f35b61016560048036038101906101609190611be6565b6104be565b6040516101799897969594939291906124e9565b60405180910390f35b61018a610506565b60405161019791906122a7565b60405180910390f35b6101ba60048036038101906101b59190611be6565b610598565b6040516101c79190612225565b60405180910390f35b6101ea60048036038101906101e59190611b58565b61061d565b005b61020660048036038101906102019190611be6565b610735565b60405161021694939291906124a4565b60405180910390f35b61023960048036038101906102349190611a52565b6107a6565b005b61025560048036038101906102509190611a52565b610806565b005b610271600480360381019061026c9190611be6565b610826565b60405161027e9190612225565b60405180910390f35b6102a1600480360381019061029c91906119ed565b6108d8565b6040516102ae9190612489565b60405180910390f35b6102bf610990565b6040516102cc9190612489565b60405180910390f35b6102dd610996565b6040516102ea91906122a7565b60405180910390f35b61030d60048036038101906103089190611b1c565b610a28565b005b61032960048036038101906103249190611aa1565b610ba9565b005b61034560048036038101906103409190611be6565b610c0b565b60405161035291906122a7565b60405180910390f35b610363610cb2565b6040516103709190612489565b60405180910390f35b610393600480360381019061038e9190611be6565b610d85565b6040516103a394939291906124a4565b60405180910390f35b6103c660048036038101906103c19190611a16565b610df6565b6040516103d3919061228c565b60405180910390f35b60007f80ac58cd000000000000000000000000000000000000000000000000000000007bffffffffffffffffffffffffffffffffffffffffffffffffffffffff1916827bffffffffffffffffffffffffffffffffffffffffffffffffffffffff191614806104a757507f5b5e139f000000000000000000000000000000000000000000000000000000007bffffffffffffffffffffffffffffffffffffffffffffffffffffffff1916827bffffffffffffffffffffffffffffffffffffffffffffffffffffffff1916145b806104b757506104b682610e8a565b5b9050919050565b60086020528060005260406000206000915090508060000154908060010154908060020154908060030154908060040154908060050154908060060154908060070154905088565b6060600080546105159061277c565b80601f01602080910402602001604051908101604052809291908181526020018280546105419061277c565b801561058e5780601f106105635761010080835404028352916020019161058e565b820191906000526020600020905b81548152906001019060200180831161057157829003601f168201915b5050505050905090565b60006105a382610ef4565b6105e2576040517f08c379a00000000000000000000000000000000000000000000000000000000081526004016105d9906123e9565b60405180910390fd5b6004600083815260200190815260200160002060009054906101000a900473ffffffffffffffffffffffffffffffffffffffff169050919050565b600061062882610826565b90508073ffffffffffffffffffffffffffffffffffffffff168373ffffffffffffffffffffffffffffffffffffffff161415610699576040517f08c379a000000000000000000000000000000000000000000000000000000000815260040161069090612449565b60405180910390fd5b8073ffffffffffffffffffffffffffffffffffffffff166106b8610f60565b73ffffffffffffffffffffffffffffffffffffffff1614806106e757506106e6816106e1610f60565b610df6565b5b610726576040517f08c379a000000000000000000000000000000000000000000000000000000000815260040161071d90612369565b60405180910390fd5b6107308383610f68565b505050565b600080600080600860008681526020019081526020016000206002015460086000878152602001908152602001600020600301546008600088815260200190815260200160002060050154600860008981526020019081526020016000206006015493509350935093509193509193565b6107b76107b1610f60565b82611021565b6107f6576040517f08c379a00000000000000000000000000000000000000000000000000000000081526004016107ed90612469565b60405180910390fd5b6108018383836110ff565b505050565b61082183838360405180602001604052806000815250610ba9565b505050565b6000806002600084815260200190815260200160002060009054906101000a900473ffffffffffffffffffffffffffffffffffffffff169050600073ffffffffffffffffffffffffffffffffffffffff168173ffffffffffffffffffffffffffffffffffffffff1614156108cf576040517f08c379a00000000000000000000000000000000000000000000000000000000081526004016108c6906123a9565b60405180910390fd5b80915050919050565b60008073ffffffffffffffffffffffffffffffffffffffff168273ffffffffffffffffffffffffffffffffffffffff161415610949576040517f08c379a000000000000000000000000000000000000000000000000000000000815260040161094090612389565b60405180910390fd5b600360008373ffffffffffffffffffffffffffffffffffffffff1673ffffffffffffffffffffffffffffffffffffffff168152602001908152602001600020549050919050565b60075481565b6060600180546109a59061277c565b80601f01602080910402602001604051908101604052809291908181526020018280546109d19061277c565b8015610a1e5780601f106109f357610100808354040283529160200191610a1e565b820191906000526020600020905b815481529060010190602001808311610a0157829003601f168201915b5050505050905090565b610a30610f60565b73ffffffffffffffffffffffffffffffffffffffff168273ffffffffffffffffffffffffffffffffffffffff161415610a9e576040517f08c379a0000000000000000000000000000000000000000000000000000000008152600401610a9590612329565b60405180910390fd5b8060056000610aab610f60565b73ffffffffffffffffffffffffffffffffffffffff1673ffffffffffffffffffffffffffffffffffffffff16815260200190815260200160002060008473ffffffffffffffffffffffffffffffffffffffff1673ffffffffffffffffffffffffffffffffffffffff16815260200190815260200160002060006101000a81548160ff0219169083151502179055508173ffffffffffffffffffffffffffffffffffffffff16610b58610f60565b73ffffffffffffffffffffffffffffffffffffffff167f17307eab39ab6107e8899845ad3d59bd9653f200f220920489ca2b5937696c3183604051610b9d919061228c565b60405180910390a35050565b610bba610bb4610f60565b83611021565b610bf9576040517f08c379a0000000000000000000000000000000000000000000000000000000008152600401610bf090612469565b60405180910390fd5b610c058484848461135b565b50505050565b6060610c1682610ef4565b610c55576040517f08c379a0000000000000000000000000000000000000000000000000000000008152600401610c4c90612429565b60405180910390fd5b6000610c5f6113b7565b90506000815111610c7f5760405180602001604052806000815250610caa565b80610c89846113ce565b604051602001610c9a929190612201565b6040516020818303038152906040525b915050919050565b6000610cbe600661157b565b6000610cca6006611591565b905060405180610100016040528060018152602001600281526020016003815260200160048152602001600581526020016006815260200160078152602001600881525060086000838152602001908152602001600020600082015181600001556020820151816001015560408201518160020155606082015181600301556080820151816004015560a0820151816005015560c0820151816006015560e08201518160070155905050610d7e338261159f565b8091505090565b600080600080600860008681526020019081526020016000206000015460086000878152602001908152602001600020600101546008600088815260200190815260200160002060040154600860008981526020019081526020016000206007015493509350935093509193509193565b6000600560008473ffffffffffffffffffffffffffffffffffffffff1673ffffffffffffffffffffffffffffffffffffffff16815260200190815260200160002060008373ffffffffffffffffffffffffffffffffffffffff1673ffffffffffffffffffffffffffffffffffffffff16815260200190815260200160002060009054906101000a900460ff16905092915050565b60007f01ffc9a7000000000000000000000000000000000000000000000000000000007bffffffffffffffffffffffffffffffffffffffffffffffffffffffff1916827bffffffffffffffffffffffffffffffffffffffffffffffffffffffff1916149050919050565b60008073ffffffffffffffffffffffffffffffffffffffff166002600084815260200190815260200160002060009054906101000a900473ffffffffffffffffffffffffffffffffffffffff1673ffffffffffffffffffffffffffffffffffffffff1614159050919050565b600033905090565b816004600083815260200190815260200160002060006101000a81548173ffffffffffffffffffffffffffffffffffffffff021916908373ffffffffffffffffffffffffffffffffffffffff160217905550808273ffffffffffffffffffffffffffffffffffffffff16610fdb83610826565b73ffffffffffffffffffffffffffffffffffffffff167f8c5be1e5ebec7d5bd14f71427d1e84f3dd0314c0f7b2291e5b200ac8c7c3b92560405160405180910390a45050565b600061102c82610ef4565b61106b576040517f08c379a000000000000000000000000000000000000000000000000000000000815260040161106290612349565b60405180910390fd5b600061107683610826565b90508073ffffffffffffffffffffffffffffffffffffffff168473ffffffffffffffffffffffffffffffffffffffff1614806110e557508373ffffffffffffffffffffffffffffffffffffffff166110cd84610598565b73ffffffffffffffffffffffffffffffffffffffff16145b806110f657506110f58185610df6565b5b91505092915050565b8273ffffffffffffffffffffffffffffffffffffffff1661111f82610826565b73ffffffffffffffffffffffffffffffffffffffff1614611175576040517f08c379a000000000000000000000000000000000000000000000000000000000815260040161116c90612409565b60405180910390fd5b600073ffffffffffffffffffffffffffffffffffffffff168273ffffffffffffffffffffffffffffffffffffffff1614156111e5576040517f08c379a00000000000000000000000000000000000000000000000000000000081526004016111dc90612309565b60405180910390fd5b6111f083838361176d565b6111fb600082610f68565b6001600360008573ffffffffffffffffffffffffffffffffffffffff1673ffffffffffffffffffffffffffffffffffffffff168152602001908152602001600020600082825461124b9190612692565b925050819055506001600360008473ffffffffffffffffffffffffffffffffffffffff1673ffffffffffffffffffffffffffffffffffffffff16815260200190815260200160002060008282546112a2919061260b565b92505081905550816002600083815260200190815260200160002060006101000a81548173ffffffffffffffffffffffffffffffffffffffff021916908373ffffffffffffffffffffffffffffffffffffffff160217905550808273ffffffffffffffffffffffffffffffffffffffff168473ffffffffffffffffffffffffffffffffffffffff167fddf252ad1be2c89b69c2b068fc378daa952ba7f163c4a11628f55a4df523b3ef60405160405180910390a4505050565b6113668484846110ff565b61137284848484611772565b6113b1576040517f08c379a00000000000000000000000000000000000000000000000000000000081526004016113a8906122c9565b60405180910390fd5b50505050565b606060405180602001604052806000815250905090565b60606000821415611416576040518060400160405280600181526020017f30000000000000000000000000000000000000000000000000000000000000008152509050611576565b600082905060005b60008214611448578080611431906127ae565b915050600a826114419190612661565b915061141e565b60008167ffffffffffffffff81111561148a577f4e487b7100000000000000000000000000000000000000000000000000000000600052604160045260246000fd5b6040519080825280601f01601f1916602001820160405280156114bc5781602001600182028036833780820191505090505b5090505b6000851461156f576001826114d59190612692565b9150600a856114e491906127f7565b60306114f0919061260b565b60f81b81838151811061152c577f4e487b7100000000000000000000000000000000000000000000000000000000600052603260045260246000fd5b60200101907effffffffffffffffffffffffffffffffffffffffffffffffffffffffffffff1916908160001a905350600a856115689190612661565b94506114c0565b8093505050505b919050565b6001816000016000828254019250508190555050565b600081600001549050919050565b600073ffffffffffffffffffffffffffffffffffffffff168273ffffffffffffffffffffffffffffffffffffffff16141561160f576040517f08c379a0000000000000000000000000000000000000000000000000000000008152600401611606906123c9565b60405180910390fd5b61161881610ef4565b15611658576040517f08c379a000000000000000000000000000000000000000000000000000000000815260040161164f906122e9565b60405180910390fd5b6116646000838361176d565b6001600360008473ffffffffffffffffffffffffffffffffffffffff1673ffffffffffffffffffffffffffffffffffffffff16815260200190815260200160002060008282546116b4919061260b565b92505081905550816002600083815260200190815260200160002060006101000a81548173ffffffffffffffffffffffffffffffffffffffff021916908373ffffffffffffffffffffffffffffffffffffffff160217905550808273ffffffffffffffffffffffffffffffffffffffff16600073ffffffffffffffffffffffffffffffffffffffff167fddf252ad1be2c89b69c2b068fc378daa952ba7f163c4a11628f55a4df523b3ef60405160405180910390a45050565b505050565b60006117938473ffffffffffffffffffffffffffffffffffffffff16611909565b156118fc578373ffffffffffffffffffffffffffffffffffffffff1663150b7a026117bc610f60565b8786866040518563ffffffff1660e01b81526004016117de9493929190612240565b602060405180830381600087803b1580156117f857600080fd5b505af192505050801561182957506040513d601f19601f820116820180604052508101906118269190611bbd565b60015b6118ac573d8060008114611859576040519150601f19603f3d011682016040523d82523d6000602084013e61185e565b606091505b506000815114156118a4576040517f08c379a000000000000000000000000000000000000000000000000000000000815260040161189b906122c9565b60405180910390fd5b805181602001fd5b63150b7a0260e01b7bffffffffffffffffffffffffffffffffffffffffffffffffffffffff1916817bffffffffffffffffffffffffffffffffffffffffffffffffffffffff191614915050611901565b600190505b949350505050565b600080823b905060008111915050919050565b600061192f61192a84612598565b612567565b90508281526020810184848401111561194757600080fd5b61195284828561273a565b509392505050565b600081359050611969816128f5565b92915050565b60008135905061197e8161290c565b92915050565b60008135905061199381612923565b92915050565b6000815190506119a881612923565b92915050565b600082601f8301126119bf57600080fd5b81356119cf84826020860161191c565b91505092915050565b6000813590506119e78161293a565b92915050565b6000602082840312156119ff57600080fd5b6000611a0d8482850161195a565b91505092915050565b60008060408385031215611a2957600080fd5b6000611a378582860161195a565b9250506020611a488582860161195a565b9150509250929050565b600080600060608486031215611a6757600080fd5b6000611a758682870161195a565b9350506020611a868682870161195a565b9250506040611a97868287016119d8565b9150509250925092565b60008060008060808587031215611ab757600080fd5b6000611ac58782880161195a565b9450506020611ad68782880161195a565b9350506040611ae7878288016119d8565b925050606085013567ffffffffffffffff811115611b0457600080fd5b611b10878288016119ae565b91505092959194509250565b60008060408385031215611b2f57600080fd5b6000611b3d8582860161195a565b9250506020611b4e8582860161196f565b9150509250929050565b60008060408385031215611b6b57600080fd5b6000611b798582860161195a565b9250506020611b8a858286016119d8565b9150509250929050565b600060208284031215611ba657600080fd5b6000611bb484828501611984565b91505092915050565b600060208284031215611bcf57600080fd5b6000611bdd84828501611999565b91505092915050565b600060208284031215611bf857600080fd5b6000611c06848285016119d8565b91505092915050565b611c18816126c6565b82525050565b611c27816126d8565b82525050565b6000611c38826125c8565b611c4281856125de565b9350611c52818560208601612749565b611c5b816128e4565b840191505092915050565b6000611c71826125d3565b611c7b81856125ef565b9350611c8b818560208601612749565b611c94816128e4565b840191505092915050565b6000611caa826125d3565b611cb48185612600565b9350611cc4818560208601612749565b80840191505092915050565b6000611cdd6032836125ef565b91507f4552433732313a207472616e7366657220746f206e6f6e20455243373231526560008301527f63656976657220696d706c656d656e74657200000000000000000000000000006020830152604082019050919050565b6000611d43601c836125ef565b91507f4552433732313a20746f6b656e20616c7265616479206d696e746564000000006000830152602082019050919050565b6000611d836024836125ef565b91507f4552433732313a207472616e7366657220746f20746865207a65726f2061646460008301527f72657373000000000000000000000000000000000000000000000000000000006020830152604082019050919050565b6000611de96019836125ef565b91507f4552433732313a20617070726f766520746f2063616c6c6572000000000000006000830152602082019050919050565b6000611e29602c836125ef565b91507f4552433732313a206f70657261746f7220717565727920666f72206e6f6e657860008301527f697374656e7420746f6b656e00000000000000000000000000000000000000006020830152604082019050919050565b6000611e8f6038836125ef565b91507f4552433732313a20617070726f76652063616c6c6572206973206e6f74206f7760008301527f6e6572206e6f7220617070726f76656420666f7220616c6c00000000000000006020830152604082019050919050565b6000611ef5602a836125ef565b91507f4552433732313a2062616c616e636520717565727920666f7220746865207a6560008301527f726f2061646472657373000000000000000000000000000000000000000000006020830152604082019050919050565b6000611f5b6029836125ef565b91507f4552433732313a206f776e657220717565727920666f72206e6f6e657869737460008301527f656e7420746f6b656e00000000000000000000000000000000000000000000006020830152604082019050919050565b6000611fc16020836125ef565b91507f4552433732313a206d696e7420746f20746865207a65726f20616464726573736000830152602082019050919050565b6000612001602c836125ef565b91507f4552433732313a20617070726f76656420717565727920666f72206e6f6e657860008301527f697374656e7420746f6b656e00000000000000000000000000000000000000006020830152604082019050919050565b60006120676029836125ef565b91507f4552433732313a207472616e73666572206f6620746f6b656e2074686174206960008301527f73206e6f74206f776e00000000000000000000000000000000000000000000006020830152604082019050919050565b60006120cd602f836125ef565b91507f4552433732314d657461646174613a2055524920717565727920666f72206e6f60008301527f6e6578697374656e7420746f6b656e00000000000000000000000000000000006020830152604082019050919050565b60006121336021836125ef565b91507f4552433732313a20617070726f76616c20746f2063757272656e74206f776e6560008301527f72000000000000000000000000000000000000000000000000000000000000006020830152604082019050919050565b60006121996031836125ef565b91507f4552433732313a207472616e736665722063616c6c6572206973206e6f74206f60008301527f776e6572206e6f7220617070726f7665640000000000000000000000000000006020830152604082019050919050565b6121fb81612730565b82525050565b600061220d8285611c9f565b91506122198284611c9f565b91508190509392505050565b600060208201905061223a6000830184611c0f565b92915050565b60006080820190506122556000830187611c0f565b6122626020830186611c0f565b61226f60408301856121f2565b81810360608301526122818184611c2d565b905095945050505050565b60006020820190506122a16000830184611c1e565b92915050565b600060208201905081810360008301526122c18184611c66565b905092915050565b600060208201905081810360008301526122e281611cd0565b9050919050565b6000602082019050818103600083015261230281611d36565b9050919050565b6000602082019050818103600083015261232281611d76565b9050919050565b6000602082019050818103600083015261234281611ddc565b9050919050565b6000602082019050818103600083015261236281611e1c565b9050919050565b6000602082019050818103600083015261238281611e82565b9050919050565b600060208201905081810360008301526123a281611ee8565b9050919050565b600060208201905081810360008301526123c281611f4e565b9050919050565b600060208201905081810360008301526123e281611fb4565b9050919050565b6000602082019050818103600083015261240281611ff4565b9050919050565b600060208201905081810360008301526124228161205a565b9050919050565b60006020820190508181036000830152612442816120c0565b9050919050565b6000602082019050818103600083015261246281612126565b9050919050565b600060208201905081810360008301526124828161218c565b9050919050565b600060208201905061249e60008301846121f2565b92915050565b60006080820190506124b960008301876121f2565b6124c660208301866121f2565b6124d360408301856121f2565b6124e060608301846121f2565b95945050505050565b6000610100820190506124ff600083018b6121f2565b61250c602083018a6121f2565b61251960408301896121f2565b61252660608301886121f2565b61253360808301876121f2565b61254060a08301866121f2565b61254d60c08301856121f2565b61255a60e08301846121f2565b9998505050505050505050565b6000604051905081810181811067ffffffffffffffff8211171561258e5761258d6128b5565b5b8060405250919050565b600067ffffffffffffffff8211156125b3576125b26128b5565b5b601f19601f8301169050602081019050919050565b600081519050919050565b600081519050919050565b600082825260208201905092915050565b600082825260208201905092915050565b600081905092915050565b600061261682612730565b915061262183612730565b9250827fffffffffffffffffffffffffffffffffffffffffffffffffffffffffffffffff0382111561265657612655612828565b5b828201905092915050565b600061266c82612730565b915061267783612730565b92508261268757612686612857565b5b828204905092915050565b600061269d82612730565b91506126a883612730565b9250828210156126bb576126ba612828565b5b828203905092915050565b60006126d182612710565b9050919050565b60008115159050919050565b60007fffffffff0000000000000000000000000000000000000000000000000000000082169050919050565b600073ffffffffffffffffffffffffffffffffffffffff82169050919050565b6000819050919050565b82818337600083830152505050565b60005b8381101561276757808201518184015260208101905061274c565b83811115612776576000848401525b50505050565b6000600282049050600182168061279457607f821691505b602082108114156127a8576127a7612886565b5b50919050565b60006127b982612730565b91507fffffffffffffffffffffffffffffffffffffffffffffffffffffffffffffffff8214156127ec576127eb612828565b5b600182019050919050565b600061280282612730565b915061280d83612730565b92508261281d5761281c612857565b5b828206905092915050565b7f4e487b7100000000000000000000000000000000000000000000000000000000600052601160045260246000fd5b7f4e487b7100000000000000000000000000000000000000000000000000000000600052601260045260246000fd5b7f4e487b7100000000000000000000000000000000000000000000000000000000600052602260045260246000fd5b7f4e487b7100000000000000000000000000000000000000000000000000000000600052604160045260246000fd5b6000601f19601f8301169050919050565b6128fe816126c6565b811461290957600080fd5b50565b612915816126d8565b811461292057600080fd5b50565b61292c816126e4565b811461293757600080fd5b50565b61294381612730565b811461294e57600080fd5b5056fea2646970667358221220fbe1126238ecf5c78d63149a4fb42b1dedbf05d3b1e6783f46ca77d2329024ca64736f6c63430008000033",
  "linkReferences": {},
  "deployedLinkReferences": {}
}