{
  "_format": "hh-sol-artifact-1",
  "contractName": "MonFT",
  "sourceName": "contracts/MonFT.sol",
  "abi": [
    {
      "inputs": [
        {
          "internalType": "uint256",
          "name": "_numOptions",
          "type": "uint256"
        }
      ],
      "stateMutability": "nonpayable",
      "type": "constructor"
    },
    {
      "anonymous": false,
      "inputs": [
        {
          "indexed": true,
          "internalType": "address",
          "name": "owner",
          "type": "address"
        },
        {
          "indexed": true,
          "internalType": "address",
          "name": "approved",
          "type": "address"
        },
        {
          "indexed": true,
          "internalType": "uint256",
          "name": "tokenId",
          "type": "uint256"
        }
      ],
      "name": "Approval",
      "type": "event"
    },
    {
      "anonymous": false,
      "inputs": [
        {
          "indexed": true,
          "internalType": "address",
          "name": "owner",
          "type": "address"
        },
        {
          "indexed": true,
          "internalType": "address",
          "name": "operator",
          "type": "address"
        },
        {
          "indexed": false,
          "internalType": "bool",
          "name": "approved",
          "type": "bool"
        }
      ],
      "name": "ApprovalForAll",
      "type": "event"
    },
    {
      "anonymous": false,
      "inputs": [
        {
          "indexed": true,
          "internalType": "address",
          "name": "from",
          "type": "address"
        },
        {
          "indexed": true,
          "internalType": "address",
          "name": "to",
          "type": "address"
        },
        {
          "indexed": true,
          "internalType": "uint256",
          "name": "tokenId",
          "type": "uint256"
        }
      ],
      "name": "Transfer",
      "type": "event"
    },
    {
      "inputs": [
        {
          "internalType": "address",
          "name": "to",
          "type": "address"
        },
        {
          "internalType": "uint256",
          "name": "tokenId",
          "type": "uint256"
        }
      ],
      "name": "approve",
      "outputs": [],
      "stateMutability": "nonpayable",
      "type": "function"
    },
    {
      "inputs": [
        {
          "internalType": "address",
          "name": "owner",
          "type": "address"
        }
      ],
      "name": "balanceOf",
      "outputs": [
        {
          "internalType": "uint256",
          "name": "",
          "type": "uint256"
        }
      ],
      "stateMutability": "view",
      "type": "function"
    },
    {
      "inputs": [],
      "name": "dnaLength",
      "outputs": [
        {
          "internalType": "uint256",
          "name": "",
          "type": "uint256"
        }
      ],
      "stateMutability": "view",
      "type": "function"
    },
    {
      "inputs": [
        {
          "internalType": "uint256",
          "name": "",
          "type": "uint256"
        }
      ],
      "name": "dnaSequences",
      "outputs": [
        {
          "internalType": "uint256",
          "name": "arms",
          "type": "uint256"
        },
        {
          "internalType": "uint256",
          "name": "body",
          "type": "uint256"
        },
        {
          "internalType": "uint256",
          "name": "ears",
          "type": "uint256"
        },
        {
          "internalType": "uint256",
          "name": "eyes",
          "type": "uint256"
        },
        {
          "internalType": "uint256",
          "name": "legs",
          "type": "uint256"
        },
        {
          "internalType": "uint256",
          "name": "nose",
          "type": "uint256"
        },
        {
          "internalType": "uint256",
          "name": "mouth",
          "type": "uint256"
        },
        {
          "internalType": "uint256",
          "name": "wings",
          "type": "uint256"
        },
        {
          "internalType": "uint256",
          "name": "mutations",
          "type": "uint256"
        }
      ],
      "stateMutability": "view",
      "type": "function"
    },
    {
      "inputs": [
        {
          "internalType": "uint256",
          "name": "max",
          "type": "uint256"
        }
      ],
      "name": "generateRandomNumber",
      "outputs": [
        {
          "internalType": "uint256",
          "name": "",
          "type": "uint256"
        }
      ],
      "stateMutability": "view",
      "type": "function"
    },
    {
      "inputs": [
        {
          "internalType": "uint256",
          "name": "tokenId",
          "type": "uint256"
        }
      ],
      "name": "getApproved",
      "outputs": [
        {
          "internalType": "address",
          "name": "",
          "type": "address"
        }
      ],
      "stateMutability": "view",
      "type": "function"
    },
    {
      "inputs": [
        {
          "internalType": "uint256",
          "name": "tokenId",
          "type": "uint256"
        }
      ],
      "name": "getBodyData",
      "outputs": [
        {
          "internalType": "uint256",
          "name": "",
          "type": "uint256"
        },
        {
          "internalType": "uint256",
          "name": "",
          "type": "uint256"
        },
        {
          "internalType": "uint256",
          "name": "",
          "type": "uint256"
        },
        {
          "internalType": "uint256",
          "name": "",
          "type": "uint256"
        }
      ],
      "stateMutability": "view",
      "type": "function"
    },
    {
      "inputs": [
        {
          "internalType": "uint256",
          "name": "tokenId",
          "type": "uint256"
        }
      ],
      "name": "getFaceData",
      "outputs": [
        {
          "internalType": "uint256",
          "name": "",
          "type": "uint256"
        },
        {
          "internalType": "uint256",
          "name": "",
          "type": "uint256"
        },
        {
          "internalType": "uint256",
          "name": "",
          "type": "uint256"
        },
        {
          "internalType": "uint256",
          "name": "",
          "type": "uint256"
        }
      ],
      "stateMutability": "view",
      "type": "function"
    },
    {
      "inputs": [
        {
          "internalType": "uint256",
          "name": "tokenId",
          "type": "uint256"
        }
      ],
      "name": "initializeDna",
      "outputs": [],
      "stateMutability": "nonpayable",
      "type": "function"
    },
    {
      "inputs": [
        {
          "internalType": "address",
          "name": "owner",
          "type": "address"
        },
        {
          "internalType": "address",
          "name": "operator",
          "type": "address"
        }
      ],
      "name": "isApprovedForAll",
      "outputs": [
        {
          "internalType": "bool",
          "name": "",
          "type": "bool"
        }
      ],
      "stateMutability": "view",
      "type": "function"
    },
    {
      "inputs": [],
      "name": "mintMon",
      "outputs": [
        {
          "internalType": "uint256",
          "name": "",
          "type": "uint256"
        }
      ],
      "stateMutability": "nonpayable",
      "type": "function"
    },
    {
      "inputs": [
        {
          "internalType": "uint256",
          "name": "tokenId",
          "type": "uint256"
        }
      ],
      "name": "mutate",
      "outputs": [],
      "stateMutability": "nonpayable",
      "type": "function"
    },
    {
      "inputs": [],
      "name": "name",
      "outputs": [
        {
          "internalType": "string",
          "name": "",
          "type": "string"
        }
      ],
      "stateMutability": "view",
      "type": "function"
    },
    {
      "inputs": [],
      "name": "numOptions",
      "outputs": [
        {
          "internalType": "uint256",
          "name": "",
          "type": "uint256"
        }
      ],
      "stateMutability": "view",
      "type": "function"
    },
    {
      "inputs": [
        {
          "internalType": "uint256",
          "name": "tokenId",
          "type": "uint256"
        }
      ],
      "name": "ownerOf",
      "outputs": [
        {
          "internalType": "address",
          "name": "",
          "type": "address"
        }
      ],
      "stateMutability": "view",
      "type": "function"
    },
    {
      "inputs": [
        {
          "internalType": "address",
          "name": "from",
          "type": "address"
        },
        {
          "internalType": "address",
          "name": "to",
          "type": "address"
        },
        {
          "internalType": "uint256",
          "name": "tokenId",
          "type": "uint256"
        }
      ],
      "name": "safeTransferFrom",
      "outputs": [],
      "stateMutability": "nonpayable",
      "type": "function"
    },
    {
      "inputs": [
        {
          "internalType": "address",
          "name": "from",
          "type": "address"
        },
        {
          "internalType": "address",
          "name": "to",
          "type": "address"
        },
        {
          "internalType": "uint256",
          "name": "tokenId",
          "type": "uint256"
        },
        {
          "internalType": "bytes",
          "name": "_data",
          "type": "bytes"
        }
      ],
      "name": "safeTransferFrom",
      "outputs": [],
      "stateMutability": "nonpayable",
      "type": "function"
    },
    {
      "inputs": [
        {
          "internalType": "address",
          "name": "operator",
          "type": "address"
        },
        {
          "internalType": "bool",
          "name": "approved",
          "type": "bool"
        }
      ],
      "name": "setApprovalForAll",
      "outputs": [],
      "stateMutability": "nonpayable",
      "type": "function"
    },
    {
      "inputs": [
        {
          "internalType": "bytes4",
          "name": "interfaceId",
          "type": "bytes4"
        }
      ],
      "name": "supportsInterface",
      "outputs": [
        {
          "internalType": "bool",
          "name": "",
          "type": "bool"
        }
      ],
      "stateMutability": "view",
      "type": "function"
    },
    {
      "inputs": [],
      "name": "symbol",
      "outputs": [
        {
          "internalType": "string",
          "name": "",
          "type": "string"
        }
      ],
      "stateMutability": "view",
      "type": "function"
    },
    {
      "inputs": [
        {
          "internalType": "uint256",
          "name": "index",
          "type": "uint256"
        }
      ],
      "name": "tokenByIndex",
      "outputs": [
        {
          "internalType": "uint256",
          "name": "",
          "type": "uint256"
        }
      ],
      "stateMutability": "view",
      "type": "function"
    },
    {
      "inputs": [
        {
          "internalType": "address",
          "name": "owner",
          "type": "address"
        },
        {
          "internalType": "uint256",
          "name": "index",
          "type": "uint256"
        }
      ],
      "name": "tokenOfOwnerByIndex",
      "outputs": [
        {
          "internalType": "uint256",
          "name": "",
          "type": "uint256"
        }
      ],
      "stateMutability": "view",
      "type": "function"
    },
    {
      "inputs": [
        {
          "internalType": "uint256",
          "name": "tokenId",
          "type": "uint256"
        }
      ],
      "name": "tokenURI",
      "outputs": [
        {
          "internalType": "string",
          "name": "",
          "type": "string"
        }
      ],
      "stateMutability": "view",
      "type": "function"
    },
    {
      "inputs": [],
      "name": "totalSupply",
      "outputs": [
        {
          "internalType": "uint256",
          "name": "",
          "type": "uint256"
        }
      ],
      "stateMutability": "view",
      "type": "function"
    },
    {
      "inputs": [
        {
          "internalType": "address",
          "name": "from",
          "type": "address"
        },
        {
          "internalType": "address",
          "name": "to",
          "type": "address"
        },
        {
          "internalType": "uint256",
          "name": "tokenId",
          "type": "uint256"
        }
      ],
      "name": "transferFrom",
      "outputs": [],
      "stateMutability": "nonpayable",
      "type": "function"
    },
    {
      "inputs": [
        {
          "internalType": "address",
          "name": "from",
          "type": "address"
        },
        {
          "internalType": "address",
          "name": "to",
          "type": "address"
        },
        {
          "internalType": "uint256",
          "name": "tokenId",
          "type": "uint256"
        }
      ],
      "name": "transferMon",
      "outputs": [],
      "stateMutability": "nonpayable",
      "type": "function"
    }
  ],
  "bytecode": "0x60806040523480156200001157600080fd5b506040516200392c3803806200392c8339818101604052810190620000379190620001ac565b6040518060400160405280600581526020017f4d6f6e46540000000000000000000000000000000000000000000000000000008152506040518060400160405280600381526020017f4d465400000000000000000000000000000000000000000000000000000000008152508160009080519060200190620000bb929190620000e5565b508060019080519060200190620000d4929190620000e5565b50505080600c819055505062000261565b828054620000f390620001e2565b90600052602060002090601f01602090048101928262000117576000855562000163565b82601f106200013257805160ff191683800117855562000163565b8280016001018555821562000163579182015b828111156200016257825182559160200191906001019062000145565b5b50905062000172919062000176565b5090565b5b808211156200019157600081600090555060010162000177565b5090565b600081519050620001a68162000247565b92915050565b600060208284031215620001bf57600080fd5b6000620001cf8482850162000195565b91505092915050565b6000819050919050565b60006002820490506001821680620001fb57607f821691505b6020821081141562000212576200021162000218565b5b50919050565b7f4e487b7100000000000000000000000000000000000000000000000000000000600052602260045260246000fd5b6200025281620001d8565b81146200025e57600080fd5b50565b6136bb80620002716000396000f3fe608060405234801561001057600080fd5b506004361061018e5760003560e01c80634f6ccce7116100de578063a22cb46511610097578063c9efaea411610071578063c9efaea4146104d8578063db5cc181146104f6578063e985e9c514610529578063fe1df35c146105595761018e565b8063a22cb46514610470578063b88d4fde1461048c578063c87b56dd146104a85761018e565b80634f6ccce7146103885780636352211e146103b857806370a08231146103e8578063713b988b14610418578063956d17781461043457806395d89b41146104525761018e565b806318160ddd1161014b5780632f745c59116101255780632f745c59146102ee57806342842e0e1461031e5780634303707e1461033a5780634b97aed91461036a5761018e565b806318160ddd146102815780632236e18b1461029f57806323b872dd146102d25761018e565b806301ffc9a714610193578063052016d6146101c357806306fdde03146101fb578063081812fc14610219578063095ea7b31461024957806311e5a94714610265575b600080fd5b6101ad60048036038101906101a89190612718565b610575565b6040516101ba9190612f36565b60405180910390f35b6101dd60048036038101906101d8919061276a565b6105ef565b6040516101f2999897969594939291906131d3565b60405180910390f35b61020361063d565b6040516102109190612f51565b60405180910390f35b610233600480360381019061022e919061276a565b6106cf565b6040516102409190612ecf565b60405180910390f35b610263600480360381019061025e91906126dc565b610754565b005b61027f600480360381019061027a91906125d6565b61086c565b005b610289610885565b6040516102969190613173565b60405180910390f35b6102b960048036038101906102b4919061276a565b610892565b6040516102c9949392919061318e565b60405180910390f35b6102ec60048036038101906102e791906125d6565b610903565b005b610308600480360381019061030391906126dc565b610963565b6040516103159190613173565b60405180910390f35b610338600480360381019061033391906125d6565b610a08565b005b610354600480360381019061034f919061276a565b610a28565b6040516103619190613173565b60405180910390f35b610372610a79565b60405161037f9190613173565b60405180910390f35b6103a2600480360381019061039d919061276a565b610a7f565b6040516103af9190613173565b60405180910390f35b6103d260048036038101906103cd919061276a565b610b16565b6040516103df9190612ecf565b60405180910390f35b61040260048036038101906103fd9190612571565b610bc8565b60405161040f9190613173565b60405180910390f35b610432600480360381019061042d919061276a565b610c80565b005b61043c610f56565b6040516104499190613173565b60405180910390f35b61045a610f5c565b6040516104679190612f51565b60405180910390f35b61048a600480360381019061048591906126a0565b610fee565b005b6104a660048036038101906104a19190612625565b61116f565b005b6104c260048036038101906104bd919061276a565b6111d1565b6040516104cf9190612f51565b60405180910390f35b6104e0611278565b6040516104ed9190613173565b60405180910390f35b610510600480360381019061050b919061276a565b6112ac565b604051610520949392919061318e565b60405180910390f35b610543600480360381019061053e919061259a565b61131d565b6040516105509190612f36565b60405180910390f35b610573600480360381019061056e919061276a565b6113b1565b005b60007f780e9d63000000000000000000000000000000000000000000000000000000007bffffffffffffffffffffffffffffffffffffffffffffffffffffffff1916827bffffffffffffffffffffffffffffffffffffffffffffffffffffffff191614806105e857506105e78261146e565b5b9050919050565b600d6020528060005260406000206000915090508060000154908060010154908060020154908060030154908060040154908060050154908060060154908060070154908060080154905089565b60606000805461064c90613475565b80601f016020809104026020016040519081016040528092919081815260200182805461067890613475565b80156106c55780601f1061069a576101008083540402835291602001916106c5565b820191906000526020600020905b8154815290600101906020018083116106a857829003601f168201915b5050505050905090565b60006106da82611550565b610719576040517f08c379a0000000000000000000000000000000000000000000000000000000008152600401610710906130b3565b60405180910390fd5b6004600083815260200190815260200160002060009054906101000a900473ffffffffffffffffffffffffffffffffffffffff169050919050565b600061075f82610b16565b90508073ffffffffffffffffffffffffffffffffffffffff168373ffffffffffffffffffffffffffffffffffffffff1614156107d0576040517f08c379a00000000000000000000000000000000000000000000000000000000081526004016107c790613113565b60405180910390fd5b8073ffffffffffffffffffffffffffffffffffffffff166107ef6115bc565b73ffffffffffffffffffffffffffffffffffffffff16148061081e575061081d816108186115bc565b61131d565b5b61085d576040517f08c379a000000000000000000000000000000000000000000000000000000000815260040161085490613033565b60405180910390fd5b61086783836115c4565b505050565b61087581610c80565b610880838383610a08565b505050565b6000600880549050905090565b600080600080600d600086815260200190815260200160002060020154600d600087815260200190815260200160002060030154600d600088815260200190815260200160002060050154600d60008981526020019081526020016000206006015493509350935093509193509193565b61091461090e6115bc565b8261167d565b610953576040517f08c379a000000000000000000000000000000000000000000000000000000000815260040161094a90613133565b60405180910390fd5b61095e83838361175b565b505050565b600061096e83610bc8565b82106109af576040517f08c379a00000000000000000000000000000000000000000000000000000000081526004016109a690612f73565b60405180910390fd5b600660008473ffffffffffffffffffffffffffffffffffffffff1673ffffffffffffffffffffffffffffffffffffffff168152602001908152602001600020600083815260200190815260200160002054905092915050565b610a238383836040518060200160405280600081525061116f565b505050565b600080824233604051602001610a3f929190612ea3565b6040516020818303038152906040528051906020012060001c610a62919061351e565b9050600181610a719190613304565b915050919050565b600c5481565b6000610a89610885565b8210610aca576040517f08c379a0000000000000000000000000000000000000000000000000000000008152600401610ac190613153565b60405180910390fd5b60088281548110610b04577f4e487b7100000000000000000000000000000000000000000000000000000000600052603260045260246000fd5b90600052602060002001549050919050565b6000806002600084815260200190815260200160002060009054906101000a900473ffffffffffffffffffffffffffffffffffffffff169050600073ffffffffffffffffffffffffffffffffffffffff168173ffffffffffffffffffffffffffffffffffffffff161415610bbf576040517f08c379a0000000000000000000000000000000000000000000000000000000008152600401610bb690613073565b60405180910390fd5b80915050919050565b60008073ffffffffffffffffffffffffffffffffffffffff168273ffffffffffffffffffffffffffffffffffffffff161415610c39576040517f08c379a0000000000000000000000000000000000000000000000000000000008152600401610c3090613053565b60405180910390fd5b600360008373ffffffffffffffffffffffffffffffffffffffff1673ffffffffffffffffffffffffffffffffffffffff168152602001908152602001600020549050919050565b6000600d600083815260200190815260200160002090506000610ca4600c54610a28565b9050600082600001541415610cd55780600d6000858152602001908152602001600020600001819055505050610f53565b600082600101541415610d045780600d6000858152602001908152602001600020600101819055505050610f53565b600082600401541415610d335780600d6000858152602001908152602001600020600401819055505050610f53565b600082600701541415610d625780600d6000858152602001908152602001600020600701819055505050610f53565b600082600201541415610d915780600d6000858152602001908152602001600020600201819055505050610f53565b600082600301541415610dc05780600d6000858152602001908152602001600020600301819055505050610f53565b600082600501541415610def5780600d6000858152602001908152602001600020600501819055505050610f53565b600082600601541415610e1e5780600d6000858152602001908152602001600020600601819055505050610f53565b6000610e2a6008610a28565b90506001811415610e5057610e438360000154836119b7565b8360000181905550610f4f565b6002811415610e7457610e678360010154836119b7565b8360010181905550610f4e565b6003811415610e9857610e8b8360040154836119b7565b8360040181905550610f4d565b6004811415610ebc57610eaf8360070154836119b7565b8360070181905550610f4c565b6005811415610ee057610ed38360020154836119b7565b8360020181905550610f4b565b6006811415610f0457610ef78360030154836119b7565b8360030181905550610f4a565b6007811415610f2857610f1b8360050154836119b7565b8360050181905550610f49565b6008811415610f4857610f3f8360060154836119b7565b83600601819055505b5b5b5b5b5b5b5b5050505b50565b600b5481565b606060018054610f6b90613475565b80601f0160208091040260200160405190810160405280929190818152602001828054610f9790613475565b8015610fe45780601f10610fb957610100808354040283529160200191610fe4565b820191906000526020600020905b815481529060010190602001808311610fc757829003601f168201915b5050505050905090565b610ff66115bc565b73ffffffffffffffffffffffffffffffffffffffff168273ffffffffffffffffffffffffffffffffffffffff161415611064576040517f08c379a000000000000000000000000000000000000000000000000000000000815260040161105b90612ff3565b60405180910390fd5b80600560006110716115bc565b73ffffffffffffffffffffffffffffffffffffffff1673ffffffffffffffffffffffffffffffffffffffff16815260200190815260200160002060008473ffffffffffffffffffffffffffffffffffffffff1673ffffffffffffffffffffffffffffffffffffffff16815260200190815260200160002060006101000a81548160ff0219169083151502179055508173ffffffffffffffffffffffffffffffffffffffff1661111e6115bc565b73ffffffffffffffffffffffffffffffffffffffff167f17307eab39ab6107e8899845ad3d59bd9653f200f220920489ca2b5937696c31836040516111639190612f36565b60405180910390a35050565b61118061117a6115bc565b8361167d565b6111bf576040517f08c379a00000000000000000000000000000000000000000000000000000000081526004016111b690613133565b60405180910390fd5b6111cb848484846119e9565b50505050565b60606111dc82611550565b61121b576040517f08c379a0000000000000000000000000000000000000000000000000000000008152600401611212906130f3565b60405180910390fd5b6000611225611a45565b905060008151116112455760405180602001604052806000815250611270565b8061124f84611a5c565b604051602001611260929190612e7f565b6040516020818303038152906040525b915050919050565b6000611284600a611c09565b6000611290600a611c1f565b905061129b816113b1565b6112a53382611c2d565b8091505090565b600080600080600d600086815260200190815260200160002060000154600d600087815260200190815260200160002060010154600d600088815260200190815260200160002060040154600d60008981526020019081526020016000206007015493509350935093509193509193565b6000600560008473ffffffffffffffffffffffffffffffffffffffff1673ffffffffffffffffffffffffffffffffffffffff16815260200190815260200160002060008373ffffffffffffffffffffffffffffffffffffffff1673ffffffffffffffffffffffffffffffffffffffff16815260200190815260200160002060009054906101000a900460ff16905092915050565b60405180610120016040528060008152602001600181526020016000815260200160008152602001600081526020016000815260200160008152602001600081526020016000815250600d6000838152602001908152602001600020600082015181600001556020820151816001015560408201518160020155606082015181600301556080820151816004015560a0820151816005015560c0820151816006015560e08201518160070155610100820151816008015590505050565b60007f80ac58cd000000000000000000000000000000000000000000000000000000007bffffffffffffffffffffffffffffffffffffffffffffffffffffffff1916827bffffffffffffffffffffffffffffffffffffffffffffffffffffffff1916148061153957507f5b5e139f000000000000000000000000000000000000000000000000000000007bffffffffffffffffffffffffffffffffffffffffffffffffffffffff1916827bffffffffffffffffffffffffffffffffffffffffffffffffffffffff1916145b80611549575061154882611dfb565b5b9050919050565b60008073ffffffffffffffffffffffffffffffffffffffff166002600084815260200190815260200160002060009054906101000a900473ffffffffffffffffffffffffffffffffffffffff1673ffffffffffffffffffffffffffffffffffffffff1614159050919050565b600033905090565b816004600083815260200190815260200160002060006101000a81548173ffffffffffffffffffffffffffffffffffffffff021916908373ffffffffffffffffffffffffffffffffffffffff160217905550808273ffffffffffffffffffffffffffffffffffffffff1661163783610b16565b73ffffffffffffffffffffffffffffffffffffffff167f8c5be1e5ebec7d5bd14f71427d1e84f3dd0314c0f7b2291e5b200ac8c7c3b92560405160405180910390a45050565b600061168882611550565b6116c7576040517f08c379a00000000000000000000000000000000000000000000000000000000081526004016116be90613013565b60405180910390fd5b60006116d283610b16565b90508073ffffffffffffffffffffffffffffffffffffffff168473ffffffffffffffffffffffffffffffffffffffff16148061174157508373ffffffffffffffffffffffffffffffffffffffff16611729846106cf565b73ffffffffffffffffffffffffffffffffffffffff16145b806117525750611751818561131d565b5b91505092915050565b8273ffffffffffffffffffffffffffffffffffffffff1661177b82610b16565b73ffffffffffffffffffffffffffffffffffffffff16146117d1576040517f08c379a00000000000000000000000000000000000000000000000000000000081526004016117c8906130d3565b60405180910390fd5b600073ffffffffffffffffffffffffffffffffffffffff168273ffffffffffffffffffffffffffffffffffffffff161415611841576040517f08c379a000000000000000000000000000000000000000000000000000000000815260040161183890612fd3565b60405180910390fd5b61184c838383611e65565b6118576000826115c4565b6001600360008573ffffffffffffffffffffffffffffffffffffffff1673ffffffffffffffffffffffffffffffffffffffff16815260200190815260200160002060008282546118a7919061338b565b925050819055506001600360008473ffffffffffffffffffffffffffffffffffffffff1673ffffffffffffffffffffffffffffffffffffffff16815260200190815260200160002060008282546118fe9190613304565b92505081905550816002600083815260200190815260200160002060006101000a81548173ffffffffffffffffffffffffffffffffffffffff021916908373ffffffffffffffffffffffffffffffffffffffff160217905550808273ffffffffffffffffffffffffffffffffffffffff168473ffffffffffffffffffffffffffffffffffffffff167fddf252ad1be2c89b69c2b068fc378daa952ba7f163c4a11628f55a4df523b3ef60405160405180910390a4505050565b60008282146119c657816119e1565b600c546001836119d69190613304565b6119e0919061351e565b5b905092915050565b6119f484848461175b565b611a0084848484611f79565b611a3f576040517f08c379a0000000000000000000000000000000000000000000000000000000008152600401611a3690612f93565b60405180910390fd5b50505050565b606060405180602001604052806000815250905090565b60606000821415611aa4576040518060400160405280600181526020017f30000000000000000000000000000000000000000000000000000000000000008152509050611c04565b600082905060005b60008214611ad6578080611abf906134a7565b915050600a82611acf919061335a565b9150611aac565b60008167ffffffffffffffff811115611b18577f4e487b7100000000000000000000000000000000000000000000000000000000600052604160045260246000fd5b6040519080825280601f01601f191660200182016040528015611b4a5781602001600182028036833780820191505090505b5090505b60008514611bfd57600182611b63919061338b565b9150600a85611b72919061351e565b6030611b7e9190613304565b60f81b818381518110611bba577f4e487b7100000000000000000000000000000000000000000000000000000000600052603260045260246000fd5b60200101907effffffffffffffffffffffffffffffffffffffffffffffffffffffffffffff1916908160001a905350600a85611bf6919061335a565b9450611b4e565b8093505050505b919050565b6001816000016000828254019250508190555050565b600081600001549050919050565b600073ffffffffffffffffffffffffffffffffffffffff168273ffffffffffffffffffffffffffffffffffffffff161415611c9d576040517f08c379a0000000000000000000000000000000000000000000000000000000008152600401611c9490613093565b60405180910390fd5b611ca681611550565b15611ce6576040517f08c379a0000000000000000000000000000000000000000000000000000000008152600401611cdd90612fb3565b60405180910390fd5b611cf260008383611e65565b6001600360008473ffffffffffffffffffffffffffffffffffffffff1673ffffffffffffffffffffffffffffffffffffffff1681526020019081526020016000206000828254611d429190613304565b92505081905550816002600083815260200190815260200160002060006101000a81548173ffffffffffffffffffffffffffffffffffffffff021916908373ffffffffffffffffffffffffffffffffffffffff160217905550808273ffffffffffffffffffffffffffffffffffffffff16600073ffffffffffffffffffffffffffffffffffffffff167fddf252ad1be2c89b69c2b068fc378daa952ba7f163c4a11628f55a4df523b3ef60405160405180910390a45050565b60007f01ffc9a7000000000000000000000000000000000000000000000000000000007bffffffffffffffffffffffffffffffffffffffffffffffffffffffff1916827bffffffffffffffffffffffffffffffffffffffffffffffffffffffff1916149050919050565b611e70838383612110565b600073ffffffffffffffffffffffffffffffffffffffff168373ffffffffffffffffffffffffffffffffffffffff161415611eb357611eae81612115565b611ef2565b8173ffffffffffffffffffffffffffffffffffffffff168373ffffffffffffffffffffffffffffffffffffffff1614611ef157611ef0838261215e565b5b5b600073ffffffffffffffffffffffffffffffffffffffff168273ffffffffffffffffffffffffffffffffffffffff161415611f3557611f30816122cb565b611f74565b8273ffffffffffffffffffffffffffffffffffffffff168273ffffffffffffffffffffffffffffffffffffffff1614611f7357611f72828261240e565b5b5b505050565b6000611f9a8473ffffffffffffffffffffffffffffffffffffffff1661248d565b15612103578373ffffffffffffffffffffffffffffffffffffffff1663150b7a02611fc36115bc565b8786866040518563ffffffff1660e01b8152600401611fe59493929190612eea565b602060405180830381600087803b158015611fff57600080fd5b505af192505050801561203057506040513d601f19601f8201168201806040525081019061202d9190612741565b60015b6120b3573d8060008114612060576040519150601f19603f3d011682016040523d82523d6000602084013e612065565b606091505b506000815114156120ab576040517f08c379a00000000000000000000000000000000000000000000000000000000081526004016120a290612f93565b60405180910390fd5b805181602001fd5b63150b7a0260e01b7bffffffffffffffffffffffffffffffffffffffffffffffffffffffff1916817bffffffffffffffffffffffffffffffffffffffffffffffffffffffff191614915050612108565b600190505b949350505050565b505050565b6008805490506009600083815260200190815260200160002081905550600881908060018154018082558091505060019003906000526020600020016000909190919091505550565b6000600161216b84610bc8565b612175919061338b565b905060006007600084815260200190815260200160002054905081811461225a576000600660008673ffffffffffffffffffffffffffffffffffffffff1673ffffffffffffffffffffffffffffffffffffffff168152602001908152602001600020600084815260200190815260200160002054905080600660008773ffffffffffffffffffffffffffffffffffffffff1673ffffffffffffffffffffffffffffffffffffffff168152602001908152602001600020600084815260200190815260200160002081905550816007600083815260200190815260200160002081905550505b6007600084815260200190815260200160002060009055600660008573ffffffffffffffffffffffffffffffffffffffff1673ffffffffffffffffffffffffffffffffffffffff16815260200190815260200160002060008381526020019081526020016000206000905550505050565b600060016008805490506122df919061338b565b9050600060096000848152602001908152602001600020549050600060088381548110612335577f4e487b7100000000000000000000000000000000000000000000000000000000600052603260045260246000fd5b90600052602060002001549050806008838154811061237d577f4e487b7100000000000000000000000000000000000000000000000000000000600052603260045260246000fd5b9060005260206000200181905550816009600083815260200190815260200160002081905550600960008581526020019081526020016000206000905560088054806123f2577f4e487b7100000000000000000000000000000000000000000000000000000000600052603160045260246000fd5b6001900381819060005260206000200160009055905550505050565b600061241983610bc8565b905081600660008573ffffffffffffffffffffffffffffffffffffffff1673ffffffffffffffffffffffffffffffffffffffff168152602001908152602001600020600083815260200190815260200160002081905550806007600084815260200190815260200160002081905550505050565b600080823b905060008111915050919050565b60006124b36124ae84613291565b613260565b9050828152602081018484840111156124cb57600080fd5b6124d6848285613433565b509392505050565b6000813590506124ed81613629565b92915050565b60008135905061250281613640565b92915050565b60008135905061251781613657565b92915050565b60008151905061252c81613657565b92915050565b600082601f83011261254357600080fd5b81356125538482602086016124a0565b91505092915050565b60008135905061256b8161366e565b92915050565b60006020828403121561258357600080fd5b6000612591848285016124de565b91505092915050565b600080604083850312156125ad57600080fd5b60006125bb858286016124de565b92505060206125cc858286016124de565b9150509250929050565b6000806000606084860312156125eb57600080fd5b60006125f9868287016124de565b935050602061260a868287016124de565b925050604061261b8682870161255c565b9150509250925092565b6000806000806080858703121561263b57600080fd5b6000612649878288016124de565b945050602061265a878288016124de565b935050604061266b8782880161255c565b925050606085013567ffffffffffffffff81111561268857600080fd5b61269487828801612532565b91505092959194509250565b600080604083850312156126b357600080fd5b60006126c1858286016124de565b92505060206126d2858286016124f3565b9150509250929050565b600080604083850312156126ef57600080fd5b60006126fd858286016124de565b925050602061270e8582860161255c565b9150509250929050565b60006020828403121561272a57600080fd5b600061273884828501612508565b91505092915050565b60006020828403121561275357600080fd5b60006127618482850161251d565b91505092915050565b60006020828403121561277c57600080fd5b600061278a8482850161255c565b91505092915050565b61279c816133bf565b82525050565b6127b36127ae826133bf565b6134f0565b82525050565b6127c2816133d1565b82525050565b60006127d3826132c1565b6127dd81856132d7565b93506127ed818560208601613442565b6127f68161360b565b840191505092915050565b600061280c826132cc565b61281681856132e8565b9350612826818560208601613442565b61282f8161360b565b840191505092915050565b6000612845826132cc565b61284f81856132f9565b935061285f818560208601613442565b80840191505092915050565b6000612878602b836132e8565b91507f455243373231456e756d657261626c653a206f776e657220696e646578206f7560008301527f74206f6620626f756e64730000000000000000000000000000000000000000006020830152604082019050919050565b60006128de6032836132e8565b91507f4552433732313a207472616e7366657220746f206e6f6e20455243373231526560008301527f63656976657220696d706c656d656e74657200000000000000000000000000006020830152604082019050919050565b6000612944601c836132e8565b91507f4552433732313a20746f6b656e20616c7265616479206d696e746564000000006000830152602082019050919050565b60006129846024836132e8565b91507f4552433732313a207472616e7366657220746f20746865207a65726f2061646460008301527f72657373000000000000000000000000000000000000000000000000000000006020830152604082019050919050565b60006129ea6019836132e8565b91507f4552433732313a20617070726f766520746f2063616c6c6572000000000000006000830152602082019050919050565b6000612a2a602c836132e8565b91507f4552433732313a206f70657261746f7220717565727920666f72206e6f6e657860008301527f697374656e7420746f6b656e00000000000000000000000000000000000000006020830152604082019050919050565b6000612a906038836132e8565b91507f4552433732313a20617070726f76652063616c6c6572206973206e6f74206f7760008301527f6e6572206e6f7220617070726f76656420666f7220616c6c00000000000000006020830152604082019050919050565b6000612af6602a836132e8565b91507f4552433732313a2062616c616e636520717565727920666f7220746865207a6560008301527f726f2061646472657373000000000000000000000000000000000000000000006020830152604082019050919050565b6000612b5c6029836132e8565b91507f4552433732313a206f776e657220717565727920666f72206e6f6e657869737460008301527f656e7420746f6b656e00000000000000000000000000000000000000000000006020830152604082019050919050565b6000612bc26020836132e8565b91507f4552433732313a206d696e7420746f20746865207a65726f20616464726573736000830152602082019050919050565b6000612c02602c836132e8565b91507f4552433732313a20617070726f76656420717565727920666f72206e6f6e657860008301527f697374656e7420746f6b656e00000000000000000000000000000000000000006020830152604082019050919050565b6000612c686029836132e8565b91507f4552433732313a207472616e73666572206f6620746f6b656e2074686174206960008301527f73206e6f74206f776e00000000000000000000000000000000000000000000006020830152604082019050919050565b6000612cce602f836132e8565b91507f4552433732314d657461646174613a2055524920717565727920666f72206e6f60008301527f6e6578697374656e7420746f6b656e00000000000000000000000000000000006020830152604082019050919050565b6000612d346021836132e8565b91507f4552433732313a20617070726f76616c20746f2063757272656e74206f776e6560008301527f72000000000000000000000000000000000000000000000000000000000000006020830152604082019050919050565b6000612d9a6031836132e8565b91507f4552433732313a207472616e736665722063616c6c6572206973206e6f74206f60008301527f776e6572206e6f7220617070726f7665640000000000000000000000000000006020830152604082019050919050565b6000612e00602c836132e8565b91507f455243373231456e756d657261626c653a20676c6f62616c20696e646578206f60008301527f7574206f6620626f756e647300000000000000000000000000000000000000006020830152604082019050919050565b612e6281613429565b82525050565b612e79612e7482613429565b613514565b82525050565b6000612e8b828561283a565b9150612e97828461283a565b91508190509392505050565b6000612eaf8285612e68565b602082019150612ebf82846127a2565b6014820191508190509392505050565b6000602082019050612ee46000830184612793565b92915050565b6000608082019050612eff6000830187612793565b612f0c6020830186612793565b612f196040830185612e59565b8181036060830152612f2b81846127c8565b905095945050505050565b6000602082019050612f4b60008301846127b9565b92915050565b60006020820190508181036000830152612f6b8184612801565b905092915050565b60006020820190508181036000830152612f8c8161286b565b9050919050565b60006020820190508181036000830152612fac816128d1565b9050919050565b60006020820190508181036000830152612fcc81612937565b9050919050565b60006020820190508181036000830152612fec81612977565b9050919050565b6000602082019050818103600083015261300c816129dd565b9050919050565b6000602082019050818103600083015261302c81612a1d565b9050919050565b6000602082019050818103600083015261304c81612a83565b9050919050565b6000602082019050818103600083015261306c81612ae9565b9050919050565b6000602082019050818103600083015261308c81612b4f565b9050919050565b600060208201905081810360008301526130ac81612bb5565b9050919050565b600060208201905081810360008301526130cc81612bf5565b9050919050565b600060208201905081810360008301526130ec81612c5b565b9050919050565b6000602082019050818103600083015261310c81612cc1565b9050919050565b6000602082019050818103600083015261312c81612d27565b9050919050565b6000602082019050818103600083015261314c81612d8d565b9050919050565b6000602082019050818103600083015261316c81612df3565b9050919050565b60006020820190506131886000830184612e59565b92915050565b60006080820190506131a36000830187612e59565b6131b06020830186612e59565b6131bd6040830185612e59565b6131ca6060830184612e59565b95945050505050565b6000610120820190506131e9600083018c612e59565b6131f6602083018b612e59565b613203604083018a612e59565b6132106060830189612e59565b61321d6080830188612e59565b61322a60a0830187612e59565b61323760c0830186612e59565b61324460e0830185612e59565b613252610100830184612e59565b9a9950505050505050505050565b6000604051905081810181811067ffffffffffffffff82111715613287576132866135dc565b5b8060405250919050565b600067ffffffffffffffff8211156132ac576132ab6135dc565b5b601f19601f8301169050602081019050919050565b600081519050919050565b600081519050919050565b600082825260208201905092915050565b600082825260208201905092915050565b600081905092915050565b600061330f82613429565b915061331a83613429565b9250827fffffffffffffffffffffffffffffffffffffffffffffffffffffffffffffffff0382111561334f5761334e61354f565b5b828201905092915050565b600061336582613429565b915061337083613429565b9250826133805761337f61357e565b5b828204905092915050565b600061339682613429565b91506133a183613429565b9250828210156133b4576133b361354f565b5b828203905092915050565b60006133ca82613409565b9050919050565b60008115159050919050565b60007fffffffff0000000000000000000000000000000000000000000000000000000082169050919050565b600073ffffffffffffffffffffffffffffffffffffffff82169050919050565b6000819050919050565b82818337600083830152505050565b60005b83811015613460578082015181840152602081019050613445565b8381111561346f576000848401525b50505050565b6000600282049050600182168061348d57607f821691505b602082108114156134a1576134a06135ad565b5b50919050565b60006134b282613429565b91507fffffffffffffffffffffffffffffffffffffffffffffffffffffffffffffffff8214156134e5576134e461354f565b5b600182019050919050565b60006134fb82613502565b9050919050565b600061350d8261361c565b9050919050565b6000819050919050565b600061352982613429565b915061353483613429565b9250826135445761354361357e565b5b828206905092915050565b7f4e487b7100000000000000000000000000000000000000000000000000000000600052601160045260246000fd5b7f4e487b7100000000000000000000000000000000000000000000000000000000600052601260045260246000fd5b7f4e487b7100000000000000000000000000000000000000000000000000000000600052602260045260246000fd5b7f4e487b7100000000000000000000000000000000000000000000000000000000600052604160045260246000fd5b6000601f19601f8301169050919050565b60008160601b9050919050565b613632816133bf565b811461363d57600080fd5b50565b613649816133d1565b811461365457600080fd5b50565b613660816133dd565b811461366b57600080fd5b50565b61367781613429565b811461368257600080fd5b5056fea2646970667358221220f1e67542ec30352a783016aaa809752374cf63c353f36244163dc4806ab0179664736f6c63430008000033",
  "linkReferences": {},
  "deployedLinkReferences": {}
}