{
  "_format": "hh-sol-artifact-1",
  "contractName": "MonFT",
  "sourceName": "contracts/MonFT.sol",
  "abi": [
    {
      "inputs": [],
      "stateMutability": "nonpayable",
      "type": "constructor"
    },
    {
      "anonymous": false,
      "inputs": [
        {
          "indexed": true,
          "internalType": "address",
          "name": "owner",
          "type": "address"
        },
        {
          "indexed": true,
          "internalType": "address",
          "name": "approved",
          "type": "address"
        },
        {
          "indexed": true,
          "internalType": "uint256",
          "name": "tokenId",
          "type": "uint256"
        }
      ],
      "name": "Approval",
      "type": "event"
    },
    {
      "anonymous": false,
      "inputs": [
        {
          "indexed": true,
          "internalType": "address",
          "name": "owner",
          "type": "address"
        },
        {
          "indexed": true,
          "internalType": "address",
          "name": "operator",
          "type": "address"
        },
        {
          "indexed": false,
          "internalType": "bool",
          "name": "approved",
          "type": "bool"
        }
      ],
      "name": "ApprovalForAll",
      "type": "event"
    },
    {
      "anonymous": false,
      "inputs": [
        {
          "indexed": true,
          "internalType": "address",
          "name": "from",
          "type": "address"
        },
        {
          "indexed": true,
          "internalType": "address",
          "name": "to",
          "type": "address"
        },
        {
          "indexed": true,
          "internalType": "uint256",
          "name": "tokenId",
          "type": "uint256"
        }
      ],
      "name": "Transfer",
      "type": "event"
    },
    {
      "inputs": [
        {
          "internalType": "address",
          "name": "to",
          "type": "address"
        },
        {
          "internalType": "uint256",
          "name": "tokenId",
          "type": "uint256"
        }
      ],
      "name": "approve",
      "outputs": [],
      "stateMutability": "nonpayable",
      "type": "function"
    },
    {
      "inputs": [
        {
          "internalType": "address",
          "name": "owner",
          "type": "address"
        }
      ],
      "name": "balanceOf",
      "outputs": [
        {
          "internalType": "uint256",
          "name": "",
          "type": "uint256"
        }
      ],
      "stateMutability": "view",
      "type": "function"
    },
    {
      "inputs": [
        {
          "internalType": "uint256",
          "name": "tokenId",
          "type": "uint256"
        }
      ],
      "name": "getApproved",
      "outputs": [
        {
          "internalType": "address",
          "name": "",
          "type": "address"
        }
      ],
      "stateMutability": "view",
      "type": "function"
    },
    {
      "inputs": [
        {
          "internalType": "address",
          "name": "owner",
          "type": "address"
        },
        {
          "internalType": "address",
          "name": "operator",
          "type": "address"
        }
      ],
      "name": "isApprovedForAll",
      "outputs": [
        {
          "internalType": "bool",
          "name": "",
          "type": "bool"
        }
      ],
      "stateMutability": "view",
      "type": "function"
    },
    {
      "inputs": [],
      "name": "message",
      "outputs": [
        {
          "internalType": "string",
          "name": "",
          "type": "string"
        }
      ],
      "stateMutability": "view",
      "type": "function"
    },
    {
      "inputs": [],
      "name": "mintMon",
      "outputs": [
        {
          "internalType": "uint256",
          "name": "",
          "type": "uint256"
        }
      ],
      "stateMutability": "nonpayable",
      "type": "function"
    },
    {
      "inputs": [],
      "name": "name",
      "outputs": [
        {
          "internalType": "string",
          "name": "",
          "type": "string"
        }
      ],
      "stateMutability": "view",
      "type": "function"
    },
    {
      "inputs": [
        {
          "internalType": "uint256",
          "name": "tokenId",
          "type": "uint256"
        }
      ],
      "name": "ownerOf",
      "outputs": [
        {
          "internalType": "address",
          "name": "",
          "type": "address"
        }
      ],
      "stateMutability": "view",
      "type": "function"
    },
    {
      "inputs": [
        {
          "internalType": "address",
          "name": "from",
          "type": "address"
        },
        {
          "internalType": "address",
          "name": "to",
          "type": "address"
        },
        {
          "internalType": "uint256",
          "name": "tokenId",
          "type": "uint256"
        }
      ],
      "name": "safeTransferFrom",
      "outputs": [],
      "stateMutability": "nonpayable",
      "type": "function"
    },
    {
      "inputs": [
        {
          "internalType": "address",
          "name": "from",
          "type": "address"
        },
        {
          "internalType": "address",
          "name": "to",
          "type": "address"
        },
        {
          "internalType": "uint256",
          "name": "tokenId",
          "type": "uint256"
        },
        {
          "internalType": "bytes",
          "name": "_data",
          "type": "bytes"
        }
      ],
      "name": "safeTransferFrom",
      "outputs": [],
      "stateMutability": "nonpayable",
      "type": "function"
    },
    {
      "inputs": [
        {
          "internalType": "address",
          "name": "operator",
          "type": "address"
        },
        {
          "internalType": "bool",
          "name": "approved",
          "type": "bool"
        }
      ],
      "name": "setApprovalForAll",
      "outputs": [],
      "stateMutability": "nonpayable",
      "type": "function"
    },
    {
      "inputs": [
        {
          "internalType": "bytes4",
          "name": "interfaceId",
          "type": "bytes4"
        }
      ],
      "name": "supportsInterface",
      "outputs": [
        {
          "internalType": "bool",
          "name": "",
          "type": "bool"
        }
      ],
      "stateMutability": "view",
      "type": "function"
    },
    {
      "inputs": [],
      "name": "symbol",
      "outputs": [
        {
          "internalType": "string",
          "name": "",
          "type": "string"
        }
      ],
      "stateMutability": "view",
      "type": "function"
    },
    {
      "inputs": [
        {
          "internalType": "uint256",
          "name": "tokenId",
          "type": "uint256"
        }
      ],
      "name": "tokenURI",
      "outputs": [
        {
          "internalType": "string",
          "name": "",
          "type": "string"
        }
      ],
      "stateMutability": "view",
      "type": "function"
    },
    {
      "inputs": [
        {
          "internalType": "address",
          "name": "from",
          "type": "address"
        },
        {
          "internalType": "address",
          "name": "to",
          "type": "address"
        },
        {
          "internalType": "uint256",
          "name": "tokenId",
          "type": "uint256"
        }
      ],
      "name": "transferFrom",
      "outputs": [],
      "stateMutability": "nonpayable",
      "type": "function"
    },
    {
      "inputs": [
        {
          "internalType": "address",
          "name": "from",
          "type": "address"
        },
        {
          "internalType": "address",
          "name": "to",
          "type": "address"
        },
        {
          "internalType": "uint256",
          "name": "tokenId",
          "type": "uint256"
        }
      ],
      "name": "transferMon",
      "outputs": [],
      "stateMutability": "nonpayable",
      "type": "function"
    }
  ],
  "bytecode": "0x60806040523480156200001157600080fd5b506040518060400160405280600581526020017f4d6f6e46540000000000000000000000000000000000000000000000000000008152506040518060400160405280600381526020017f4d46540000000000000000000000000000000000000000000000000000000000815250816000908051906020019062000096929190620000b8565b508060019080519060200190620000af929190620000b8565b505050620001cd565b828054620000c69062000168565b90600052602060002090601f016020900481019282620000ea576000855562000136565b82601f106200010557805160ff191683800117855562000136565b8280016001018555821562000136579182015b828111156200013557825182559160200191906001019062000118565b5b50905062000145919062000149565b5090565b5b80821115620001645760008160009055506001016200014a565b5090565b600060028204905060018216806200018157607f821691505b602082108114156200019857620001976200019e565b5b50919050565b7f4e487b7100000000000000000000000000000000000000000000000000000000600052602260045260246000fd5b6126f380620001dd6000396000f3fe608060405234801561001057600080fd5b50600436106101005760003560e01c806370a0823111610097578063c87b56dd11610066578063c87b56dd146102a9578063c9efaea4146102d9578063e21f37ce146102f7578063e985e9c51461031557610100565b806370a082311461022357806395d89b4114610253578063a22cb46514610271578063b88d4fde1461028d57610100565b806311e5a947116100d357806311e5a9471461019f57806323b872dd146101bb57806342842e0e146101d75780636352211e146101f357610100565b806301ffc9a71461010557806306fdde0314610135578063081812fc14610153578063095ea7b314610183575b600080fd5b61011f600480360381019061011a91906119c3565b610345565b60405161012c91906120bb565b60405180910390f35b61013d610427565b60405161014a91906120d6565b60405180910390f35b61016d60048036038101906101689190611a15565b6104b9565b60405161017a9190612054565b60405180910390f35b61019d60048036038101906101989190611987565b61053e565b005b6101b960048036038101906101b49190611881565b610656565b005b6101d560048036038101906101d09190611881565b610666565b005b6101f160048036038101906101ec9190611881565b6106c6565b005b61020d60048036038101906102089190611a15565b6106e6565b60405161021a9190612054565b60405180910390f35b61023d6004803603810190610238919061181c565b610798565b60405161024a91906122b8565b60405180910390f35b61025b610850565b60405161026891906120d6565b60405180910390f35b61028b6004803603810190610286919061194b565b6108e2565b005b6102a760048036038101906102a291906118d0565b610a63565b005b6102c360048036038101906102be9190611a15565b610ac5565b6040516102d091906120d6565b60405180910390f35b6102e1610b6c565b6040516102ee91906122b8565b60405180910390f35b6102ff610b97565b60405161030c91906120d6565b60405180910390f35b61032f600480360381019061032a9190611845565b610c25565b60405161033c91906120bb565b60405180910390f35b60007f80ac58cd000000000000000000000000000000000000000000000000000000007bffffffffffffffffffffffffffffffffffffffffffffffffffffffff1916827bffffffffffffffffffffffffffffffffffffffffffffffffffffffff1916148061041057507f5b5e139f000000000000000000000000000000000000000000000000000000007bffffffffffffffffffffffffffffffffffffffffffffffffffffffff1916827bffffffffffffffffffffffffffffffffffffffffffffffffffffffff1916145b80610420575061041f82610cb9565b5b9050919050565b606060008054610436906124e8565b80601f0160208091040260200160405190810160405280929190818152602001828054610462906124e8565b80156104af5780601f10610484576101008083540402835291602001916104af565b820191906000526020600020905b81548152906001019060200180831161049257829003601f168201915b5050505050905090565b60006104c482610d23565b610503576040517f08c379a00000000000000000000000000000000000000000000000000000000081526004016104fa90612218565b60405180910390fd5b6004600083815260200190815260200160002060009054906101000a900473ffffffffffffffffffffffffffffffffffffffff169050919050565b6000610549826106e6565b90508073ffffffffffffffffffffffffffffffffffffffff168373ffffffffffffffffffffffffffffffffffffffff1614156105ba576040517f08c379a00000000000000000000000000000000000000000000000000000000081526004016105b190612278565b60405180910390fd5b8073ffffffffffffffffffffffffffffffffffffffff166105d9610d8f565b73ffffffffffffffffffffffffffffffffffffffff161480610608575061060781610602610d8f565b610c25565b5b610647576040517f08c379a000000000000000000000000000000000000000000000000000000000815260040161063e90612198565b60405180910390fd5b6106518383610d97565b505050565b6106618383836106c6565b505050565b610677610671610d8f565b82610e50565b6106b6576040517f08c379a00000000000000000000000000000000000000000000000000000000081526004016106ad90612298565b60405180910390fd5b6106c1838383610f2e565b505050565b6106e183838360405180602001604052806000815250610a63565b505050565b6000806002600084815260200190815260200160002060009054906101000a900473ffffffffffffffffffffffffffffffffffffffff169050600073ffffffffffffffffffffffffffffffffffffffff168173ffffffffffffffffffffffffffffffffffffffff16141561078f576040517f08c379a0000000000000000000000000000000000000000000000000000000008152600401610786906121d8565b60405180910390fd5b80915050919050565b60008073ffffffffffffffffffffffffffffffffffffffff168273ffffffffffffffffffffffffffffffffffffffff161415610809576040517f08c379a0000000000000000000000000000000000000000000000000000000008152600401610800906121b8565b60405180910390fd5b600360008373ffffffffffffffffffffffffffffffffffffffff1673ffffffffffffffffffffffffffffffffffffffff168152602001908152602001600020549050919050565b60606001805461085f906124e8565b80601f016020809104026020016040519081016040528092919081815260200182805461088b906124e8565b80156108d85780601f106108ad576101008083540402835291602001916108d8565b820191906000526020600020905b8154815290600101906020018083116108bb57829003601f168201915b5050505050905090565b6108ea610d8f565b73ffffffffffffffffffffffffffffffffffffffff168273ffffffffffffffffffffffffffffffffffffffff161415610958576040517f08c379a000000000000000000000000000000000000000000000000000000000815260040161094f90612158565b60405180910390fd5b8060056000610965610d8f565b73ffffffffffffffffffffffffffffffffffffffff1673ffffffffffffffffffffffffffffffffffffffff16815260200190815260200160002060008473ffffffffffffffffffffffffffffffffffffffff1673ffffffffffffffffffffffffffffffffffffffff16815260200190815260200160002060006101000a81548160ff0219169083151502179055508173ffffffffffffffffffffffffffffffffffffffff16610a12610d8f565b73ffffffffffffffffffffffffffffffffffffffff167f17307eab39ab6107e8899845ad3d59bd9653f200f220920489ca2b5937696c3183604051610a5791906120bb565b60405180910390a35050565b610a74610a6e610d8f565b83610e50565b610ab3576040517f08c379a0000000000000000000000000000000000000000000000000000000008152600401610aaa90612298565b60405180910390fd5b610abf8484848461118a565b50505050565b6060610ad082610d23565b610b0f576040517f08c379a0000000000000000000000000000000000000000000000000000000008152600401610b0690612258565b60405180910390fd5b6000610b196111e6565b90506000815111610b395760405180602001604052806000815250610b64565b80610b43846111fd565b604051602001610b54929190612030565b6040516020818303038152906040525b915050919050565b6000610b7860076113aa565b6000610b8460076113c0565b9050610b9033826113ce565b8091505090565b60068054610ba4906124e8565b80601f0160208091040260200160405190810160405280929190818152602001828054610bd0906124e8565b8015610c1d5780601f10610bf257610100808354040283529160200191610c1d565b820191906000526020600020905b815481529060010190602001808311610c0057829003601f168201915b505050505081565b6000600560008473ffffffffffffffffffffffffffffffffffffffff1673ffffffffffffffffffffffffffffffffffffffff16815260200190815260200160002060008373ffffffffffffffffffffffffffffffffffffffff1673ffffffffffffffffffffffffffffffffffffffff16815260200190815260200160002060009054906101000a900460ff16905092915050565b60007f01ffc9a7000000000000000000000000000000000000000000000000000000007bffffffffffffffffffffffffffffffffffffffffffffffffffffffff1916827bffffffffffffffffffffffffffffffffffffffffffffffffffffffff1916149050919050565b60008073ffffffffffffffffffffffffffffffffffffffff166002600084815260200190815260200160002060009054906101000a900473ffffffffffffffffffffffffffffffffffffffff1673ffffffffffffffffffffffffffffffffffffffff1614159050919050565b600033905090565b816004600083815260200190815260200160002060006101000a81548173ffffffffffffffffffffffffffffffffffffffff021916908373ffffffffffffffffffffffffffffffffffffffff160217905550808273ffffffffffffffffffffffffffffffffffffffff16610e0a836106e6565b73ffffffffffffffffffffffffffffffffffffffff167f8c5be1e5ebec7d5bd14f71427d1e84f3dd0314c0f7b2291e5b200ac8c7c3b92560405160405180910390a45050565b6000610e5b82610d23565b610e9a576040517f08c379a0000000000000000000000000000000000000000000000000000000008152600401610e9190612178565b60405180910390fd5b6000610ea5836106e6565b90508073ffffffffffffffffffffffffffffffffffffffff168473ffffffffffffffffffffffffffffffffffffffff161480610f1457508373ffffffffffffffffffffffffffffffffffffffff16610efc846104b9565b73ffffffffffffffffffffffffffffffffffffffff16145b80610f255750610f248185610c25565b5b91505092915050565b8273ffffffffffffffffffffffffffffffffffffffff16610f4e826106e6565b73ffffffffffffffffffffffffffffffffffffffff1614610fa4576040517f08c379a0000000000000000000000000000000000000000000000000000000008152600401610f9b90612238565b60405180910390fd5b600073ffffffffffffffffffffffffffffffffffffffff168273ffffffffffffffffffffffffffffffffffffffff161415611014576040517f08c379a000000000000000000000000000000000000000000000000000000000815260040161100b90612138565b60405180910390fd5b61101f83838361159c565b61102a600082610d97565b6001600360008573ffffffffffffffffffffffffffffffffffffffff1673ffffffffffffffffffffffffffffffffffffffff168152602001908152602001600020600082825461107a91906123fe565b925050819055506001600360008473ffffffffffffffffffffffffffffffffffffffff1673ffffffffffffffffffffffffffffffffffffffff16815260200190815260200160002060008282546110d19190612377565b92505081905550816002600083815260200190815260200160002060006101000a81548173ffffffffffffffffffffffffffffffffffffffff021916908373ffffffffffffffffffffffffffffffffffffffff160217905550808273ffffffffffffffffffffffffffffffffffffffff168473ffffffffffffffffffffffffffffffffffffffff167fddf252ad1be2c89b69c2b068fc378daa952ba7f163c4a11628f55a4df523b3ef60405160405180910390a4505050565b611195848484610f2e565b6111a1848484846115a1565b6111e0576040517f08c379a00000000000000000000000000000000000000000000000000000000081526004016111d7906120f8565b60405180910390fd5b50505050565b606060405180602001604052806000815250905090565b60606000821415611245576040518060400160405280600181526020017f300000000000000000000000000000000000000000000000000000000000000081525090506113a5565b600082905060005b600082146112775780806112609061251a565b915050600a8261127091906123cd565b915061124d565b60008167ffffffffffffffff8111156112b9577f4e487b7100000000000000000000000000000000000000000000000000000000600052604160045260246000fd5b6040519080825280601f01601f1916602001820160405280156112eb5781602001600182028036833780820191505090505b5090505b6000851461139e5760018261130491906123fe565b9150600a856113139190612563565b603061131f9190612377565b60f81b81838151811061135b577f4e487b7100000000000000000000000000000000000000000000000000000000600052603260045260246000fd5b60200101907effffffffffffffffffffffffffffffffffffffffffffffffffffffffffffff1916908160001a905350600a8561139791906123cd565b94506112ef565b8093505050505b919050565b6001816000016000828254019250508190555050565b600081600001549050919050565b600073ffffffffffffffffffffffffffffffffffffffff168273ffffffffffffffffffffffffffffffffffffffff16141561143e576040517f08c379a0000000000000000000000000000000000000000000000000000000008152600401611435906121f8565b60405180910390fd5b61144781610d23565b15611487576040517f08c379a000000000000000000000000000000000000000000000000000000000815260040161147e90612118565b60405180910390fd5b6114936000838361159c565b6001600360008473ffffffffffffffffffffffffffffffffffffffff1673ffffffffffffffffffffffffffffffffffffffff16815260200190815260200160002060008282546114e39190612377565b92505081905550816002600083815260200190815260200160002060006101000a81548173ffffffffffffffffffffffffffffffffffffffff021916908373ffffffffffffffffffffffffffffffffffffffff160217905550808273ffffffffffffffffffffffffffffffffffffffff16600073ffffffffffffffffffffffffffffffffffffffff167fddf252ad1be2c89b69c2b068fc378daa952ba7f163c4a11628f55a4df523b3ef60405160405180910390a45050565b505050565b60006115c28473ffffffffffffffffffffffffffffffffffffffff16611738565b1561172b578373ffffffffffffffffffffffffffffffffffffffff1663150b7a026115eb610d8f565b8786866040518563ffffffff1660e01b815260040161160d949392919061206f565b602060405180830381600087803b15801561162757600080fd5b505af192505050801561165857506040513d601f19601f8201168201806040525081019061165591906119ec565b60015b6116db573d8060008114611688576040519150601f19603f3d011682016040523d82523d6000602084013e61168d565b606091505b506000815114156116d3576040517f08c379a00000000000000000000000000000000000000000000000000000000081526004016116ca906120f8565b60405180910390fd5b805181602001fd5b63150b7a0260e01b7bffffffffffffffffffffffffffffffffffffffffffffffffffffffff1916817bffffffffffffffffffffffffffffffffffffffffffffffffffffffff191614915050611730565b600190505b949350505050565b600080823b905060008111915050919050565b600061175e61175984612304565b6122d3565b90508281526020810184848401111561177657600080fd5b6117818482856124a6565b509392505050565b60008135905061179881612661565b92915050565b6000813590506117ad81612678565b92915050565b6000813590506117c28161268f565b92915050565b6000815190506117d78161268f565b92915050565b600082601f8301126117ee57600080fd5b81356117fe84826020860161174b565b91505092915050565b600081359050611816816126a6565b92915050565b60006020828403121561182e57600080fd5b600061183c84828501611789565b91505092915050565b6000806040838503121561185857600080fd5b600061186685828601611789565b925050602061187785828601611789565b9150509250929050565b60008060006060848603121561189657600080fd5b60006118a486828701611789565b93505060206118b586828701611789565b92505060406118c686828701611807565b9150509250925092565b600080600080608085870312156118e657600080fd5b60006118f487828801611789565b945050602061190587828801611789565b935050604061191687828801611807565b925050606085013567ffffffffffffffff81111561193357600080fd5b61193f878288016117dd565b91505092959194509250565b6000806040838503121561195e57600080fd5b600061196c85828601611789565b925050602061197d8582860161179e565b9150509250929050565b6000806040838503121561199a57600080fd5b60006119a885828601611789565b92505060206119b985828601611807565b9150509250929050565b6000602082840312156119d557600080fd5b60006119e3848285016117b3565b91505092915050565b6000602082840312156119fe57600080fd5b6000611a0c848285016117c8565b91505092915050565b600060208284031215611a2757600080fd5b6000611a3584828501611807565b91505092915050565b611a4781612432565b82525050565b611a5681612444565b82525050565b6000611a6782612334565b611a71818561234a565b9350611a818185602086016124b5565b611a8a81612650565b840191505092915050565b6000611aa08261233f565b611aaa818561235b565b9350611aba8185602086016124b5565b611ac381612650565b840191505092915050565b6000611ad98261233f565b611ae3818561236c565b9350611af38185602086016124b5565b80840191505092915050565b6000611b0c60328361235b565b91507f4552433732313a207472616e7366657220746f206e6f6e20455243373231526560008301527f63656976657220696d706c656d656e74657200000000000000000000000000006020830152604082019050919050565b6000611b72601c8361235b565b91507f4552433732313a20746f6b656e20616c7265616479206d696e746564000000006000830152602082019050919050565b6000611bb260248361235b565b91507f4552433732313a207472616e7366657220746f20746865207a65726f2061646460008301527f72657373000000000000000000000000000000000000000000000000000000006020830152604082019050919050565b6000611c1860198361235b565b91507f4552433732313a20617070726f766520746f2063616c6c6572000000000000006000830152602082019050919050565b6000611c58602c8361235b565b91507f4552433732313a206f70657261746f7220717565727920666f72206e6f6e657860008301527f697374656e7420746f6b656e00000000000000000000000000000000000000006020830152604082019050919050565b6000611cbe60388361235b565b91507f4552433732313a20617070726f76652063616c6c6572206973206e6f74206f7760008301527f6e6572206e6f7220617070726f76656420666f7220616c6c00000000000000006020830152604082019050919050565b6000611d24602a8361235b565b91507f4552433732313a2062616c616e636520717565727920666f7220746865207a6560008301527f726f2061646472657373000000000000000000000000000000000000000000006020830152604082019050919050565b6000611d8a60298361235b565b91507f4552433732313a206f776e657220717565727920666f72206e6f6e657869737460008301527f656e7420746f6b656e00000000000000000000000000000000000000000000006020830152604082019050919050565b6000611df060208361235b565b91507f4552433732313a206d696e7420746f20746865207a65726f20616464726573736000830152602082019050919050565b6000611e30602c8361235b565b91507f4552433732313a20617070726f76656420717565727920666f72206e6f6e657860008301527f697374656e7420746f6b656e00000000000000000000000000000000000000006020830152604082019050919050565b6000611e9660298361235b565b91507f4552433732313a207472616e73666572206f6620746f6b656e2074686174206960008301527f73206e6f74206f776e00000000000000000000000000000000000000000000006020830152604082019050919050565b6000611efc602f8361235b565b91507f4552433732314d657461646174613a2055524920717565727920666f72206e6f60008301527f6e6578697374656e7420746f6b656e00000000000000000000000000000000006020830152604082019050919050565b6000611f6260218361235b565b91507f4552433732313a20617070726f76616c20746f2063757272656e74206f776e6560008301527f72000000000000000000000000000000000000000000000000000000000000006020830152604082019050919050565b6000611fc860318361235b565b91507f4552433732313a207472616e736665722063616c6c6572206973206e6f74206f60008301527f776e6572206e6f7220617070726f7665640000000000000000000000000000006020830152604082019050919050565b61202a8161249c565b82525050565b600061203c8285611ace565b91506120488284611ace565b91508190509392505050565b60006020820190506120696000830184611a3e565b92915050565b60006080820190506120846000830187611a3e565b6120916020830186611a3e565b61209e6040830185612021565b81810360608301526120b08184611a5c565b905095945050505050565b60006020820190506120d06000830184611a4d565b92915050565b600060208201905081810360008301526120f08184611a95565b905092915050565b6000602082019050818103600083015261211181611aff565b9050919050565b6000602082019050818103600083015261213181611b65565b9050919050565b6000602082019050818103600083015261215181611ba5565b9050919050565b6000602082019050818103600083015261217181611c0b565b9050919050565b6000602082019050818103600083015261219181611c4b565b9050919050565b600060208201905081810360008301526121b181611cb1565b9050919050565b600060208201905081810360008301526121d181611d17565b9050919050565b600060208201905081810360008301526121f181611d7d565b9050919050565b6000602082019050818103600083015261221181611de3565b9050919050565b6000602082019050818103600083015261223181611e23565b9050919050565b6000602082019050818103600083015261225181611e89565b9050919050565b6000602082019050818103600083015261227181611eef565b9050919050565b6000602082019050818103600083015261229181611f55565b9050919050565b600060208201905081810360008301526122b181611fbb565b9050919050565b60006020820190506122cd6000830184612021565b92915050565b6000604051905081810181811067ffffffffffffffff821117156122fa576122f9612621565b5b8060405250919050565b600067ffffffffffffffff82111561231f5761231e612621565b5b601f19601f8301169050602081019050919050565b600081519050919050565b600081519050919050565b600082825260208201905092915050565b600082825260208201905092915050565b600081905092915050565b60006123828261249c565b915061238d8361249c565b9250827fffffffffffffffffffffffffffffffffffffffffffffffffffffffffffffffff038211156123c2576123c1612594565b5b828201905092915050565b60006123d88261249c565b91506123e38361249c565b9250826123f3576123f26125c3565b5b828204905092915050565b60006124098261249c565b91506124148361249c565b92508282101561242757612426612594565b5b828203905092915050565b600061243d8261247c565b9050919050565b60008115159050919050565b60007fffffffff0000000000000000000000000000000000000000000000000000000082169050919050565b600073ffffffffffffffffffffffffffffffffffffffff82169050919050565b6000819050919050565b82818337600083830152505050565b60005b838110156124d35780820151818401526020810190506124b8565b838111156124e2576000848401525b50505050565b6000600282049050600182168061250057607f821691505b60208210811415612514576125136125f2565b5b50919050565b60006125258261249c565b91507fffffffffffffffffffffffffffffffffffffffffffffffffffffffffffffffff82141561255857612557612594565b5b600182019050919050565b600061256e8261249c565b91506125798361249c565b925082612589576125886125c3565b5b828206905092915050565b7f4e487b7100000000000000000000000000000000000000000000000000000000600052601160045260246000fd5b7f4e487b7100000000000000000000000000000000000000000000000000000000600052601260045260246000fd5b7f4e487b7100000000000000000000000000000000000000000000000000000000600052602260045260246000fd5b7f4e487b7100000000000000000000000000000000000000000000000000000000600052604160045260246000fd5b6000601f19601f8301169050919050565b61266a81612432565b811461267557600080fd5b50565b61268181612444565b811461268c57600080fd5b50565b61269881612450565b81146126a357600080fd5b50565b6126af8161249c565b81146126ba57600080fd5b5056fea2646970667358221220c607b54e7b53f184826af2c288a22c10ca8f2c4601078799eb6c4af4597d35cd64736f6c63430008000033",
  "linkReferences": {},
  "deployedLinkReferences": {}
}