{
  "_format": "hh-sol-artifact-1",
  "contractName": "MonFT",
  "sourceName": "contracts/MonFT.sol",
  "abi": [
    {
      "inputs": [],
      "stateMutability": "nonpayable",
      "type": "constructor"
    },
    {
      "anonymous": false,
      "inputs": [
        {
          "indexed": true,
          "internalType": "address",
          "name": "owner",
          "type": "address"
        },
        {
          "indexed": true,
          "internalType": "address",
          "name": "approved",
          "type": "address"
        },
        {
          "indexed": true,
          "internalType": "uint256",
          "name": "tokenId",
          "type": "uint256"
        }
      ],
      "name": "Approval",
      "type": "event"
    },
    {
      "anonymous": false,
      "inputs": [
        {
          "indexed": true,
          "internalType": "address",
          "name": "owner",
          "type": "address"
        },
        {
          "indexed": true,
          "internalType": "address",
          "name": "operator",
          "type": "address"
        },
        {
          "indexed": false,
          "internalType": "bool",
          "name": "approved",
          "type": "bool"
        }
      ],
      "name": "ApprovalForAll",
      "type": "event"
    },
    {
      "anonymous": false,
      "inputs": [
        {
          "indexed": true,
          "internalType": "address",
          "name": "from",
          "type": "address"
        },
        {
          "indexed": true,
          "internalType": "address",
          "name": "to",
          "type": "address"
        },
        {
          "indexed": true,
          "internalType": "uint256",
          "name": "tokenId",
          "type": "uint256"
        }
      ],
      "name": "Transfer",
      "type": "event"
    },
    {
      "inputs": [
        {
          "internalType": "address",
          "name": "to",
          "type": "address"
        },
        {
          "internalType": "uint256",
          "name": "tokenId",
          "type": "uint256"
        }
      ],
      "name": "approve",
      "outputs": [],
      "stateMutability": "nonpayable",
      "type": "function"
    },
    {
      "inputs": [
        {
          "internalType": "address",
          "name": "owner",
          "type": "address"
        }
      ],
      "name": "balanceOf",
      "outputs": [
        {
          "internalType": "uint256",
          "name": "",
          "type": "uint256"
        }
      ],
      "stateMutability": "view",
      "type": "function"
    },
    {
      "inputs": [
        {
          "internalType": "uint256",
          "name": "tokenId",
          "type": "uint256"
        }
      ],
      "name": "getApproved",
      "outputs": [
        {
          "internalType": "address",
          "name": "",
          "type": "address"
        }
      ],
      "stateMutability": "view",
      "type": "function"
    },
    {
      "inputs": [
        {
          "internalType": "address",
          "name": "owner",
          "type": "address"
        },
        {
          "internalType": "address",
          "name": "operator",
          "type": "address"
        }
      ],
      "name": "isApprovedForAll",
      "outputs": [
        {
          "internalType": "bool",
          "name": "",
          "type": "bool"
        }
      ],
      "stateMutability": "view",
      "type": "function"
    },
    {
      "inputs": [],
      "name": "mintMon",
      "outputs": [
        {
          "internalType": "uint256",
          "name": "",
          "type": "uint256"
        }
      ],
      "stateMutability": "nonpayable",
      "type": "function"
    },
    {
      "inputs": [],
      "name": "name",
      "outputs": [
        {
          "internalType": "string",
          "name": "",
          "type": "string"
        }
      ],
      "stateMutability": "view",
      "type": "function"
    },
    {
      "inputs": [
        {
          "internalType": "uint256",
          "name": "tokenId",
          "type": "uint256"
        }
      ],
      "name": "ownerOf",
      "outputs": [
        {
          "internalType": "address",
          "name": "",
          "type": "address"
        }
      ],
      "stateMutability": "view",
      "type": "function"
    },
    {
      "inputs": [
        {
          "internalType": "address",
          "name": "from",
          "type": "address"
        },
        {
          "internalType": "address",
          "name": "to",
          "type": "address"
        },
        {
          "internalType": "uint256",
          "name": "tokenId",
          "type": "uint256"
        }
      ],
      "name": "safeTransferFrom",
      "outputs": [],
      "stateMutability": "nonpayable",
      "type": "function"
    },
    {
      "inputs": [
        {
          "internalType": "address",
          "name": "from",
          "type": "address"
        },
        {
          "internalType": "address",
          "name": "to",
          "type": "address"
        },
        {
          "internalType": "uint256",
          "name": "tokenId",
          "type": "uint256"
        },
        {
          "internalType": "bytes",
          "name": "_data",
          "type": "bytes"
        }
      ],
      "name": "safeTransferFrom",
      "outputs": [],
      "stateMutability": "nonpayable",
      "type": "function"
    },
    {
      "inputs": [
        {
          "internalType": "address",
          "name": "operator",
          "type": "address"
        },
        {
          "internalType": "bool",
          "name": "approved",
          "type": "bool"
        }
      ],
      "name": "setApprovalForAll",
      "outputs": [],
      "stateMutability": "nonpayable",
      "type": "function"
    },
    {
      "inputs": [
        {
          "internalType": "bytes4",
          "name": "interfaceId",
          "type": "bytes4"
        }
      ],
      "name": "supportsInterface",
      "outputs": [
        {
          "internalType": "bool",
          "name": "",
          "type": "bool"
        }
      ],
      "stateMutability": "view",
      "type": "function"
    },
    {
      "inputs": [],
      "name": "symbol",
      "outputs": [
        {
          "internalType": "string",
          "name": "",
          "type": "string"
        }
      ],
      "stateMutability": "view",
      "type": "function"
    },
    {
      "inputs": [
        {
          "internalType": "uint256",
          "name": "tokenId",
          "type": "uint256"
        }
      ],
      "name": "tokenURI",
      "outputs": [
        {
          "internalType": "string",
          "name": "",
          "type": "string"
        }
      ],
      "stateMutability": "view",
      "type": "function"
    },
    {
      "inputs": [
        {
          "internalType": "address",
          "name": "from",
          "type": "address"
        },
        {
          "internalType": "address",
          "name": "to",
          "type": "address"
        },
        {
          "internalType": "uint256",
          "name": "tokenId",
          "type": "uint256"
        }
      ],
      "name": "transferFrom",
      "outputs": [],
      "stateMutability": "nonpayable",
      "type": "function"
    }
  ],
  "bytecode": "0x60806040523480156200001157600080fd5b506040518060400160405280600581526020017f4d6f6e46540000000000000000000000000000000000000000000000000000008152506040518060400160405280600381526020017f4d46540000000000000000000000000000000000000000000000000000000000815250816000908051906020019062000096929190620000b8565b508060019080519060200190620000af929190620000b8565b505050620001cd565b828054620000c69062000168565b90600052602060002090601f016020900481019282620000ea576000855562000136565b82601f106200010557805160ff191683800117855562000136565b8280016001018555821562000136579182015b828111156200013557825182559160200191906001019062000118565b5b50905062000145919062000149565b5090565b5b80821115620001645760008160009055506001016200014a565b5090565b600060028204905060018216806200018157607f821691505b602082108114156200019857620001976200019e565b5b50919050565b7f4e487b7100000000000000000000000000000000000000000000000000000000600052602260045260246000fd5b61260580620001dd6000396000f3fe608060405234801561001057600080fd5b50600436106100ea5760003560e01c806370a082311161008c578063b88d4fde11610066578063b88d4fde1461025b578063c87b56dd14610277578063c9efaea4146102a7578063e985e9c5146102c5576100ea565b806370a08231146101f157806395d89b4114610221578063a22cb4651461023f576100ea565b8063095ea7b3116100c8578063095ea7b31461016d57806323b872dd1461018957806342842e0e146101a55780636352211e146101c1576100ea565b806301ffc9a7146100ef57806306fdde031461011f578063081812fc1461013d575b600080fd5b610109600480360381019061010491906118d5565b6102f5565b6040516101169190611fcd565b60405180910390f35b6101276103d7565b6040516101349190611fe8565b60405180910390f35b61015760048036038101906101529190611927565b610469565b6040516101649190611f66565b60405180910390f35b61018760048036038101906101829190611899565b6104ee565b005b6101a3600480360381019061019e9190611793565b610606565b005b6101bf60048036038101906101ba9190611793565b610666565b005b6101db60048036038101906101d69190611927565b610686565b6040516101e89190611f66565b60405180910390f35b61020b6004803603810190610206919061172e565b610738565b60405161021891906121ca565b60405180910390f35b6102296107f0565b6040516102369190611fe8565b60405180910390f35b6102596004803603810190610254919061185d565b610882565b005b610275600480360381019061027091906117e2565b610a03565b005b610291600480360381019061028c9190611927565b610a65565b60405161029e9190611fe8565b60405180910390f35b6102af610b0c565b6040516102bc91906121ca565b60405180910390f35b6102df60048036038101906102da9190611757565b610b37565b6040516102ec9190611fcd565b60405180910390f35b60007f80ac58cd000000000000000000000000000000000000000000000000000000007bffffffffffffffffffffffffffffffffffffffffffffffffffffffff1916827bffffffffffffffffffffffffffffffffffffffffffffffffffffffff191614806103c057507f5b5e139f000000000000000000000000000000000000000000000000000000007bffffffffffffffffffffffffffffffffffffffffffffffffffffffff1916827bffffffffffffffffffffffffffffffffffffffffffffffffffffffff1916145b806103d057506103cf82610bcb565b5b9050919050565b6060600080546103e6906123fa565b80601f0160208091040260200160405190810160405280929190818152602001828054610412906123fa565b801561045f5780601f106104345761010080835404028352916020019161045f565b820191906000526020600020905b81548152906001019060200180831161044257829003601f168201915b5050505050905090565b600061047482610c35565b6104b3576040517f08c379a00000000000000000000000000000000000000000000000000000000081526004016104aa9061212a565b60405180910390fd5b6004600083815260200190815260200160002060009054906101000a900473ffffffffffffffffffffffffffffffffffffffff169050919050565b60006104f982610686565b90508073ffffffffffffffffffffffffffffffffffffffff168373ffffffffffffffffffffffffffffffffffffffff16141561056a576040517f08c379a00000000000000000000000000000000000000000000000000000000081526004016105619061218a565b60405180910390fd5b8073ffffffffffffffffffffffffffffffffffffffff16610589610ca1565b73ffffffffffffffffffffffffffffffffffffffff1614806105b857506105b7816105b2610ca1565b610b37565b5b6105f7576040517f08c379a00000000000000000000000000000000000000000000000000000000081526004016105ee906120aa565b60405180910390fd5b6106018383610ca9565b505050565b610617610611610ca1565b82610d62565b610656576040517f08c379a000000000000000000000000000000000000000000000000000000000815260040161064d906121aa565b60405180910390fd5b610661838383610e40565b505050565b61068183838360405180602001604052806000815250610a03565b505050565b6000806002600084815260200190815260200160002060009054906101000a900473ffffffffffffffffffffffffffffffffffffffff169050600073ffffffffffffffffffffffffffffffffffffffff168173ffffffffffffffffffffffffffffffffffffffff16141561072f576040517f08c379a0000000000000000000000000000000000000000000000000000000008152600401610726906120ea565b60405180910390fd5b80915050919050565b60008073ffffffffffffffffffffffffffffffffffffffff168273ffffffffffffffffffffffffffffffffffffffff1614156107a9576040517f08c379a00000000000000000000000000000000000000000000000000000000081526004016107a0906120ca565b60405180910390fd5b600360008373ffffffffffffffffffffffffffffffffffffffff1673ffffffffffffffffffffffffffffffffffffffff168152602001908152602001600020549050919050565b6060600180546107ff906123fa565b80601f016020809104026020016040519081016040528092919081815260200182805461082b906123fa565b80156108785780601f1061084d57610100808354040283529160200191610878565b820191906000526020600020905b81548152906001019060200180831161085b57829003601f168201915b5050505050905090565b61088a610ca1565b73ffffffffffffffffffffffffffffffffffffffff168273ffffffffffffffffffffffffffffffffffffffff1614156108f8576040517f08c379a00000000000000000000000000000000000000000000000000000000081526004016108ef9061206a565b60405180910390fd5b8060056000610905610ca1565b73ffffffffffffffffffffffffffffffffffffffff1673ffffffffffffffffffffffffffffffffffffffff16815260200190815260200160002060008473ffffffffffffffffffffffffffffffffffffffff1673ffffffffffffffffffffffffffffffffffffffff16815260200190815260200160002060006101000a81548160ff0219169083151502179055508173ffffffffffffffffffffffffffffffffffffffff166109b2610ca1565b73ffffffffffffffffffffffffffffffffffffffff167f17307eab39ab6107e8899845ad3d59bd9653f200f220920489ca2b5937696c31836040516109f79190611fcd565b60405180910390a35050565b610a14610a0e610ca1565b83610d62565b610a53576040517f08c379a0000000000000000000000000000000000000000000000000000000008152600401610a4a906121aa565b60405180910390fd5b610a5f8484848461109c565b50505050565b6060610a7082610c35565b610aaf576040517f08c379a0000000000000000000000000000000000000000000000000000000008152600401610aa69061216a565b60405180910390fd5b6000610ab96110f8565b90506000815111610ad95760405180602001604052806000815250610b04565b80610ae38461110f565b604051602001610af4929190611f42565b6040516020818303038152906040525b915050919050565b6000610b1860066112bc565b6000610b2460066112d2565b9050610b3033826112e0565b8091505090565b6000600560008473ffffffffffffffffffffffffffffffffffffffff1673ffffffffffffffffffffffffffffffffffffffff16815260200190815260200160002060008373ffffffffffffffffffffffffffffffffffffffff1673ffffffffffffffffffffffffffffffffffffffff16815260200190815260200160002060009054906101000a900460ff16905092915050565b60007f01ffc9a7000000000000000000000000000000000000000000000000000000007bffffffffffffffffffffffffffffffffffffffffffffffffffffffff1916827bffffffffffffffffffffffffffffffffffffffffffffffffffffffff1916149050919050565b60008073ffffffffffffffffffffffffffffffffffffffff166002600084815260200190815260200160002060009054906101000a900473ffffffffffffffffffffffffffffffffffffffff1673ffffffffffffffffffffffffffffffffffffffff1614159050919050565b600033905090565b816004600083815260200190815260200160002060006101000a81548173ffffffffffffffffffffffffffffffffffffffff021916908373ffffffffffffffffffffffffffffffffffffffff160217905550808273ffffffffffffffffffffffffffffffffffffffff16610d1c83610686565b73ffffffffffffffffffffffffffffffffffffffff167f8c5be1e5ebec7d5bd14f71427d1e84f3dd0314c0f7b2291e5b200ac8c7c3b92560405160405180910390a45050565b6000610d6d82610c35565b610dac576040517f08c379a0000000000000000000000000000000000000000000000000000000008152600401610da39061208a565b60405180910390fd5b6000610db783610686565b90508073ffffffffffffffffffffffffffffffffffffffff168473ffffffffffffffffffffffffffffffffffffffff161480610e2657508373ffffffffffffffffffffffffffffffffffffffff16610e0e84610469565b73ffffffffffffffffffffffffffffffffffffffff16145b80610e375750610e368185610b37565b5b91505092915050565b8273ffffffffffffffffffffffffffffffffffffffff16610e6082610686565b73ffffffffffffffffffffffffffffffffffffffff1614610eb6576040517f08c379a0000000000000000000000000000000000000000000000000000000008152600401610ead9061214a565b60405180910390fd5b600073ffffffffffffffffffffffffffffffffffffffff168273ffffffffffffffffffffffffffffffffffffffff161415610f26576040517f08c379a0000000000000000000000000000000000000000000000000000000008152600401610f1d9061204a565b60405180910390fd5b610f318383836114ae565b610f3c600082610ca9565b6001600360008573ffffffffffffffffffffffffffffffffffffffff1673ffffffffffffffffffffffffffffffffffffffff1681526020019081526020016000206000828254610f8c9190612310565b925050819055506001600360008473ffffffffffffffffffffffffffffffffffffffff1673ffffffffffffffffffffffffffffffffffffffff1681526020019081526020016000206000828254610fe39190612289565b92505081905550816002600083815260200190815260200160002060006101000a81548173ffffffffffffffffffffffffffffffffffffffff021916908373ffffffffffffffffffffffffffffffffffffffff160217905550808273ffffffffffffffffffffffffffffffffffffffff168473ffffffffffffffffffffffffffffffffffffffff167fddf252ad1be2c89b69c2b068fc378daa952ba7f163c4a11628f55a4df523b3ef60405160405180910390a4505050565b6110a7848484610e40565b6110b3848484846114b3565b6110f2576040517f08c379a00000000000000000000000000000000000000000000000000000000081526004016110e99061200a565b60405180910390fd5b50505050565b606060405180602001604052806000815250905090565b60606000821415611157576040518060400160405280600181526020017f300000000000000000000000000000000000000000000000000000000000000081525090506112b7565b600082905060005b600082146111895780806111729061242c565b915050600a8261118291906122df565b915061115f565b60008167ffffffffffffffff8111156111cb577f4e487b7100000000000000000000000000000000000000000000000000000000600052604160045260246000fd5b6040519080825280601f01601f1916602001820160405280156111fd5781602001600182028036833780820191505090505b5090505b600085146112b0576001826112169190612310565b9150600a856112259190612475565b60306112319190612289565b60f81b81838151811061126d577f4e487b7100000000000000000000000000000000000000000000000000000000600052603260045260246000fd5b60200101907effffffffffffffffffffffffffffffffffffffffffffffffffffffffffffff1916908160001a905350600a856112a991906122df565b9450611201565b8093505050505b919050565b6001816000016000828254019250508190555050565b600081600001549050919050565b600073ffffffffffffffffffffffffffffffffffffffff168273ffffffffffffffffffffffffffffffffffffffff161415611350576040517f08c379a00000000000000000000000000000000000000000000000000000000081526004016113479061210a565b60405180910390fd5b61135981610c35565b15611399576040517f08c379a00000000000000000000000000000000000000000000000000000000081526004016113909061202a565b60405180910390fd5b6113a5600083836114ae565b6001600360008473ffffffffffffffffffffffffffffffffffffffff1673ffffffffffffffffffffffffffffffffffffffff16815260200190815260200160002060008282546113f59190612289565b92505081905550816002600083815260200190815260200160002060006101000a81548173ffffffffffffffffffffffffffffffffffffffff021916908373ffffffffffffffffffffffffffffffffffffffff160217905550808273ffffffffffffffffffffffffffffffffffffffff16600073ffffffffffffffffffffffffffffffffffffffff167fddf252ad1be2c89b69c2b068fc378daa952ba7f163c4a11628f55a4df523b3ef60405160405180910390a45050565b505050565b60006114d48473ffffffffffffffffffffffffffffffffffffffff1661164a565b1561163d578373ffffffffffffffffffffffffffffffffffffffff1663150b7a026114fd610ca1565b8786866040518563ffffffff1660e01b815260040161151f9493929190611f81565b602060405180830381600087803b15801561153957600080fd5b505af192505050801561156a57506040513d601f19601f8201168201806040525081019061156791906118fe565b60015b6115ed573d806000811461159a576040519150601f19603f3d011682016040523d82523d6000602084013e61159f565b606091505b506000815114156115e5576040517f08c379a00000000000000000000000000000000000000000000000000000000081526004016115dc9061200a565b60405180910390fd5b805181602001fd5b63150b7a0260e01b7bffffffffffffffffffffffffffffffffffffffffffffffffffffffff1916817bffffffffffffffffffffffffffffffffffffffffffffffffffffffff191614915050611642565b600190505b949350505050565b600080823b905060008111915050919050565b600061167061166b84612216565b6121e5565b90508281526020810184848401111561168857600080fd5b6116938482856123b8565b509392505050565b6000813590506116aa81612573565b92915050565b6000813590506116bf8161258a565b92915050565b6000813590506116d4816125a1565b92915050565b6000815190506116e9816125a1565b92915050565b600082601f83011261170057600080fd5b813561171084826020860161165d565b91505092915050565b600081359050611728816125b8565b92915050565b60006020828403121561174057600080fd5b600061174e8482850161169b565b91505092915050565b6000806040838503121561176a57600080fd5b60006117788582860161169b565b92505060206117898582860161169b565b9150509250929050565b6000806000606084860312156117a857600080fd5b60006117b68682870161169b565b93505060206117c78682870161169b565b92505060406117d886828701611719565b9150509250925092565b600080600080608085870312156117f857600080fd5b60006118068782880161169b565b94505060206118178782880161169b565b935050604061182887828801611719565b925050606085013567ffffffffffffffff81111561184557600080fd5b611851878288016116ef565b91505092959194509250565b6000806040838503121561187057600080fd5b600061187e8582860161169b565b925050602061188f858286016116b0565b9150509250929050565b600080604083850312156118ac57600080fd5b60006118ba8582860161169b565b92505060206118cb85828601611719565b9150509250929050565b6000602082840312156118e757600080fd5b60006118f5848285016116c5565b91505092915050565b60006020828403121561191057600080fd5b600061191e848285016116da565b91505092915050565b60006020828403121561193957600080fd5b600061194784828501611719565b91505092915050565b61195981612344565b82525050565b61196881612356565b82525050565b600061197982612246565b611983818561225c565b93506119938185602086016123c7565b61199c81612562565b840191505092915050565b60006119b282612251565b6119bc818561226d565b93506119cc8185602086016123c7565b6119d581612562565b840191505092915050565b60006119eb82612251565b6119f5818561227e565b9350611a058185602086016123c7565b80840191505092915050565b6000611a1e60328361226d565b91507f4552433732313a207472616e7366657220746f206e6f6e20455243373231526560008301527f63656976657220696d706c656d656e74657200000000000000000000000000006020830152604082019050919050565b6000611a84601c8361226d565b91507f4552433732313a20746f6b656e20616c7265616479206d696e746564000000006000830152602082019050919050565b6000611ac460248361226d565b91507f4552433732313a207472616e7366657220746f20746865207a65726f2061646460008301527f72657373000000000000000000000000000000000000000000000000000000006020830152604082019050919050565b6000611b2a60198361226d565b91507f4552433732313a20617070726f766520746f2063616c6c6572000000000000006000830152602082019050919050565b6000611b6a602c8361226d565b91507f4552433732313a206f70657261746f7220717565727920666f72206e6f6e657860008301527f697374656e7420746f6b656e00000000000000000000000000000000000000006020830152604082019050919050565b6000611bd060388361226d565b91507f4552433732313a20617070726f76652063616c6c6572206973206e6f74206f7760008301527f6e6572206e6f7220617070726f76656420666f7220616c6c00000000000000006020830152604082019050919050565b6000611c36602a8361226d565b91507f4552433732313a2062616c616e636520717565727920666f7220746865207a6560008301527f726f2061646472657373000000000000000000000000000000000000000000006020830152604082019050919050565b6000611c9c60298361226d565b91507f4552433732313a206f776e657220717565727920666f72206e6f6e657869737460008301527f656e7420746f6b656e00000000000000000000000000000000000000000000006020830152604082019050919050565b6000611d0260208361226d565b91507f4552433732313a206d696e7420746f20746865207a65726f20616464726573736000830152602082019050919050565b6000611d42602c8361226d565b91507f4552433732313a20617070726f76656420717565727920666f72206e6f6e657860008301527f697374656e7420746f6b656e00000000000000000000000000000000000000006020830152604082019050919050565b6000611da860298361226d565b91507f4552433732313a207472616e73666572206f6620746f6b656e2074686174206960008301527f73206e6f74206f776e00000000000000000000000000000000000000000000006020830152604082019050919050565b6000611e0e602f8361226d565b91507f4552433732314d657461646174613a2055524920717565727920666f72206e6f60008301527f6e6578697374656e7420746f6b656e00000000000000000000000000000000006020830152604082019050919050565b6000611e7460218361226d565b91507f4552433732313a20617070726f76616c20746f2063757272656e74206f776e6560008301527f72000000000000000000000000000000000000000000000000000000000000006020830152604082019050919050565b6000611eda60318361226d565b91507f4552433732313a207472616e736665722063616c6c6572206973206e6f74206f60008301527f776e6572206e6f7220617070726f7665640000000000000000000000000000006020830152604082019050919050565b611f3c816123ae565b82525050565b6000611f4e82856119e0565b9150611f5a82846119e0565b91508190509392505050565b6000602082019050611f7b6000830184611950565b92915050565b6000608082019050611f966000830187611950565b611fa36020830186611950565b611fb06040830185611f33565b8181036060830152611fc2818461196e565b905095945050505050565b6000602082019050611fe2600083018461195f565b92915050565b6000602082019050818103600083015261200281846119a7565b905092915050565b6000602082019050818103600083015261202381611a11565b9050919050565b6000602082019050818103600083015261204381611a77565b9050919050565b6000602082019050818103600083015261206381611ab7565b9050919050565b6000602082019050818103600083015261208381611b1d565b9050919050565b600060208201905081810360008301526120a381611b5d565b9050919050565b600060208201905081810360008301526120c381611bc3565b9050919050565b600060208201905081810360008301526120e381611c29565b9050919050565b6000602082019050818103600083015261210381611c8f565b9050919050565b6000602082019050818103600083015261212381611cf5565b9050919050565b6000602082019050818103600083015261214381611d35565b9050919050565b6000602082019050818103600083015261216381611d9b565b9050919050565b6000602082019050818103600083015261218381611e01565b9050919050565b600060208201905081810360008301526121a381611e67565b9050919050565b600060208201905081810360008301526121c381611ecd565b9050919050565b60006020820190506121df6000830184611f33565b92915050565b6000604051905081810181811067ffffffffffffffff8211171561220c5761220b612533565b5b8060405250919050565b600067ffffffffffffffff82111561223157612230612533565b5b601f19601f8301169050602081019050919050565b600081519050919050565b600081519050919050565b600082825260208201905092915050565b600082825260208201905092915050565b600081905092915050565b6000612294826123ae565b915061229f836123ae565b9250827fffffffffffffffffffffffffffffffffffffffffffffffffffffffffffffffff038211156122d4576122d36124a6565b5b828201905092915050565b60006122ea826123ae565b91506122f5836123ae565b925082612305576123046124d5565b5b828204905092915050565b600061231b826123ae565b9150612326836123ae565b925082821015612339576123386124a6565b5b828203905092915050565b600061234f8261238e565b9050919050565b60008115159050919050565b60007fffffffff0000000000000000000000000000000000000000000000000000000082169050919050565b600073ffffffffffffffffffffffffffffffffffffffff82169050919050565b6000819050919050565b82818337600083830152505050565b60005b838110156123e55780820151818401526020810190506123ca565b838111156123f4576000848401525b50505050565b6000600282049050600182168061241257607f821691505b6020821081141561242657612425612504565b5b50919050565b6000612437826123ae565b91507fffffffffffffffffffffffffffffffffffffffffffffffffffffffffffffffff82141561246a576124696124a6565b5b600182019050919050565b6000612480826123ae565b915061248b836123ae565b92508261249b5761249a6124d5565b5b828206905092915050565b7f4e487b7100000000000000000000000000000000000000000000000000000000600052601160045260246000fd5b7f4e487b7100000000000000000000000000000000000000000000000000000000600052601260045260246000fd5b7f4e487b7100000000000000000000000000000000000000000000000000000000600052602260045260246000fd5b7f4e487b7100000000000000000000000000000000000000000000000000000000600052604160045260246000fd5b6000601f19601f8301169050919050565b61257c81612344565b811461258757600080fd5b50565b61259381612356565b811461259e57600080fd5b50565b6125aa81612362565b81146125b557600080fd5b50565b6125c1816123ae565b81146125cc57600080fd5b5056fea2646970667358221220c42474c2e74aa3f04c5868b5d32806e2989ef496154a4eaf2d5ed2c1db1e064a64736f6c63430008000033",
  "linkReferences": {},
  "deployedLinkReferences": {}
}