{
  "_format": "hh-sol-artifact-1",
  "contractName": "MonFT",
  "sourceName": "contracts/MonFT.sol",
  "abi": [
    {
      "inputs": [],
      "stateMutability": "nonpayable",
      "type": "constructor"
    },
    {
      "anonymous": false,
      "inputs": [
        {
          "indexed": true,
          "internalType": "address",
          "name": "owner",
          "type": "address"
        },
        {
          "indexed": true,
          "internalType": "address",
          "name": "approved",
          "type": "address"
        },
        {
          "indexed": true,
          "internalType": "uint256",
          "name": "tokenId",
          "type": "uint256"
        }
      ],
      "name": "Approval",
      "type": "event"
    },
    {
      "anonymous": false,
      "inputs": [
        {
          "indexed": true,
          "internalType": "address",
          "name": "owner",
          "type": "address"
        },
        {
          "indexed": true,
          "internalType": "address",
          "name": "operator",
          "type": "address"
        },
        {
          "indexed": false,
          "internalType": "bool",
          "name": "approved",
          "type": "bool"
        }
      ],
      "name": "ApprovalForAll",
      "type": "event"
    },
    {
      "anonymous": false,
      "inputs": [
        {
          "indexed": true,
          "internalType": "address",
          "name": "from",
          "type": "address"
        },
        {
          "indexed": true,
          "internalType": "address",
          "name": "to",
          "type": "address"
        },
        {
          "indexed": true,
          "internalType": "uint256",
          "name": "tokenId",
          "type": "uint256"
        }
      ],
      "name": "Transfer",
      "type": "event"
    },
    {
      "inputs": [
        {
          "internalType": "address",
          "name": "to",
          "type": "address"
        },
        {
          "internalType": "uint256",
          "name": "tokenId",
          "type": "uint256"
        }
      ],
      "name": "approve",
      "outputs": [],
      "stateMutability": "nonpayable",
      "type": "function"
    },
    {
      "inputs": [
        {
          "internalType": "address",
          "name": "owner",
          "type": "address"
        }
      ],
      "name": "balanceOf",
      "outputs": [
        {
          "internalType": "uint256",
          "name": "",
          "type": "uint256"
        }
      ],
      "stateMutability": "view",
      "type": "function"
    },
    {
      "inputs": [
        {
          "internalType": "uint256",
          "name": "",
          "type": "uint256"
        }
      ],
      "name": "geneSequences",
      "outputs": [
        {
          "internalType": "uint256",
          "name": "",
          "type": "uint256"
        }
      ],
      "stateMutability": "view",
      "type": "function"
    },
    {
      "inputs": [],
      "name": "generateGeneSequence",
      "outputs": [
        {
          "internalType": "uint256",
          "name": "",
          "type": "uint256"
        }
      ],
      "stateMutability": "view",
      "type": "function"
    },
    {
      "inputs": [],
      "name": "generateRandomNumber",
      "outputs": [
        {
          "internalType": "uint256",
          "name": "",
          "type": "uint256"
        }
      ],
      "stateMutability": "view",
      "type": "function"
    },
    {
      "inputs": [
        {
          "internalType": "uint256",
          "name": "tokenId",
          "type": "uint256"
        }
      ],
      "name": "getApproved",
      "outputs": [
        {
          "internalType": "address",
          "name": "",
          "type": "address"
        }
      ],
      "stateMutability": "view",
      "type": "function"
    },
    {
      "inputs": [
        {
          "internalType": "address",
          "name": "owner",
          "type": "address"
        },
        {
          "internalType": "address",
          "name": "operator",
          "type": "address"
        }
      ],
      "name": "isApprovedForAll",
      "outputs": [
        {
          "internalType": "bool",
          "name": "",
          "type": "bool"
        }
      ],
      "stateMutability": "view",
      "type": "function"
    },
    {
      "inputs": [],
      "name": "mintMon",
      "outputs": [
        {
          "internalType": "uint256",
          "name": "",
          "type": "uint256"
        }
      ],
      "stateMutability": "nonpayable",
      "type": "function"
    },
    {
      "inputs": [
        {
          "internalType": "uint256",
          "name": "tokenId",
          "type": "uint256"
        }
      ],
      "name": "mutate",
      "outputs": [],
      "stateMutability": "nonpayable",
      "type": "function"
    },
    {
      "inputs": [],
      "name": "name",
      "outputs": [
        {
          "internalType": "string",
          "name": "",
          "type": "string"
        }
      ],
      "stateMutability": "view",
      "type": "function"
    },
    {
      "inputs": [
        {
          "internalType": "uint256",
          "name": "tokenId",
          "type": "uint256"
        }
      ],
      "name": "ownerOf",
      "outputs": [
        {
          "internalType": "address",
          "name": "",
          "type": "address"
        }
      ],
      "stateMutability": "view",
      "type": "function"
    },
    {
      "inputs": [
        {
          "internalType": "address",
          "name": "from",
          "type": "address"
        },
        {
          "internalType": "address",
          "name": "to",
          "type": "address"
        },
        {
          "internalType": "uint256",
          "name": "tokenId",
          "type": "uint256"
        }
      ],
      "name": "safeTransferFrom",
      "outputs": [],
      "stateMutability": "nonpayable",
      "type": "function"
    },
    {
      "inputs": [
        {
          "internalType": "address",
          "name": "from",
          "type": "address"
        },
        {
          "internalType": "address",
          "name": "to",
          "type": "address"
        },
        {
          "internalType": "uint256",
          "name": "tokenId",
          "type": "uint256"
        },
        {
          "internalType": "bytes",
          "name": "_data",
          "type": "bytes"
        }
      ],
      "name": "safeTransferFrom",
      "outputs": [],
      "stateMutability": "nonpayable",
      "type": "function"
    },
    {
      "inputs": [
        {
          "internalType": "address",
          "name": "operator",
          "type": "address"
        },
        {
          "internalType": "bool",
          "name": "approved",
          "type": "bool"
        }
      ],
      "name": "setApprovalForAll",
      "outputs": [],
      "stateMutability": "nonpayable",
      "type": "function"
    },
    {
      "inputs": [
        {
          "internalType": "bytes4",
          "name": "interfaceId",
          "type": "bytes4"
        }
      ],
      "name": "supportsInterface",
      "outputs": [
        {
          "internalType": "bool",
          "name": "",
          "type": "bool"
        }
      ],
      "stateMutability": "view",
      "type": "function"
    },
    {
      "inputs": [],
      "name": "symbol",
      "outputs": [
        {
          "internalType": "string",
          "name": "",
          "type": "string"
        }
      ],
      "stateMutability": "view",
      "type": "function"
    },
    {
      "inputs": [
        {
          "internalType": "uint256",
          "name": "tokenId",
          "type": "uint256"
        }
      ],
      "name": "tokenURI",
      "outputs": [
        {
          "internalType": "string",
          "name": "",
          "type": "string"
        }
      ],
      "stateMutability": "view",
      "type": "function"
    },
    {
      "inputs": [
        {
          "internalType": "address",
          "name": "from",
          "type": "address"
        },
        {
          "internalType": "address",
          "name": "to",
          "type": "address"
        },
        {
          "internalType": "uint256",
          "name": "tokenId",
          "type": "uint256"
        }
      ],
      "name": "transferFrom",
      "outputs": [],
      "stateMutability": "nonpayable",
      "type": "function"
    },
    {
      "inputs": [
        {
          "internalType": "address",
          "name": "from",
          "type": "address"
        },
        {
          "internalType": "address",
          "name": "to",
          "type": "address"
        },
        {
          "internalType": "uint256",
          "name": "tokenId",
          "type": "uint256"
        }
      ],
      "name": "transferMon",
      "outputs": [],
      "stateMutability": "nonpayable",
      "type": "function"
    }
  ],
  "bytecode": "0x60806040523480156200001157600080fd5b506040518060400160405280600581526020017f4d6f6e46540000000000000000000000000000000000000000000000000000008152506040518060400160405280600381526020017f4d46540000000000000000000000000000000000000000000000000000000000815250816000908051906020019062000096929190620000b8565b508060019080519060200190620000af929190620000b8565b505050620001cd565b828054620000c69062000168565b90600052602060002090601f016020900481019282620000ea576000855562000136565b82601f106200010557805160ff191683800117855562000136565b8280016001018555821562000136579182015b828111156200013557825182559160200191906001019062000118565b5b50905062000145919062000149565b5090565b5b80821115620001645760008160009055506001016200014a565b5090565b600060028204905060018216806200018157607f821691505b602082108114156200019857620001976200019e565b5b50919050565b7f4e487b7100000000000000000000000000000000000000000000000000000000600052602260045260246000fd5b6127e680620001dd6000396000f3fe608060405234801561001057600080fd5b50600436106101215760003560e01c806370a08231116100ad578063b88d4fde11610071578063b88d4fde14610318578063c87b56dd14610334578063c9307fc614610364578063c9efaea414610382578063e985e9c5146103a057610121565b806370a0823114610274578063713b988b146102a4578063773a1154146102c057806395d89b41146102de578063a22cb465146102fc57610121565b80630ef1230d116100f45780630ef1230d146101c057806311e5a947146101f057806323b872dd1461020c57806342842e0e146102285780636352211e1461024457610121565b806301ffc9a71461012657806306fdde0314610156578063081812fc14610174578063095ea7b3146101a4575b600080fd5b610140600480360381019061013b9190611a7a565b6103d0565b60405161014d91906121a4565b60405180910390f35b61015e6104b2565b60405161016b91906121bf565b60405180910390f35b61018e60048036038101906101899190611acc565b610544565b60405161019b919061213d565b60405180910390f35b6101be60048036038101906101b99190611a3e565b6105c9565b005b6101da60048036038101906101d59190611acc565b6106e1565b6040516101e791906123a1565b60405180910390f35b61020a60048036038101906102059190611938565b6106f9565b005b61022660048036038101906102219190611938565b610712565b005b610242600480360381019061023d9190611938565b610772565b005b61025e60048036038101906102599190611acc565b610792565b60405161026b919061213d565b60405180910390f35b61028e600480360381019061028991906118d3565b610844565b60405161029b91906123a1565b60405180910390f35b6102be60048036038101906102b99190611acc565b6108fc565b005b6102c8610924565b6040516102d591906123a1565b60405180910390f35b6102e6610955565b6040516102f391906121bf565b60405180910390f35b61031660048036038101906103119190611a02565b6109e7565b005b610332600480360381019061032d9190611987565b610b68565b005b61034e60048036038101906103499190611acc565b610bca565b60405161035b91906121bf565b60405180910390f35b61036c610c71565b60405161037991906123a1565b60405180910390f35b61038a610c92565b60405161039791906123a1565b60405180910390f35b6103ba60048036038101906103b591906118fc565b610cdc565b6040516103c791906121a4565b60405180910390f35b60007f80ac58cd000000000000000000000000000000000000000000000000000000007bffffffffffffffffffffffffffffffffffffffffffffffffffffffff1916827bffffffffffffffffffffffffffffffffffffffffffffffffffffffff1916148061049b57507f5b5e139f000000000000000000000000000000000000000000000000000000007bffffffffffffffffffffffffffffffffffffffffffffffffffffffff1916827bffffffffffffffffffffffffffffffffffffffffffffffffffffffff1916145b806104ab57506104aa82610d70565b5b9050919050565b6060600080546104c1906125d1565b80601f01602080910402602001604051908101604052809291908181526020018280546104ed906125d1565b801561053a5780601f1061050f5761010080835404028352916020019161053a565b820191906000526020600020905b81548152906001019060200180831161051d57829003601f168201915b5050505050905090565b600061054f82610dda565b61058e576040517f08c379a000000000000000000000000000000000000000000000000000000000815260040161058590612301565b60405180910390fd5b6004600083815260200190815260200160002060009054906101000a900473ffffffffffffffffffffffffffffffffffffffff169050919050565b60006105d482610792565b90508073ffffffffffffffffffffffffffffffffffffffff168373ffffffffffffffffffffffffffffffffffffffff161415610645576040517f08c379a000000000000000000000000000000000000000000000000000000000815260040161063c90612361565b60405180910390fd5b8073ffffffffffffffffffffffffffffffffffffffff16610664610e46565b73ffffffffffffffffffffffffffffffffffffffff16148061069357506106928161068d610e46565b610cdc565b5b6106d2576040517f08c379a00000000000000000000000000000000000000000000000000000000081526004016106c990612281565b60405180910390fd5b6106dc8383610e4e565b505050565b60076020528060005260406000206000915090505481565b610702816108fc565b61070d838383610772565b505050565b61072361071d610e46565b82610f07565b610762576040517f08c379a000000000000000000000000000000000000000000000000000000000815260040161075990612381565b60405180910390fd5b61076d838383610fe5565b505050565b61078d83838360405180602001604052806000815250610b68565b505050565b6000806002600084815260200190815260200160002060009054906101000a900473ffffffffffffffffffffffffffffffffffffffff169050600073ffffffffffffffffffffffffffffffffffffffff168173ffffffffffffffffffffffffffffffffffffffff16141561083b576040517f08c379a0000000000000000000000000000000000000000000000000000000008152600401610832906122c1565b60405180910390fd5b80915050919050565b60008073ffffffffffffffffffffffffffffffffffffffff168273ffffffffffffffffffffffffffffffffffffffff1614156108b5576040517f08c379a00000000000000000000000000000000000000000000000000000000081526004016108ac906122a1565b60405180910390fd5b600360008373ffffffffffffffffffffffffffffffffffffffff1673ffffffffffffffffffffffffffffffffffffffff168152602001908152602001600020549050919050565b6000610906610c71565b90508060076000848152602001908152602001600020819055505050565b6000436040516020016109379190612122565b6040516020818303038152906040528051906020012060001c905090565b606060018054610964906125d1565b80601f0160208091040260200160405190810160405280929190818152602001828054610990906125d1565b80156109dd5780601f106109b2576101008083540402835291602001916109dd565b820191906000526020600020905b8154815290600101906020018083116109c057829003601f168201915b5050505050905090565b6109ef610e46565b73ffffffffffffffffffffffffffffffffffffffff168273ffffffffffffffffffffffffffffffffffffffff161415610a5d576040517f08c379a0000000000000000000000000000000000000000000000000000000008152600401610a5490612241565b60405180910390fd5b8060056000610a6a610e46565b73ffffffffffffffffffffffffffffffffffffffff1673ffffffffffffffffffffffffffffffffffffffff16815260200190815260200160002060008473ffffffffffffffffffffffffffffffffffffffff1673ffffffffffffffffffffffffffffffffffffffff16815260200190815260200160002060006101000a81548160ff0219169083151502179055508173ffffffffffffffffffffffffffffffffffffffff16610b17610e46565b73ffffffffffffffffffffffffffffffffffffffff167f17307eab39ab6107e8899845ad3d59bd9653f200f220920489ca2b5937696c3183604051610b5c91906121a4565b60405180910390a35050565b610b79610b73610e46565b83610f07565b610bb8576040517f08c379a0000000000000000000000000000000000000000000000000000000008152600401610baf90612381565b60405180910390fd5b610bc484848484611241565b50505050565b6060610bd582610dda565b610c14576040517f08c379a0000000000000000000000000000000000000000000000000000000008152600401610c0b90612341565b60405180910390fd5b6000610c1e61129d565b90506000815111610c3e5760405180602001604052806000815250610c69565b80610c48846112b4565b604051602001610c599291906120fe565b6040516020818303038152906040525b915050919050565b600080612710610c7f610924565b610c899190612656565b90508091505090565b6000610c9e6006611461565b6000610caa6006611477565b9050610cb4610c71565b6007600083815260200190815260200160002081905550610cd53382611485565b8091505090565b6000600560008473ffffffffffffffffffffffffffffffffffffffff1673ffffffffffffffffffffffffffffffffffffffff16815260200190815260200160002060008373ffffffffffffffffffffffffffffffffffffffff1673ffffffffffffffffffffffffffffffffffffffff16815260200190815260200160002060009054906101000a900460ff16905092915050565b60007f01ffc9a7000000000000000000000000000000000000000000000000000000007bffffffffffffffffffffffffffffffffffffffffffffffffffffffff1916827bffffffffffffffffffffffffffffffffffffffffffffffffffffffff1916149050919050565b60008073ffffffffffffffffffffffffffffffffffffffff166002600084815260200190815260200160002060009054906101000a900473ffffffffffffffffffffffffffffffffffffffff1673ffffffffffffffffffffffffffffffffffffffff1614159050919050565b600033905090565b816004600083815260200190815260200160002060006101000a81548173ffffffffffffffffffffffffffffffffffffffff021916908373ffffffffffffffffffffffffffffffffffffffff160217905550808273ffffffffffffffffffffffffffffffffffffffff16610ec183610792565b73ffffffffffffffffffffffffffffffffffffffff167f8c5be1e5ebec7d5bd14f71427d1e84f3dd0314c0f7b2291e5b200ac8c7c3b92560405160405180910390a45050565b6000610f1282610dda565b610f51576040517f08c379a0000000000000000000000000000000000000000000000000000000008152600401610f4890612261565b60405180910390fd5b6000610f5c83610792565b90508073ffffffffffffffffffffffffffffffffffffffff168473ffffffffffffffffffffffffffffffffffffffff161480610fcb57508373ffffffffffffffffffffffffffffffffffffffff16610fb384610544565b73ffffffffffffffffffffffffffffffffffffffff16145b80610fdc5750610fdb8185610cdc565b5b91505092915050565b8273ffffffffffffffffffffffffffffffffffffffff1661100582610792565b73ffffffffffffffffffffffffffffffffffffffff161461105b576040517f08c379a000000000000000000000000000000000000000000000000000000000815260040161105290612321565b60405180910390fd5b600073ffffffffffffffffffffffffffffffffffffffff168273ffffffffffffffffffffffffffffffffffffffff1614156110cb576040517f08c379a00000000000000000000000000000000000000000000000000000000081526004016110c290612221565b60405180910390fd5b6110d6838383611653565b6110e1600082610e4e565b6001600360008573ffffffffffffffffffffffffffffffffffffffff1673ffffffffffffffffffffffffffffffffffffffff168152602001908152602001600020600082825461113191906124e7565b925050819055506001600360008473ffffffffffffffffffffffffffffffffffffffff1673ffffffffffffffffffffffffffffffffffffffff16815260200190815260200160002060008282546111889190612460565b92505081905550816002600083815260200190815260200160002060006101000a81548173ffffffffffffffffffffffffffffffffffffffff021916908373ffffffffffffffffffffffffffffffffffffffff160217905550808273ffffffffffffffffffffffffffffffffffffffff168473ffffffffffffffffffffffffffffffffffffffff167fddf252ad1be2c89b69c2b068fc378daa952ba7f163c4a11628f55a4df523b3ef60405160405180910390a4505050565b61124c848484610fe5565b61125884848484611658565b611297576040517f08c379a000000000000000000000000000000000000000000000000000000000815260040161128e906121e1565b60405180910390fd5b50505050565b606060405180602001604052806000815250905090565b606060008214156112fc576040518060400160405280600181526020017f3000000000000000000000000000000000000000000000000000000000000000815250905061145c565b600082905060005b6000821461132e57808061131790612603565b915050600a8261132791906124b6565b9150611304565b60008167ffffffffffffffff811115611370577f4e487b7100000000000000000000000000000000000000000000000000000000600052604160045260246000fd5b6040519080825280601f01601f1916602001820160405280156113a25781602001600182028036833780820191505090505b5090505b60008514611455576001826113bb91906124e7565b9150600a856113ca9190612656565b60306113d69190612460565b60f81b818381518110611412577f4e487b7100000000000000000000000000000000000000000000000000000000600052603260045260246000fd5b60200101907effffffffffffffffffffffffffffffffffffffffffffffffffffffffffffff1916908160001a905350600a8561144e91906124b6565b94506113a6565b8093505050505b919050565b6001816000016000828254019250508190555050565b600081600001549050919050565b600073ffffffffffffffffffffffffffffffffffffffff168273ffffffffffffffffffffffffffffffffffffffff1614156114f5576040517f08c379a00000000000000000000000000000000000000000000000000000000081526004016114ec906122e1565b60405180910390fd5b6114fe81610dda565b1561153e576040517f08c379a000000000000000000000000000000000000000000000000000000000815260040161153590612201565b60405180910390fd5b61154a60008383611653565b6001600360008473ffffffffffffffffffffffffffffffffffffffff1673ffffffffffffffffffffffffffffffffffffffff168152602001908152602001600020600082825461159a9190612460565b92505081905550816002600083815260200190815260200160002060006101000a81548173ffffffffffffffffffffffffffffffffffffffff021916908373ffffffffffffffffffffffffffffffffffffffff160217905550808273ffffffffffffffffffffffffffffffffffffffff16600073ffffffffffffffffffffffffffffffffffffffff167fddf252ad1be2c89b69c2b068fc378daa952ba7f163c4a11628f55a4df523b3ef60405160405180910390a45050565b505050565b60006116798473ffffffffffffffffffffffffffffffffffffffff166117ef565b156117e2578373ffffffffffffffffffffffffffffffffffffffff1663150b7a026116a2610e46565b8786866040518563ffffffff1660e01b81526004016116c49493929190612158565b602060405180830381600087803b1580156116de57600080fd5b505af192505050801561170f57506040513d601f19601f8201168201806040525081019061170c9190611aa3565b60015b611792573d806000811461173f576040519150601f19603f3d011682016040523d82523d6000602084013e611744565b606091505b5060008151141561178a576040517f08c379a0000000000000000000000000000000000000000000000000000000008152600401611781906121e1565b60405180910390fd5b805181602001fd5b63150b7a0260e01b7bffffffffffffffffffffffffffffffffffffffffffffffffffffffff1916817bffffffffffffffffffffffffffffffffffffffffffffffffffffffff1916149150506117e7565b600190505b949350505050565b600080823b905060008111915050919050565b6000611815611810846123ed565b6123bc565b90508281526020810184848401111561182d57600080fd5b61183884828561258f565b509392505050565b60008135905061184f81612754565b92915050565b6000813590506118648161276b565b92915050565b60008135905061187981612782565b92915050565b60008151905061188e81612782565b92915050565b600082601f8301126118a557600080fd5b81356118b5848260208601611802565b91505092915050565b6000813590506118cd81612799565b92915050565b6000602082840312156118e557600080fd5b60006118f384828501611840565b91505092915050565b6000806040838503121561190f57600080fd5b600061191d85828601611840565b925050602061192e85828601611840565b9150509250929050565b60008060006060848603121561194d57600080fd5b600061195b86828701611840565b935050602061196c86828701611840565b925050604061197d868287016118be565b9150509250925092565b6000806000806080858703121561199d57600080fd5b60006119ab87828801611840565b94505060206119bc87828801611840565b93505060406119cd878288016118be565b925050606085013567ffffffffffffffff8111156119ea57600080fd5b6119f687828801611894565b91505092959194509250565b60008060408385031215611a1557600080fd5b6000611a2385828601611840565b9250506020611a3485828601611855565b9150509250929050565b60008060408385031215611a5157600080fd5b6000611a5f85828601611840565b9250506020611a70858286016118be565b9150509250929050565b600060208284031215611a8c57600080fd5b6000611a9a8482850161186a565b91505092915050565b600060208284031215611ab557600080fd5b6000611ac38482850161187f565b91505092915050565b600060208284031215611ade57600080fd5b6000611aec848285016118be565b91505092915050565b611afe8161251b565b82525050565b611b0d8161252d565b82525050565b6000611b1e8261241d565b611b288185612433565b9350611b3881856020860161259e565b611b4181612743565b840191505092915050565b6000611b5782612428565b611b618185612444565b9350611b7181856020860161259e565b611b7a81612743565b840191505092915050565b6000611b9082612428565b611b9a8185612455565b9350611baa81856020860161259e565b80840191505092915050565b6000611bc3603283612444565b91507f4552433732313a207472616e7366657220746f206e6f6e20455243373231526560008301527f63656976657220696d706c656d656e74657200000000000000000000000000006020830152604082019050919050565b6000611c29601c83612444565b91507f4552433732313a20746f6b656e20616c7265616479206d696e746564000000006000830152602082019050919050565b6000611c69602483612444565b91507f4552433732313a207472616e7366657220746f20746865207a65726f2061646460008301527f72657373000000000000000000000000000000000000000000000000000000006020830152604082019050919050565b6000611ccf601983612444565b91507f4552433732313a20617070726f766520746f2063616c6c6572000000000000006000830152602082019050919050565b6000611d0f602c83612444565b91507f4552433732313a206f70657261746f7220717565727920666f72206e6f6e657860008301527f697374656e7420746f6b656e00000000000000000000000000000000000000006020830152604082019050919050565b6000611d75603883612444565b91507f4552433732313a20617070726f76652063616c6c6572206973206e6f74206f7760008301527f6e6572206e6f7220617070726f76656420666f7220616c6c00000000000000006020830152604082019050919050565b6000611ddb602a83612444565b91507f4552433732313a2062616c616e636520717565727920666f7220746865207a6560008301527f726f2061646472657373000000000000000000000000000000000000000000006020830152604082019050919050565b6000611e41602983612444565b91507f4552433732313a206f776e657220717565727920666f72206e6f6e657869737460008301527f656e7420746f6b656e00000000000000000000000000000000000000000000006020830152604082019050919050565b6000611ea7602083612444565b91507f4552433732313a206d696e7420746f20746865207a65726f20616464726573736000830152602082019050919050565b6000611ee7602c83612444565b91507f4552433732313a20617070726f76656420717565727920666f72206e6f6e657860008301527f697374656e7420746f6b656e00000000000000000000000000000000000000006020830152604082019050919050565b6000611f4d602983612444565b91507f4552433732313a207472616e73666572206f6620746f6b656e2074686174206960008301527f73206e6f74206f776e00000000000000000000000000000000000000000000006020830152604082019050919050565b6000611fb3602f83612444565b91507f4552433732314d657461646174613a2055524920717565727920666f72206e6f60008301527f6e6578697374656e7420746f6b656e00000000000000000000000000000000006020830152604082019050919050565b6000612019602183612444565b91507f4552433732313a20617070726f76616c20746f2063757272656e74206f776e6560008301527f72000000000000000000000000000000000000000000000000000000000000006020830152604082019050919050565b600061207f603183612444565b91507f4552433732313a207472616e736665722063616c6c6572206973206e6f74206f60008301527f776e6572206e6f7220617070726f7665640000000000000000000000000000006020830152604082019050919050565b6120e181612585565b82525050565b6120f86120f382612585565b61264c565b82525050565b600061210a8285611b85565b91506121168284611b85565b91508190509392505050565b600061212e82846120e7565b60208201915081905092915050565b60006020820190506121526000830184611af5565b92915050565b600060808201905061216d6000830187611af5565b61217a6020830186611af5565b61218760408301856120d8565b81810360608301526121998184611b13565b905095945050505050565b60006020820190506121b96000830184611b04565b92915050565b600060208201905081810360008301526121d98184611b4c565b905092915050565b600060208201905081810360008301526121fa81611bb6565b9050919050565b6000602082019050818103600083015261221a81611c1c565b9050919050565b6000602082019050818103600083015261223a81611c5c565b9050919050565b6000602082019050818103600083015261225a81611cc2565b9050919050565b6000602082019050818103600083015261227a81611d02565b9050919050565b6000602082019050818103600083015261229a81611d68565b9050919050565b600060208201905081810360008301526122ba81611dce565b9050919050565b600060208201905081810360008301526122da81611e34565b9050919050565b600060208201905081810360008301526122fa81611e9a565b9050919050565b6000602082019050818103600083015261231a81611eda565b9050919050565b6000602082019050818103600083015261233a81611f40565b9050919050565b6000602082019050818103600083015261235a81611fa6565b9050919050565b6000602082019050818103600083015261237a8161200c565b9050919050565b6000602082019050818103600083015261239a81612072565b9050919050565b60006020820190506123b660008301846120d8565b92915050565b6000604051905081810181811067ffffffffffffffff821117156123e3576123e2612714565b5b8060405250919050565b600067ffffffffffffffff82111561240857612407612714565b5b601f19601f8301169050602081019050919050565b600081519050919050565b600081519050919050565b600082825260208201905092915050565b600082825260208201905092915050565b600081905092915050565b600061246b82612585565b915061247683612585565b9250827fffffffffffffffffffffffffffffffffffffffffffffffffffffffffffffffff038211156124ab576124aa612687565b5b828201905092915050565b60006124c182612585565b91506124cc83612585565b9250826124dc576124db6126b6565b5b828204905092915050565b60006124f282612585565b91506124fd83612585565b9250828210156125105761250f612687565b5b828203905092915050565b600061252682612565565b9050919050565b60008115159050919050565b60007fffffffff0000000000000000000000000000000000000000000000000000000082169050919050565b600073ffffffffffffffffffffffffffffffffffffffff82169050919050565b6000819050919050565b82818337600083830152505050565b60005b838110156125bc5780820151818401526020810190506125a1565b838111156125cb576000848401525b50505050565b600060028204905060018216806125e957607f821691505b602082108114156125fd576125fc6126e5565b5b50919050565b600061260e82612585565b91507fffffffffffffffffffffffffffffffffffffffffffffffffffffffffffffffff82141561264157612640612687565b5b600182019050919050565b6000819050919050565b600061266182612585565b915061266c83612585565b92508261267c5761267b6126b6565b5b828206905092915050565b7f4e487b7100000000000000000000000000000000000000000000000000000000600052601160045260246000fd5b7f4e487b7100000000000000000000000000000000000000000000000000000000600052601260045260246000fd5b7f4e487b7100000000000000000000000000000000000000000000000000000000600052602260045260246000fd5b7f4e487b7100000000000000000000000000000000000000000000000000000000600052604160045260246000fd5b6000601f19601f8301169050919050565b61275d8161251b565b811461276857600080fd5b50565b6127748161252d565b811461277f57600080fd5b50565b61278b81612539565b811461279657600080fd5b50565b6127a281612585565b81146127ad57600080fd5b5056fea26469706673582212201d54fdd310a40d5b189a4b69cfa2999e29d88b77a85013c2f4a27c3c2e7f2d0d64736f6c63430008000033",
  "linkReferences": {},
  "deployedLinkReferences": {}
}