{
  "_format": "hh-sol-artifact-1",
  "contractName": "MonFT",
  "sourceName": "contracts/MonFT.sol",
  "abi": [
    {
      "inputs": [],
      "stateMutability": "nonpayable",
      "type": "constructor"
    },
    {
      "anonymous": false,
      "inputs": [
        {
          "indexed": true,
          "internalType": "address",
          "name": "owner",
          "type": "address"
        },
        {
          "indexed": true,
          "internalType": "address",
          "name": "approved",
          "type": "address"
        },
        {
          "indexed": true,
          "internalType": "uint256",
          "name": "tokenId",
          "type": "uint256"
        }
      ],
      "name": "Approval",
      "type": "event"
    },
    {
      "anonymous": false,
      "inputs": [
        {
          "indexed": true,
          "internalType": "address",
          "name": "owner",
          "type": "address"
        },
        {
          "indexed": true,
          "internalType": "address",
          "name": "operator",
          "type": "address"
        },
        {
          "indexed": false,
          "internalType": "bool",
          "name": "approved",
          "type": "bool"
        }
      ],
      "name": "ApprovalForAll",
      "type": "event"
    },
    {
      "anonymous": false,
      "inputs": [
        {
          "indexed": true,
          "internalType": "address",
          "name": "from",
          "type": "address"
        },
        {
          "indexed": true,
          "internalType": "address",
          "name": "to",
          "type": "address"
        },
        {
          "indexed": true,
          "internalType": "uint256",
          "name": "tokenId",
          "type": "uint256"
        }
      ],
      "name": "Transfer",
      "type": "event"
    },
    {
      "inputs": [
        {
          "internalType": "address",
          "name": "to",
          "type": "address"
        },
        {
          "internalType": "uint256",
          "name": "tokenId",
          "type": "uint256"
        }
      ],
      "name": "approve",
      "outputs": [],
      "stateMutability": "nonpayable",
      "type": "function"
    },
    {
      "inputs": [
        {
          "internalType": "address",
          "name": "owner",
          "type": "address"
        }
      ],
      "name": "balanceOf",
      "outputs": [
        {
          "internalType": "uint256",
          "name": "",
          "type": "uint256"
        }
      ],
      "stateMutability": "view",
      "type": "function"
    },
    {
      "inputs": [
        {
          "internalType": "uint256",
          "name": "",
          "type": "uint256"
        }
      ],
      "name": "geneSequences",
      "outputs": [
        {
          "internalType": "uint256",
          "name": "",
          "type": "uint256"
        }
      ],
      "stateMutability": "view",
      "type": "function"
    },
    {
      "inputs": [],
      "name": "generateGeneSequence",
      "outputs": [
        {
          "internalType": "uint256",
          "name": "",
          "type": "uint256"
        }
      ],
      "stateMutability": "nonpayable",
      "type": "function"
    },
    {
      "inputs": [
        {
          "internalType": "uint256",
          "name": "tokenId",
          "type": "uint256"
        }
      ],
      "name": "getApproved",
      "outputs": [
        {
          "internalType": "address",
          "name": "",
          "type": "address"
        }
      ],
      "stateMutability": "view",
      "type": "function"
    },
    {
      "inputs": [
        {
          "internalType": "address",
          "name": "owner",
          "type": "address"
        },
        {
          "internalType": "address",
          "name": "operator",
          "type": "address"
        }
      ],
      "name": "isApprovedForAll",
      "outputs": [
        {
          "internalType": "bool",
          "name": "",
          "type": "bool"
        }
      ],
      "stateMutability": "view",
      "type": "function"
    },
    {
      "inputs": [],
      "name": "mintMon",
      "outputs": [
        {
          "internalType": "uint256",
          "name": "",
          "type": "uint256"
        }
      ],
      "stateMutability": "nonpayable",
      "type": "function"
    },
    {
      "inputs": [],
      "name": "name",
      "outputs": [
        {
          "internalType": "string",
          "name": "",
          "type": "string"
        }
      ],
      "stateMutability": "view",
      "type": "function"
    },
    {
      "inputs": [
        {
          "internalType": "uint256",
          "name": "tokenId",
          "type": "uint256"
        }
      ],
      "name": "ownerOf",
      "outputs": [
        {
          "internalType": "address",
          "name": "",
          "type": "address"
        }
      ],
      "stateMutability": "view",
      "type": "function"
    },
    {
      "inputs": [
        {
          "internalType": "address",
          "name": "from",
          "type": "address"
        },
        {
          "internalType": "address",
          "name": "to",
          "type": "address"
        },
        {
          "internalType": "uint256",
          "name": "tokenId",
          "type": "uint256"
        }
      ],
      "name": "safeTransferFrom",
      "outputs": [],
      "stateMutability": "nonpayable",
      "type": "function"
    },
    {
      "inputs": [
        {
          "internalType": "address",
          "name": "from",
          "type": "address"
        },
        {
          "internalType": "address",
          "name": "to",
          "type": "address"
        },
        {
          "internalType": "uint256",
          "name": "tokenId",
          "type": "uint256"
        },
        {
          "internalType": "bytes",
          "name": "_data",
          "type": "bytes"
        }
      ],
      "name": "safeTransferFrom",
      "outputs": [],
      "stateMutability": "nonpayable",
      "type": "function"
    },
    {
      "inputs": [
        {
          "internalType": "address",
          "name": "operator",
          "type": "address"
        },
        {
          "internalType": "bool",
          "name": "approved",
          "type": "bool"
        }
      ],
      "name": "setApprovalForAll",
      "outputs": [],
      "stateMutability": "nonpayable",
      "type": "function"
    },
    {
      "inputs": [
        {
          "internalType": "bytes4",
          "name": "interfaceId",
          "type": "bytes4"
        }
      ],
      "name": "supportsInterface",
      "outputs": [
        {
          "internalType": "bool",
          "name": "",
          "type": "bool"
        }
      ],
      "stateMutability": "view",
      "type": "function"
    },
    {
      "inputs": [],
      "name": "symbol",
      "outputs": [
        {
          "internalType": "string",
          "name": "",
          "type": "string"
        }
      ],
      "stateMutability": "view",
      "type": "function"
    },
    {
      "inputs": [
        {
          "internalType": "uint256",
          "name": "tokenId",
          "type": "uint256"
        }
      ],
      "name": "tokenURI",
      "outputs": [
        {
          "internalType": "string",
          "name": "",
          "type": "string"
        }
      ],
      "stateMutability": "view",
      "type": "function"
    },
    {
      "inputs": [
        {
          "internalType": "address",
          "name": "from",
          "type": "address"
        },
        {
          "internalType": "address",
          "name": "to",
          "type": "address"
        },
        {
          "internalType": "uint256",
          "name": "tokenId",
          "type": "uint256"
        }
      ],
      "name": "transferFrom",
      "outputs": [],
      "stateMutability": "nonpayable",
      "type": "function"
    },
    {
      "inputs": [
        {
          "internalType": "address",
          "name": "from",
          "type": "address"
        },
        {
          "internalType": "address",
          "name": "to",
          "type": "address"
        },
        {
          "internalType": "uint256",
          "name": "tokenId",
          "type": "uint256"
        }
      ],
      "name": "transferMon",
      "outputs": [],
      "stateMutability": "nonpayable",
      "type": "function"
    }
  ],
  "bytecode": "0x60806040523480156200001157600080fd5b506040518060400160405280600581526020017f4d6f6e46540000000000000000000000000000000000000000000000000000008152506040518060400160405280600381526020017f4d46540000000000000000000000000000000000000000000000000000000000815250816000908051906020019062000096929190620000b8565b508060019080519060200190620000af929190620000b8565b505050620001cd565b828054620000c69062000168565b90600052602060002090601f016020900481019282620000ea576000855562000136565b82601f106200010557805160ff191683800117855562000136565b8280016001018555821562000136579182015b828111156200013557825182559160200191906001019062000118565b5b50905062000145919062000149565b5090565b5b80821115620001645760008160009055506001016200014a565b5090565b600060028204905060018216806200018157607f821691505b602082108114156200019857620001976200019e565b5b50919050565b7f4e487b7100000000000000000000000000000000000000000000000000000000600052602260045260246000fd5b61275780620001dd6000396000f3fe608060405234801561001057600080fd5b506004361061010b5760003560e01c80636352211e116100a2578063b88d4fde11610071578063b88d4fde146102c8578063c87b56dd146102e4578063c9307fc614610314578063c9efaea414610332578063e985e9c5146103505761010b565b80636352211e1461022e57806370a082311461025e57806395d89b411461028e578063a22cb465146102ac5761010b565b80630ef1230d116100de5780630ef1230d146101aa57806311e5a947146101da57806323b872dd146101f657806342842e0e146102125761010b565b806301ffc9a71461011057806306fdde0314610140578063081812fc1461015e578063095ea7b31461018e575b600080fd5b61012a600480360381019061012591906119eb565b610380565b6040516101379190612115565b60405180910390f35b610148610462565b6040516101559190612130565b60405180910390f35b61017860048036038101906101739190611a3d565b6104f4565b60405161018591906120ae565b60405180910390f35b6101a860048036038101906101a391906119af565b610579565b005b6101c460048036038101906101bf9190611a3d565b610691565b6040516101d19190612312565b60405180910390f35b6101f460048036038101906101ef91906118a9565b6106a9565b005b610210600480360381019061020b91906118a9565b6106b9565b005b61022c600480360381019061022791906118a9565b610719565b005b61024860048036038101906102439190611a3d565b610739565b60405161025591906120ae565b60405180910390f35b61027860048036038101906102739190611844565b6107eb565b6040516102859190612312565b60405180910390f35b6102966108a3565b6040516102a39190612130565b60405180910390f35b6102c660048036038101906102c19190611973565b610935565b005b6102e260048036038101906102dd91906118f8565b610ab6565b005b6102fe60048036038101906102f99190611a3d565b610b18565b60405161030b9190612130565b60405180910390f35b61031c610bbf565b6040516103299190612312565b60405180910390f35b61033a610c03565b6040516103479190612312565b60405180910390f35b61036a6004803603810190610365919061186d565b610c4d565b6040516103779190612115565b60405180910390f35b60007f80ac58cd000000000000000000000000000000000000000000000000000000007bffffffffffffffffffffffffffffffffffffffffffffffffffffffff1916827bffffffffffffffffffffffffffffffffffffffffffffffffffffffff1916148061044b57507f5b5e139f000000000000000000000000000000000000000000000000000000007bffffffffffffffffffffffffffffffffffffffffffffffffffffffff1916827bffffffffffffffffffffffffffffffffffffffffffffffffffffffff1916145b8061045b575061045a82610ce1565b5b9050919050565b60606000805461047190612542565b80601f016020809104026020016040519081016040528092919081815260200182805461049d90612542565b80156104ea5780601f106104bf576101008083540402835291602001916104ea565b820191906000526020600020905b8154815290600101906020018083116104cd57829003601f168201915b5050505050905090565b60006104ff82610d4b565b61053e576040517f08c379a000000000000000000000000000000000000000000000000000000000815260040161053590612272565b60405180910390fd5b6004600083815260200190815260200160002060009054906101000a900473ffffffffffffffffffffffffffffffffffffffff169050919050565b600061058482610739565b90508073ffffffffffffffffffffffffffffffffffffffff168373ffffffffffffffffffffffffffffffffffffffff1614156105f5576040517f08c379a00000000000000000000000000000000000000000000000000000000081526004016105ec906122d2565b60405180910390fd5b8073ffffffffffffffffffffffffffffffffffffffff16610614610db7565b73ffffffffffffffffffffffffffffffffffffffff16148061064357506106428161063d610db7565b610c4d565b5b610682576040517f08c379a0000000000000000000000000000000000000000000000000000000008152600401610679906121f2565b60405180910390fd5b61068c8383610dbf565b505050565b60076020528060005260406000206000915090505481565b6106b4838383610719565b505050565b6106ca6106c4610db7565b82610e78565b610709576040517f08c379a0000000000000000000000000000000000000000000000000000000008152600401610700906122f2565b60405180910390fd5b610714838383610f56565b505050565b61073483838360405180602001604052806000815250610ab6565b505050565b6000806002600084815260200190815260200160002060009054906101000a900473ffffffffffffffffffffffffffffffffffffffff169050600073ffffffffffffffffffffffffffffffffffffffff168173ffffffffffffffffffffffffffffffffffffffff1614156107e2576040517f08c379a00000000000000000000000000000000000000000000000000000000081526004016107d990612232565b60405180910390fd5b80915050919050565b60008073ffffffffffffffffffffffffffffffffffffffff168273ffffffffffffffffffffffffffffffffffffffff16141561085c576040517f08c379a000000000000000000000000000000000000000000000000000000000815260040161085390612212565b60405180910390fd5b600360008373ffffffffffffffffffffffffffffffffffffffff1673ffffffffffffffffffffffffffffffffffffffff168152602001908152602001600020549050919050565b6060600180546108b290612542565b80601f01602080910402602001604051908101604052809291908181526020018280546108de90612542565b801561092b5780601f106109005761010080835404028352916020019161092b565b820191906000526020600020905b81548152906001019060200180831161090e57829003601f168201915b5050505050905090565b61093d610db7565b73ffffffffffffffffffffffffffffffffffffffff168273ffffffffffffffffffffffffffffffffffffffff1614156109ab576040517f08c379a00000000000000000000000000000000000000000000000000000000081526004016109a2906121b2565b60405180910390fd5b80600560006109b8610db7565b73ffffffffffffffffffffffffffffffffffffffff1673ffffffffffffffffffffffffffffffffffffffff16815260200190815260200160002060008473ffffffffffffffffffffffffffffffffffffffff1673ffffffffffffffffffffffffffffffffffffffff16815260200190815260200160002060006101000a81548160ff0219169083151502179055508173ffffffffffffffffffffffffffffffffffffffff16610a65610db7565b73ffffffffffffffffffffffffffffffffffffffff167f17307eab39ab6107e8899845ad3d59bd9653f200f220920489ca2b5937696c3183604051610aaa9190612115565b60405180910390a35050565b610ac7610ac1610db7565b83610e78565b610b06576040517f08c379a0000000000000000000000000000000000000000000000000000000008152600401610afd906122f2565b60405180910390fd5b610b12848484846111b2565b50505050565b6060610b2382610d4b565b610b62576040517f08c379a0000000000000000000000000000000000000000000000000000000008152600401610b59906122b2565b60405180910390fd5b6000610b6c61120e565b90506000815111610b8c5760405180602001604052806000815250610bb7565b80610b9684611225565b604051602001610ba792919061206f565b6040516020818303038152906040525b915050919050565b600080620186a043604051602001610bd79190612093565b6040516020818303038152906040528051906020012060001c610bfa91906125c7565b90508091505090565b6000610c0f60066113d2565b6000610c1b60066113e8565b9050610c25610bbf565b6007600083815260200190815260200160002081905550610c4633826113f6565b8091505090565b6000600560008473ffffffffffffffffffffffffffffffffffffffff1673ffffffffffffffffffffffffffffffffffffffff16815260200190815260200160002060008373ffffffffffffffffffffffffffffffffffffffff1673ffffffffffffffffffffffffffffffffffffffff16815260200190815260200160002060009054906101000a900460ff16905092915050565b60007f01ffc9a7000000000000000000000000000000000000000000000000000000007bffffffffffffffffffffffffffffffffffffffffffffffffffffffff1916827bffffffffffffffffffffffffffffffffffffffffffffffffffffffff1916149050919050565b60008073ffffffffffffffffffffffffffffffffffffffff166002600084815260200190815260200160002060009054906101000a900473ffffffffffffffffffffffffffffffffffffffff1673ffffffffffffffffffffffffffffffffffffffff1614159050919050565b600033905090565b816004600083815260200190815260200160002060006101000a81548173ffffffffffffffffffffffffffffffffffffffff021916908373ffffffffffffffffffffffffffffffffffffffff160217905550808273ffffffffffffffffffffffffffffffffffffffff16610e3283610739565b73ffffffffffffffffffffffffffffffffffffffff167f8c5be1e5ebec7d5bd14f71427d1e84f3dd0314c0f7b2291e5b200ac8c7c3b92560405160405180910390a45050565b6000610e8382610d4b565b610ec2576040517f08c379a0000000000000000000000000000000000000000000000000000000008152600401610eb9906121d2565b60405180910390fd5b6000610ecd83610739565b90508073ffffffffffffffffffffffffffffffffffffffff168473ffffffffffffffffffffffffffffffffffffffff161480610f3c57508373ffffffffffffffffffffffffffffffffffffffff16610f24846104f4565b73ffffffffffffffffffffffffffffffffffffffff16145b80610f4d5750610f4c8185610c4d565b5b91505092915050565b8273ffffffffffffffffffffffffffffffffffffffff16610f7682610739565b73ffffffffffffffffffffffffffffffffffffffff1614610fcc576040517f08c379a0000000000000000000000000000000000000000000000000000000008152600401610fc390612292565b60405180910390fd5b600073ffffffffffffffffffffffffffffffffffffffff168273ffffffffffffffffffffffffffffffffffffffff16141561103c576040517f08c379a000000000000000000000000000000000000000000000000000000000815260040161103390612192565b60405180910390fd5b6110478383836115c4565b611052600082610dbf565b6001600360008573ffffffffffffffffffffffffffffffffffffffff1673ffffffffffffffffffffffffffffffffffffffff16815260200190815260200160002060008282546110a29190612458565b925050819055506001600360008473ffffffffffffffffffffffffffffffffffffffff1673ffffffffffffffffffffffffffffffffffffffff16815260200190815260200160002060008282546110f991906123d1565b92505081905550816002600083815260200190815260200160002060006101000a81548173ffffffffffffffffffffffffffffffffffffffff021916908373ffffffffffffffffffffffffffffffffffffffff160217905550808273ffffffffffffffffffffffffffffffffffffffff168473ffffffffffffffffffffffffffffffffffffffff167fddf252ad1be2c89b69c2b068fc378daa952ba7f163c4a11628f55a4df523b3ef60405160405180910390a4505050565b6111bd848484610f56565b6111c9848484846115c9565b611208576040517f08c379a00000000000000000000000000000000000000000000000000000000081526004016111ff90612152565b60405180910390fd5b50505050565b606060405180602001604052806000815250905090565b6060600082141561126d576040518060400160405280600181526020017f300000000000000000000000000000000000000000000000000000000000000081525090506113cd565b600082905060005b6000821461129f57808061128890612574565b915050600a826112989190612427565b9150611275565b60008167ffffffffffffffff8111156112e1577f4e487b7100000000000000000000000000000000000000000000000000000000600052604160045260246000fd5b6040519080825280601f01601f1916602001820160405280156113135781602001600182028036833780820191505090505b5090505b600085146113c65760018261132c9190612458565b9150600a8561133b91906125c7565b603061134791906123d1565b60f81b818381518110611383577f4e487b7100000000000000000000000000000000000000000000000000000000600052603260045260246000fd5b60200101907effffffffffffffffffffffffffffffffffffffffffffffffffffffffffffff1916908160001a905350600a856113bf9190612427565b9450611317565b8093505050505b919050565b6001816000016000828254019250508190555050565b600081600001549050919050565b600073ffffffffffffffffffffffffffffffffffffffff168273ffffffffffffffffffffffffffffffffffffffff161415611466576040517f08c379a000000000000000000000000000000000000000000000000000000000815260040161145d90612252565b60405180910390fd5b61146f81610d4b565b156114af576040517f08c379a00000000000000000000000000000000000000000000000000000000081526004016114a690612172565b60405180910390fd5b6114bb600083836115c4565b6001600360008473ffffffffffffffffffffffffffffffffffffffff1673ffffffffffffffffffffffffffffffffffffffff168152602001908152602001600020600082825461150b91906123d1565b92505081905550816002600083815260200190815260200160002060006101000a81548173ffffffffffffffffffffffffffffffffffffffff021916908373ffffffffffffffffffffffffffffffffffffffff160217905550808273ffffffffffffffffffffffffffffffffffffffff16600073ffffffffffffffffffffffffffffffffffffffff167fddf252ad1be2c89b69c2b068fc378daa952ba7f163c4a11628f55a4df523b3ef60405160405180910390a45050565b505050565b60006115ea8473ffffffffffffffffffffffffffffffffffffffff16611760565b15611753578373ffffffffffffffffffffffffffffffffffffffff1663150b7a02611613610db7565b8786866040518563ffffffff1660e01b815260040161163594939291906120c9565b602060405180830381600087803b15801561164f57600080fd5b505af192505050801561168057506040513d601f19601f8201168201806040525081019061167d9190611a14565b60015b611703573d80600081146116b0576040519150601f19603f3d011682016040523d82523d6000602084013e6116b5565b606091505b506000815114156116fb576040517f08c379a00000000000000000000000000000000000000000000000000000000081526004016116f290612152565b60405180910390fd5b805181602001fd5b63150b7a0260e01b7bffffffffffffffffffffffffffffffffffffffffffffffffffffffff1916817bffffffffffffffffffffffffffffffffffffffffffffffffffffffff191614915050611758565b600190505b949350505050565b600080823b905060008111915050919050565b60006117866117818461235e565b61232d565b90508281526020810184848401111561179e57600080fd5b6117a9848285612500565b509392505050565b6000813590506117c0816126c5565b92915050565b6000813590506117d5816126dc565b92915050565b6000813590506117ea816126f3565b92915050565b6000815190506117ff816126f3565b92915050565b600082601f83011261181657600080fd5b8135611826848260208601611773565b91505092915050565b60008135905061183e8161270a565b92915050565b60006020828403121561185657600080fd5b6000611864848285016117b1565b91505092915050565b6000806040838503121561188057600080fd5b600061188e858286016117b1565b925050602061189f858286016117b1565b9150509250929050565b6000806000606084860312156118be57600080fd5b60006118cc868287016117b1565b93505060206118dd868287016117b1565b92505060406118ee8682870161182f565b9150509250925092565b6000806000806080858703121561190e57600080fd5b600061191c878288016117b1565b945050602061192d878288016117b1565b935050604061193e8782880161182f565b925050606085013567ffffffffffffffff81111561195b57600080fd5b61196787828801611805565b91505092959194509250565b6000806040838503121561198657600080fd5b6000611994858286016117b1565b92505060206119a5858286016117c6565b9150509250929050565b600080604083850312156119c257600080fd5b60006119d0858286016117b1565b92505060206119e18582860161182f565b9150509250929050565b6000602082840312156119fd57600080fd5b6000611a0b848285016117db565b91505092915050565b600060208284031215611a2657600080fd5b6000611a34848285016117f0565b91505092915050565b600060208284031215611a4f57600080fd5b6000611a5d8482850161182f565b91505092915050565b611a6f8161248c565b82525050565b611a7e8161249e565b82525050565b6000611a8f8261238e565b611a9981856123a4565b9350611aa981856020860161250f565b611ab2816126b4565b840191505092915050565b6000611ac882612399565b611ad281856123b5565b9350611ae281856020860161250f565b611aeb816126b4565b840191505092915050565b6000611b0182612399565b611b0b81856123c6565b9350611b1b81856020860161250f565b80840191505092915050565b6000611b346032836123b5565b91507f4552433732313a207472616e7366657220746f206e6f6e20455243373231526560008301527f63656976657220696d706c656d656e74657200000000000000000000000000006020830152604082019050919050565b6000611b9a601c836123b5565b91507f4552433732313a20746f6b656e20616c7265616479206d696e746564000000006000830152602082019050919050565b6000611bda6024836123b5565b91507f4552433732313a207472616e7366657220746f20746865207a65726f2061646460008301527f72657373000000000000000000000000000000000000000000000000000000006020830152604082019050919050565b6000611c406019836123b5565b91507f4552433732313a20617070726f766520746f2063616c6c6572000000000000006000830152602082019050919050565b6000611c80602c836123b5565b91507f4552433732313a206f70657261746f7220717565727920666f72206e6f6e657860008301527f697374656e7420746f6b656e00000000000000000000000000000000000000006020830152604082019050919050565b6000611ce66038836123b5565b91507f4552433732313a20617070726f76652063616c6c6572206973206e6f74206f7760008301527f6e6572206e6f7220617070726f76656420666f7220616c6c00000000000000006020830152604082019050919050565b6000611d4c602a836123b5565b91507f4552433732313a2062616c616e636520717565727920666f7220746865207a6560008301527f726f2061646472657373000000000000000000000000000000000000000000006020830152604082019050919050565b6000611db26029836123b5565b91507f4552433732313a206f776e657220717565727920666f72206e6f6e657869737460008301527f656e7420746f6b656e00000000000000000000000000000000000000000000006020830152604082019050919050565b6000611e186020836123b5565b91507f4552433732313a206d696e7420746f20746865207a65726f20616464726573736000830152602082019050919050565b6000611e58602c836123b5565b91507f4552433732313a20617070726f76656420717565727920666f72206e6f6e657860008301527f697374656e7420746f6b656e00000000000000000000000000000000000000006020830152604082019050919050565b6000611ebe6029836123b5565b91507f4552433732313a207472616e73666572206f6620746f6b656e2074686174206960008301527f73206e6f74206f776e00000000000000000000000000000000000000000000006020830152604082019050919050565b6000611f24602f836123b5565b91507f4552433732314d657461646174613a2055524920717565727920666f72206e6f60008301527f6e6578697374656e7420746f6b656e00000000000000000000000000000000006020830152604082019050919050565b6000611f8a6021836123b5565b91507f4552433732313a20617070726f76616c20746f2063757272656e74206f776e6560008301527f72000000000000000000000000000000000000000000000000000000000000006020830152604082019050919050565b6000611ff06031836123b5565b91507f4552433732313a207472616e736665722063616c6c6572206973206e6f74206f60008301527f776e6572206e6f7220617070726f7665640000000000000000000000000000006020830152604082019050919050565b612052816124f6565b82525050565b612069612064826124f6565b6125bd565b82525050565b600061207b8285611af6565b91506120878284611af6565b91508190509392505050565b600061209f8284612058565b60208201915081905092915050565b60006020820190506120c36000830184611a66565b92915050565b60006080820190506120de6000830187611a66565b6120eb6020830186611a66565b6120f86040830185612049565b818103606083015261210a8184611a84565b905095945050505050565b600060208201905061212a6000830184611a75565b92915050565b6000602082019050818103600083015261214a8184611abd565b905092915050565b6000602082019050818103600083015261216b81611b27565b9050919050565b6000602082019050818103600083015261218b81611b8d565b9050919050565b600060208201905081810360008301526121ab81611bcd565b9050919050565b600060208201905081810360008301526121cb81611c33565b9050919050565b600060208201905081810360008301526121eb81611c73565b9050919050565b6000602082019050818103600083015261220b81611cd9565b9050919050565b6000602082019050818103600083015261222b81611d3f565b9050919050565b6000602082019050818103600083015261224b81611da5565b9050919050565b6000602082019050818103600083015261226b81611e0b565b9050919050565b6000602082019050818103600083015261228b81611e4b565b9050919050565b600060208201905081810360008301526122ab81611eb1565b9050919050565b600060208201905081810360008301526122cb81611f17565b9050919050565b600060208201905081810360008301526122eb81611f7d565b9050919050565b6000602082019050818103600083015261230b81611fe3565b9050919050565b60006020820190506123276000830184612049565b92915050565b6000604051905081810181811067ffffffffffffffff8211171561235457612353612685565b5b8060405250919050565b600067ffffffffffffffff82111561237957612378612685565b5b601f19601f8301169050602081019050919050565b600081519050919050565b600081519050919050565b600082825260208201905092915050565b600082825260208201905092915050565b600081905092915050565b60006123dc826124f6565b91506123e7836124f6565b9250827fffffffffffffffffffffffffffffffffffffffffffffffffffffffffffffffff0382111561241c5761241b6125f8565b5b828201905092915050565b6000612432826124f6565b915061243d836124f6565b92508261244d5761244c612627565b5b828204905092915050565b6000612463826124f6565b915061246e836124f6565b925082821015612481576124806125f8565b5b828203905092915050565b6000612497826124d6565b9050919050565b60008115159050919050565b60007fffffffff0000000000000000000000000000000000000000000000000000000082169050919050565b600073ffffffffffffffffffffffffffffffffffffffff82169050919050565b6000819050919050565b82818337600083830152505050565b60005b8381101561252d578082015181840152602081019050612512565b8381111561253c576000848401525b50505050565b6000600282049050600182168061255a57607f821691505b6020821081141561256e5761256d612656565b5b50919050565b600061257f826124f6565b91507fffffffffffffffffffffffffffffffffffffffffffffffffffffffffffffffff8214156125b2576125b16125f8565b5b600182019050919050565b6000819050919050565b60006125d2826124f6565b91506125dd836124f6565b9250826125ed576125ec612627565b5b828206905092915050565b7f4e487b7100000000000000000000000000000000000000000000000000000000600052601160045260246000fd5b7f4e487b7100000000000000000000000000000000000000000000000000000000600052601260045260246000fd5b7f4e487b7100000000000000000000000000000000000000000000000000000000600052602260045260246000fd5b7f4e487b7100000000000000000000000000000000000000000000000000000000600052604160045260246000fd5b6000601f19601f8301169050919050565b6126ce8161248c565b81146126d957600080fd5b50565b6126e58161249e565b81146126f057600080fd5b50565b6126fc816124aa565b811461270757600080fd5b50565b612713816124f6565b811461271e57600080fd5b5056fea26469706673582212204bb06b58382b60e11db6638939c94091b3e4121282d82c1dc49b1e60718eb25364736f6c63430008000033",
  "linkReferences": {},
  "deployedLinkReferences": {}
}