{
  "_format": "hh-sol-artifact-1",
  "contractName": "MonFT",
  "sourceName": "contracts/MonFT.sol",
  "abi": [
    {
      "inputs": [
        {
          "internalType": "uint256",
          "name": "_numOptions",
          "type": "uint256"
        }
      ],
      "stateMutability": "nonpayable",
      "type": "constructor"
    },
    {
      "anonymous": false,
      "inputs": [
        {
          "indexed": true,
          "internalType": "address",
          "name": "owner",
          "type": "address"
        },
        {
          "indexed": true,
          "internalType": "address",
          "name": "approved",
          "type": "address"
        },
        {
          "indexed": true,
          "internalType": "uint256",
          "name": "tokenId",
          "type": "uint256"
        }
      ],
      "name": "Approval",
      "type": "event"
    },
    {
      "anonymous": false,
      "inputs": [
        {
          "indexed": true,
          "internalType": "address",
          "name": "owner",
          "type": "address"
        },
        {
          "indexed": true,
          "internalType": "address",
          "name": "operator",
          "type": "address"
        },
        {
          "indexed": false,
          "internalType": "bool",
          "name": "approved",
          "type": "bool"
        }
      ],
      "name": "ApprovalForAll",
      "type": "event"
    },
    {
      "anonymous": false,
      "inputs": [
        {
          "indexed": true,
          "internalType": "address",
          "name": "from",
          "type": "address"
        },
        {
          "indexed": true,
          "internalType": "address",
          "name": "to",
          "type": "address"
        },
        {
          "indexed": true,
          "internalType": "uint256",
          "name": "tokenId",
          "type": "uint256"
        }
      ],
      "name": "Transfer",
      "type": "event"
    },
    {
      "inputs": [
        {
          "internalType": "address",
          "name": "to",
          "type": "address"
        },
        {
          "internalType": "uint256",
          "name": "tokenId",
          "type": "uint256"
        }
      ],
      "name": "approve",
      "outputs": [],
      "stateMutability": "nonpayable",
      "type": "function"
    },
    {
      "inputs": [
        {
          "internalType": "address",
          "name": "owner",
          "type": "address"
        }
      ],
      "name": "balanceOf",
      "outputs": [
        {
          "internalType": "uint256",
          "name": "",
          "type": "uint256"
        }
      ],
      "stateMutability": "view",
      "type": "function"
    },
    {
      "inputs": [],
      "name": "dnaLength",
      "outputs": [
        {
          "internalType": "uint256",
          "name": "",
          "type": "uint256"
        }
      ],
      "stateMutability": "view",
      "type": "function"
    },
    {
      "inputs": [
        {
          "internalType": "uint256",
          "name": "",
          "type": "uint256"
        }
      ],
      "name": "dnaSequences",
      "outputs": [
        {
          "internalType": "uint256",
          "name": "arms",
          "type": "uint256"
        },
        {
          "internalType": "uint256",
          "name": "body",
          "type": "uint256"
        },
        {
          "internalType": "uint256",
          "name": "ears",
          "type": "uint256"
        },
        {
          "internalType": "uint256",
          "name": "eyes",
          "type": "uint256"
        },
        {
          "internalType": "uint256",
          "name": "legs",
          "type": "uint256"
        },
        {
          "internalType": "uint256",
          "name": "nose",
          "type": "uint256"
        },
        {
          "internalType": "uint256",
          "name": "mouth",
          "type": "uint256"
        },
        {
          "internalType": "uint256",
          "name": "wings",
          "type": "uint256"
        },
        {
          "internalType": "uint256",
          "name": "mutations",
          "type": "uint256"
        }
      ],
      "stateMutability": "view",
      "type": "function"
    },
    {
      "inputs": [
        {
          "internalType": "uint256",
          "name": "max",
          "type": "uint256"
        }
      ],
      "name": "generateRandomNumber",
      "outputs": [
        {
          "internalType": "uint256",
          "name": "",
          "type": "uint256"
        }
      ],
      "stateMutability": "view",
      "type": "function"
    },
    {
      "inputs": [
        {
          "internalType": "uint256",
          "name": "tokenId",
          "type": "uint256"
        }
      ],
      "name": "getApproved",
      "outputs": [
        {
          "internalType": "address",
          "name": "",
          "type": "address"
        }
      ],
      "stateMutability": "view",
      "type": "function"
    },
    {
      "inputs": [
        {
          "internalType": "uint256",
          "name": "tokenId",
          "type": "uint256"
        }
      ],
      "name": "getBodyData",
      "outputs": [
        {
          "internalType": "uint256",
          "name": "",
          "type": "uint256"
        },
        {
          "internalType": "uint256",
          "name": "",
          "type": "uint256"
        },
        {
          "internalType": "uint256",
          "name": "",
          "type": "uint256"
        },
        {
          "internalType": "uint256",
          "name": "",
          "type": "uint256"
        }
      ],
      "stateMutability": "view",
      "type": "function"
    },
    {
      "inputs": [
        {
          "internalType": "uint256",
          "name": "tokenId",
          "type": "uint256"
        }
      ],
      "name": "getFaceData",
      "outputs": [
        {
          "internalType": "uint256",
          "name": "",
          "type": "uint256"
        },
        {
          "internalType": "uint256",
          "name": "",
          "type": "uint256"
        },
        {
          "internalType": "uint256",
          "name": "",
          "type": "uint256"
        },
        {
          "internalType": "uint256",
          "name": "",
          "type": "uint256"
        }
      ],
      "stateMutability": "view",
      "type": "function"
    },
    {
      "inputs": [
        {
          "internalType": "uint256",
          "name": "tokenId",
          "type": "uint256"
        }
      ],
      "name": "initializeDna",
      "outputs": [],
      "stateMutability": "nonpayable",
      "type": "function"
    },
    {
      "inputs": [
        {
          "internalType": "address",
          "name": "owner",
          "type": "address"
        },
        {
          "internalType": "address",
          "name": "operator",
          "type": "address"
        }
      ],
      "name": "isApprovedForAll",
      "outputs": [
        {
          "internalType": "bool",
          "name": "",
          "type": "bool"
        }
      ],
      "stateMutability": "view",
      "type": "function"
    },
    {
      "inputs": [],
      "name": "mintMon",
      "outputs": [
        {
          "internalType": "uint256",
          "name": "",
          "type": "uint256"
        }
      ],
      "stateMutability": "nonpayable",
      "type": "function"
    },
    {
      "inputs": [
        {
          "internalType": "uint256",
          "name": "tokenId",
          "type": "uint256"
        }
      ],
      "name": "mutate",
      "outputs": [],
      "stateMutability": "nonpayable",
      "type": "function"
    },
    {
      "inputs": [],
      "name": "name",
      "outputs": [
        {
          "internalType": "string",
          "name": "",
          "type": "string"
        }
      ],
      "stateMutability": "view",
      "type": "function"
    },
    {
      "inputs": [],
      "name": "numOptions",
      "outputs": [
        {
          "internalType": "uint256",
          "name": "",
          "type": "uint256"
        }
      ],
      "stateMutability": "view",
      "type": "function"
    },
    {
      "inputs": [
        {
          "internalType": "uint256",
          "name": "tokenId",
          "type": "uint256"
        }
      ],
      "name": "ownerOf",
      "outputs": [
        {
          "internalType": "address",
          "name": "",
          "type": "address"
        }
      ],
      "stateMutability": "view",
      "type": "function"
    },
    {
      "inputs": [
        {
          "internalType": "address",
          "name": "from",
          "type": "address"
        },
        {
          "internalType": "address",
          "name": "to",
          "type": "address"
        },
        {
          "internalType": "uint256",
          "name": "tokenId",
          "type": "uint256"
        }
      ],
      "name": "safeTransferFrom",
      "outputs": [],
      "stateMutability": "nonpayable",
      "type": "function"
    },
    {
      "inputs": [
        {
          "internalType": "address",
          "name": "from",
          "type": "address"
        },
        {
          "internalType": "address",
          "name": "to",
          "type": "address"
        },
        {
          "internalType": "uint256",
          "name": "tokenId",
          "type": "uint256"
        },
        {
          "internalType": "bytes",
          "name": "_data",
          "type": "bytes"
        }
      ],
      "name": "safeTransferFrom",
      "outputs": [],
      "stateMutability": "nonpayable",
      "type": "function"
    },
    {
      "inputs": [
        {
          "internalType": "address",
          "name": "operator",
          "type": "address"
        },
        {
          "internalType": "bool",
          "name": "approved",
          "type": "bool"
        }
      ],
      "name": "setApprovalForAll",
      "outputs": [],
      "stateMutability": "nonpayable",
      "type": "function"
    },
    {
      "inputs": [
        {
          "internalType": "bytes4",
          "name": "interfaceId",
          "type": "bytes4"
        }
      ],
      "name": "supportsInterface",
      "outputs": [
        {
          "internalType": "bool",
          "name": "",
          "type": "bool"
        }
      ],
      "stateMutability": "view",
      "type": "function"
    },
    {
      "inputs": [],
      "name": "symbol",
      "outputs": [
        {
          "internalType": "string",
          "name": "",
          "type": "string"
        }
      ],
      "stateMutability": "view",
      "type": "function"
    },
    {
      "inputs": [
        {
          "internalType": "uint256",
          "name": "tokenId",
          "type": "uint256"
        }
      ],
      "name": "tokenURI",
      "outputs": [
        {
          "internalType": "string",
          "name": "",
          "type": "string"
        }
      ],
      "stateMutability": "view",
      "type": "function"
    },
    {
      "inputs": [
        {
          "internalType": "address",
          "name": "from",
          "type": "address"
        },
        {
          "internalType": "address",
          "name": "to",
          "type": "address"
        },
        {
          "internalType": "uint256",
          "name": "tokenId",
          "type": "uint256"
        }
      ],
      "name": "transferFrom",
      "outputs": [],
      "stateMutability": "nonpayable",
      "type": "function"
    },
    {
      "inputs": [
        {
          "internalType": "address",
          "name": "from",
          "type": "address"
        },
        {
          "internalType": "address",
          "name": "to",
          "type": "address"
        },
        {
          "internalType": "uint256",
          "name": "tokenId",
          "type": "uint256"
        }
      ],
      "name": "transferMon",
      "outputs": [],
      "stateMutability": "nonpayable",
      "type": "function"
    }
  ],
  "bytecode": "0x60806040523480156200001157600080fd5b5060405162003058380380620030588339818101604052810190620000379190620001ac565b6040518060400160405280600581526020017f4d6f6e46540000000000000000000000000000000000000000000000000000008152506040518060400160405280600381526020017f4d465400000000000000000000000000000000000000000000000000000000008152508160009080519060200190620000bb929190620000e5565b508060019080519060200190620000d4929190620000e5565b505050806008819055505062000261565b828054620000f390620001e2565b90600052602060002090601f01602090048101928262000117576000855562000163565b82601f106200013257805160ff191683800117855562000163565b8280016001018555821562000163579182015b828111156200016257825182559160200191906001019062000145565b5b50905062000172919062000176565b5090565b5b808211156200019157600081600090555060010162000177565b5090565b600081519050620001a68162000247565b92915050565b600060208284031215620001bf57600080fd5b6000620001cf8482850162000195565b91505092915050565b6000819050919050565b60006002820490506001821680620001fb57607f821691505b6020821081141562000212576200021162000218565b5b50919050565b7f4e487b7100000000000000000000000000000000000000000000000000000000600052602260045260246000fd5b6200025281620001d8565b81146200025e57600080fd5b50565b612de780620002716000396000f3fe608060405234801561001057600080fd5b506004361061014d5760003560e01c80636352211e116100c3578063b88d4fde1161007c578063b88d4fde146103cd578063c87b56dd146103e9578063c9efaea414610419578063db5cc18114610437578063e985e9c51461046a578063fe1df35c1461049a5761014d565b80636352211e146102f957806370a0823114610329578063713b988b14610359578063956d17781461037557806395d89b4114610393578063a22cb465146103b15761014d565b806311e5a9471161011557806311e5a947146102245780632236e18b1461024057806323b872dd1461027357806342842e0e1461028f5780634303707e146102ab5780634b97aed9146102db5761014d565b806301ffc9a714610152578063052016d61461018257806306fdde03146101ba578063081812fc146101d8578063095ea7b314610208575b600080fd5b61016c60048036038101906101679190611f50565b6104b6565b60405161017991906126a2565b60405180910390f35b61019c60048036038101906101979190611fa2565b610598565b6040516101b1999897969594939291906128ff565b60405180910390f35b6101c26105e6565b6040516101cf91906126bd565b60405180910390f35b6101f260048036038101906101ed9190611fa2565b610678565b6040516101ff919061263b565b60405180910390f35b610222600480360381019061021d9190611f14565b6106fd565b005b61023e60048036038101906102399190611e0e565b610815565b005b61025a60048036038101906102559190611fa2565b61082e565b60405161026a94939291906128ba565b60405180910390f35b61028d60048036038101906102889190611e0e565b61089f565b005b6102a960048036038101906102a49190611e0e565b6108ff565b005b6102c560048036038101906102c09190611fa2565b61091f565b6040516102d2919061289f565b60405180910390f35b6102e3610970565b6040516102f0919061289f565b60405180910390f35b610313600480360381019061030e9190611fa2565b610976565b604051610320919061263b565b60405180910390f35b610343600480360381019061033e9190611da9565b610a28565b604051610350919061289f565b60405180910390f35b610373600480360381019061036e9190611fa2565b610ae0565b005b61037d610cfc565b60405161038a919061289f565b60405180910390f35b61039b610d02565b6040516103a891906126bd565b60405180910390f35b6103cb60048036038101906103c69190611ed8565b610d94565b005b6103e760048036038101906103e29190611e5d565b610f15565b005b61040360048036038101906103fe9190611fa2565b610f77565b60405161041091906126bd565b60405180910390f35b61042161101e565b60405161042e919061289f565b60405180910390f35b610451600480360381019061044c9190611fa2565b611052565b60405161046194939291906128ba565b60405180910390f35b610484600480360381019061047f9190611dd2565b6110c3565b60405161049191906126a2565b60405180910390f35b6104b460048036038101906104af9190611fa2565b611157565b005b60007f80ac58cd000000000000000000000000000000000000000000000000000000007bffffffffffffffffffffffffffffffffffffffffffffffffffffffff1916827bffffffffffffffffffffffffffffffffffffffffffffffffffffffff1916148061058157507f5b5e139f000000000000000000000000000000000000000000000000000000007bffffffffffffffffffffffffffffffffffffffffffffffffffffffff1916827bffffffffffffffffffffffffffffffffffffffffffffffffffffffff1916145b80610591575061059082611214565b5b9050919050565b60096020528060005260406000206000915090508060000154908060010154908060020154908060030154908060040154908060050154908060060154908060070154908060080154905089565b6060600080546105f590612ba1565b80601f016020809104026020016040519081016040528092919081815260200182805461062190612ba1565b801561066e5780601f106106435761010080835404028352916020019161066e565b820191906000526020600020905b81548152906001019060200180831161065157829003601f168201915b5050505050905090565b60006106838261127e565b6106c2576040517f08c379a00000000000000000000000000000000000000000000000000000000081526004016106b9906127ff565b60405180910390fd5b6004600083815260200190815260200160002060009054906101000a900473ffffffffffffffffffffffffffffffffffffffff169050919050565b600061070882610976565b90508073ffffffffffffffffffffffffffffffffffffffff168373ffffffffffffffffffffffffffffffffffffffff161415610779576040517f08c379a00000000000000000000000000000000000000000000000000000000081526004016107709061285f565b60405180910390fd5b8073ffffffffffffffffffffffffffffffffffffffff166107986112ea565b73ffffffffffffffffffffffffffffffffffffffff1614806107c757506107c6816107c16112ea565b6110c3565b5b610806576040517f08c379a00000000000000000000000000000000000000000000000000000000081526004016107fd9061277f565b60405180910390fd5b61081083836112f2565b505050565b61081e81610ae0565b6108298383836108ff565b505050565b600080600080600960008681526020019081526020016000206002015460096000878152602001908152602001600020600301546009600088815260200190815260200160002060050154600960008981526020019081526020016000206006015493509350935093509193509193565b6108b06108aa6112ea565b826113ab565b6108ef576040517f08c379a00000000000000000000000000000000000000000000000000000000081526004016108e69061287f565b60405180910390fd5b6108fa838383611489565b505050565b61091a83838360405180602001604052806000815250610f15565b505050565b60008082423360405160200161093692919061260f565b6040516020818303038152906040528051906020012060001c6109599190612c4a565b90506001816109689190612a30565b915050919050565b60085481565b6000806002600084815260200190815260200160002060009054906101000a900473ffffffffffffffffffffffffffffffffffffffff169050600073ffffffffffffffffffffffffffffffffffffffff168173ffffffffffffffffffffffffffffffffffffffff161415610a1f576040517f08c379a0000000000000000000000000000000000000000000000000000000008152600401610a16906127bf565b60405180910390fd5b80915050919050565b60008073ffffffffffffffffffffffffffffffffffffffff168273ffffffffffffffffffffffffffffffffffffffff161415610a99576040517f08c379a0000000000000000000000000000000000000000000000000000000008152600401610a909061279f565b60405180910390fd5b600360008373ffffffffffffffffffffffffffffffffffffffff1673ffffffffffffffffffffffffffffffffffffffff168152602001908152602001600020549050919050565b6000610aec600761091f565b90506000610afb60085461091f565b90506001821415610b4557610b266009600085815260200190815260200160002060000154826116e5565b6009600085815260200190815260200160002060000181905550610cf7565b6002821415610b8d57610b6e6009600085815260200190815260200160002060020154826116e5565b6009600085815260200190815260200160002060020181905550610cf6565b6003821415610bd557610bb66009600085815260200190815260200160002060030154826116e5565b6009600085815260200190815260200160002060030181905550610cf5565b6004821415610c1d57610bfe6009600085815260200190815260200160002060040154826116e5565b6009600085815260200190815260200160002060040181905550610cf4565b6005821415610c6557610c466009600085815260200190815260200160002060050154826116e5565b6009600085815260200190815260200160002060050181905550610cf3565b6006821415610cad57610c8e6009600085815260200190815260200160002060060154826116e5565b6009600085815260200190815260200160002060060181905550610cf2565b6007821415610cf157610cd66009600085815260200190815260200160002060070154826116e5565b60096000858152602001908152602001600020600701819055505b5b5b5b5b5b5b505050565b60075481565b606060018054610d1190612ba1565b80601f0160208091040260200160405190810160405280929190818152602001828054610d3d90612ba1565b8015610d8a5780601f10610d5f57610100808354040283529160200191610d8a565b820191906000526020600020905b815481529060010190602001808311610d6d57829003601f168201915b5050505050905090565b610d9c6112ea565b73ffffffffffffffffffffffffffffffffffffffff168273ffffffffffffffffffffffffffffffffffffffff161415610e0a576040517f08c379a0000000000000000000000000000000000000000000000000000000008152600401610e019061273f565b60405180910390fd5b8060056000610e176112ea565b73ffffffffffffffffffffffffffffffffffffffff1673ffffffffffffffffffffffffffffffffffffffff16815260200190815260200160002060008473ffffffffffffffffffffffffffffffffffffffff1673ffffffffffffffffffffffffffffffffffffffff16815260200190815260200160002060006101000a81548160ff0219169083151502179055508173ffffffffffffffffffffffffffffffffffffffff16610ec46112ea565b73ffffffffffffffffffffffffffffffffffffffff167f17307eab39ab6107e8899845ad3d59bd9653f200f220920489ca2b5937696c3183604051610f0991906126a2565b60405180910390a35050565b610f26610f206112ea565b836113ab565b610f65576040517f08c379a0000000000000000000000000000000000000000000000000000000008152600401610f5c9061287f565b60405180910390fd5b610f7184848484611717565b50505050565b6060610f828261127e565b610fc1576040517f08c379a0000000000000000000000000000000000000000000000000000000008152600401610fb89061283f565b60405180910390fd5b6000610fcb611773565b90506000815111610feb5760405180602001604052806000815250611016565b80610ff58461178a565b6040516020016110069291906125eb565b6040516020818303038152906040525b915050919050565b600061102a6006611937565b6000611036600661194d565b905061104181611157565b61104b338261195b565b8091505090565b600080600080600960008681526020019081526020016000206000015460096000878152602001908152602001600020600101546009600088815260200190815260200160002060040154600960008981526020019081526020016000206007015493509350935093509193509193565b6000600560008473ffffffffffffffffffffffffffffffffffffffff1673ffffffffffffffffffffffffffffffffffffffff16815260200190815260200160002060008373ffffffffffffffffffffffffffffffffffffffff1673ffffffffffffffffffffffffffffffffffffffff16815260200190815260200160002060009054906101000a900460ff16905092915050565b6040518061012001604052806000815260200160018152602001600081526020016000815260200160008152602001600081526020016000815260200160008152602001600081525060096000838152602001908152602001600020600082015181600001556020820151816001015560408201518160020155606082015181600301556080820151816004015560a0820151816005015560c0820151816006015560e08201518160070155610100820151816008015590505050565b60007f01ffc9a7000000000000000000000000000000000000000000000000000000007bffffffffffffffffffffffffffffffffffffffffffffffffffffffff1916827bffffffffffffffffffffffffffffffffffffffffffffffffffffffff1916149050919050565b60008073ffffffffffffffffffffffffffffffffffffffff166002600084815260200190815260200160002060009054906101000a900473ffffffffffffffffffffffffffffffffffffffff1673ffffffffffffffffffffffffffffffffffffffff1614159050919050565b600033905090565b816004600083815260200190815260200160002060006101000a81548173ffffffffffffffffffffffffffffffffffffffff021916908373ffffffffffffffffffffffffffffffffffffffff160217905550808273ffffffffffffffffffffffffffffffffffffffff1661136583610976565b73ffffffffffffffffffffffffffffffffffffffff167f8c5be1e5ebec7d5bd14f71427d1e84f3dd0314c0f7b2291e5b200ac8c7c3b92560405160405180910390a45050565b60006113b68261127e565b6113f5576040517f08c379a00000000000000000000000000000000000000000000000000000000081526004016113ec9061275f565b60405180910390fd5b600061140083610976565b90508073ffffffffffffffffffffffffffffffffffffffff168473ffffffffffffffffffffffffffffffffffffffff16148061146f57508373ffffffffffffffffffffffffffffffffffffffff1661145784610678565b73ffffffffffffffffffffffffffffffffffffffff16145b80611480575061147f81856110c3565b5b91505092915050565b8273ffffffffffffffffffffffffffffffffffffffff166114a982610976565b73ffffffffffffffffffffffffffffffffffffffff16146114ff576040517f08c379a00000000000000000000000000000000000000000000000000000000081526004016114f69061281f565b60405180910390fd5b600073ffffffffffffffffffffffffffffffffffffffff168273ffffffffffffffffffffffffffffffffffffffff16141561156f576040517f08c379a00000000000000000000000000000000000000000000000000000000081526004016115669061271f565b60405180910390fd5b61157a838383611b29565b6115856000826112f2565b6001600360008573ffffffffffffffffffffffffffffffffffffffff1673ffffffffffffffffffffffffffffffffffffffff16815260200190815260200160002060008282546115d59190612ab7565b925050819055506001600360008473ffffffffffffffffffffffffffffffffffffffff1673ffffffffffffffffffffffffffffffffffffffff168152602001908152602001600020600082825461162c9190612a30565b92505081905550816002600083815260200190815260200160002060006101000a81548173ffffffffffffffffffffffffffffffffffffffff021916908373ffffffffffffffffffffffffffffffffffffffff160217905550808273ffffffffffffffffffffffffffffffffffffffff168473ffffffffffffffffffffffffffffffffffffffff167fddf252ad1be2c89b69c2b068fc378daa952ba7f163c4a11628f55a4df523b3ef60405160405180910390a4505050565b60008282146116f4578161170f565b6008546001836117049190612a30565b61170e9190612c4a565b5b905092915050565b611722848484611489565b61172e84848484611b2e565b61176d576040517f08c379a0000000000000000000000000000000000000000000000000000000008152600401611764906126df565b60405180910390fd5b50505050565b606060405180602001604052806000815250905090565b606060008214156117d2576040518060400160405280600181526020017f30000000000000000000000000000000000000000000000000000000000000008152509050611932565b600082905060005b600082146118045780806117ed90612bd3565b915050600a826117fd9190612a86565b91506117da565b60008167ffffffffffffffff811115611846577f4e487b7100000000000000000000000000000000000000000000000000000000600052604160045260246000fd5b6040519080825280601f01601f1916602001820160405280156118785781602001600182028036833780820191505090505b5090505b6000851461192b576001826118919190612ab7565b9150600a856118a09190612c4a565b60306118ac9190612a30565b60f81b8183815181106118e8577f4e487b7100000000000000000000000000000000000000000000000000000000600052603260045260246000fd5b60200101907effffffffffffffffffffffffffffffffffffffffffffffffffffffffffffff1916908160001a905350600a856119249190612a86565b945061187c565b8093505050505b919050565b6001816000016000828254019250508190555050565b600081600001549050919050565b600073ffffffffffffffffffffffffffffffffffffffff168273ffffffffffffffffffffffffffffffffffffffff1614156119cb576040517f08c379a00000000000000000000000000000000000000000000000000000000081526004016119c2906127df565b60405180910390fd5b6119d48161127e565b15611a14576040517f08c379a0000000000000000000000000000000000000000000000000000000008152600401611a0b906126ff565b60405180910390fd5b611a2060008383611b29565b6001600360008473ffffffffffffffffffffffffffffffffffffffff1673ffffffffffffffffffffffffffffffffffffffff1681526020019081526020016000206000828254611a709190612a30565b92505081905550816002600083815260200190815260200160002060006101000a81548173ffffffffffffffffffffffffffffffffffffffff021916908373ffffffffffffffffffffffffffffffffffffffff160217905550808273ffffffffffffffffffffffffffffffffffffffff16600073ffffffffffffffffffffffffffffffffffffffff167fddf252ad1be2c89b69c2b068fc378daa952ba7f163c4a11628f55a4df523b3ef60405160405180910390a45050565b505050565b6000611b4f8473ffffffffffffffffffffffffffffffffffffffff16611cc5565b15611cb8578373ffffffffffffffffffffffffffffffffffffffff1663150b7a02611b786112ea565b8786866040518563ffffffff1660e01b8152600401611b9a9493929190612656565b602060405180830381600087803b158015611bb457600080fd5b505af1925050508015611be557506040513d601f19601f82011682018060405250810190611be29190611f79565b60015b611c68573d8060008114611c15576040519150601f19603f3d011682016040523d82523d6000602084013e611c1a565b606091505b50600081511415611c60576040517f08c379a0000000000000000000000000000000000000000000000000000000008152600401611c57906126df565b60405180910390fd5b805181602001fd5b63150b7a0260e01b7bffffffffffffffffffffffffffffffffffffffffffffffffffffffff1916817bffffffffffffffffffffffffffffffffffffffffffffffffffffffff191614915050611cbd565b600190505b949350505050565b600080823b905060008111915050919050565b6000611ceb611ce6846129bd565b61298c565b905082815260208101848484011115611d0357600080fd5b611d0e848285612b5f565b509392505050565b600081359050611d2581612d55565b92915050565b600081359050611d3a81612d6c565b92915050565b600081359050611d4f81612d83565b92915050565b600081519050611d6481612d83565b92915050565b600082601f830112611d7b57600080fd5b8135611d8b848260208601611cd8565b91505092915050565b600081359050611da381612d9a565b92915050565b600060208284031215611dbb57600080fd5b6000611dc984828501611d16565b91505092915050565b60008060408385031215611de557600080fd5b6000611df385828601611d16565b9250506020611e0485828601611d16565b9150509250929050565b600080600060608486031215611e2357600080fd5b6000611e3186828701611d16565b9350506020611e4286828701611d16565b9250506040611e5386828701611d94565b9150509250925092565b60008060008060808587031215611e7357600080fd5b6000611e8187828801611d16565b9450506020611e9287828801611d16565b9350506040611ea387828801611d94565b925050606085013567ffffffffffffffff811115611ec057600080fd5b611ecc87828801611d6a565b91505092959194509250565b60008060408385031215611eeb57600080fd5b6000611ef985828601611d16565b9250506020611f0a85828601611d2b565b9150509250929050565b60008060408385031215611f2757600080fd5b6000611f3585828601611d16565b9250506020611f4685828601611d94565b9150509250929050565b600060208284031215611f6257600080fd5b6000611f7084828501611d40565b91505092915050565b600060208284031215611f8b57600080fd5b6000611f9984828501611d55565b91505092915050565b600060208284031215611fb457600080fd5b6000611fc284828501611d94565b91505092915050565b611fd481612aeb565b82525050565b611feb611fe682612aeb565b612c1c565b82525050565b611ffa81612afd565b82525050565b600061200b826129ed565b6120158185612a03565b9350612025818560208601612b6e565b61202e81612d37565b840191505092915050565b6000612044826129f8565b61204e8185612a14565b935061205e818560208601612b6e565b61206781612d37565b840191505092915050565b600061207d826129f8565b6120878185612a25565b9350612097818560208601612b6e565b80840191505092915050565b60006120b0603283612a14565b91507f4552433732313a207472616e7366657220746f206e6f6e20455243373231526560008301527f63656976657220696d706c656d656e74657200000000000000000000000000006020830152604082019050919050565b6000612116601c83612a14565b91507f4552433732313a20746f6b656e20616c7265616479206d696e746564000000006000830152602082019050919050565b6000612156602483612a14565b91507f4552433732313a207472616e7366657220746f20746865207a65726f2061646460008301527f72657373000000000000000000000000000000000000000000000000000000006020830152604082019050919050565b60006121bc601983612a14565b91507f4552433732313a20617070726f766520746f2063616c6c6572000000000000006000830152602082019050919050565b60006121fc602c83612a14565b91507f4552433732313a206f70657261746f7220717565727920666f72206e6f6e657860008301527f697374656e7420746f6b656e00000000000000000000000000000000000000006020830152604082019050919050565b6000612262603883612a14565b91507f4552433732313a20617070726f76652063616c6c6572206973206e6f74206f7760008301527f6e6572206e6f7220617070726f76656420666f7220616c6c00000000000000006020830152604082019050919050565b60006122c8602a83612a14565b91507f4552433732313a2062616c616e636520717565727920666f7220746865207a6560008301527f726f2061646472657373000000000000000000000000000000000000000000006020830152604082019050919050565b600061232e602983612a14565b91507f4552433732313a206f776e657220717565727920666f72206e6f6e657869737460008301527f656e7420746f6b656e00000000000000000000000000000000000000000000006020830152604082019050919050565b6000612394602083612a14565b91507f4552433732313a206d696e7420746f20746865207a65726f20616464726573736000830152602082019050919050565b60006123d4602c83612a14565b91507f4552433732313a20617070726f76656420717565727920666f72206e6f6e657860008301527f697374656e7420746f6b656e00000000000000000000000000000000000000006020830152604082019050919050565b600061243a602983612a14565b91507f4552433732313a207472616e73666572206f6620746f6b656e2074686174206960008301527f73206e6f74206f776e00000000000000000000000000000000000000000000006020830152604082019050919050565b60006124a0602f83612a14565b91507f4552433732314d657461646174613a2055524920717565727920666f72206e6f60008301527f6e6578697374656e7420746f6b656e00000000000000000000000000000000006020830152604082019050919050565b6000612506602183612a14565b91507f4552433732313a20617070726f76616c20746f2063757272656e74206f776e6560008301527f72000000000000000000000000000000000000000000000000000000000000006020830152604082019050919050565b600061256c603183612a14565b91507f4552433732313a207472616e736665722063616c6c6572206973206e6f74206f60008301527f776e6572206e6f7220617070726f7665640000000000000000000000000000006020830152604082019050919050565b6125ce81612b55565b82525050565b6125e56125e082612b55565b612c40565b82525050565b60006125f78285612072565b91506126038284612072565b91508190509392505050565b600061261b82856125d4565b60208201915061262b8284611fda565b6014820191508190509392505050565b60006020820190506126506000830184611fcb565b92915050565b600060808201905061266b6000830187611fcb565b6126786020830186611fcb565b61268560408301856125c5565b81810360608301526126978184612000565b905095945050505050565b60006020820190506126b76000830184611ff1565b92915050565b600060208201905081810360008301526126d78184612039565b905092915050565b600060208201905081810360008301526126f8816120a3565b9050919050565b6000602082019050818103600083015261271881612109565b9050919050565b6000602082019050818103600083015261273881612149565b9050919050565b60006020820190508181036000830152612758816121af565b9050919050565b60006020820190508181036000830152612778816121ef565b9050919050565b6000602082019050818103600083015261279881612255565b9050919050565b600060208201905081810360008301526127b8816122bb565b9050919050565b600060208201905081810360008301526127d881612321565b9050919050565b600060208201905081810360008301526127f881612387565b9050919050565b60006020820190508181036000830152612818816123c7565b9050919050565b600060208201905081810360008301526128388161242d565b9050919050565b6000602082019050818103600083015261285881612493565b9050919050565b60006020820190508181036000830152612878816124f9565b9050919050565b600060208201905081810360008301526128988161255f565b9050919050565b60006020820190506128b460008301846125c5565b92915050565b60006080820190506128cf60008301876125c5565b6128dc60208301866125c5565b6128e960408301856125c5565b6128f660608301846125c5565b95945050505050565b600061012082019050612915600083018c6125c5565b612922602083018b6125c5565b61292f604083018a6125c5565b61293c60608301896125c5565b61294960808301886125c5565b61295660a08301876125c5565b61296360c08301866125c5565b61297060e08301856125c5565b61297e6101008301846125c5565b9a9950505050505050505050565b6000604051905081810181811067ffffffffffffffff821117156129b3576129b2612d08565b5b8060405250919050565b600067ffffffffffffffff8211156129d8576129d7612d08565b5b601f19601f8301169050602081019050919050565b600081519050919050565b600081519050919050565b600082825260208201905092915050565b600082825260208201905092915050565b600081905092915050565b6000612a3b82612b55565b9150612a4683612b55565b9250827fffffffffffffffffffffffffffffffffffffffffffffffffffffffffffffffff03821115612a7b57612a7a612c7b565b5b828201905092915050565b6000612a9182612b55565b9150612a9c83612b55565b925082612aac57612aab612caa565b5b828204905092915050565b6000612ac282612b55565b9150612acd83612b55565b925082821015612ae057612adf612c7b565b5b828203905092915050565b6000612af682612b35565b9050919050565b60008115159050919050565b60007fffffffff0000000000000000000000000000000000000000000000000000000082169050919050565b600073ffffffffffffffffffffffffffffffffffffffff82169050919050565b6000819050919050565b82818337600083830152505050565b60005b83811015612b8c578082015181840152602081019050612b71565b83811115612b9b576000848401525b50505050565b60006002820490506001821680612bb957607f821691505b60208210811415612bcd57612bcc612cd9565b5b50919050565b6000612bde82612b55565b91507fffffffffffffffffffffffffffffffffffffffffffffffffffffffffffffffff821415612c1157612c10612c7b565b5b600182019050919050565b6000612c2782612c2e565b9050919050565b6000612c3982612d48565b9050919050565b6000819050919050565b6000612c5582612b55565b9150612c6083612b55565b925082612c7057612c6f612caa565b5b828206905092915050565b7f4e487b7100000000000000000000000000000000000000000000000000000000600052601160045260246000fd5b7f4e487b7100000000000000000000000000000000000000000000000000000000600052601260045260246000fd5b7f4e487b7100000000000000000000000000000000000000000000000000000000600052602260045260246000fd5b7f4e487b7100000000000000000000000000000000000000000000000000000000600052604160045260246000fd5b6000601f19601f8301169050919050565b60008160601b9050919050565b612d5e81612aeb565b8114612d6957600080fd5b50565b612d7581612afd565b8114612d8057600080fd5b50565b612d8c81612b09565b8114612d9757600080fd5b50565b612da381612b55565b8114612dae57600080fd5b5056fea26469706673582212200874b74fc6d0a00f943f9ad8ba5ef272ce8da1abac37c570200dab477201215b64736f6c63430008000033",
  "linkReferences": {},
  "deployedLinkReferences": {}
}